:10372700060A000000000000011400011001041542
:103737000000000004190000000001120001090147
:093747000111000108000113004A
:10385E00E4AB18AA17A916A815FEFDFCD30220D3B7
:0C386E0034FFFCE4FAF9F8122076E422A2
:102EB400E4F5A012310EE4FFFE1236C51239B11248
:102EC4002ACA122F85BF01F7E4857318857217F596
:102ED40016F515E51824D0FFE51734FEFEE5163483
:102EE400FFFDE5157BAF12386E7B5E7A0DF9F812A3
:102EF40035FF8F188E178D168C15E485751C857417
:102F04001BF51AF519251CFFE51B34FFFEE51A34E1
:102F1400FFFDE5197BDB12386E7B707A0DF9F81230
:102F240035FF8F1C8E1B8D1A8C197FAE12385E40B4
:102F34000AE47518AEF517F516F515E47FDAAB1C3F
:102F4400AA1BA91AA819123867400AE4751CDAF5F5
:102F54001BF51AF5197F7312385E5003022EC3E471
:102F64007F18FEFDFCAB1CAA1BA91AA8191220D3BA
:102F74004003022EC312269CE4FFFE1236C5022E25
:012F8400C389
:093A17008F80C2A5D2A5D2A7221E
:10380200E4FDFCC3ED9FEC9E5014E4FBFA0BBB00FD
:0E381200010AEBF44A70F60DBD00010C80E5D2
:013820002285
:0A39E500C2A7D2B2C2A6123A1722FE
:0439C1001239E5FFD3
:0A39C500C2A7D2B2D2A6123A17220E
:10310E00D2B37FC87E00123802C2B37F207E031274
:10311E003802D2B3123802C2A77F367E001239E5CA
:10312E007FC81239C57F3A1239E57F051239C57F3E
:10313E00FE1239E57FEF1239E57FE21239E57F8025
:10314E001239C57FA31239E57F071239C57FA41244
:10315E0039E57F091239C57FFF1239E57F12123921
:10316E00C57FFD1239E57F041239C57FF51239E5A9
:10317E00E4FF1239C57FFB1239C17FF11239E57FA9
:10318E00551239C57FF81239E57F221239C57FF302
:10319E001239E57F521239C57FFA1239E57F2512B1
:1031AE0039C57FF41239C17FFC1239C17F11123932
:1031BE00E57F781238027F291239E57F3202380214
:103686008F828E837F2A7E001239E5E583FF123909
:10369600C5AF821239C5EAFF1239C5AF031239C563
:1036A6007F2B1239E5ECFF1239C5AF051239C5E596
:0F36B6004EFF1239C5AF4F1239C57F2C0239E5CF
:10391B00AD07AC06C2A7D2B2D2A6ECFF8F80C2A570
:08392B00D2A58D80123A192289
:0436C5008E248F259B
:1036C900754E00754FDB7BAF7A00E4FDFCFFFE12FF
:1036D9003686E4FB900000AF25AE2412391BA3E522
:1036E9008264B0458370F00BBB00010AEB64DC4ACD
:0236F90070E27D
:0136FB0022AC
:10001E00C6D50000000000E0380000783C00003C2F
:10002E007800003C70C0001CE1E01FFFFFF0001CD8
:10003E00E3000E1CE7C0079CE78003DCEF0003DC47
:10004E00EE0001DCFC60009CF9F07FFFFFF8000081
:10005E00000001C00E0001FFFF0001C00E0001C034
:10006E000E0001C00E0001FFFE0001C00E0001C017
:10007E000E0001C00E0001FFFE0001C00E0001C007
:10008E000E0000000000D6D00000000000070000A7
:10009E0000078000000700000007000000070000B6
:1000AE00000701801FFFFFE01FFFFFE01E0701C0DA
:1000BE001E0701C01E0701C01E0701C01E0701C09A
:1000CE001E0701C01FFFFFC01FFFFFC01E0701C09C
:1000DE001C07018000070000000700000007000059
:1000EE0000070000000700000007000000070000E6
:1000FE00000700000007000000000000BFC600005F
:10010E00000000000780003C07C001FC07803FE0B4
:10011E00078039C1C78001C0E78001C0F78001C0E8
:10012E00778001DE77807FFE078001C0078003C3E2
:10013E00C78003E1E78003F8F78007FCE7F00FDEE6
:10014E0067F80FDC07F81FC0FF801DDFE78039CC92
:10015E00078071C0078061C0078001C0078001C0A1
:10016E00078001E0078001E0078001C00700000062
:10017E000000BCBC000000000380300003C03C0047
:10018E0003C03C0003C0380003C0380003C0386011
:10019E0003F838F07FFFFFF003C0380003C03800CB
:1001AE0003C0380003DC39C003FFFFE007E383C060
:1001BE003FC183C07FC1C3803BC1C78003C0EF0076
:1001CE0003C0EF0003C07E0003C07C0003C07C00B0
:1001DE0003C0FE003BC3EF803F8787F80FBF03F8D5
:1001EE00077800E000000000C4EA0000000000C034
:1001FE00000001F0000001E0000003C000C003C0D9
:10020E0001E007FFFFF00703C0000E03C0001E034E
:10021E00C0003C03C3007303C78063FFFFC00383AA
:10022E00C0000383C0000383C0000383C0000383A8
:10023E00C0600383C0F07FFFFFF80003C00000031F
:10024E00C0000003C0000003C0000003C000000394
:10025E00C0000003C0000003C00000000000D4C2B4
:10026E00000000000000000000E0070000FFFF801B
:10027E0000F0078000F0070000F0070000F0070014
:10028E0000F0070000FFFF0000FFFF0000F0070076
:10029E0000F0070000F0070000F0070000E0070084
:1002AE0000FFFF0000E0070000E0070000E007008D
:1002BE0001E0070001C0070001C00700038007002E
:1002CE000780F7000F007F001E001F0038001C0083
:1002DE0000000000C8D50000000000000000030070
:1002EE00030003FFFF8003FFFF80038007000380EE
:1002FE0007000380070003800700038007000380C8
:10030E000700038007000380070003FFFF00038040
:10031E0007000380070003800700038007000380A7
:10032E000700038007000380070003800700038097
:10033E00070003FFFF000380070003800700038010
:10034E0007000300000000000000D0C700000000FE
:10035E00000000000380070003FFFF8003800700FA
:10036E00038007000380070003FFFF0003800700E0
:10037E000380070003FFFF0003FFFF000387070052
:10038E000387C00003C7810003C7838007FFFFC038
:10039E00070780000F0780001E0786001C078F00CE
:1003AE003BFFFF807007800000078000000780E0A1
:1003BE00000781F07FFFFFF8000000000000000042
:1003CE00C6DA0000000006000000079E0000079E2F
:1003DE007FF0079E7FF0079FF8F03FFFF8F01F9E1B
:1003EE0078F0079E78F0079E78F007FE7FF0079E64
:1003FE0078F0079E78F0079E70F007FE70F0079E6B
:10040E0070F0079E7FF0079FFFF03FFFF0F0119016
:10041E0070F003DCF0F003DEE0F0078FE0F00F0F7A
:10042E00E0F00E07C0F01C038FF0380F03E0201C25
:10043E0001C00000000000000000000000000000ED
:10044E00000000000000000000000000000000009E
:10045E00000000000000000000000000000000008E
:10046E000000000000000000000000000000070077
:10047E00070007000700070002000200020002004A
:10048E000200020000000000000007000700070045
:10049E0000000000000000000000066006600CC0B6
:1004AE001980110022000000000000000000000072
:1004BE00000000000000000000000000000000002E
:1004CE00000000000000000000000000000000001E
:1004DE0010401040104010407FE07FE01040104070
:1004EE00208020807FE07FE0208020802080208080
:1004FE0000000000000000000000000002000200EA
:10050E000F801AC032C032C032001A000E0007002F
:10051E000380038002C032C032C032C012800F008E
:10052E0002000200000000000000000000000000B9
:10053E0070C050808880890089008B008A005FC05F
:10054E00754006200A200A201A201220114021C0D0
:10055E00000000000000000000000000000000008D
:10056E001C00260026002600260025C0388030807C
:10057E0058804900CD00C700C600C300652038C0B2
:10058E0000000000000000000000300038000800ED
:10059E0008001000600000000000000000000000D5
:1005AE00000000000000000000000000000000003D
:1005BE00000000000000000000000020004000804D
:1005CE00018001000300030006000600060006007D
:1005DE0006000600060003000300010001800080F3
:1005EE00004000200000000000004000200010002D
:1005FE00180008000C000C0006000600060006009D
:10060E000600060006000C000C0008001800100082
:10061E00200040000000000000000000000000006C
:10062E00000002000200020072703AE00F800F809C
:10063E003AE07270020002000200000000000000AA
:10064E00000000000000000000000000000000009C
:10065E0000000000020002000200020002007FF013
:10066E000200020002000200020000000000000072
:10067E00000000000000000000000000000000006C
:10068E00000000000000000000000000000000005C
:10069E0000000000000000000000300038000800DC
:1006AE0008001000600000000000000000000000C4
:1006BE0000000000000000000000000000007FE0CD
:1006CE00000000000000000000000000000000001C
:1006DE00000000000000000000000000000000000C
:1006EE0000000000000000000000000000000000FC
:1006FE000000000000000000000038003800380044
:10070E00000000000000000000000020006000401B
:10071E0000C00080008001000100020002000600FF
:10072E000400040008000800100010003000200033
:10073E00600040000000000000000000000000000B
:10074E000F00198030C030C0606060606060606013
:10075E00606060606060606030C030C019800F0003
:10076E00000000000000000000000000000000007B
:10077E00020006003E000600060006000600060007
:10078E0006000600060006000600060006003FC032
:10079E00000000000000000000000000000000004B
:1007AE001F00218040C060C060C000C00180018079
:1007BE000300040008001040204040407FC07FC06E
:1007CE00000000000000000000000000000000001B
:1007DE001E002300618061806180018003000E0095
:1007EE000180008000C060C060C060C021801F001A
:1007FE00000000000000000000000000000000806B
:10080E00018003800380058009800980118021808A
:10081E00218041807FE0018001800180018007E01E
:10082E0000000000000000000000000000000000BA
:10083E003FC03FC020002000200020002F0031804C
:10084E0020C000C000C060C060C0418021801F0079
:10085E00000000000000000000000000000000008A
:10086E00078018C030C0300020006000678068C06C
:10087E0070606060606060602060304018C00F0083
:10088E00000000000000000000000000000000005A
:10089E001FE03FE0304020802080008001000100FA
:1008AE000200020002000600060006000600060016
:1008BE00000000000000000000000000000000002A
:1008CE001F8030C060606060606070403CC00F0090
:1008DE00338020C0606060606060606030C00F80F8
:1008EE0000000000000000000000000000000000FA
:1008FE000F00308030C0604060606060606060E01B
:10090E0031601E60006000C000C0308031801E006B
:10091E0000000000000000000000000000000000C9
:10092E0000000000000000000700070007000000A4
:10093E000000000000000000000007000700070094
:10094E000000000000000000000000000000000099
:10095E00000000000000000000000600060000007D
:10096E00000000000000000000000000060006006D
:10097E000200040000000000000000000000002043
:10098E00004000800100020004000800100020005A
:10099E00100008000400020001000080004000204A
:1009AE000000000000000000000000000000000039
:1009BE00000000000000000000007FE000000000CA
:1009CE00000000007FE000000000000000000000BA
:1009DE0000000000000000000000000000002000E9
:1009EE0010000800040002000100008000400020FA
:1009FE0000400080010002000400080010002000EA
:100A0E0000000000000000000000000000000F8049
:100A1E0030C0406040606060606000C001800600D1
:100A2E00040004000400000000000E000E000E0082
:100A3E0000000000000000000000000000000000A8
:100A4E0007801C601020335026D06490649068900C
:100A5E006890699069A066C03010302018400780F9
:100A6E000000000000000000000000000000000078
:100A7E00060006000E000B000B0013001180118003
:100A8E0011801F8020C020C020C020606060F0F068
:100A9E000000000000000000000000000000000048
:100AAE00FF00618060C060C060C060C061807F0078
:100ABE0060C06040606060606060606060C0FF80C9
:100ACE000000000000000000000000000000000018
:100ADE0007E01860302030202000600060006000C9
:100AEE0060006000600060203020304018800F00F1
:100AFE0000000000000000000000000000000000E8
:100B0E00FE00618060C060C06060606060606060B8
:100B1E00606060606060606060C060C06380FE00A6
:100B2E0000000000000000000000000000000000B7
:100B3E00FFC06040602060006000610061007F00C7
:100B4E006100610060006000602060206040FFC0B6
:100B5E000000000000000000000000000000000087
:100B6E00FFC060C0602060206000610061007F00F7
:100B7E006100610060006000600060006000F000D5
:100B8E000000000000000000000000000000000057
:100B9E000F4018C030403040200060006000600000
:100BAE00600063F060C060C030C030C018C00F007D
:100BBE000000000000000000000000000000000027
:100BCE00F0F06060606060606060606060607FE058
:100BDE006060606060606060606060606060F0F0E7
:100BEE0000000000000000000000000000000000F7
:100BFE003FC00600060006000600060006000600BE
:100C0E0006000600060006000600060006003FC0AD
:100C1E0000000000000000000000000000000000C6
:100C2E000FF0018001800180018001800180018030
:100C3E00018001800180018001800180018001809E
:100C4E00618063003E000000000000000000000014
:100C5E00F3E0608061006200620064006C007C0062
:100C6E007600670063006380618060C060E0F1F031
:100C7E000000000000000000000000000000000066
:100C8E00F0006000600060006000600060006000C6
:100C9E006000600060006000602060206040FFC067
:100CAE000000000000000000000000000000000036
:100CBE00F0F070E070E070E0596059605960596072
:100CCE005A604E604E604E604E6044604460E4F088
:100CDE000000000000000000000000000000000006
:100CEE00E07070207020582058204C20462046205E
:100CFE004320432041A040E040E040604060E020BF
:100D0E0000000000000000000000000000000000D5
:100D1E000F00198030C030406060606060606060BD
:100D2E006060606060606060304030C019800F00AD
:100D3E0000000000000000000000000000000000A5
:100D4E00FF8060C06060606060606060606060C016
:100D5E007F80600060006000600060006000F00056
:100D6E000000000000000000000000000000000075
:100D7E000F00198030C0304060606060606060605D
:100D8E006060606060606E60324031C011800F80C4
:100D9E0001E000C0000000000000000000000000A4
:100DAE00FF8060C0606060606060606060C07F00F7
:100DBE006600630063006180618060C060C0F07097
:100DCE000000000000000000000000000000000015
:100DDE001F2030E060206020600070003C000F009B
:100DEE0003C000C0006040604060606070C04F8013
:100DFE0000000000000000000000000000000000E5
:100E0E007FE04620861086100600060006000600CB
:100E1E0006000600060006000600060006000F008B
:100E2E0000000000000000000000000000000000B4
:100E3E00F0706020602060206020602060206020C4
:100E4E0060206020602060206020602030401F8085
:100E5E000000000000000000000000000000000084
:100E6E00F8F070603040304030403080188018808C
:100E7E00188018800D000D000D000F0006000600F2
:100E8E000000000000000000000000000000000054
:100E9E00F7706620662066406640674037403740F0
:100EAE003B803B803B803B8039801100110011005C
:100EBE000000000000000000000000000000000024
:100ECE0079E030C01880188019000D000E00060061
:100EDE00060007000B000B801980118030C079E0EE
:100EEE0000000000000000000000000000000000F4
:100EFE00F8F0706030403080188018800D000D00C2
:100F0E000E000600060006000600060006001F8002
:100F1E0000000000000000000000000000000000C3
:100F2E003FE020C041C001800380030003000600A3
:100F3E0006000C000C0018001820382030407FC02E
:100F4E000000000000000000000007E004000400A4
:100F5E000400040004000400040004000400040063
:100F6E000400040004000400040004000400040053
:100F7E00040007E000000000000000000000200058
:100F8E001000100010000800080004000400040007
:100F9E0002000200010001000100008000800040FC
:100FAE00004000400020000000003F000100010052
:100FBE00010001000100010001000100010001001B
:100FCE00010001000100010001000100010001000B
:100FDE0001003F0000000000000007000D801040DF
:100FEE0000000000000000000000000000000000F3
:100FFE0000000000000000000000000000000000E3
:10100E0000000000000000000000000000000000D2
:10101E0000000000000000000000000000000000C2
:10102E0000000000000000000000000000000000B2
:10103E0000000000FFF00000000030003800080043
:10104E00080010006000000000000000000000001A
:10105E000000000000000000000000000000000082
:10106E000000000000000000000000000000000072
:10107E00000000000000000000000F8030C030C0F3
:10108E0007C01CC030C060C060C060C071D03EF0F0
:10109E000000000000000000000000000000100032
:1010AE007000300030003000300033803CC03860BB
:1010BE0030603060306030603060304038C02F803B
:1010CE000000000000000000000000000000000012
:1010DE00000000000000000000000F003180318091
:1010EE0061806000600060006040304030800F0022
:1010FE0000000000000000000000000000000040A2
:10110E0001C000C000C000C000C01EC031C030C051
:10111E0060C060C060C060C060C020C031E01E8092
:10112E0000000000000000000000000000000000B1
:10113E0000000000000000000000078018C01060D2
:10114E0030603FE030003000300018201C40078037
:10115E000000000000000000000000000000000081
:10116E0003C006600C600C000C007FC00C000C006D
:10117E000C000C000C000C000C000C000C003F804E
:10118E000000000000000000000000000000000051
:10119E00000000000000000000000F70199030C029
:1011AE0030C030C019801F0030003E001FC060608C
:1011BE00606070E01F800000000000000000100062
:1011CE0070003000300030003000378038C030C042
:1011DE0030C030C030C030C030C030C030C079E018
:1011EE0000000000000000000000000000000000F1
:1011FE00060006000000000000003E00060006008B
:10120E0006000600060006000600060006003FC0A7
:10121E0000000000000000000000000000000000C0
:10122E00018001800000000000000F80018001801D
:10123E000180018001800180018001800180018098
:10124E00018033003E00000000000000000010008E
:10125E007000300030003000300033C031003300F9
:10126E00320036003E003B0033003180318079E0A1
:10127E00000000000000000000000000000002005E
:10128E003E000600060006000600060006000600E8
:10129E0006000600060006000600060006003FC017
:1012AE000000000000000000000000000000000030
:1012BE0000000000000000000000EEE077606660B5
:1012CE006660666066606660666066606660F7703F
:1012DE000000000000000000000000000000000000
:1012EE000000000000000000000073803CC030C011
:1012FE0030C030C030C030C030C030C030C079E0F7
:10130E0000000000000000000000000000000000CF
:10131E00000000000000000000000F00198030C027
:10132E006060606060606060606030C030C00F0000
:10133E00000000000000000000000000000000009F
:10134E0000000000000000000000778038C0306010
:10135E003060306030603060306030C038C0378010
:10136E00300030007C000000000000000000000093
:10137E00000000000000000000001E4031C030C020
:10138E0060C060C060C060C060C020C031C01EC000
:10139E0000C000C003E000000000000000000000DC
:1013AE0000000000000000000000F9E01A601C00C0
:1013BE001800180018001800180018001800FF0078
:1013CE00000000000000000000000000000000000F
:1013DE00000000000000000000000FE01860302048
:1013EE0030001C000F8001C02060206030C03F80A4
:1013FE0000000000000000000000000000000000DF
:10140E000000040004000C000C007F800C000C0097
:10141E000C000C000C000C000C000C400C40078063
:10142E0000000000000000000000000000000000AE
:10143E000000000000000000104071C030C030C03D
:10144E0030C030C030C030C030C030C039E01E8037
:10145E00000000000000000000000000000000007E
:10146E00000000000000000000007CF03860184012
:10147E0018400C800C800C8007000700070002004B
:10148E00000000000000000000000000000000004E
:10149E0000000000000000000000F7B06320632091
:1014AE006720372035C039C039C039C01080108050
:1014BE00000000000000000000000000000000001E
:1014CE00000000000000000000007DE01880198080
:1014DE000D000E00060007000B00198011C07BE006
:1014EE0000000000000000000000000000000000EE
:1014FE00000000000000000000007DE03880188031
:10150E0018800D000D000D000600060002000400FC
:10151E000400280038000000000000000000000059
:10152E00000000000000000000003FC0218023806A
:10153E000300070006000E000C201C2018603FC0A0
:10154E00000000000000000000000000000000008D
:10155E00000000000000000000000000000000007D
:10156E00000000000000000000000000000000006D
:10157E00000000000000000000000000000000005D
:10158E00000000000000000000000000000000004D
:10159E00000000000000000000000000000000003D
:1015AE00000000000000000000000000000000002D
:1015BE00000000000000000000000000000000001D
:1015CE00000000000000000000000000000000000D
:1015DE0000000000000000000000000000000000FD
:1015EE0000000000000000000000000000000000ED
:1015FE0000000000000000000000000000000000DD
:10160E0000000000000000000000000000000000CC
:10161E0000000000000000000000000000000000BC
:10162E0000000000000000000000000000000000AC
:10163E00000000000000000000000000000000009C
:10164E00000000000000000000000000000000F894
:10165E00000386000703000E01800C01C01C00C0B1
:10166E001800C03800E03800E0380060700070707C
:10167E0000707000707000707000707000707000FC
:10168E00707000707000707000707000707000707C
:10169E003800603800E03800E01800C01C00C00CB4
:1016AE0001800E018006030003860000F800000092
:1016BE00000000000000000000000000000000001C
:1016CE00000000000000000000000000000000000C
:1016DE0000000000000000000000000000000008F4
:1016EE000000180000380007F8000038000038002D
:1016FE0000380000380000380000380000380000C4
:10170E00380000380000380000380000380000387B
:10171E0000003800003800003800003800003800A3
:10172E000038000038000038000038000038000093
:10173E003800003800003800007C0007FFC00000B1
:10174E00000000000000000000000000000000008B
:10175E00000000000000000000000000000000007B
:10176E00000000000000000000000000000000FC6F
:10177E00000307000C03801801C01801C03800E0F8
:10178E003800E03800E03C00E03C00E01C00E000E7
:10179E0001C00001C0000380000380000700000E9E
:1017AE0000001C0000380000700000E00001C000C6
:1017BE000380000300000600200C0020180060309B
:1017CE0000602000C07FFFC07FFFC07FFFC0000011
:1017DE0000000000000000000000000000000000FB
:1017EE0000000000000000000000000000000000EB
:1017FE00000000000000000000000000000000FCDF
:10180E00000307000603800C01C01C01C01C00E091
:10181E001E00E01E00E00E00E00000E00000C00030
:10182E0001C0000180000300000E0000F800000F50
:10183E00000001800000C00000E0000060000070A9
:10184E000000701800703C00703C00703C00603866
:10185E0000E01800C00C018006070001FC0000002B
:10186E00000000000000000000000000000000006A
:10187E00000000000000000000000000000000005A
:10188E000000000000000000000000000000000347
:10189E0000000700000700000F00001F00001700E7
:1018AE0000370000270000670000C7000087000116
:1018BE008700030700020700060700040700080759
:1018CE00001807001007003007006007007FFFF8C0
:1018DE007FFFF80007000007000007000007000068
:1018EE00070000070000070000078000FFF8000057
:1018FE0000000000000000000000000000000000DA
:10190E0000000000000000000000000000000000C9
:10191E0000000000000000000000000000000FFFAB
:10192E00E00FFFE00FFFE0080000080000080000D5
:10193E000800000800001000001000001000001049
:10194E00FE0013FF001703801C01C01C00E01800EE
:10195E00E00000F0000070000070000070000070E9
:10196E001800703C00703C00703C00603800E018BD
:10197E0000E01801C00C018007070001FC00000008
:10198E000000000000000000000000000000000049
:10199E000000000000000000000000000000000039
:1019AE000000000000000000000000000000007EAB
:1019BE00000183800303800603C00C03C01803C01C
:1019CE0018000018000038000030000030000070D1
:1019DE000000707E0071FF807783C07601C07C00AE
:1019EE00E07800E070007070007070007070007031
:1019FE007000703000703800703800701800601C75
:101A0E0000E00C00C006018003830000FC00000013
:101A1E0000000000000000000000000000000000B8
:101A2E0000000000000000000000000000000000A8
:101A3E0000000000000000000000000000001FFF7A
:101A4E00F01FFFF01FFFE01C00601000C030008090
:101A5E0020018020010000030000020000060000AB
:101A6E000400000C000008000018000018000030F0
:101A7E000000300000700000600000600000E00018
:101A8E0000E00000E00000E00001E00001E00001E5
:101A9E00E00001E00001E00001E00000E0000000D5
:101AAE000000000000000000000000000000000028
:101ABE000000000000000000000000000000000018
:101ACE00000000000000000000000000000001FE09
:101ADE00000703800E01C01C00E01800E038007003
:101AEE003800703800703800703C00701E00E01F27
:101AFE0000E00F81C007E38003FE0003FE00063FF7
:101B0E00000C0F801C07C03801E03801E07000F0B7
:101B1E00700070700070700070700070700070381F
:101B2E0000E01800C00C01C007030001FC0000001B
:101B3E000000000000000000000000000000000097
:101B4E000000000000000000000000000000000087
:101B5E00000000000000000000000000000001F87E
:101B6E00000706000C01001C01803800C03800C0C0
:101B7E0030006070006070006070007070007070F7
:101B8E0000707000707000F03800F03801F03C0307
:101B9E00701F0E700FFC7003F0700000600000E00C
:101BAE000000E00000E00000C00001C00C01801E3B
:101BBE0003801E03001E06000E1C0003F000000032
:101BCE000000000000000000000000000000000007
:101BDE0000000000000000000000000000000000F7
:101BEE0000000000000000000000000000000000E7
:101BFE0000000000000000000000000000000000D7
:101C0E00000000000000000000000000007800004E
:101C1E00FC0000FC0000FC0000FC0000780000004E
:101C2E0000000000000000000000000000000000A6
:101C3E00000000000000000000000000007800001E
:101C4E00FC0000FC0000FC0000FC0000780000001E
:101C5E000000000000000000000000000000000076
:061C6E0000000000000070
:0A39EF00F582E43583F583E49322AA
:0C356C008E418F428A438B448D828C83F9
:10357800E54224FFFFE54134FFFEE58224FFFDE537
:103588008334FFFCE5422402FBE43541FAE582245A
:1035980002F54FE43583F54E123686E4F545AF441F
:0E35A800AE4312391B0545E545C3941040F0B3
:0135B60022F2
:10298300E4F52FF530F531F532C3EB9FF534E49ED2
:10299300F533C3E52A9DF536E5299CF5358E3F8F42
:1029A300408C3D8D3ED3E5349400E53364809480C0
:1029B3004008753900753A01801DE53445337006CA
:1029C300F539F53A801174FFF539F53AC3E49534D6
:1029D300F534E49533F533D3E5369400E535648077
:1029E30094804008753B00753C01801DE5364535F4
:1029F3007006F53BF53C801174FFF53BF53CC3E4F1
:102A03009536F536E49535F535D3E5349536E53524
:102A13006480F8E53364809840088533378534381B
:102A23008006853537853638E4F52DF52EE53824CF
:102A330001FFE43537FED3E52E9FE52D9E400302CB
:102A43002AC9AB2CAA2BAD3EAC3DAF40AE3F1235ED
:102A53006CE5342530F530E533352FF52FE5362594
:102A630032F532E5353531F531D3E5309538E53793
:102A73006480F8E52F6480984018E5309538F53088
:102A8300E52F9537F52FE53A2540F540E539353FF4
:102A9300F53FD3E5329538E5376480F8E531648056
:102AA300984018E5329538F532E5319537F531E53B
:102AB3003C253EF53EE53B353DF53D052EE52E70C7
:062AC30002052D022A307D
:012AC90022EA
:0E31CE008E388F398C3A8D3B8B3C8A3D893E82
:1031DC00AB3CAA3DA93E122027700302327224E0B8
:1031EC00F545E539240FFBE43538FAE53B2417F5B2
:1031FC004FE4353AF54EAD3BAC3AAF39AE381236FA
:10320C0086E4F54475F030E5459004441220E9E578
:10321C008225441239EF754600F547E4F543E5473E
:10322C0030E706AF40AE3F8004AF42AE4112391BCF
:10323C00E54725E0F547E54633F5460543E543C349
:10324C00940840DA0544E544C3943040B774012532
:10325C003EF53EE4353DF53D74102539F539E43540
:06326C0038F5380231DCE8
:013272002239
:0E3273008E338F348C358D368B378A388939FF
:10328100AB37AA38A939122027700302331724D08B
:10329100F540E5342417FBE43533FAE536242FF500
:1032A1004FE43535F54EAD36AC35AF34AE3312366D
:1032B10086E4F53F75F090E5409016441220E9E56B
:1032C10082253F1239EF754100F542E4F53EE542B2
:1032D10030E706AF3BAE3A8004AF3DAE3C12391B3E
:1032E100E54225E0F542E54133F541053EE53EC3C2
:1032F100940840DA053FE53FC3949040B774012537
:1033010039F539E43538F53874182534F534E435B0
:0633110033F533023281A6
:013317002293
:10399E00E52D25E0242EF8E6FE08E6FFEA25E024D4
:0339AE002EF822CE
:0B39CF00C2A1D2A3D2A2D2A1C2A322A7
:10387A00C2A1E4FEEFC4131313540124FF92A2EF72
:0B388A0025E0FFC2A1D2A10EBE08E99C
:013895002210
:10377700E4FFFEC2A1FDFCEF25E0FFEE33FED2A180
:10378700C2A1A2A0E43342070DBD00010CED640CF9
:033797004C70E48F
:01379A00220C
:02304C00AB07D0
:10304E00C2A1C2A3E4FAAF0312387A752D06D52DAC
:10305E00FDD2A10000C2A100001237771239AAA634
:10306E000608A6070ABA0ADED2A3E4FAEA04F52D88
:10307E00E52DC3940A503812399EE6FC08E6C39F2C
:10308E00EC9E50271239AAE6FE08E6FFE48F458E25
:10309E0044F543F54212399EA60608A607AF45E54C
:1030AE002D25E0242EF8A64408A607052D80C10A7A
:1030BE00EA640970B7E4F545F544F543F5427A0242
:1030CE001239AAE6FE08E6FFE4FCFDE5452FFFE512
:1030DE00443EFEED3543FDEC35428F458E448D4327
:1030EE00F5420ABA08DAAF45AE44AD43AC42E47BD2
:0F30FE0006FAF9F81235FF8F458E448D438C4248
:01310D00229F
:102F85001239CF7FD012304C8E238F247F90123090
:102F95004C8E298F2A7FD012304C8E258F267F901C
:102FA50012304CAD07AC06D3E5249526E5239525CF
:102FB500400EE5249526F528E5239525F527800D72
:102FC500C3E5269524F528E5259523F527D3E52A98
:102FD5009DE5299C400CE52A9DF52CE5299CF52BC2
:102FE500800BC3ED952AF52CEC9529F52BD3E52817
:102FF5009432E5279400500AE52C9432E52B940091
:1030050040037F0022E5242526FFE5233525C3134C
:10301500F572EF13F573E52A2DFFE5293CC313F58A
:1030250074EF13F5755373F05375F0C3E57394643A
:10303500E5729400400BD3E57594A0E574940F40B8
:06304500037F00227F0161
:01304B002262
:1039760054494D4500434C4F434B004241434B0095
:043986005345540051
:103413007F87FEFDFCAB1CAA1BA91AA8190220D3A7
:10342300FEFDFCAB18AA17A916A8150220D3782312
:103433007C007D007B007E007F03022001FEFDFCFB
:10344300AB1CAA1BA91AA8190220D334FFFCE4FA67
:10345300F9F8122076E422E4F508751101751001DC
:1034630022752BF8752C0022E4FEFDFCA81902201E
:01347300D385
:1038E9007BFF7A39797612281E7A00796B12343186
:0938F900122BDC12345A02245B8C
:103902007BFF7A39797B12281E7A00796E12343164
:09391200122BDC12345A022218B7
:10269C00E4FFFE1236C57BFF7A397981753F0075F0
:1026AC00401FE4F541F542FDFCFFFE1231CE7BFFED
:1026BC007A397986753FFF7540E0E4F541F5427D46
:1026CC00181228147A397976753F077540FFE4F5AE
:1026DC0041F5427D5E1228147A39797B753F7F75FE
:1026EC0040FFE4F541F5427D86FC7F32FE1231CE8F
:1026FC00752900752A321234647D32122808752926
:10270C0000752A821234647D82122808752900759E
:10271C002AAA1234647B9B7DAA7C007F147E001253
:10272C002983122F85BF01FAE4857318857217F57A
:10273C0016F515E51824D0FFE51734FEFEE5163422
:10274C00FFFDE5157BAF12344E7B5E7A0DF9F81266
:10275C0035FF8F188E178D168C15E485751C8574B6
:10276C001BF51AF519251CFFE51B34FFFEE51A3481
:10277C00FFFDE5197BDB12344E7B707A0DF9F812F4
:10278C0035FF8F1C8E1B8D1A8C19E47FAED312343F
:10279C0023400AE47518AEF517F516F515E47FDA43
:1027AC00D3123440400AE4751CDAF51BF51AF519FE
:1027BC00E4C3123413500D7F5F12346B4006123891
:1027CC00E902272EE4D3123413400D7FA512346B8B
:1027DC00500612390202272EE47F37C312342340ED
:1027EC000302272EE47F18C3123440400302272E25
:1027FC00750901E4F512FFFE1236C5227B9B7C00A5
:10280C007F147E0012298322FC7F32FE1231CE7B94
:02281C00FF2299
:1036430031003200330034003500360037003800D3
:10365300390030004241434B003A005345540000C7
:103663000000000000000000000000000000000057
:103673000000000000000000000000000000000047
:0336830000000044
:1034CB007A36795C7BFF753FF8754000E4F541F582
:1034DB0042227D007BFF7E007F030220017B007573
:1034EB003AF8753B00E4F53CF53D2275F00A84E5AE
:1034FB00F024302275F00A84243022752BF8752CB9
:10350B0000227BFF753F0075401FE4F541F542FD3E
:02351B00FC2290
:10281E008B218A228923E4FFFE1236C5AB21AA2220
:10282E00A923753FFF7540E0E4F541F5427D18FCA4
:10283E007F2FFE1231CE752900752A321235067D94
:10284E003212292C752A5A1235067D5A12292C75E8
:10285E002A821235067B9B7D827F1412297B752975
:10286E0000752AAA1235067DAA12293B7DD212299D
:10287E003B7B417D5A7F4112297B752900752AD2F7
:10288E001235067B6E7D327C007F6E7E00122983B0
:10289E007A3679431234CF7F1F1229537A3679450F
:1028AE001234D17D5E12295D7A3679471234D17F8A
:1028BE007F1229537A3679491234D17D86122971C5
:1028CE007A36794B1234D17D8612295D7A36794D5E
:1028DE001234D17D861229677A36794F1234D17D22
:1028EE00AE1229717A3679511234D17DAEFC7F51F8
:1028FE00FE1231CE7BFF7A3679531234D17DAE1271
:10290E0029677A3679551234D17D3AFC7F7FFE12D3
:10291E0031CE7A36795712350DFFFE0231CE7B9BC2
:10292E007C007F147E00122983752900227B9B7CFC
:10293E00007F147E00122983752900752AD2752B0B
:10294E00F8752C00227D5EFCFE1231CE7BFF22FC40
:10295E007F51FE1231CE7BFF22FC7F7FFE1231CEE5
:10296E007BFF22FC7F1FFE1231CE7BFF227C007E7E
:05297E00001229832274
:102ACA0078217C007A3679621234DD78247C007AA7
:102ADA003679651234DD78277C007D007BFF7A36F3
:102AEA0079681234E1782A7C007D007BFF7A367996
:102AFA006B1234E1782D7C007D007BFF7A36796E8B
:102B0A001234E178307C007D007BFF7A36797112CD
:102B1A0034E1E56B1234FFF521E56B1234F6F52446
:102B2A00E56C1234FFF527E56C1234F6F52AE56DEB
:102B3A001234FFF52DE56D1234F6F5307A0079215D
:102B4A001234E87F0A122BD47A0079241234E87FEF
:102B5A001E122BB17F32122BCA7A0079271234EA5D
:102B6A007F46122BD47B007A00792A1234EA7F5AE4
:102B7A00122BB17F6E122BCA7A00792D1234EA7D9C
:102B8A0064FC7F82FE1232737B007A007930123441
:102B9A00EA7D64FC7F96FE1232737A36795E1235CC
:072BAA000D7F7FFE0231CE1A
:102BB1007D64FCFE1232737BFF7A36795C753AF8DC
:102BC100753B00E4F53CF53D227D5EFCFE1232735F
:0B2BD1007B00227D64FCFE12327322A8
:102BDC0078267C007D007BFF7A3679741234E1789C
:102BEC00297C007D007BFF7A3679771234E1782CD2
:102BFC007C007D007BFF7A36797A1234E1782F7C69
:102C0C00007D007BFF7A36797D1234E178327C00CE
:102C1C007D007BFF7A3679801234E178357C007D3B
:102C2C00007BFF7A3679831234E1E5231234FFF509
:102C3C0026E5231234F6F529E5241234FFF52CE5AC
:102C4C00241234F6F52FE5251234FFF532E5251262
:102C5C0034F6F5351234CB7D38FC7F27FE1231CE9D
:102C6C001234CB7D38FC7F47FE1231CE7B007A00CC
:102C7C0079261234D17F11122CCC7A007929123496
:102C8C00D17F1D122CCC7A00792C1234D17F3112C9
:102C9C002CD67A00792F1234D17F3D122CD67A00A3
:102CAC0079321234D17D3AFC7F51FE1231CE7B0049
:102CBC007A0079351234D17D3AFC7F5DFE0231CE3B
:102CCC007D3AFCFE1231CE7B00227D3AFCFE1231A5
:042CDC00CE7B002289
:1039B100758901758C4C758AD0D2A9D28CD2AF226F
:03000B0002347448
:10347400C0E0C0D0758C4C758AD2E571C3941440F9
:103484003F757100E56D943B5004056D8034756D96
:1034940000E56CC3943B5004056C8011756C00E529
:1034A4006BC394175004056B8003756B00E56AB415
:1034B4000110E56BB56E0BE56CB56F06D2A080020A
:0734C4000571D0D0D0E03209
:06000300FFC2A102384516
:05384000123845D2A181
:103845000000000000000000000000000000000073
:0938550000000000000000002248
:0A39F900D2A0123840C2A0023845E7
:0A3A0300C2A0123840D2A0023845DC
:0B37BF001238CE1237CAAF051238CE08
:1037CA00E4FFD2A112384530A009EFC394FA50039E
:0837DA000F80F4C2A102384582
:0A3A0D00D2A0123845D2A1023845BC
:1038CE00E4FEEF25E012000392A01238400EBE086F
:0B38DE00F1C2A1123845D2A00238450B
:1037E200E4120003D2A0123845FED2A1123845EFEE
:0F37F20025E0FFA2A0E4334F1200030EBE08EB48
:0138010022A4
:10396100AC071239F97FD01238CE1237CAAF041220
:0539710037BF023A031C
:02389600AD077C
:103898001239F97FD01237BF1239F97FD11238CED9
:0938A8001237CA1237E2123A038A
:0138B10022F4
:10393300E56825E02456F8E6FE08E622FED3EF9478
:0739430064EE648094802211
:10375100123A0DE4FD7F6B1239617D077F19123931
:10376100617D067F1A1239617D187F1B1239617DD7
:06377100017F1C0239611A
:0236FC008F1D20
:1036FE001238968F1EE51D04FF123896AD07AF1EC9
:10370E00EF3395E0EFFEED3395E0FCE42DFFEE3C5C
:08371E00FE7C007D40122040FA
:013726002280
:102DDC007F3D1236FCEF4E70277F3F1236FCEF4ED4
:102DEC00601E7F431236FCEF4E60157F451236FC99
:102DFC00EF4E600C7F471236FCEF4E6003123751DA
:102E0C00122E7CF56985505685515785525885533D
:102E1C005985545A85555B855C62855D63855E6416
:102E2C00855F65856066856167122E7CF568123951
:102E3C0033FFE56825E02450F8E6FC08E6FDC39F67
:102E4C00FFEC9E12393F5014123933C39DFFEE9C98
:102E5C0012393F50070568E568B403D20569E56986
:0F2E6C00C3940340A0E568B403037F00227F01F5
:102E7B00227F3B1236FC8E508F517F3D1236FC8EDB
:102E8B00528F537F3F1236FC8E548F557F43123631
:102E9B00FC8E5C8F5D7F451236FC8E5E8F5F7F47AD
:092EAB001236FC8E608F61E422F6
:10398A00758920758B6C758D6CD2ABD28EE4F57906
:04399A0075760A2212
:03001B000233A409
:1033A400C0E0C0F0C083C082C0D075D000C000C0EF
:1033B40001C002C003C004C005C006C007057905EA
:1033C40078E57870020577AE77FFE4FCFD7B607AE0
:1033D400EAF9F8C31220D35006757700757800E532
:1033E40079B46403757900E579C395765004D2A362
:1033F4008002C2A3D007D006D005D004D003D002E7
:0F340400D001D000D0D0D082D083D0F0D0E03231
:0D000E001238217F017E0012394A7FCC227A
:10394A00D3EF9400EE9400400DE4FD0DBD6EFCEF44
:06395A001F70ED1E80EA63
:013960002244
:10382100C2B77F677E00EF1F70011EEF4E70F7D2A7
:0E383100B77E007F04EF1F70011EEF4E70F790
:01383F002266
:10379B00C2B70FBF0000D2B70FBF00000FBF0000B2
:1037AB00A2B792007E007F08EF1F70011EEF4E70D4
:0337BB00F7A20072
:0137BE0022E8
:1038B200E4FDFC12379BE433FFC43333335480FE00
:0B38C200EDC3134EFD0CBC08EAAF057F
:0138CD0022D8
:1035B700E4FEEF139201EFC313FF30011BC2B70BF9
:1035C700BB00000BBB0000D2B77A007B08EB1B7077
:1035D700011AEB4A70F7801BC2B77A007B08EB1B16
:1035E70070011AEB4A70F7D2B70BBB00010A0BBB8D
:0735F70000010A0EBE08BB33
:0135FE0022AA
:10351D0012000E1235B77FBE1235B71238B2AB0797
:10352D001238B2EFFEEBFFFDAC06E4121E77E4FBA2
:10353D00FA7980783D121D6C8F7D8E7C8D7B8C7A17
:10354D00E4FFFE7D207C41AB7DAA7CA97BA87A128D
:0E355D001D6CE4FBFAF9783F121C7B121EB0C5
:01356B00223D
:0B39DA0012000E1235B77F440235B713
:102CE000E4857318857217F516F515E51824D0FFDD
:102CF000E51734FEFEE51634FFFDE51534FFFCE470
:102D00007BAFFAF9F8122076E47B5E7A0DF9F812BF
:102D100035FF8F188E178D168C15E485751C8574FC
:102D20001BF51AF519251CFFE51B34FFFEE51A34C7
:102D3000FFFDE51934FFFCE47BDBFAF9F81220769D
:102D4000E47B707A0DF9F81235FF8F1C8E1B8D1AFB
:102D50008C197FAEE4D3AB18AA17A916A815FEFDEF
:102D6000FC0220D37F91E4FEFDFCAB1CAA1BA91A38
:102D7000A819227F87E4A819FEFDFC0220D37F3C1E
:102D8000E4FEFDFCAB18AA17A916A815C30220D3B0
:102D9000E47F69FEFDFCA8150220D375F00A84E5E6
:102DA00021AFF075F00AA42F2278237C007D007BF0
:102DB000007E007F0302200175F00A84AFF0E52158
:102DC00075F00AA42F22E47518AEF517F516F5155F
:0C2DD00022E4751CDAF51BF51AF5192237
:10245B00E4F522C2A9F514122F85BF01FA122CE064
:10246B004003122DC67FDA122D66D31220D3400300
:10247B00122DD17F73122D544019E47F2D122D672D
:10248B00D31220D3400D7F55122D755006E4F52144
:10249B000225DBE47F3CC3122D565016E47F5F12FE
:1024AB002D6A122D5E400B122D7350067521010201
:1024BB0025DBE47F46122D554020E47F69A81512D9
:1024CB002D785016E47F5F122D671220D3400B122C
:1024DB002D7350067521020225DBE47F73122D55F7
:1024EB004017E47F5F122D67D31220D3400B122DC0
:1024FB007350067521030225DB122D7E5016122D0B
:10250B00641220D3400EE47FA5122D765006752160
:10251B00040225DBE47F46122D55401B122D9050F3
:10252B0016122D641220D3400EE47FA5122D765087
:10253B00067521050225DBE47F73122D554017121A
:10254B002D64D31220D3400EE47FA5122D765006B6
:10255B007521060225DB122D7E5031E47FAF122D43
:10256B00671220D340067F01C00780047F00C0079D
:10257B00E47FCD122D67C31220D350047E0180025D
:10258B007E00D0E05E60057521078044E47F461233
:10259B002D55401D122D905018E47FAF122D671250
:1025AB0020D3400DE47FCD122D7650057521088088
:1025BB001FE47F73122D55401CE47FAF122D67D3A0
:1025CB001220D34010E47FCD122D765008752109CF
:1025DB0075220180167F37122D80500FE47F181261
:1025EB002D67C31220D35003D2A922E522640160C8
:1025FB0003022462F522E51414601E14603B146080
:10260B00461460561460612405706EE521C3940373
:10261B005067E56B122D9B801AE521C3940440068D
:10262B00E56B94145053E56B75F00A84C3E56B9519
:10263B00F02521F56B05148040E521C39406503934
:10264B00E56C122D9B800DE56C75F00A84C3E56C6F
:10265B0095F02521F56C0514801FE521C3940650D8
:10266B0018E56D122D9B800DE56D75F00A84C3E5A1
:10267B006D95F02521F56D05147A00796B122DA956
:10268B00122BDCE51464066003022462F5140224A9
:01269B0062DC
:10221800E4F522F514756A01122F85BF01FA122C14
:10222800E04003122DC6E47FDA122D67D31220D3C3
:102238004003122DD1E47F73122D55401AE47F2DEF
:10224800122D67D31220D3400EE47F55122D7650FD
:1022580006E4F521022393122D7E5016E47F5F12C7
:102268002D671220D3400B122D73500675210102E1
:102278002393E47F46122D55401B122D905016E4EF
:102288007F5F122D671220D3400B122D73500675F5
:102298002102022393E47F73122D554017E47F5FD8
:1022A800122D67D31220D3400B122D7350067521BF
:1022B80003022393122D7E5016122D641220D34050
:1022C8000EE47FA5122D765006752104022393E4AF
:1022D8007F46122D55401B122D905016122D641258
:1022E80020D3400EE47FA5122D76500675210502F5
:1022F8002393E47F73122D554017122D64D31220B7
:10230800D3400EE47FA5122D7650067521060223D0
:1023180093122D7E5031E47FAF122D671220D340E7
:10232800067F01C00780047F00C007E47FCD122D1F
:1023380067C31220D350047E0180027E00D0E05E85
:1023480060057521078044E47F46122D55401D1213
:102358002D905018E47FAF122D671220D3400DE462
:102368007FCD122D765005752108801FE47F7312EA
:102378002D55401CE47FAF122D67D31220D3401097
:10238800E47FCD122D76500875210975220180173A
:10239800E47F37122D81500FE47F18122D67C31286
:1023A80020D35003D2A922E522640160030222202F
:1023B800F522E51414602414604114604C14605C28
:1023C80014606724057074E521C39403506DE56EAD
:1023D80075F00A84E521122DA1801AE521C3940421
:1023E8004006E56B94145053E56E75F00A84C3E516
:1023F8006E95F02521F56E05148040E521C39406FD
:102408005039E56F122DB8800DE56F75F00A84C359
:10241800E56F95F02521F56F0514801FE521C3941C
:10242800065018E570122DB8800DE57075F00A8415
:10243800C3E57095F02521F57005147A00796E12C0
:102448002DA9122BDCE51464066003022220F51482
:032458000222203D
:101C7400021F1CE86480F8E933E83360110460F063
:101C8400ED33EC337009E8FCE9FDEAFEEBFF2204D6
:101C940060DED3EB9FEA9EE99DE8C2E78CF0C2F7D1
:101CA40095F0400CE8CCF8E9CDF9EACEFAEBCFFB9D
:101CB400121EE785D0F05804700320D5B3E80470F1
:101CC400075002B2D5021F2692D5EC0460F7E4CC8B
:101CD400C0E0C398F8603B94186008400DD0E0FB66
:101CE400021EFEE4FBFAC9FC8028E830E406E4C9DD
:101CF400FBE4CAFCE830E305E4C9CACBFCE85407BA
:101D04006010F8C3E913F9EA13FAEB13FBEC13FCC4
:101D1400D8F130F52FC3E49CFCEF9BFFEE9AFEED67
:101D240099FDD0E0FBEF4E4D4C701222DB03021FF5
:101D340023EC2CFCEF33FFEE33FEED33FDED30E707
:101D4400EB021EFEEF2BFFEE3AFEED39FDD0E0FB79
:101D540050130BBB0003021F26ED13FDEE13FEEF21
:081D640013FFEC13FC021EFE4C
:101D6C00EC4D6011E8497017ED33EC3304600DE471
:101D7C00FCFFFEFD22E933E8330470F8021F1C124D
:101D8C001EE758046009E4CC24815006285009024F
:101D9C001F26284003021F23C0E0EB4A7044B98081
:101DAC0006D0E0FB021F12EF4E701CBD8008EBFF4B
:101DBC00EAFEE9FD80EBE98DF0A4FEE5F0021E558C
:101DCC00E9CDF9EAFEEBFFEF89F0A4FCE5F0CE8952
:101DDC00F0A42EFFE435F0CD89F0A42DFEE435F00F
:101DEC008067EF4E7005BD80D780C3EF8BF0A4AC3D
:101DFC00F0EE8BF0A42CFCE435F0F8EF8AF0A42C78
:101E0C00E5F038FCE433CB8DF0A42CFCE5F03BF88A
:101E1C00EE8AF0A42CFCE5F038F8E433CF89F0A47A
:101E2C002CFCE5F038CF3400CE89F0A42FFFE5F080
:101E3C003EFEE433C98DF0A42EFEE5F039CD8AF0D8
:101E4C00A42FFFE5F03EFEE43DFD33D0E0FB500750
:101E5C000BBB000F021F26EC2CFCEF33FFEE33FE06
:061E6C00ED33FD021EFE35
:101E720075F020800E75F010800575F0087D007EEB
:101E8200007F003392D530D5031220C5EC334010C9
:101E9200EF33FFEE33FEED33FDEC33FCD5F0ED22F4
:0E1EA200E5F0247EA2D513CC92E7CDCEFF2230
:101EB000EDD2E7CD33EC3392D524814006E4FFFE2A
:101EC000FDFC22FCE4CFCECDCC24E0501174FF8089
:101ED000EDC3CC13CCCD13CDCE13CECF13CF047026
:071EE000F030D5DE0220C541
:101EE700E9D2E7C933E833F892D5EDD2E7CD33EC41
:071EF70033FC5002B2D522BA
:101EFE00EC30E7100FBF000C0EBE00080DBD000445
:101F0E000BEB6014A2D5EB13FCED92E7FD2274FFF0
:101F1E00FCFDFEFF22E480F8A2D574FF13FC7D8049
:031F2E00E480EF5D
:03000000023318B0
:0C331800787FE4F6D8FD75817D02335FFC
:101F3100E709F608DFFA8046E709F208DFFA803E92
:101F410088828C83E709F0A3DFFA8032E309F6087F
:101F5100DFFA8078E309F208DFFA807088828C83E7
:101F6100E309F0A3DFFA806489828A83E0A3F6089B
:101F7100DFFA805889828A83E0A3F208DFFA804C75
:101F810080D280FA80C680D4806980F2803380104C
:101F910080A680EA809A80A880DA80E280CA8033B5
:101FA10089828A83ECFAE493A3C8C582C8CCC5832D
:101FB100CCF0A3C8C582C8CCC583CCDFE9DEE780FD
:101FC1000D89828A83E493A3F608DFF9ECFAA9F07C
:101FD100EDFB2289828A83ECFAE0A3C8C582C8CCD2
:101FE100C583CCF0A3C8C582C8CCC583CCDFEADEEB
:101FF100E880DB89828A83E493A3F208DFF980CC4D
:1020010088F0EF60010E4E60C388F0ED2402B40445
:102011000050B9F582EB2402B4040050AF232345EC
:062021008223901F817371
:10202700BB010689828A83E0225002E722BBFE02B7
:09203700E32289828A83E49322EA
:10204000C2D5EC30E709B2D5E4C39DFDE49CFCEEBB
:1020500030E715B2D5E4C39FFFE49EFE1220F5C31E
:10206000E49DFDE49CFC80031220F530D507C3E419
:062070009FFFE49EFE222A
:10207600E88FF0A4CC8BF0A42CFCE98EF0A42CFC09
:102086008AF0EDA42CFCEA8EF0A4CDA8F08BF0A487
:102096002DCC3825F0FDE98FF0A42CCD35F0FCEBE6
:1020A6008EF0A4FEA9F0EB8FF0A4CFC5F02ECD39AB
:0F20B600FEE43CFCEAA42DCE35F0FDE43CFC2218
:1035FF00C2D5E830E70FB2D5E4C39BFBE49AFAE4F7
:10360F0099F9E498F8EC30E717B2D5123635122154
:10361F0086E4C39BFBE49AFAE499F9E498F88003F3
:10362F0012218630D50DE4C39FFFE49EFEE49DFD7D
:04363F00E49CFC22E9
:0E20C500C3E49FFFE49EFEE49DFDE49CFC222C
:1020D300EB9FF5F0EA9E42F0E99D42F0EC6480C884
:0620E30064809845F02224
:0C20E900A42582F582E5F03583F5832202
:10332400022EB4E493A3F8E493A34003F68001F2DD
:1033340008DFF48029E493A3F85407240CC8C333AA
:10334400C4540F4420C8834004F456800146F6DF79
:10335400E4800B0102040810204080903727E47EAB
:10336400019360BCA3FF543F30E509541FFEE4936E
:10337400A360010ECF54C025E060A840B8E493A335
:10338400FAE493A3F8E493A3C8C582C8CAC583CA60
:10339400F0A3C8C582C8CAC583CADFE9DEE780BE18
:013750000078
:1020F500BC000BBE0029EF8DF084FFADF022E4CCCF
:10210500F875F008EF2FFFEE33FEEC33FCEE9DEC97
:10211500984005FCEE9DFE0FD5F0E9E4CEFD22EDDD
:10212500F8F5F0EE8420D21CFEADF075F008EF2F27
:10213500FFED33FD4007985006D5F0F222C398FD18
:052145000FD5F0EA22B5
:10214A0075F008758200EF2FFFEE33FECD33CDCC4C
:10215A0033CCC58233C5829BED9AEC99E5829840CF
:10216A000CF582EE9BFEED9AFDEC99FC0FD5F0D6AC
:10217A00E4CEFBE4CDFAE4CCF9A88222B800C1B9D6
:10218A000059BA002DEC8BF084CFCECDFCE5F0CB14
:10219A00F97818EF2FFFEE33FEED33FDEC33FCEB4D
:1021AA0033FB10D703994004EB99FB0FD8E5E4F908
:1021BA00FA227818EF2FFFEE33FEED33FDEC33FCF5
:1021CA00C933C910D7059BE99A4007EC9BFCE99AE9
:1021DA00F90FD8E0E4C9FAE4CCFB2275F010EF2F2E
:1021EA00FFEE33FEED33FDCC33CCC833C810D7072E
:1021FA009BEC9AE899400AED9BFDEC9AFCE899F869
:0E220A000FD5F0DAE4CDFBE4CCFAE4C8F922FB
:00000001FF
