:102DC7000634000000000000013E00013A01043F04
:102DD70000000000044300000000013C0001330133
:092DE700013B00013200013D0036
:0B2E9900122E7B1228D8121C6480FB54
:092EC3008F80C2A5D2A5D2A7227E
:102E1500E4FDFCC3ED9FEC9E5014E4FBFA0BBB00F4
:0E2E2500010AEBF44A70F60DBD00010C80E5C9
:012E3300227C
:0A2EAF00C2A7D2B2C2A6122EC3229F
:042E8B00122EAFFF55
:0A2E8F00C2A7D2B2D2A6122EC322AF
:1028D800D2B37FC87E00122E15C2B37F207E0312AA
:1028E8002E15D2B3122E15C2A77F367E00122EAF38
:1028F8007FC8122E8F7F3A122EAF7F05122E8F7F40
:10290800FE122EAF7FEF122EAF7FE2122EAF7F8026
:10291800122E8F7FA3122EAF7F07122E8F7FA41245
:102928002EAF7F09122E8F7FFF122EAF7F12122E2D
:102938008F7FFD122EAF7F04122E8F7FF5122EAFE0
:10294800E4FF122E8F7FFB122E8B7FF1122EAF7FAA
:1029580055122E8F7FF8122EAF7F22122E8F7FF303
:10296800122EAF7F52122E8F7FFA122EAF7F2512B2
:102978002E8F7FF4122E8B7FFC122E8B7F11122E3E
:10298800AF7F78122E157F29122EAF7F32022E15B7
:102D51008F828E837F2A7E00122EAFE583FF122E93
:102D61008FAF82122E8FEAFF122E8FAF03122E8F9A
:102D71007F2B122EAFECFF122E8FAF05122E8FE597
:0F2D810030FF122E8FAF31122E8F7F2C022EAF0C
:102E5000AD07AC06C2A7D2B2D2A6ECFF8F80C2A546
:082E6000D2A58D80122EC522BF
:042D90008E088F0911
:102D94007530007531DB7BAF7A00E4FDFCFFFE1279
:102DA4002D51E4FB900000AF09AE08122E50A3E5AC
:102DB4008264B0458370F00BBB00010AEB64DC4A0B
:022DC40070E2BB
:012DC60022EA
:10000E00C6D50000000000E0380000783C00003C3F
:10001E007800003C70C0001CE1E01FFFFFF0001CE8
:10002E00E3000E1CE7C0079CE78003DCEF0003DC57
:10003E00EE0001DCFC60009CF9F07FFFFFF8000091
:10004E00000001C00E0001FFFF0001C00E0001C044
:10005E000E0001C00E0001FFFE0001C00E0001C027
:10006E000E0001C00E0001FFFE0001C00E0001C017
:10007E000E0000000000D6D00000000000070000B7
:10008E0000078000000700000007000000070000C6
:10009E00000701801FFFFFE01FFFFFE01E0701C0EA
:1000AE001E0701C01E0701C01E0701C01E0701C0AA
:1000BE001E0701C01FFFFFC01FFFFFC01E0701C0AC
:1000CE001C07018000070000000700000007000069
:1000DE0000070000000700000007000000070000F6
:1000EE00000700000007000000000000BFC600006F
:1000FE00000000000780003C07C001FC07803FE0C5
:10010E00078039C1C78001C0E78001C0F78001C0F8
:10011E00778001DE77807FFE078001C0078003C3F2
:10012E00C78003E1E78003F8F78007FCE7F00FDEF6
:10013E0067F80FDC07F81FC0FF801DDFE78039CCA2
:10014E00078071C0078061C0078001C0078001C0B1
:10015E00078001E0078001E0078001C00700000072
:10016E000000BCBC000000000380300003C03C0057
:10017E0003C03C0003C0380003C0380003C0386021
:10018E0003F838F07FFFFFF003C0380003C03800DB
:10019E0003C0380003DC39C003FFFFE007E383C070
:1001AE003FC183C07FC1C3803BC1C78003C0EF0086
:1001BE0003C0EF0003C07E0003C07C0003C07C00C0
:1001CE0003C0FE003BC3EF803F8787F80FBF03F8E5
:1001DE00077800E000000000C4EA0000000000C044
:1001EE00000001F0000001E0000003C000C003C0E9
:1001FE0001E007FFFFF00703C0000E03C0001E035F
:10020E00C0003C03C3007303C78063FFFFC00383BA
:10021E00C0000383C0000383C0000383C0000383B8
:10022E00C0600383C0F07FFFFFF80003C00000032F
:10023E00C0000003C0000003C0000003C0000003A4
:10024E00C0000003C0000003C00000000000D4C2C4
:10025E00000000000000000000E0070000FFFF802B
:10026E0000F0078000F0070000F0070000F0070024
:10027E0000F0070000FFFF0000FFFF0000F0070086
:10028E0000F0070000F0070000F0070000E0070094
:10029E0000FFFF0000E0070000E0070000E007009D
:1002AE0001E0070001C0070001C00700038007003E
:1002BE000780F7000F007F001E001F0038001C0093
:1002CE0000000000C8D50000000000000000030080
:1002DE00030003FFFF8003FFFF80038007000380FE
:1002EE0007000380070003800700038007000380D8
:1002FE000700038007000380070003FFFF00038051
:10030E0007000380070003800700038007000380B7
:10031E0007000380070003800700038007000380A7
:10032E00070003FFFF000380070003800700038020
:10033E0007000300000000000000D0C7000000000E
:10034E00000000000380070003FFFF80038007000A
:10035E00038007000380070003FFFF0003800700F0
:10036E000380070003FFFF0003FFFF000387070062
:10037E000387C00003C7810003C7838007FFFFC048
:10038E00070780000F0780001E0786001C078F00DE
:10039E003BFFFF807007800000078000000780E0B1
:1003AE00000781F07FFFFFF8000000000000000052
:1003BE00C6DA0000000006000000079E0000079E3F
:1003CE007FF0079E7FF0079FF8F03FFFF8F01F9E2B
:1003DE0078F0079E78F0079E78F007FE7FF0079E74
:1003EE0078F0079E78F0079E70F007FE70F0079E7B
:1003FE0070F0079E7FF0079FFFF03FFFF0F0119027
:10040E0070F003DCF0F003DEE0F0078FE0F00F0F8A
:10041E00E0F00E07C0F01C038FF0380F03E0201C35
:10042E0001C00000000000000000000000000000FD
:10043E0000000000000000000000000000000000AE
:10044E00000000000000000000000000000000009E
:10045E000000000000000000000000000000070087
:10046E00070007000700070002000200020002005A
:10047E000200020000000000000007000700070055
:10048E0000000000000000000000066006600CC0C6
:10049E001980110022000000000000000000000082
:1004AE00000000000000000000000000000000003E
:1004BE00000000000000000000000000000000002E
:1004CE0010401040104010407FE07FE01040104080
:1004DE00208020807FE07FE0208020802080208090
:1004EE0000000000000000000000000002000200FA
:1004FE000F801AC032C032C032001A000E00070040
:10050E000380038002C032C032C032C012800F009E
:10051E0002000200000000000000000000000000C9
:10052E0070C050808880890089008B008A005FC06F
:10053E00754006200A200A201A201220114021C0E0
:10054E00000000000000000000000000000000009D
:10055E001C00260026002600260025C0388030808C
:10056E0058804900CD00C700C600C300652038C0C2
:10057E0000000000000000000000300038000800FD
:10058E0008001000600000000000000000000000E5
:10059E00000000000000000000000000000000004D
:1005AE00000000000000000000000020004000805D
:1005BE00018001000300030006000600060006008D
:1005CE000600060006000300030001000180008003
:1005DE00004000200000000000004000200010003D
:1005EE00180008000C000C000600060006000600AD
:1005FE000600060006000C000C0008001800100093
:10060E00200040000000000000000000000000007C
:10061E00000002000200020072703AE00F800F80AC
:10062E003AE07270020002000200000000000000BA
:10063E0000000000000000000000000000000000AC
:10064E0000000000020002000200020002007FF023
:10065E000200020002000200020000000000000082
:10066E00000000000000000000000000000000007C
:10067E00000000000000000000000000000000006C
:10068E0000000000000000000000300038000800EC
:10069E0008001000600000000000000000000000D4
:1006AE0000000000000000000000000000007FE0DD
:1006BE00000000000000000000000000000000002C
:1006CE00000000000000000000000000000000001C
:1006DE00000000000000000000000000000000000C
:1006EE000000000000000000000038003800380054
:1006FE00000000000000000000000020006000402C
:10070E0000C000800080010001000200020006000F
:10071E000400040008000800100010003000200043
:10072E00600040000000000000000000000000001B
:10073E000F00198030C030C0606060606060606023
:10074E00606060606060606030C030C019800F0013
:10075E00000000000000000000000000000000008B
:10076E00020006003E000600060006000600060017
:10077E0006000600060006000600060006003FC042
:10078E00000000000000000000000000000000005B
:10079E001F00218040C060C060C000C00180018089
:1007AE000300040008001040204040407FC07FC07E
:1007BE00000000000000000000000000000000002B
:1007CE001E002300618061806180018003000E00A5
:1007DE000180008000C060C060C060C021801F002A
:1007EE00000000000000000000000000000000807B
:1007FE00018003800380058009800980118021809B
:10080E00218041807FE0018001800180018007E02E
:10081E0000000000000000000000000000000000CA
:10082E003FC03FC020002000200020002F0031805C
:10083E0020C000C000C060C060C0418021801F0089
:10084E00000000000000000000000000000000009A
:10085E00078018C030C0300020006000678068C07C
:10086E0070606060606060602060304018C00F0093
:10087E00000000000000000000000000000000006A
:10088E001FE03FE03040208020800080010001000A
:10089E000200020002000600060006000600060026
:1008AE00000000000000000000000000000000003A
:1008BE001F8030C060606060606070403CC00F00A0
:1008CE00338020C0606060606060606030C00F8008
:1008DE00000000000000000000000000000000000A
:1008EE000F00308030C0604060606060606060E02B
:1008FE0031601E60006000C000C0308031801E007C
:10090E0000000000000000000000000000000000D9
:10091E0000000000000000000700070007000000B4
:10092E0000000000000000000000070007000700A4
:10093E0000000000000000000000000000000000A9
:10094E00000000000000000000000600060000008D
:10095E00000000000000000000000000060006007D
:10096E000200040000000000000000000000002053
:10097E00004000800100020004000800100020006A
:10098E00100008000400020001000080004000205A
:10099E000000000000000000000000000000000049
:1009AE00000000000000000000007FE000000000DA
:1009BE00000000007FE000000000000000000000CA
:1009CE0000000000000000000000000000002000F9
:1009DE00100008000400020001000080004000200A
:1009EE0000400080010002000400080010002000FA
:1009FE0000000000000000000000000000000F805A
:100A0E0030C0406040606060606000C001800600E1
:100A1E00040004000400000000000E000E000E0092
:100A2E0000000000000000000000000000000000B8
:100A3E0007801C601020335026D06490649068901C
:100A4E006890699069A066C0301030201840078009
:100A5E000000000000000000000000000000000088
:100A6E00060006000E000B000B0013001180118013
:100A7E0011801F8020C020C020C020606060F0F078
:100A8E000000000000000000000000000000000058
:100A9E00FF00618060C060C060C060C061807F0088
:100AAE0060C06040606060606060606060C0FF80D9
:100ABE000000000000000000000000000000000028
:100ACE0007E01860302030202000600060006000D9
:100ADE0060006000600060203020304018800F0001
:100AEE0000000000000000000000000000000000F8
:100AFE00FE00618060C060C06060606060606060C9
:100B0E00606060606060606060C060C06380FE00B6
:100B1E0000000000000000000000000000000000C7
:100B2E00FFC06040602060006000610061007F00D7
:100B3E006100610060006000602060206040FFC0C6
:100B4E000000000000000000000000000000000097
:100B5E00FFC060C0602060206000610061007F0007
:100B6E006100610060006000600060006000F000E5
:100B7E000000000000000000000000000000000067
:100B8E000F4018C030403040200060006000600010
:100B9E00600063F060C060C030C030C018C00F008D
:100BAE000000000000000000000000000000000037
:100BBE00F0F06060606060606060606060607FE068
:100BCE006060606060606060606060606060F0F0F7
:100BDE000000000000000000000000000000000007
:100BEE003FC00600060006000600060006000600CE
:100BFE0006000600060006000600060006003FC0BE
:100C0E0000000000000000000000000000000000D6
:100C1E000FF0018001800180018001800180018040
:100C2E0001800180018001800180018001800180AE
:100C3E00618063003E000000000000000000000024
:100C4E00F3E0608061006200620064006C007C0072
:100C5E007600670063006380618060C060E0F1F041
:100C6E000000000000000000000000000000000076
:100C7E00F0006000600060006000600060006000D6
:100C8E006000600060006000602060206040FFC077
:100C9E000000000000000000000000000000000046
:100CAE00F0F070E070E070E0596059605960596082
:100CBE005A604E604E604E604E6044604460E4F098
:100CCE000000000000000000000000000000000016
:100CDE00E07070207020582058204C20462046206E
:100CEE004320432041A040E040E040604060E020CF
:100CFE0000000000000000000000000000000000E6
:100D0E000F00198030C030406060606060606060CD
:100D1E006060606060606060304030C019800F00BD
:100D2E0000000000000000000000000000000000B5
:100D3E00FF8060C06060606060606060606060C026
:100D4E007F80600060006000600060006000F00066
:100D5E000000000000000000000000000000000085
:100D6E000F00198030C0304060606060606060606D
:100D7E006060606060606E60324031C011800F80D4
:100D8E0001E000C0000000000000000000000000B4
:100D9E00FF8060C0606060606060606060C07F0007
:100DAE006600630063006180618060C060C0F070A7
:100DBE000000000000000000000000000000000025
:100DCE001F2030E060206020600070003C000F00AB
:100DDE0003C000C0006040604060606070C04F8023
:100DEE0000000000000000000000000000000000F5
:100DFE007FE04620861086100600060006000600DC
:100E0E0006000600060006000600060006000F009B
:100E1E0000000000000000000000000000000000C4
:100E2E00F0706020602060206020602060206020D4
:100E3E0060206020602060206020602030401F8095
:100E4E000000000000000000000000000000000094
:100E5E00F8F070603040304030403080188018809C
:100E6E00188018800D000D000D000F000600060002
:100E7E000000000000000000000000000000000064
:100E8E00F770662066206640664067403740374000
:100E9E003B803B803B803B8039801100110011006C
:100EAE000000000000000000000000000000000034
:100EBE0079E030C01880188019000D000E00060071
:100ECE00060007000B000B801980118030C079E0FE
:100EDE000000000000000000000000000000000004
:100EEE00F8F0706030403080188018800D000D00D2
:100EFE000E000600060006000600060006001F8013
:100F0E0000000000000000000000000000000000D3
:100F1E003FE020C041C001800380030003000600B3
:100F2E0006000C000C0018001820382030407FC03E
:100F3E000000000000000000000007E004000400B4
:100F4E000400040004000400040004000400040073
:100F5E000400040004000400040004000400040063
:100F6E00040007E000000000000000000000200068
:100F7E001000100010000800080004000400040017
:100F8E00020002000100010001000080008000400C
:100F9E00004000400020000000003F000100010062
:100FAE00010001000100010001000100010001002B
:100FBE00010001000100010001000100010001001B
:100FCE0001003F0000000000000007000D801040EF
:100FDE000000000000000000000000000000000003
:100FEE0000000000000000000000000000000000F3
:100FFE0000000000000000000000000000000000E3
:10100E0000000000000000000000000000000000D2
:10101E0000000000000000000000000000000000C2
:10102E0000000000FFF00000000030003800080053
:10103E00080010006000000000000000000000002A
:10104E000000000000000000000000000000000092
:10105E000000000000000000000000000000000082
:10106E00000000000000000000000F8030C030C003
:10107E0007C01CC030C060C060C060C071D03EF000
:10108E000000000000000000000000000000100042
:10109E007000300030003000300033803CC03860CB
:1010AE0030603060306030603060304038C02F804B
:1010BE000000000000000000000000000000000022
:1010CE00000000000000000000000F0031803180A1
:1010DE0061806000600060006040304030800F0032
:1010EE0000000000000000000000000000000040B2
:1010FE0001C000C000C000C000C01EC031C030C062
:10110E0060C060C060C060C060C020C031E01E80A2
:10111E0000000000000000000000000000000000C1
:10112E0000000000000000000000078018C01060E2
:10113E0030603FE030003000300018201C40078047
:10114E000000000000000000000000000000000091
:10115E0003C006600C600C000C007FC00C000C007D
:10116E000C000C000C000C000C000C000C003F805E
:10117E000000000000000000000000000000000061
:10118E00000000000000000000000F70199030C039
:10119E0030C030C019801F0030003E001FC060609C
:1011AE00606070E01F800000000000000000100072
:1011BE0070003000300030003000378038C030C052
:1011CE0030C030C030C030C030C030C030C079E028
:1011DE000000000000000000000000000000000001
:1011EE00060006000000000000003E00060006009B
:1011FE0006000600060006000600060006003FC0B8
:10120E0000000000000000000000000000000000D0
:10121E00018001800000000000000F80018001802D
:10122E0001800180018001800180018001800180A8
:10123E00018033003E00000000000000000010009E
:10124E007000300030003000300033C03100330009
:10125E00320036003E003B0033003180318079E0B1
:10126E00000000000000000000000000000002006E
:10127E003E000600060006000600060006000600F8
:10128E0006000600060006000600060006003FC027
:10129E000000000000000000000000000000000040
:1012AE0000000000000000000000EEE077606660C5
:1012BE006660666066606660666066606660F7704F
:1012CE000000000000000000000000000000000010
:1012DE000000000000000000000073803CC030C021
:1012EE0030C030C030C030C030C030C030C079E007
:1012FE0000000000000000000000000000000000E0
:10130E00000000000000000000000F00198030C037
:10131E006060606060606060606030C030C00F0010
:10132E0000000000000000000000000000000000AF
:10133E0000000000000000000000778038C0306020
:10134E003060306030603060306030C038C0378020
:10135E00300030007C0000000000000000000000A3
:10136E00000000000000000000001E4031C030C030
:10137E0060C060C060C060C060C020C031C01EC010
:10138E0000C000C003E000000000000000000000EC
:10139E0000000000000000000000F9E01A601C00D0
:1013AE001800180018001800180018001800FF0088
:1013BE00000000000000000000000000000000001F
:1013CE00000000000000000000000FE01860302058
:1013DE0030001C000F8001C02060206030C03F80B4
:1013EE0000000000000000000000000000000000EF
:1013FE000000040004000C000C007F800C000C00A8
:10140E000C000C000C000C000C000C400C40078073
:10141E0000000000000000000000000000000000BE
:10142E000000000000000000104071C030C030C04D
:10143E0030C030C030C030C030C030C039E01E8047
:10144E00000000000000000000000000000000008E
:10145E00000000000000000000007CF03860184022
:10146E0018400C800C800C8007000700070002005B
:10147E00000000000000000000000000000000005E
:10148E0000000000000000000000F7B063206320A1
:10149E006720372035C039C039C039C01080108060
:1014AE00000000000000000000000000000000002E
:1014BE00000000000000000000007DE01880198090
:1014CE000D000E00060007000B00198011C07BE016
:1014DE0000000000000000000000000000000000FE
:1014EE00000000000000000000007DE03880188041
:1014FE0018800D000D000D0006000600020004000D
:10150E000400280038000000000000000000000069
:10151E00000000000000000000003FC0218023807A
:10152E000300070006000E000C201C2018603FC0B0
:10153E00000000000000000000000000000000009D
:10154E00000000000000000000000000000000008D
:10155E00000000000000000000000000000000007D
:10156E00000000000000000000000000000000006D
:10157E00000000000000000000000000000000005D
:10158E00000000000000000000000000000000004D
:10159E00000000000000000000000000000000003D
:1015AE00000000000000000000000000000000002D
:1015BE00000000000000000000000000000000001D
:1015CE00000000000000000000000000000000000D
:1015DE0000000000000000000000000000000000FD
:1015EE0000000000000000000000000000000000ED
:1015FE0000000000000000000000000000000000DD
:10160E0000000000000000000000000000000000CC
:10161E0000000000000000000000000000000000BC
:10162E0000000000000000000000000000000000AC
:10163E00000000000000000000000000000000F8A4
:10164E00000386000703000E01800C01C01C00C0C1
:10165E001800C03800E03800E0380060700070708C
:10166E00007070007070007070007070007070000C
:10167E00707000707000707000707000707000708C
:10168E003800603800E03800E01800C01C00C00CC4
:10169E0001800E018006030003860000F8000000A2
:1016AE00000000000000000000000000000000002C
:1016BE00000000000000000000000000000000001C
:1016CE000000000000000000000000000000000804
:1016DE000000180000380007F8000038000038003D
:1016EE0000380000380000380000380000380000D4
:1016FE00380000380000380000380000380000388C
:10170E0000003800003800003800003800003800B3
:10171E0000380000380000380000380000380000A3
:10172E003800003800003800007C0007FFC00000C1
:10173E00000000000000000000000000000000009B
:10174E00000000000000000000000000000000008B
:10175E00000000000000000000000000000000FC7F
:10176E00000307000C03801801C01801C03800E008
:10177E003800E03800E03C00E03C00E01C00E000F7
:10178E0001C00001C0000380000380000700000EAE
:10179E0000001C0000380000700000E00001C000D6
:1017AE000380000300000600200C002018006030AB
:1017BE0000602000C07FFFC07FFFC07FFFC0000021
:1017CE00000000000000000000000000000000000B
:1017DE0000000000000000000000000000000000FB
:1017EE00000000000000000000000000000000FCEF
:1017FE00000307000603800C01C01C01C01C00E0A2
:10180E001E00E01E00E00E00E00000E00000C00040
:10181E0001C0000180000300000E0000F800000F60
:10182E00000001800000C00000E0000060000070B9
:10183E000000701800703C00703C00703C00603876
:10184E0000E01800C00C018006070001FC0000003B
:10185E00000000000000000000000000000000007A
:10186E00000000000000000000000000000000006A
:10187E000000000000000000000000000000000357
:10188E0000000700000700000F00001F00001700F7
:10189E0000370000270000670000C7000087000126
:1018AE008700030700020700060700040700080769
:1018BE00001807001007003007006007007FFFF8D0
:1018CE007FFFF80007000007000007000007000078
:1018DE00070000070000070000078000FFF8000067
:1018EE0000000000000000000000000000000000EA
:1018FE0000000000000000000000000000000000DA
:10190E0000000000000000000000000000000FFFBB
:10191E00E00FFFE00FFFE0080000080000080000E5
:10192E000800000800001000001000001000001059
:10193E00FE0013FF001703801C01C01C00E01800FE
:10194E00E00000F0000070000070000070000070F9
:10195E001800703C00703C00703C00603800E018CD
:10196E0000E01801C00C018007070001FC00000018
:10197E000000000000000000000000000000000059
:10198E000000000000000000000000000000000049
:10199E000000000000000000000000000000007EBB
:1019AE00000183800303800603C00C03C01803C02C
:1019BE0018000018000038000030000030000070E1
:1019CE000000707E0071FF807783C07601C07C00BE
:1019DE00E07800E070007070007070007070007041
:1019EE007000703000703800703800701800601C85
:1019FE0000E00C00C006018003830000FC00000024
:101A0E0000000000000000000000000000000000C8
:101A1E0000000000000000000000000000000000B8
:101A2E0000000000000000000000000000001FFF8A
:101A3E00F01FFFF01FFFE01C00601000C0300080A0
:101A4E0020018020010000030000020000060000BB
:101A5E000400000C00000800001800001800003000
:101A6E000000300000700000600000600000E00028
:101A7E0000E00000E00000E00001E00001E00001F5
:101A8E00E00001E00001E00001E00000E0000000E5
:101A9E000000000000000000000000000000000038
:101AAE000000000000000000000000000000000028
:101ABE00000000000000000000000000000001FE19
:101ACE00000703800E01C01C00E01800E038007013
:101ADE003800703800703800703C00701E00E01F37
:101AEE0000E00F81C007E38003FE0003FE00063F07
:101AFE00000C0F801C07C03801E03801E07000F0C8
:101B0E00700070700070700070700070700070382F
:101B1E0000E01800C00C01C007030001FC0000002B
:101B2E0000000000000000000000000000000000A7
:101B3E000000000000000000000000000000000097
:101B4E00000000000000000000000000000001F88E
:101B5E00000706000C01001C01803800C03800C0D0
:101B6E003000607000607000607000707000707007
:101B7E0000707000707000F03800F03801F03C0317
:101B8E00701F0E700FFC7003F0700000600000E01C
:101B9E000000E00000E00000C00001C00C01801E4B
:101BAE0003801E03001E06000E1C0003F000000042
:101BBE000000000000000000000000000000000017
:101BCE000000000000000000000000000000000007
:101BDE0000000000000000000000000000000000F7
:101BEE0000000000000000000000000000000000E7
:101BFE00000000000000000000000000007800005F
:101C0E00FC0000FC0000FC0000FC0000780000005E
:101C1E0000000000000000000000000000000000B6
:101C2E00000000000000000000000000007800002E
:101C3E00FC0000FC0000FC0000FC0000780000002E
:101C4E000000000000000000000000000000000086
:061C5E0000000000000080
:0A2EB900F582E43583F583E49322EB
:0C2C33008E258F268A278B288D828C83AB
:102C3F00E52624FFFFE52534FFFEE58224FFFDE5B1
:102C4F008334FFFCE5262402FBE43525FAE58224D4
:102C5F0002F531E43583F530122D51E4F529AF2813
:0E2C6F00AE27122E500529E529C3941040F01F
:012C7D002234
:1023F300E4F513F514F515F516C3EB9FF518E49EF4
:10240300F517C3E50E9DF51AE50D9CF5198E238F7F
:10241300248C218D22D3E5189400E51764809480E1
:102423004008751D00751E01801DE51845177006CF
:10243300F51DF51E801174FFF51DF51EC3E49518F7
:10244300F518E49517F517D3E51A9400E519648098
:1024530094804008751F00752001801DE51A4519F9
:102463007006F51FF520801174FFF51FF520C3E4F6
:10247300951AF51AE49519F519D3E518951AE5197E
:102483006480F8E517648098400885171B85181C3D
:10249300800685191B851A1CE4F511F512E51C2429
:1024A30001FFE4351BFED3E5129FE5119E400302B5
:1024B3002539AB10AA0FAD22AC21AF24AE23122CC9
:1024C30033E5182514F514E5173513F513E51A2527
:1024D30016F516E5193515F515D3E514951CE51B09
:1024E3006480F8E5136480984018E514951CF5148E
:1024F300E513951BF513E51E2524F524E51D35236A
:10250300F523D3E516951CE51B6480F8E515648077
:10251300984018E516951CF516E515951BF515E578
:10252300202522F522E51F3521F5210512E512703C
:062533000205110224A0C4
:01253900227F
:0E2998008E1A8F1B8C1C8D1D8B1E8A1F892092
:1029A600AB1EAA1FA92012213C7003022A3C24E078
:1029B600F527E51B240FFBE4351AFAE51D2417F568
:1029C60031E4351CF530AD1DAC1CAF1BAE1A122D13
:1029D60051E4F52675F030E5279004341221BAE566
:1029E600822526122EB9752800F529E4F525E52954
:1029F60030E706AF22AE218004AF24AE23122E505C
:102A0600E52925E0F529E52833F5280525E525C33B
:102A1600940840DA0526E526C3943040B7740125AC
:102A260020F520E4351FF51F7410251BF51BE43532
:062A36001AF51A0229A6A0
:012A3C002277
:0E2A3D008E1A8F1B8C1C8D1D8B1E8A1F8920EC
:102A4B00AB1EAA1FA92012213C7003022AE124D03D
:102A5B00F527E51B2417FBE4351AFAE51D242FF5A2
:102A6B0031E4351CF530AD1DAC1CAF1BAE1A122D6D
:102A7B0051E4F52675F090E5279016341221BAE54E
:102A8B00822526122EB9752800F529E4F525E529AE
:102A9B0030E706AF22AE218004AF24AE23122E50B6
:102AAB00E52925E0F529E52833F5280525E525C396
:102ABB00940840DA0526E526C3949040B7740125A7
:102ACB0020F520E4351FF51F7418251BF51BE43585
:062ADB001AF51A022A4B55
:012AE10022D2
:102E6800E51225E02413F8E6FE08E6FFEA25E0244B
:032E780013F8222A
:0B2EA400C2A1D2A3D2A2D2A1C2A322DD
:102E3400C2A1E4FEEFC4131313540124FF92A2EFC2
:0B2E440025E0FFC2A1D2A10EBE08E9EC
:012E4F002260
:102DF100E4FFFEC2A1FDFCEF25E0FFEE33FED2A110
:102E0100C2A1A2A0E43342070DBD00010CED640C88
:032E11004C70E41E
:012E1400229B
:02281600AB070E
:10281800C2A1C2A3E4FAAF03122E34751206D51270
:10282800FDD2A10000C2A10000122DF1122E74A643
:102838000608A6070ABA0ADED2A3E4FAEA04F512E1
:10284800E512C3940A5038122E68E6FC08E6C39FC6
:10285800EC9E5027122E74E6FE08E6FFE48F2A8EBF
:1028680029F528F527122E68A60608A607AF2AE537
:102878001225E02413F8A62908A607051280C10A24
:10288800EA640970B7E4F52AF529F528F5277A02EC
:10289800122E74E6FE08E6FFE4FCFDE52A2FFFE5AC
:1028A800293EFEED3528FDEC35278F2A8E298D2807
:1028B800F5270ABA08DAAF2AAE29AD28AC27E47B97
:0F28C80006FAF9F8122D0D8F2A8E298D288C27EC
:0128D70022DE
:10274F00122EA47FD01228168E088F097F90122880
:10275F00168E0E8F0F7FD01228168E0A8F0B7F903A
:10276F00122816AD07AC06D3E509950BE508950AB7
:10277F00400EE509950BF50DE508950AF50C800D52
:10278F00C3E50B9509F50DE50A9508F50CD3E50F93
:10279F009DE50E9C400CE50F9DF511E50E9CF51087
:1027AF00800BC3ED950FF511EC950EF510D3E50DDC
:1027BF009432E50C9400500AE5119432E510940020
:1027CF0040037F0022E509250BFFE508350AC313F7
:1027DF00F547EF13F548E50F2DFFE50E3CC313F555
:1027EF0049EF13F54A5348F0534AF0C3E548946450
:1027FF00E5479400400BD3E54A94A0E549940F4078
:06280F00037F00227F019F
:0128150022A0
:102B6E00E47F73D3AB42AA41A940A83FFEFDFC020D
:102B7E0021A47F5FE4FEFDFCAB46AA45A944A84311
:102B8E0022153E7434253EF8A63D227F87E4A843E5
:102B9E00FEFDFC0221A47434253EF8E6F53D227FAD
:102BAE003CE4FEFDFCAB42AA41A940A83FC3022172
:102BBE00A4053EE53E64012234FFFCE4FAF9F81266
:0F2BCE002155E422E47F69FEFDFCA83F0221A40B
:101C6400E53364017025E53AB40109E4FFFE122D61
:101C740090E4F53A12274FEF6401600512253A808B
:101C8400F3E4F533753201F53BF53EE53CB401115F
:101C9400122294122648E4F53CF532753B01753A5C
:101CA4000112274FEF64016003021F9985484285A2
:101CB4004741F540F53FE54224D0FFE54134FEFEBF
:101CC400E54034FFFDE53F7BAF122BC67B5E7A0D0A
:101CD400F9F8122D0D8F428E418D408C3FE4854AD8
:101CE40046854945F544F5432546FFE54534FFFE61
:101CF400E54434FFFDE5437BDB122BC67B707A0D94
:101D0400F9F8122D0D8F468E458D448C43E47FAE39
:101D1400122B71400AE47542AEF541F540F53F7F60
:101D2400DA122B82D31221A4400AE47546DAF5456F
:101D3400F544F543E532B40113122B6E400EE47FF3
:101D440018122B86122B7A5003753C01E53B640173
:101D54006003021F99C2A9122B6F401DE47F2D124C
:101D64002B83D31221A440117F55122B9B500A744C
:101D740034253EF8E4F6121F9AE47F3CC3122B721A
:101D84005017122B801221A4400F122B99500A7461
:101D940034253EF87601121F9AE47F46122B7140D7
:101DA40023E47F69A83F122B9E5019122B80122125
:101DB400A44011122B99500C7434253EF876020578
:101DC4003E121FBE122B6E4020122B80D31221A470
:101DD4004017122B995012122BA47603053EE53EB0
:101DE400B40103122B8F121FBE122BAD5025E47FBA
:101DF40091122B831221A4401AE47FA5122B9C502C
:101E040012122BA47604053EE53EB40103122B8F77
:101E1400121FE0E47F46122B714037122BD250324E
:101E2400E47F91122B831221A44027E47FA5122B77
:101E34009C501F122BA47605053EE53EB401031207
:101E44002B8FE534B40208E53EB40203122B8F1243
:101E54001FE0122B6E403CE47F91122B83D312219E
:101E6400A44030E47FA5122B9C5028122BA47606A4
:101E7400122BBF600BE53E64036005E53EB4050329
:101E8400122B8FE534B40208E53EB40203122B8F03
:101E9400122002122BAD5054E47FAF122B83122177
:101EA400A440067F01C00780047F00C007E47FCD03
:101EB400122B83C31221A450047E0180027E00D021
:101EC400E05E6028122BA47607122BBF600BE53E60
:101ED40064036005E53EB40503122B8FE534B402B8
:101EE40008E53EB40203122B8F122002E47F46124F
:101EF4002B714040122BD2503BE47FAF122B831244
:101F040021A44030E47FCD122B9C5028122BA476C0
:101F140008122BBF600BE53E64036005E53EB40583
:101F240003122B8FE534B40208E53EB40203122BEE
:101F34008F122024122B6E403CE47FAF122B83D3EC
:101F44001221A44030E47FCD122B9C5028122BA4E4
:101F54007609122BBF600BE53E64036005E53EB4D1
:101F64000503122B8FE534B40208E53EB4020312D4
:101F74002B8F122024E53EB40603E4F53E7F37128E
:101F84002BAF5011E47F18122B83C31221A45005E8
:101F9400753301D2A922053EE53475F00AA425352E
:101FA400F54BE53675F00AA42537F54CE53875F0A0
:101FB4000AA42539F54D12264822E53475F00AA401
:101FC4002535F54BE53675F00AA42537F54CE5388B
:101FD40075F00AA42539F54D12264822E53475F02A
:101FE4000AA42535F54BE53675F00AA42537F54CDA
:101FF400E53875F00AA42539F54D12264822E53452
:1020040075F00AA42535F54BE53675F00AA4253795
:10201400F54CE53875F00AA42539F54D1226482209
:10202400E53475F00AA42535F54BE53675F00AA4B8
:102034002537F54CE53875F00AA42539F54D1226F7
:02204400482230
:102C7E00434C4F434B0031003200330034003500DB
:102C8E00360037003800390030004241434B003ADD
:102C9E00005345540000000000000000000000003A
:102CAE000000000000000000000000000000000016
:092CBE000000000000000000000D
:102BDD007A2C799D7BFF7521F8752200E4F523F59C
:102BED0024227D007BFF7E007F030221167B007572
:102BFD0021F8752200E4F523F52422E54B75F00A42
:102C0D0084E5F0243022E54B75F00A8424302275DA
:102C1D000FF8751000227BFF75210075221FE4F55A
:062C2D0023F524FDFC224A
:10229400E4FFFE122D907BFF7A2C797E7521FF7569
:1022A40022E0E4F523F5247D18FC7F2FFE12299803
:1022B400750D00750E32122C1C7D3212239C750E86
:1022C4005A122C1C7D5A12239C750E82122C1C7BD4
:1022D4009B7D827F141223EB750D00750EAA122CC0
:1022E4001C7DAA1223AB7DD21223AB7B417D5A7F86
:1022F400411223EB750D00750ED2122C1C7B6E7DE2
:10230400327C007F6E7E001223F37A2C7984122BA8
:10231400E17F1F1223C37A2C7986122BE37D5E1290
:1023240023CD7A2C7988122BE37F7F1223C37A2C56
:10233400798A122BE37D861223E17A2C798C122B75
:10234400E37D861223CD7A2C798E122BE37D8612BF
:1023540023D77A2C7990122BE37DAE1223E17A2CC9
:102364007992122BE37DAEFC7F51FE1229987BFFFC
:102374007A2C7994122BE37DAE1223D77A2C79969A
:10238400122BE37D3AFC7F7FFE1229987A2C7998F0
:10239400122C23FFFE0229987B9B7C007F147E0075
:1023A4001223F3750D00227B9B7C007F147E0012A8
:1023B40023F3750D00750ED2750FF8751000227D8C
:1023C4005EFCFE1229987BFF22FC7F51FE122998A5
:1023D4007BFF22FC7F7FFE1229987BFF22FC7F1F5C
:0F23E400FE1229987BFF227C007E001223F32239
:10253A0078087C007A2C79A3122BEF780B7C007A2E
:10254A002C79A6122BEF780E7C007D007BFF7A2C6B
:10255A0079A9122BF378117C007D007BFF7A2C7904
:10256A00AC122BF378147C007D007BFF7A2C79AFB8
:10257A00122BF378177C007D007BFF7A2C79B2123C
:10258A002BF3122C13F508122C08F50BE54C122C20
:10259A0015F50EE54C122C0AF511E54D122C15F520
:1025AA0014E54D122C0AF5177A007908122BFA7FD6
:1025BA000A1226407A00790B122BFA7F1E12261D68
:1025CA007F321226367A00790E122BFC7F461226AB
:1025DA00407B007A007911122BFC7F5A12261D7F4C
:1025EA006E1226367A007914122BFC7D64FC7F82E7
:1025FA00FE122A3D7B007A007917122BFC7D64FCBF
:10260A007F96FE122A3D7A2C799F122C237F7FFE19
:03261A00022998FA
:10261D007D64FCFE122A3D7BFF7A2C799D7521F895
:10262D00752200E4F523F524227D5EFCFE122A3D81
:0B263D007B00227D64FCFE122A3D227F
:1026480078087C007D007BFF7A2C79B5122BF37813
:102658000B7C007D007BFF7A2C79B8122BF3780E67
:102668007C007D007BFF7A2C79BB122BF378117CE0
:10267800007D007BFF7A2C79BE122BF378147C0046
:102688007D007BFF7A2C79C1122BF378177C007DB3
:10269800007BFF7A2C79C4122BF3122C13F5081245
:1026A8002C08F50BE54C122C15F50EE54C122C0AEE
:1026B800F511E54D122C15F514E54D122C0AF517F8
:1026C800122BDD7D38FC7F27FE122998122BDD7D29
:1026D80038FC7F47FE1229987B007A007908122B74
:1026E800E37F1112273B7A00790B122BE37F1D122F
:1026F800273B7A00790E122BE37F311227457A00A7
:102708007911122BE37F3D1227457A007914122B99
:10271800E37D3AFC7F51FE1229987B007A007917F5
:10272800122BE37D3AFC7F5DFE1229987FE87E0339
:03273800022E1559
:10273B007D3AFCFE1229987B00227D3AFCFE122981
:04274B00987B002255
:102E7B00758901758C3C758AB0D2A9D28CD2AF22E0
:03000B00022CC7FD
:102CC700C0E0C0D0758C3C758AB0E54EC394144003
:102CD7002E754E00E54D943B5004054D8023754DF0
:102CE70000E54CC3943B5004054C8015754C00E53A
:102CF7004BC394175004054B8007754B00800205A2
:062D07004ED0D0D0E032F6
:03000000022AE2EF
:0C2AE200787FE4F6D8FD75814E022B29A8
:10204600E709F608DFFA8046E709F208DFFA803E7C
:1020560088828C83E709F0A3DFFA8032E309F60869
:10206600DFFA8078E309F208DFFA807088828C83D1
:10207600E309F0A3DFFA806489828A83E0A3F60885
:10208600DFFA805889828A83E0A3F208DFFA804C5F
:1020960080D280FA80C680D4806980F28033801036
:1020A60080A680EA809A80A880DA80E280CA80339F
:1020B60089828A83ECFAE493A3C8C582C8CCC58317
:1020C600CCF0A3C8C582C8CCC583CCDFE9DEE780E7
:1020D6000D89828A83E493A3F608DFF9ECFAA9F066
:1020E600EDFB2289828A83ECFAE0A3C8C582C8CCBC
:1020F600C583CCF0A3C8C582C8CCC583CCDFEADED5
:10210600E880DB89828A83E493A3F208DFF980CC36
:1021160088F0EF60010E4E60C388F0ED2402B4042F
:102126000050B9F582EB2402B4040050AF232345D6
:0621360082239020967345
:10213C00BB010689828A83E0225002E722BBFE02A1
:09214C00E32289828A83E49322D4
:10215500E88FF0A4CC8BF0A42CFCE98EF0A42CFC29
:102165008AF0EDA42CFCEA8EF0A4CDA8F08BF0A4A7
:102175002DCC3825F0FDE98FF0A42CCD35F0FCEB06
:102185008EF0A4FEA9F0EB8FF0A4CFC5F02ECD39CB
:0F219500FEE43CFCEAA42DCE35F0FDE43CFC2238
:102D0D00C2D5E830E70FB2D5E4C39BFBE49AFAE4F1
:102D1D0099F9E498F8EC30E717B2D5122D43122249
:102D2D0002E4C39BFBE49AFAE499F9E498F8800372
:102D3D0012220230D50DE4C39FFFE49EFEE49DFDFB
:042D4D00E49CFC22E4
:1021A400EB9FF5F0EA9E42F0E99D42F0EC6480C8B2
:0621B40064809845F02252
:0C21BA00A42582F582E5F03583F5832230
:102AEE00022E99E493A3F8E493A34003F68001F237
:102AFE0008DFF48029E493A3F85407240CC8C333E9
:102B0E00C4540F4420C8834004F456800146F6DFB7
:102B1E00E4800B0102040810204080902DC7E47E53
:102B2E00019360BCA3FF543F30E509541FFEE493AC
:102B3E00A360010ECF54C025E060A840B8E493A373
:102B4E00FAE493A3F8E493A3C8C582C8CAC583CA9E
:102B5E00F0A3C8C582C8CAC583CADFE9DEE780BE56
:012DF00000E2
:1021C60075F008758200EF2FFFEE33FECD33CDCCD0
:1021D60033CCC58233C5829BED9AEC99E582984053
:1021E6000CF582EE9BFEED9AFDEC99FC0FD5F0D630
:1021F600E4CEFBE4CDFAE4CCF9A88222B800C1B95A
:102206000059BA002DEC8BF084CFCECDFCE5F0CB97
:10221600F97818EF2FFFEE33FEED33FDEC33FCEBD0
:1022260033FB10D703994004EB99FB0FD8E5E4F98B
:10223600FA227818EF2FFFEE33FEED33FDEC33FC78
:10224600C933C910D7059BE99A4007EC9BFCE99A6C
:10225600F90FD8E0E4C9FAE4CCFB2275F010EF2FB1
:10226600FFEE33FEED33FDCC33CCC833C810D707B1
:102276009BEC9AE899400AED9BFDEC9AFCE899F8EC
:0E2286000FD5F0DAE4CDFBE4CCFAE4C8F9227F
:00000001FF
