:10381000060A000000000000011400011001041558
:10382000000000000419000000000112000109015D
:0938300001110001080001130060
:1037B600E4AB18AA17A916A815FEFDFCD30220C370
:1037C60078217C007D007B007A00796E7E007F0385
:0F37D600021FF134FFFCE4FAF9F8122066E42236
:102DBF00E4F5A01231D2E4FFFE12377F123A561219
:102DCF003A8C1237C61237C6122AAD123A8C123508
:102DDF008B122F7A123049BF01EBE4857618857577
:102DEF0017F516F515E51824D0FFE51734FEFEE5A7
:102DFF001634FFFDE5157BAF1237D97B5E7A0DF9DF
:102E0F00F81236B98F188E178D168C15E485781C2D
:102E1F0085771BF51AF519251CFFE51B34FFFEE519
:102E2F001A34FFFDE5197BDB1237D97B707A0DF968
:102E3F00F81236B98F1C8E1B8D1A8C197FAE123774
:102E4F00B6400AE47518AEF517F516F515E47FDAF6
:102E5F00AB1CAA1BA91AA8191237BF400AE4751C8C
:102E6F00DAF51BF51AF5197F731237B65003022DD9
:102E7F00D4E47F18FEFDFCAB1CAA1BA91AA81912DB
:102E8F0020C34003022DD412268CE4FFFE12377F9D
:032E9F00022DD42D
:093AC9008F80C2A5D2A5D2A7226C
:1038EB00E4FDFCC3ED9FEC9E5014E4FBFA0BBB0014
:0E38FB00010AEBF44A70F60DBD00010C80E5E9
:01390900229B
:0A3A9700C2A7D2B2C2A6123AC92299
:043A6600123A97FF7A
:0A3A6A00C2A7D2B2D2A6123AC922B6
:1031D200D2B37FC87E001238EBC2B37F207E0312C7
:1031E20038EBD2B31238EBC2A77F367E00123A9781
:1031F2007FC8123A6A7F3A123A977F05123A6A7F7B
:10320200FE123A977FEF123A977FE2123A977F8047
:10321200123A6A7FA3123A977F07123A6A7FA41280
:103222003A977F09123A6A7FFF123A977F12123A4F
:103232006A7FFD123A977F04123A6A7FF5123A9733
:10324200E4FF123A6A7FFB123A667FF1123A977FE5
:1032520055123A6A7FF8123A977F22123A6A7FF33E
:10326200123A977F52123A6A7FFA123A977F2512E0
:103272003A6A7FF4123A667FFC123A667F11123A7A
:10328200977F781238EB7F29123A977F320238EB18
:103740008F828E837F2A7E00123A97E583FF123A9A
:103750006AAF82123A6AEAFF123A6AAF03123A6A11
:103760007F2B123A97ECFF123A6AAF05123A6AE5DC
:0F37700051FF123A6AAF52123A6A7F2C023A970F
:1039E800AD07AC06C2A7D2B2D2A6ECFF8F80C2A5A3
:0839F800D2A58D80123ACB220A
:04377F008E278F28DA
:103783007551007552DB7BAF7A00E4FDFCFFFE123E
:103793003740E4FB900000AF28AE271239E8A3E5D9
:1037A3008264B0458370F00BBB00010AEB64DC4A12
:0237B30070E2C2
:0137B50022F1
:10000E00C6D50000000000E0380000783C00003C3F
:10001E007800003C70C0001CE1E01FFFFFF0001CE8
:10002E00E3000E1CE7C0079CE78003DCEF0003DC57
:10003E00EE0001DCFC60009CF9F07FFFFFF8000091
:10004E00000001C00E0001FFFF0001C00E0001C044
:10005E000E0001C00E0001FFFE0001C00E0001C027
:10006E000E0001C00E0001FFFE0001C00E0001C017
:10007E000E0000000000D6D00000000000070000B7
:10008E0000078000000700000007000000070000C6
:10009E00000701801FFFFFE01FFFFFE01E0701C0EA
:1000AE001E0701C01E0701C01E0701C01E0701C0AA
:1000BE001E0701C01FFFFFC01FFFFFC01E0701C0AC
:1000CE001C07018000070000000700000007000069
:1000DE0000070000000700000007000000070000F6
:1000EE00000700000007000000000000BFC600006F
:1000FE00000000000780003C07C001FC07803FE0C5
:10010E00078039C1C78001C0E78001C0F78001C0F8
:10011E00778001DE77807FFE078001C0078003C3F2
:10012E00C78003E1E78003F8F78007FCE7F00FDEF6
:10013E0067F80FDC07F81FC0FF801DDFE78039CCA2
:10014E00078071C0078061C0078001C0078001C0B1
:10015E00078001E0078001E0078001C00700000072
:10016E000000BCBC000000000380300003C03C0057
:10017E0003C03C0003C0380003C0380003C0386021
:10018E0003F838F07FFFFFF003C0380003C03800DB
:10019E0003C0380003DC39C003FFFFE007E383C070
:1001AE003FC183C07FC1C3803BC1C78003C0EF0086
:1001BE0003C0EF0003C07E0003C07C0003C07C00C0
:1001CE0003C0FE003BC3EF803F8787F80FBF03F8E5
:1001DE00077800E000000000C4EA0000000000C044
:1001EE00000001F0000001E0000003C000C003C0E9
:1001FE0001E007FFFFF00703C0000E03C0001E035F
:10020E00C0003C03C3007303C78063FFFFC00383BA
:10021E00C0000383C0000383C0000383C0000383B8
:10022E00C0600383C0F07FFFFFF80003C00000032F
:10023E00C0000003C0000003C0000003C0000003A4
:10024E00C0000003C0000003C00000000000D4C2C4
:10025E00000000000000000000E0070000FFFF802B
:10026E0000F0078000F0070000F0070000F0070024
:10027E0000F0070000FFFF0000FFFF0000F0070086
:10028E0000F0070000F0070000F0070000E0070094
:10029E0000FFFF0000E0070000E0070000E007009D
:1002AE0001E0070001C0070001C00700038007003E
:1002BE000780F7000F007F001E001F0038001C0093
:1002CE0000000000C8D50000000000000000030080
:1002DE00030003FFFF8003FFFF80038007000380FE
:1002EE0007000380070003800700038007000380D8
:1002FE000700038007000380070003FFFF00038051
:10030E0007000380070003800700038007000380B7
:10031E0007000380070003800700038007000380A7
:10032E00070003FFFF000380070003800700038020
:10033E0007000300000000000000D0C7000000000E
:10034E00000000000380070003FFFF80038007000A
:10035E00038007000380070003FFFF0003800700F0
:10036E000380070003FFFF0003FFFF000387070062
:10037E000387C00003C7810003C7838007FFFFC048
:10038E00070780000F0780001E0786001C078F00DE
:10039E003BFFFF807007800000078000000780E0B1
:1003AE00000781F07FFFFFF8000000000000000052
:1003BE00C6DA0000000006000000079E0000079E3F
:1003CE007FF0079E7FF0079FF8F03FFFF8F01F9E2B
:1003DE0078F0079E78F0079E78F007FE7FF0079E74
:1003EE0078F0079E78F0079E70F007FE70F0079E7B
:1003FE0070F0079E7FF0079FFFF03FFFF0F0119027
:10040E0070F003DCF0F003DEE0F0078FE0F00F0F8A
:10041E00E0F00E07C0F01C038FF0380F03E0201C35
:10042E0001C00000000000000000000000000000FD
:10043E0000000000000000000000000000000000AE
:10044E00000000000000000000000000000000009E
:10045E000000000000000000000000000000070087
:10046E00070007000700070002000200020002005A
:10047E000200020000000000000007000700070055
:10048E0000000000000000000000066006600CC0C6
:10049E001980110022000000000000000000000082
:1004AE00000000000000000000000000000000003E
:1004BE00000000000000000000000000000000002E
:1004CE0010401040104010407FE07FE01040104080
:1004DE00208020807FE07FE0208020802080208090
:1004EE0000000000000000000000000002000200FA
:1004FE000F801AC032C032C032001A000E00070040
:10050E000380038002C032C032C032C012800F009E
:10051E0002000200000000000000000000000000C9
:10052E0070C050808880890089008B008A005FC06F
:10053E00754006200A200A201A201220114021C0E0
:10054E00000000000000000000000000000000009D
:10055E001C00260026002600260025C0388030808C
:10056E0058804900CD00C700C600C300652038C0C2
:10057E0000000000000000000000300038000800FD
:10058E0008001000600000000000000000000000E5
:10059E00000000000000000000000000000000004D
:1005AE00000000000000000000000020004000805D
:1005BE00018001000300030006000600060006008D
:1005CE000600060006000300030001000180008003
:1005DE00004000200000000000004000200010003D
:1005EE00180008000C000C000600060006000600AD
:1005FE000600060006000C000C0008001800100093
:10060E00200040000000000000000000000000007C
:10061E00000002000200020072703AE00F800F80AC
:10062E003AE07270020002000200000000000000BA
:10063E0000000000000000000000000000000000AC
:10064E0000000000020002000200020002007FF023
:10065E000200020002000200020000000000000082
:10066E00000000000000000000000000000000007C
:10067E00000000000000000000000000000000006C
:10068E0000000000000000000000300038000800EC
:10069E0008001000600000000000000000000000D4
:1006AE0000000000000000000000000000007FE0DD
:1006BE00000000000000000000000000000000002C
:1006CE00000000000000000000000000000000001C
:1006DE00000000000000000000000000000000000C
:1006EE000000000000000000000038003800380054
:1006FE00000000000000000000000020006000402C
:10070E0000C000800080010001000200020006000F
:10071E000400040008000800100010003000200043
:10072E00600040000000000000000000000000001B
:10073E000F00198030C030C0606060606060606023
:10074E00606060606060606030C030C019800F0013
:10075E00000000000000000000000000000000008B
:10076E00020006003E000600060006000600060017
:10077E0006000600060006000600060006003FC042
:10078E00000000000000000000000000000000005B
:10079E001F00218040C060C060C000C00180018089
:1007AE000300040008001040204040407FC07FC07E
:1007BE00000000000000000000000000000000002B
:1007CE001E002300618061806180018003000E00A5
:1007DE000180008000C060C060C060C021801F002A
:1007EE00000000000000000000000000000000807B
:1007FE00018003800380058009800980118021809B
:10080E00218041807FE0018001800180018007E02E
:10081E0000000000000000000000000000000000CA
:10082E003FC03FC020002000200020002F0031805C
:10083E0020C000C000C060C060C0418021801F0089
:10084E00000000000000000000000000000000009A
:10085E00078018C030C0300020006000678068C07C
:10086E0070606060606060602060304018C00F0093
:10087E00000000000000000000000000000000006A
:10088E001FE03FE03040208020800080010001000A
:10089E000200020002000600060006000600060026
:1008AE00000000000000000000000000000000003A
:1008BE001F8030C060606060606070403CC00F00A0
:1008CE00338020C0606060606060606030C00F8008
:1008DE00000000000000000000000000000000000A
:1008EE000F00308030C0604060606060606060E02B
:1008FE0031601E60006000C000C0308031801E007C
:10090E0000000000000000000000000000000000D9
:10091E0000000000000000000700070007000000B4
:10092E0000000000000000000000070007000700A4
:10093E0000000000000000000000000000000000A9
:10094E00000000000000000000000600060000008D
:10095E00000000000000000000000000060006007D
:10096E000200040000000000000000000000002053
:10097E00004000800100020004000800100020006A
:10098E00100008000400020001000080004000205A
:10099E000000000000000000000000000000000049
:1009AE00000000000000000000007FE000000000DA
:1009BE00000000007FE000000000000000000000CA
:1009CE0000000000000000000000000000002000F9
:1009DE00100008000400020001000080004000200A
:1009EE0000400080010002000400080010002000FA
:1009FE0000000000000000000000000000000F805A
:100A0E0030C0406040606060606000C001800600E1
:100A1E00040004000400000000000E000E000E0092
:100A2E0000000000000000000000000000000000B8
:100A3E0007801C601020335026D06490649068901C
:100A4E006890699069A066C0301030201840078009
:100A5E000000000000000000000000000000000088
:100A6E00060006000E000B000B0013001180118013
:100A7E0011801F8020C020C020C020606060F0F078
:100A8E000000000000000000000000000000000058
:100A9E00FF00618060C060C060C060C061807F0088
:100AAE0060C06040606060606060606060C0FF80D9
:100ABE000000000000000000000000000000000028
:100ACE0007E01860302030202000600060006000D9
:100ADE0060006000600060203020304018800F0001
:100AEE0000000000000000000000000000000000F8
:100AFE00FE00618060C060C06060606060606060C9
:100B0E00606060606060606060C060C06380FE00B6
:100B1E0000000000000000000000000000000000C7
:100B2E00FFC06040602060006000610061007F00D7
:100B3E006100610060006000602060206040FFC0C6
:100B4E000000000000000000000000000000000097
:100B5E00FFC060C0602060206000610061007F0007
:100B6E006100610060006000600060006000F000E5
:100B7E000000000000000000000000000000000067
:100B8E000F4018C030403040200060006000600010
:100B9E00600063F060C060C030C030C018C00F008D
:100BAE000000000000000000000000000000000037
:100BBE00F0F06060606060606060606060607FE068
:100BCE006060606060606060606060606060F0F0F7
:100BDE000000000000000000000000000000000007
:100BEE003FC00600060006000600060006000600CE
:100BFE0006000600060006000600060006003FC0BE
:100C0E0000000000000000000000000000000000D6
:100C1E000FF0018001800180018001800180018040
:100C2E0001800180018001800180018001800180AE
:100C3E00618063003E000000000000000000000024
:100C4E00F3E0608061006200620064006C007C0072
:100C5E007600670063006380618060C060E0F1F041
:100C6E000000000000000000000000000000000076
:100C7E00F0006000600060006000600060006000D6
:100C8E006000600060006000602060206040FFC077
:100C9E000000000000000000000000000000000046
:100CAE00F0F070E070E070E0596059605960596082
:100CBE005A604E604E604E604E6044604460E4F098
:100CCE000000000000000000000000000000000016
:100CDE00E07070207020582058204C20462046206E
:100CEE004320432041A040E040E040604060E020CF
:100CFE0000000000000000000000000000000000E6
:100D0E000F00198030C030406060606060606060CD
:100D1E006060606060606060304030C019800F00BD
:100D2E0000000000000000000000000000000000B5
:100D3E00FF8060C06060606060606060606060C026
:100D4E007F80600060006000600060006000F00066
:100D5E000000000000000000000000000000000085
:100D6E000F00198030C0304060606060606060606D
:100D7E006060606060606E60324031C011800F80D4
:100D8E0001E000C0000000000000000000000000B4
:100D9E00FF8060C0606060606060606060C07F0007
:100DAE006600630063006180618060C060C0F070A7
:100DBE000000000000000000000000000000000025
:100DCE001F2030E060206020600070003C000F00AB
:100DDE0003C000C0006040604060606070C04F8023
:100DEE0000000000000000000000000000000000F5
:100DFE007FE04620861086100600060006000600DC
:100E0E0006000600060006000600060006000F009B
:100E1E0000000000000000000000000000000000C4
:100E2E00F0706020602060206020602060206020D4
:100E3E0060206020602060206020602030401F8095
:100E4E000000000000000000000000000000000094
:100E5E00F8F070603040304030403080188018809C
:100E6E00188018800D000D000D000F000600060002
:100E7E000000000000000000000000000000000064
:100E8E00F770662066206640664067403740374000
:100E9E003B803B803B803B8039801100110011006C
:100EAE000000000000000000000000000000000034
:100EBE0079E030C01880188019000D000E00060071
:100ECE00060007000B000B801980118030C079E0FE
:100EDE000000000000000000000000000000000004
:100EEE00F8F0706030403080188018800D000D00D2
:100EFE000E000600060006000600060006001F8013
:100F0E0000000000000000000000000000000000D3
:100F1E003FE020C041C001800380030003000600B3
:100F2E0006000C000C0018001820382030407FC03E
:100F3E000000000000000000000007E004000400B4
:100F4E000400040004000400040004000400040073
:100F5E000400040004000400040004000400040063
:100F6E00040007E000000000000000000000200068
:100F7E001000100010000800080004000400040017
:100F8E00020002000100010001000080008000400C
:100F9E00004000400020000000003F000100010062
:100FAE00010001000100010001000100010001002B
:100FBE00010001000100010001000100010001001B
:100FCE0001003F0000000000000007000D801040EF
:100FDE000000000000000000000000000000000003
:100FEE0000000000000000000000000000000000F3
:100FFE0000000000000000000000000000000000E3
:10100E0000000000000000000000000000000000D2
:10101E0000000000000000000000000000000000C2
:10102E0000000000FFF00000000030003800080053
:10103E00080010006000000000000000000000002A
:10104E000000000000000000000000000000000092
:10105E000000000000000000000000000000000082
:10106E00000000000000000000000F8030C030C003
:10107E0007C01CC030C060C060C060C071D03EF000
:10108E000000000000000000000000000000100042
:10109E007000300030003000300033803CC03860CB
:1010AE0030603060306030603060304038C02F804B
:1010BE000000000000000000000000000000000022
:1010CE00000000000000000000000F0031803180A1
:1010DE0061806000600060006040304030800F0032
:1010EE0000000000000000000000000000000040B2
:1010FE0001C000C000C000C000C01EC031C030C062
:10110E0060C060C060C060C060C020C031E01E80A2
:10111E0000000000000000000000000000000000C1
:10112E0000000000000000000000078018C01060E2
:10113E0030603FE030003000300018201C40078047
:10114E000000000000000000000000000000000091
:10115E0003C006600C600C000C007FC00C000C007D
:10116E000C000C000C000C000C000C000C003F805E
:10117E000000000000000000000000000000000061
:10118E00000000000000000000000F70199030C039
:10119E0030C030C019801F0030003E001FC060609C
:1011AE00606070E01F800000000000000000100072
:1011BE0070003000300030003000378038C030C052
:1011CE0030C030C030C030C030C030C030C079E028
:1011DE000000000000000000000000000000000001
:1011EE00060006000000000000003E00060006009B
:1011FE0006000600060006000600060006003FC0B8
:10120E0000000000000000000000000000000000D0
:10121E00018001800000000000000F80018001802D
:10122E0001800180018001800180018001800180A8
:10123E00018033003E00000000000000000010009E
:10124E007000300030003000300033C03100330009
:10125E00320036003E003B0033003180318079E0B1
:10126E00000000000000000000000000000002006E
:10127E003E000600060006000600060006000600F8
:10128E0006000600060006000600060006003FC027
:10129E000000000000000000000000000000000040
:1012AE0000000000000000000000EEE077606660C5
:1012BE006660666066606660666066606660F7704F
:1012CE000000000000000000000000000000000010
:1012DE000000000000000000000073803CC030C021
:1012EE0030C030C030C030C030C030C030C079E007
:1012FE0000000000000000000000000000000000E0
:10130E00000000000000000000000F00198030C037
:10131E006060606060606060606030C030C00F0010
:10132E0000000000000000000000000000000000AF
:10133E0000000000000000000000778038C0306020
:10134E003060306030603060306030C038C0378020
:10135E00300030007C0000000000000000000000A3
:10136E00000000000000000000001E4031C030C030
:10137E0060C060C060C060C060C020C031C01EC010
:10138E0000C000C003E000000000000000000000EC
:10139E0000000000000000000000F9E01A601C00D0
:1013AE001800180018001800180018001800FF0088
:1013BE00000000000000000000000000000000001F
:1013CE00000000000000000000000FE01860302058
:1013DE0030001C000F8001C02060206030C03F80B4
:1013EE0000000000000000000000000000000000EF
:1013FE000000040004000C000C007F800C000C00A8
:10140E000C000C000C000C000C000C400C40078073
:10141E0000000000000000000000000000000000BE
:10142E000000000000000000104071C030C030C04D
:10143E0030C030C030C030C030C030C039E01E8047
:10144E00000000000000000000000000000000008E
:10145E00000000000000000000007CF03860184022
:10146E0018400C800C800C8007000700070002005B
:10147E00000000000000000000000000000000005E
:10148E0000000000000000000000F7B063206320A1
:10149E006720372035C039C039C039C01080108060
:1014AE00000000000000000000000000000000002E
:1014BE00000000000000000000007DE01880198090
:1014CE000D000E00060007000B00198011C07BE016
:1014DE0000000000000000000000000000000000FE
:1014EE00000000000000000000007DE03880188041
:1014FE0018800D000D000D0006000600020004000D
:10150E000400280038000000000000000000000069
:10151E00000000000000000000003FC0218023807A
:10152E000300070006000E000C201C2018603FC0B0
:10153E00000000000000000000000000000000009D
:10154E00000000000000000000000000000000008D
:10155E00000000000000000000000000000000007D
:10156E00000000000000000000000000000000006D
:10157E00000000000000000000000000000000005D
:10158E00000000000000000000000000000000004D
:10159E00000000000000000000000000000000003D
:1015AE00000000000000000000000000000000002D
:1015BE00000000000000000000000000000000001D
:1015CE00000000000000000000000000000000000D
:1015DE0000000000000000000000000000000000FD
:1015EE0000000000000000000000000000000000ED
:1015FE0000000000000000000000000000000000DD
:10160E0000000000000000000000000000000000CC
:10161E0000000000000000000000000000000000BC
:10162E0000000000000000000000000000000000AC
:10163E00000000000000000000000000000000F8A4
:10164E00000386000703000E01800C01C01C00C0C1
:10165E001800C03800E03800E0380060700070708C
:10166E00007070007070007070007070007070000C
:10167E00707000707000707000707000707000708C
:10168E003800603800E03800E01800C01C00C00CC4
:10169E0001800E018006030003860000F8000000A2
:1016AE00000000000000000000000000000000002C
:1016BE00000000000000000000000000000000001C
:1016CE000000000000000000000000000000000804
:1016DE000000180000380007F8000038000038003D
:1016EE0000380000380000380000380000380000D4
:1016FE00380000380000380000380000380000388C
:10170E0000003800003800003800003800003800B3
:10171E0000380000380000380000380000380000A3
:10172E003800003800003800007C0007FFC00000C1
:10173E00000000000000000000000000000000009B
:10174E00000000000000000000000000000000008B
:10175E00000000000000000000000000000000FC7F
:10176E00000307000C03801801C01801C03800E008
:10177E003800E03800E03C00E03C00E01C00E000F7
:10178E0001C00001C0000380000380000700000EAE
:10179E0000001C0000380000700000E00001C000D6
:1017AE000380000300000600200C002018006030AB
:1017BE0000602000C07FFFC07FFFC07FFFC0000021
:1017CE00000000000000000000000000000000000B
:1017DE0000000000000000000000000000000000FB
:1017EE00000000000000000000000000000000FCEF
:1017FE00000307000603800C01C01C01C01C00E0A2
:10180E001E00E01E00E00E00E00000E00000C00040
:10181E0001C0000180000300000E0000F800000F60
:10182E00000001800000C00000E0000060000070B9
:10183E000000701800703C00703C00703C00603876
:10184E0000E01800C00C018006070001FC0000003B
:10185E00000000000000000000000000000000007A
:10186E00000000000000000000000000000000006A
:10187E000000000000000000000000000000000357
:10188E0000000700000700000F00001F00001700F7
:10189E0000370000270000670000C7000087000126
:1018AE008700030700020700060700040700080769
:1018BE00001807001007003007006007007FFFF8D0
:1018CE007FFFF80007000007000007000007000078
:1018DE00070000070000070000078000FFF8000067
:1018EE0000000000000000000000000000000000EA
:1018FE0000000000000000000000000000000000DA
:10190E0000000000000000000000000000000FFFBB
:10191E00E00FFFE00FFFE0080000080000080000E5
:10192E000800000800001000001000001000001059
:10193E00FE0013FF001703801C01C01C00E01800FE
:10194E00E00000F0000070000070000070000070F9
:10195E001800703C00703C00703C00603800E018CD
:10196E0000E01801C00C018007070001FC00000018
:10197E000000000000000000000000000000000059
:10198E000000000000000000000000000000000049
:10199E000000000000000000000000000000007EBB
:1019AE00000183800303800603C00C03C01803C02C
:1019BE0018000018000038000030000030000070E1
:1019CE000000707E0071FF807783C07601C07C00BE
:1019DE00E07800E070007070007070007070007041
:1019EE007000703000703800703800701800601C85
:1019FE0000E00C00C006018003830000FC00000024
:101A0E0000000000000000000000000000000000C8
:101A1E0000000000000000000000000000000000B8
:101A2E0000000000000000000000000000001FFF8A
:101A3E00F01FFFF01FFFE01C00601000C0300080A0
:101A4E0020018020010000030000020000060000BB
:101A5E000400000C00000800001800001800003000
:101A6E000000300000700000600000600000E00028
:101A7E0000E00000E00000E00001E00001E00001F5
:101A8E00E00001E00001E00001E00000E0000000E5
:101A9E000000000000000000000000000000000038
:101AAE000000000000000000000000000000000028
:101ABE00000000000000000000000000000001FE19
:101ACE00000703800E01C01C00E01800E038007013
:101ADE003800703800703800703C00701E00E01F37
:101AEE0000E00F81C007E38003FE0003FE00063F07
:101AFE00000C0F801C07C03801E03801E07000F0C8
:101B0E00700070700070700070700070700070382F
:101B1E0000E01800C00C01C007030001FC0000002B
:101B2E0000000000000000000000000000000000A7
:101B3E000000000000000000000000000000000097
:101B4E00000000000000000000000000000001F88E
:101B5E00000706000C01001C01803800C03800C0D0
:101B6E003000607000607000607000707000707007
:101B7E0000707000707000F03800F03801F03C0317
:101B8E00701F0E700FFC7003F0700000600000E01C
:101B9E000000E00000E00000C00001C00C01801E4B
:101BAE0003801E03001E06000E1C0003F000000042
:101BBE000000000000000000000000000000000017
:101BCE000000000000000000000000000000000007
:101BDE0000000000000000000000000000000000F7
:101BEE0000000000000000000000000000000000E7
:101BFE00000000000000000000000000007800005F
:101C0E00FC0000FC0000FC0000FC0000780000005E
:101C1E0000000000000000000000000000000000B6
:101C2E00000000000000000000000000007800002E
:101C3E00FC0000FC0000FC0000FC0000780000002E
:101C4E000000000000000000000000000000000086
:061C5E0000000000000080
:0A3AA100F582E43583F583E49322F7
:0C3626008E448F458A468B478D828C8332
:10363200E54524FFFFE54434FFFEE58224FFFDE576
:103642008334FFFCE5452402FBE43544FAE5822499
:1036520002F552E43583F551123740E4F548AF479D
:0E366200AE461239E80548E548C3941040F022
:013670002237
:10296600E4F532F533F534F535C3EB9FF537E49EE0
:10297600F536C3E52D9DF539E52C9CF5388E428F4D
:10298600438C408D41D3E5379400E53664809480CE
:102996004008753C00753D01801DE53745367006DB
:1029A600F53CF53D801174FFF53CF53DC3E49537E4
:1029B600F537E49536F536D3E5399400E538648085
:1029C60094804008753E00753F01801DE539453805
:1029D6007006F53EF53F801174FFF53EF53FC3E402
:1029E6009539F539E49538F538D3E5379539E5382D
:1029F6006480F8E536648098400885363A85373B2A
:102A0600800685383A85393BE4F530F531E53B24D7
:102A160001FFE4353AFED3E5319FE5309E400302DF
:102A26002AACAB2FAA2EAD41AC40AF43AE42123614
:102A360026E5372533F533E5363532F532E53925E2
:102A460035F535E5383534F534D3E533953BE53A98
:102A56006480F8E5326480984018E533953BF53399
:102A6600E532953AF532E53D2543F543E53C3542F9
:102A7600F542D3E535953BE53A6480F8E534648064
:102A8600984018E535953BF535E534953AF534E546
:102A96003F2541F541E53E3540F5400531E53170CC
:062AA600020530022A13B4
:012AAC002207
:0E3292008E3B8F3C8C3D8D3E8B3F8A408941A8
:1032A000AB3FAA40A941122017700302333624E035
:1032B000F548E53C240FFBE4353BFAE53E2417F5E1
:1032C00052E4353DF551AD3EAC3DAF3CAE3B12371F
:1032D00040E4F54775F030E5489004341220D9E514
:1032E000822547123AA1754900F54AE4F546E54AB8
:1032F00030E706AF43AE428004AF45AE441239E832
:10330000E54A25E0F54AE54933F5490546E546C372
:10331000940840DA0547E547C3943040B774012567
:1033200041F541E43540F5407410253CF53CE43569
:063330003BF53B0232A058
:013336002274
:0E3337008E368F378C388D398B3A8A3B893C25
:10334500AB3AAA3BA93C12201770030233DB24D009
:10335500F543E5372417FBE43536FAE539242FF52F
:1033650052E43538F551AD39AC38AF37AE36123792
:1033750040E4F54275F090E5439016341220D9E506
:10338500822542123AA1754400F545E4F541E5452B
:1033950030E706AF3EAE3D8004AF40AE3F1239E8A0
:1033A500E54525E0F545E54433F5440541E541C3EB
:1033B500940840DA0542E542C3949040B77401256C
:1033C5003CF53CE4353BF53B74182537F537E435DA
:0633D50036F53602334517
:0133DB0022CF
:103A4300E53025E02431F8E6FE08E6FFEA25E02428
:033A530031F82225
:0B3A8100C2A1D2A3D2A2D2A1C2A322F4
:10394700C2A1E4FEEFC4131313540124FF92A2EFA4
:0B39570025E0FFC2A1D2A10EBE08E9CE
:013962002242
:10386000E4FFFEC2A1FDFCEF25E0FFEE33FED2A196
:10387000C2A1A2A0E43342070DBD00010CED640C0F
:033880004C70E4A5
:013883002222
:02311000AB070B
:10311200C2A1C2A3E4FAAF03123947753006D53013
:10312200FDD2A10000C2A10000123860123A4FA6DF
:103132000608A6070ABA0ADED2A3E4FAEA04F530C0
:10314200E530C3940A5038123A43E6FC08E6C39FBE
:10315200EC9E5027123A4FE6FE08E6FFE48F488EB7
:1031620047F546F545123A43A60608A607AF48E5D5
:103172003025E02431F8A64708A607053080C10AA9
:10318200EA640970B7E4F548F547F546F5457A0271
:10319200123A4FE6FE08E6FFE4FCFDE5482FFFE5A4
:1031A200473EFEED3546FDEC35458F488E478D4650
:1031B200F5450ABA08DAAF48AE47AD46AC45E47BFE
:0F31C20006FAF9F81236B98F488E478D468C45BC
:0131D10022DB
:10304900123A817FD01231108E268F277F9012314C
:10305900108E2C8F2D7FD01231108E288F297F90C2
:10306900123110AD07AC06D3E5279529E526952839
:10307900400EE5279529F52BE5269528F52A800D9B
:10308900C3E5299527F52BE5289526F52AD3E52DBE
:103099009DE52C9C400CE52D9DF52FE52C9CF52EEE
:1030A900800BC3ED952DF52FEC952CF52ED3E52B43
:1030B9009432E52A9400500AE52F9432E52E9400C3
:1030C90040037F0022E5272529FFE5263528C3137C
:1030D900F575EF13F576E52D2DFFE52C3CC313F5BA
:1030E90077EF13F5785376F05378F0C3E576946467
:1030F900E5759400400BD3E57894A0E577940F40EB
:06310900037F00227F019C
:01310F00229D
:1035DA0054494D4500434C4F434B004241434B0035
:1035EA005345540038006C00C6008200C6006C00C7
:1035FA0038FE01FE07000E000E000E000C000C0043
:10360A000C000C000E000E00060003FE00FE000077
:0C361A0000000000000000002E00000076
:103468007F87FEFDFCAB1CAA1BA91AA8190220C362
:103478007B0075427F7543FFE4F544F54522FEFD68
:10348800FCAB18AA17A916A8150220C378267C0039
:103498007D007B007E007F03021FF17D64AE24AFB8
:1034A800257C00022030FEFDFCAB1CAA1BA91AA833
:1034B800190220C334FFFCE4FAF9F8122066E4226A
:1034C800E4F50875110175100122752EF8752F00A5
:0A34D80022E4FEFDFCA8190220C347
:1039B6007BFF7A3579DA1228017A00796E1234940F
:0939C600122BBF1234C802244B7D
:1039CF007BFF7A3579DF1228017A007971123494EE
:0939DF00122BBF1234C8022208A9
:10268C00E4FFFE12377F7BFF7A3579E575420075E2
:10269C00431FE4F544F545FDFCFFFE1232927BFF2F
:1026AC007A3579EA7542FF7543E0E4F544F5457DEA
:1026BC00181227F77A3579DA75420712347D7D5E68
:1026CC001227F77A3579DF12347A7D86FC7F32FE59
:1026DC00123292752C00752D321234D27D321227A3
:1026EC00EB752C00752D821234D27D821227EB757E
:1026FC002C00752DAA1234D27B9B7DAA7C007F14F2
:10270C007E00122966123049BF01FAE485761885DD
:10271C007517F516F515E51824D0FFE51734FEFEF0
:10272C00E51634FFFDE5157BAF1234BC7B5E7A0DEC
:10273C00F9F81236B98F188E178D168C15E485782A
:10274C001C85771BF51AF519251CFFE51B34FFFEBC
:10275C00E51A34FFFDE5197BDB1234BC7B707A0D76
:10276C00F9F81236B98F1C8E1B8D1A8C19E47FAEBA
:10277C00D3123486400AE47518AEF517F516F51524
:10278C00E47FDAD31234AE400AE4751CDAF51BF59B
:10279C001AF519E4C3123468500D7F5F1234D94016
:1027AC00061239B6022711E4D3123468400D7FA506
:1027BC001234D950061239CF022711E47F37C312D5
:1027CC0034864003022711E47F18C31234AE400351
:1027DC00022711750901E4F512FFFE12377F227BE7
:1027EC009B7C007F147E0012296622FC7F32FE1235
:0527FC0032927BFF2278
:042F7A008E248F25ED
:102F7E0078297C007D007BFF7A36791E7E007F08E3
:102F8E00121FF11234A3EF2430F5291234A37E0060
:102F9E007F0ACFCDCFCECCCE122030EF2430F52B02
:102FAE007D0A1234A5ED2430F52F7A0079291234DA
:102FBE00787F3C1230417A00792B1234787F46129A
:102FCE0030417B007A00792D12347A7DAAFC7F5035
:102FDE00FE1232927B007A00792F12347A7DAAFC8F
:102FEE007F5AFE1232927551007552C17B787A006B
:102FFE007DAA7C007F697E00123740E4F527E52725
:10300E009035EE93F526E4F528E52630E7067FFFAA
:10301E007E7F8003E4FFFE1239E8E52625E0F526E3
:10302E000528E528C3940840E00527E527C394301A
:02303E0040CC84
:09304000227DAAFCFE123292224C
:1036FD003100320033003400350036003700380019
:10370D00390030004241434B003A0053455400000C
:10371D00000000000000000000000000000000009C
:10372D00000000000000000000000000000000008C
:03373D0000000089
:103539007A3779167BFF7542F8754300E4F544F54F
:1035490045227D007BFF7E007F03021FF17B007512
:103559003DF8753E00E4F53FF5402275F00A84E533
:10356900F024302275F00A84243022752EF8752F44
:1035790000227BFF75420075431FE4F544F545FDC4
:02358900FC2222
:102801008B248A258926E4FFFE12377FAB24AA2573
:10281100A9267542FF7543E0E4F544F5457D18FCB2
:102821007F2FFE123292752C00752D321235747D78
:102831003212290F752D5A1235747D5A12290F75CE
:102841002D821235747B9B7D827F1412295E752C3B
:1028510000752DAA1235747DAA12291E7DD2122966
:102861001E7B417D5A7F4112295E752C00752DD248
:102871001235747B6E7D327C007F6E7E001229667C
:102881007A3679FD12353D7F1F1229367A3679FF66
:1028910012353F7D5E1229407A37790112353F7F2B
:1028A1007F1229367A37790312353F7D86122954F2
:1028B1007A37790512353F7D861229407A377907B3
:1028C10012353F7D8612294A7A37790912353F7DC3
:1028D100AE1229547A37790B12353F7DAEFC7F5108
:1028E100FE1232927BFF7A37790D12353F7DAE129F
:1028F100294A7A37790F12353F7D3AFC7F7FFE12E4
:1029010032927A37791112357BFFFE0232927B9B2C
:102911007C007F147E00122966752C00227B9B7C33
:10292100007F147E00122966752C00752DD2752E3C
:10293100F8752F00227D5EFCFE1232927BFF22FC95
:102941007F51FE1232927BFF22FC7F7FFE12329278
:102951007BFF22FC7F1FFE1232927BFF227C007ED6
:052961000012296622AE
:102AAD0078247C007A37791C12354B78277C007A94
:102ABD0037791F12354B782A7C007D007BFF7A37E2
:102ACD00792212354F782D7C007D007BFF7A377986
:102ADD002512354F78307C007D007BFF7A377928C1
:102AED0012354F78337C007D007BFF7A37792B12BE
:102AFD00354FE56E12356DF524E56E123564F5270B
:102B0D00E56F12356DF52AE56F123564F52DE5701B
:102B1D0012356DF530E570123564F5337A00792490
:102B2D001235567F0A122BB77A0079271235567F48
:102B3D001E122B947F32122BAD7A00792A12355842
:102B4D007F46122BB77B007A00792D1235587F5AAC
:102B5D00122B947F6E122BAD7A0079301235587D81
:102B6D0064FC7F82FE1233377B007A007933123595
:102B7D00587D64FC7F96FE1233377A3779181235FB
:072B8D007B7F7FFE02329204
:102B94007D64FCFE1233377BFF7A377916753DF876
:102BA400753E00E4F53FF540227D5EFCFE123337AE
:0B2BB4007B00227D64FCFE1233372200
:102BBF0078297C007D007BFF7A37792E12354F788C
:102BCF002C7C007D007BFF7A37793112354F782FBF
:102BDF007C007D007BFF7A37793412354F78327C59
:102BEF00007D007BFF7A37793712354F78357C00BF
:102BFF007D007BFF7A37793A12354F78387C007D2C
:102C0F00007BFF7A37793D12354FE52612356DF58A
:102C1F0029E526123564F52CE52712356DF52FE5DC
:102C2F0027123564F532E52812356DF535E5281292
:102C3F003564F5381235397D38FC7F27FE12329214
:102C4F001235397D38FC7F47FE1232927B007A00B5
:102C5F00792912353F7F11122CAF7A00792C12355A
:102C6F003F7F1D122CAF7A00792F12353F7F311223
:102C7F002CB97A00793212353F7F3D122CB97A0088
:102C8F00793512353F7D3AFC7F51FE1232927B002F
:102C9F007A00793812353F7D3AFC7F5DFE02329221
:102CAF007D3AFCFE1232927B00227D3AFCFE1232FC
:042CBF00927B0022E2
:103A5600758901758C4C758ACED2A9D28CD2AF22CB
:03000B000234E2DA
:1034E200C0E0C0D0758C4C758AD2E574C394144088
:1034F2003F757400E570943B50040570803475701C
:1035020000E56FC3943B5004056F8011756F00E5B1
:103512006EC394175004056E8003756E00E56DB49A
:103522000110E56EB5710BE56FB57206D2A080028F
:073532000574D0D0D0E03297
:06000300FFC2A102392E2C
:0539290012392ED2A1AD
:10392E000000000000000000000000000000000089
:09393E000000000000000000225E
:0A3AAB00D2A0123929C2A002392E60
:0A3AB500C2A0123929D2A002392E56
:0B38A80012399B1238B3AF0512399B98
:1038B300E4FFD2A112392E30A009EFC394FA5003CA
:0838C3000F80F4C2A102392EAE
:0A3ABF00D2A012392ED2A102392E36
:10399B00E4FEEF25E012000392A01239290EBE08B7
:0B39AB00F1C2A112392ED2A002392E69
:1038CB00E4120003D2A012392EFED2A112392EEF30
:0F38DB0025E0FFA2A0E4334F1200030EBE08EB5E
:0138EA0022BB
:103A2E00AC07123AAB7FD012399B1238B3AF0412E7
:053A3E0038A8023AB5B2
:02396300AD07AE
:10396500123AAB7FD01238A8123AAB7FD112399BED
:093975001238B31238CB123AB536
:01397E002226
:103A0000E56B25E02459F8E6FE08E622FED3EF94A4
:073A100064EE648094802243
:10383A00123ABFE4FD7F6B123A2E7D077F19123AC6
:10384A002E7D067F1A123A2E7D187F1B123A2E7D84
:06385A00017F1C023A2E62
:0237E5008F1D36
:1037E7001239638F1EE51D04FF123963AD07AF1E43
:1037F700EF3395E0EFFEED3395E0FCE42DFFEE3C73
:08380700FE7C007D4012203020
:01380F002296
:102EA2007F3D1237E5EF4E70277F3F1237E5EF4E39
:102EB200601E7F431237E5EF4E60157F451237E5FE
:102EC200EF4E600C7F471237E5EF4E600312383A3F
:102ED200122F42F56C85535985545A85555B855698
:102EE2005C85575D85585E855F658560668561672F
:102EF20085626885636985646A122F42F56B123AAE
:102F020000FFE56B25E02453F8E6FC08E6FDC39FCD
:102F1200FFEC9E123A0C5014123A00C39DFFEE9C35
:102F2200123A0C5007056BE56BB403D2056CE56CE5
:0F2F3200C3940340A0E56BB403037F00227F012B
:102F4100227F3B1237E58E538F547F3D1237E58E3A
:102F5100558F567F3F1237E58E578F587F43123773
:102F6100E58E5F8F607F451237E58E618F627F4707
:092F71001237E58E638F64E4223F
:0D3A740012390A7F017E00123A177FCC2222
:103A1700D3EF9400EE9400400DE4FD0DBD6EFCEF76
:063A27001F70ED1E80EA95
:013A2D002276
:10390A00C2B77F677E00EF1F70011EEF4E70F7D2BD
:0E391A00B77E007F04EF1F70011EEF4E70F7A6
:01392800227C
:10388400C2B70FBF0000D2B70FBF00000FBF0000C8
:10389400A2B792007E007F08EF1F70011EEF4E70EA
:0338A400F7A20088
:0138A70022FE
:10397F00E4FDFC123884E433FFC43333335480FE48
:0B398F00EDC3134EFD0CBC08EAAF05B1
:01399A00220A
:10367100E4FEEF139200EFC313FF30001BC2B70B40
:10368100BB00000BBB0000D2B77A007B08EB1B70BC
:10369100011AEB4A70F7801BC2B77A007B08EB1B5B
:1036A10070011AEB4A70F7D2B70BBB00010A0BBBD2
:0736B10000010A0EBE08BB78
:0136B80022EF
:10358B00123A741236717FBE12367112397FAB0745
:10359B0012397FEFFEEBFFFDAC06E4121E67E4FB76
:1035AB00FA7980783D121D5C8F278E268D258C2411
:1035BB00E4FFFE7D207C41AB27AA26A925A8241277
:0E35CB001D5CE4FBFAF9783F121C6B121EA087
:0135D90022CF
:0B3A8C00123A741236717F440236714A
:102CC300E4857618857517F516F515E51824D0FFF4
:102CD300E51734FEFEE51634FFFDE51534FFFCE48D
:102CE3007BAFFAF9F8122066E47B5E7A0DF9F812ED
:102CF30036B98F188E178D168C15E485781C857759
:102D03001BF51AF519251CFFE51B34FFFEE51A34E4
:102D1300FFFDE51934FFFCE47BDBFAF9F8122066CA
:102D2300E47B707A0DF9F81236B98F1C8E1B8D1A5D
:102D33008C197FAEE4D3AB18AA17A916A815FEFD0C
:102D4300FC0220C37F91E4FEFDFCAB1CAA1BA91A65
:102D5300A819227F87E4A819FEFDFC0220C37F3C4B
:102D6300E4FEFDFCAB18AA17A916A815C30220C3DD
:102D7300E47F69FEFDFCA8150220C375F00A84E513
:102D830024AFF075F00AA42F2278267C007D007B07
:102D9300007E007F03021FF175F00A84AFF0E52483
:102DA30075F00AA42F22E47518AEF517F516F5157C
:0C2DB30022E4751CDAF51BF51AF5192254
:10244B00E4F525C2A9F514123049BF01FA122CC3C9
:10245B004003122DA97FDA122D49D31220C340035A
:10246B00122DB47F73122D374019E47F2D122D4A94
:10247B00D31220C3400D7F55122D585006E4F5247E
:10248B000225CBE47F3CC3122D395016E47F5F123B
:10249B002D4D122D41400B122D5650067524010265
:1024AB0025CBE47F46122D384020E47F69A8151216
:1024BB002D5B5016E47F5F122D4A1220C3400B1286
:1024CB002D5650067524020225CBE47F73122D384E
:1024DB004017E47F5F122D4AD31220C3400B122DFD
:1024EB005650067524030225CB122D615016122D62
:1024FB00471220C3400EE47FA5122D5950067524B8
:10250B00040225CBE47F46122D38401B122D73504D
:10251B0016122D471220C3400EE47FA5122D5950E1
:10252B00067524050225CBE47F73122D3840171254
:10253B002D47D31220C3400EE47FA5122D59500610
:10254B007524060225CB122D615031E47FAF122D7D
:10255B004A1220C340067F01C00780047F00C007DA
:10256B00E47FCD122D4AC31220C350047E0180029A
:10257B007E00D0E05E60057524078044E47F461240
:10258B002D38401D122D735018E47FAF122D4A12B7
:10259B0020C3400DE47FCD122D59500575240880C2
:1025AB001FE47F73122D38401CE47FAF122D4AD3EA
:1025BB001220C34010E47FCD122D59500875240909
:1025CB0075250180167F37122D63500FE47F18128B
:1025DB002D4AC31220C35003D2A922E52564016002
:1025EB0003022452F525E51414601E14603B14609D
:1025FB00461460561460612405706EE524C3940381
:10260B005067E56E122D7E801AE524C394044006B4
:10261B00E56E94145053E56E75F00A84C3E56E9520
:10262B00F02524F56E05148040E524C3940650393B
:10263B00E56F122D7E800DE56F75F00A84C3E56F93
:10264B0095F02524F56F0514801FE524C3940650DF
:10265B0018E570122D7E800DE57075F00A84C3E5C8
:10266B007095F02524F57005147A00796E122D8C77
:10267B00122BBFE51464066003022452F5140224E6
:01268B0052FC
:10220800E4F525F514756D01123049BF01FA122C59
:10221800C34003122DA9E47FDA122D4AD31220C33A
:102228004003122DB4E47F73122D38401AE47F2D39
:10223800122D4AD31220C3400EE47F55122D595057
:1022480006E4F524022383122D615016E47F5F1201
:102258002D4A1220C3400B122D5650067524010238
:102268002383E47F46122D38401B122D735016E449
:102278007F5F122D4A1220C3400B122D565006754F
:102288002402022383E47F73122D384017E47F5F12
:10229800122D4AD31220C3400B122D565006752416
:1022A80003022383122D615016122D471220C340BA
:1022B8000EE47FA5122D595006752404022383E4E9
:1022C8007F46122D38401B122D735016122D4712BF
:1022D80020C3400EE47FA5122D595006752405022F
:1022E8002383E47F73122D384017122D47D3122011
:1022F800C3400EE47FA5122D59500675240602230B
:1023080083122D615031E47FAF122D4A1220C34051
:10231800067F01C00780047F00C007E47FCD122D2F
:102328004AC31220C350047E0180027E00D0E05EC2
:1023380060057524078044E47F46122D38401D123D
:102348002D735018E47FAF122D4A1220C3400DE4BC
:102358007FCD122D595005752408801FE47F731214
:102368002D38401CE47FAF122D4AD31220C34010F1
:10237800E47FCD122D595008752409752501801761
:10238800E47F37122D64500FE47F18122D4AC312D0
:1023980020C35003D2A922E525640160030222105C
:1023A800F525E51414602414604114604C14605C35
:1023B80014606724057074E524C39403506DE571B7
:1023C80075F00A84E524122D84801AE524C3940448
:1023D8004006E56E94145053E57175F00A84C3E520
:1023E8007195F02524F57105148040E524C3940601
:1023F8005039E572122D9B800DE57275F00A84C381
:10240800E57295F02524F5720514801FE524C39420
:10241800065018E573122D9B800DE57375F00A843C
:10242800C3E57395F02524F57305147A00797112C4
:102438002D8C122BBFE51464066003022210F514DC
:032448000222105D
:101C6400021F0CE86480F8E933E83360110460F083
:101C7400ED33EC337009E8FCE9FDEAFEEBFF2204E6
:101C840060DED3EB9FEA9EE99DE8C2E78CF0C2F7E1
:101C940095F0400CE8CCF8E9CDF9EACEFAEBCFFBAD
:101CA400121ED785D0F05804700320D5B3E8047011
:101CB400075002B2D5021F1692D5EC0460F7E4CCAB
:101CC400C0E0C398F8603B94186008400DD0E0FB76
:101CD400021EEEE4FBFAC9FC8028E830E406E4C9FD
:101CE400FBE4CAFCE830E305E4C9CACBFCE85407CA
:101CF4006010F8C3E913F9EA13FAEB13FBEC13FCD5
:101D0400D8F130F52FC3E49CFCEF9BFFEE9AFEED77
:101D140099FDD0E0FBEF4E4D4C701222DB03021F05
:101D240013EC2CFCEF33FFEE33FEED33FDED30E727
:101D3400EB021EEEEF2BFFEE3AFEED39FDD0E0FB99
:101D440050130BBB0003021F16ED13FDEE13FEEF41
:081D540013FFEC13FC021EEE6C
:101D5C00EC4D6011E8497017ED33EC3304600DE481
:101D6C00FCFFFEFD22E933E8330470F8021F0C126D
:101D7C001ED758046009E4CC24815006285009026F
:101D8C001F16284003021F13C0E0EB4A7044B980B1
:101D9C0006D0E0FB021F02EF4E701CBD8008EBFF6B
:101DAC00EAFEE9FD80EBE98DF0A4FEE5F0021E45AC
:101DBC00E9CDF9EAFEEBFFEF89F0A4FCE5F0CE8962
:101DCC00F0A42EFFE435F0CD89F0A42DFEE435F01F
:101DDC008067EF4E7005BD80D780C3EF8BF0A4AC4D
:101DEC00F0EE8BF0A42CFCE435F0F8EF8AF0A42C88
:101DFC00E5F038FCE433CB8DF0A42CFCE5F03BF89B
:101E0C00EE8AF0A42CFCE5F038F8E433CF89F0A48A
:101E1C002CFCE5F038CF3400CE89F0A42FFFE5F090
:101E2C003EFEE433C98DF0A42EFEE5F039CD8AF0E8
:101E3C00A42FFFE5F03EFEE43DFD33D0E0FB500760
:101E4C000BBB000F021F16EC2CFCEF33FFEE33FE26
:061E5C00ED33FD021EEE55
:101E620075F020800E75F010800575F0087D007EFB
:101E7200007F003392D530D5031220B5EC334010E9
:101E8200EF33FFEE33FEED33FDEC33FCD5F0ED2204
:0E1E9200E5F0247EA2D513CC92E7CDCEFF2240
:101EA000EDD2E7CD33EC3392D524814006E4FFFE3A
:101EB000FDFC22FCE4CFCECDCC24E0501174FF8099
:101EC000EDC3CC13CCCD13CDCE13CECF13CF047036
:071ED000F030D5DE0220B561
:101ED700E9D2E7C933E833F892D5EDD2E7CD33EC51
:071EE70033FC5002B2D522CA
:101EEE00EC30E7100FBF000C0EBE00080DBD000455
:101EFE000BEB6014A2D5EB13FCED92E7FD2274FF01
:101F0E00FCFDFEFF22E480F8A2D574FF13FC7D8059
:031F1E00E480EF6D
:030000000233DCEC
:0C33DC00787FE4F6D8FD75817802342378
:101F2100E709F608DFFA8046E709F208DFFA803EA2
:101F310088828C83E709F0A3DFFA8032E309F6088F
:101F4100DFFA8078E309F208DFFA807088828C83F7
:101F5100E309F0A3DFFA806489828A83E0A3F608AB
:101F6100DFFA805889828A83E0A3F208DFFA804C85
:101F710080D280FA80C680D4806980F2803380105C
:101F810080A680EA809A80A880DA80E280CA8033C5
:101F910089828A83ECFAE493A3C8C582C8CCC5833D
:101FA100CCF0A3C8C582C8CCC583CCDFE9DEE7800D
:101FB1000D89828A83E493A3F608DFF9ECFAA9F08C
:101FC100EDFB2289828A83ECFAE0A3C8C582C8CCE2
:101FD100C583CCF0A3C8C582C8CCC583CCDFEADEFB
:101FE100E880DB89828A83E493A3F208DFF980CC5D
:101FF10088F0EF60010E4E60C388F0ED2402B40456
:102001000050B9F582EB2402B4040050AF232345FC
:062011008223901F717391
:10201700BB010689828A83E0225002E722BBFE02C7
:09202700E32289828A83E49322FA
:10203000C2D5EC30E709B2D5E4C39DFDE49CFCEECB
:1020400030E715B2D5E4C39FFFE49EFE1220E5C33E
:10205000E49DFDE49CFC80031220E530D507C3E439
:062060009FFFE49EFE223A
:10206600E88FF0A4CC8BF0A42CFCE98EF0A42CFC19
:102076008AF0EDA42CFCEA8EF0A4CDA8F08BF0A497
:102086002DCC3825F0FDE98FF0A42CCD35F0FCEBF6
:102096008EF0A4FEA9F0EB8FF0A4CFC5F02ECD39BB
:0F20A600FEE43CFCEAA42DCE35F0FDE43CFC2228
:1036B900C2D5E830E70FB2D5E4C39BFBE49AFAE43C
:1036C90099F9E498F8EC30E717B2D51236EF1221E0
:1036D90076E4C39BFBE49AFAE499F9E498F8800349
:1036E90012217630D50DE4C39FFFE49EFEE49DFDD3
:0436F900E49CFC222F
:0E20B500C3E49FFFE49EFEE49DFDE49CFC223C
:1020C300EB9FF5F0EA9E42F0E99D42F0EC6480C894
:0620D30064809845F02234
:0C20D900A42582F582E5F03583F5832212
:1033E800022DBFE493A3F8E493A34003F68001F20F
:1033F80008DFF48029E493A3F85407240CC8C333E6
:10340800C4540F4420C8834004F456800146F6DFB4
:10341800E4800B0102040810204080903810E47EFC
:10342800019360BCA3FF543F30E509541FFEE493A9
:10343800A360010ECF54C025E060A840B8E493A370
:10344800FAE493A3F8E493A3C8C582C8CAC583CA9B
:10345800F0A3C8C582C8CAC583CADFE9DEE780BE53
:01383900008E
:1020E500BC000BBE0029EF8DF084FFADF022E4CCDF
:1020F500F875F008EF2FFFEE33FEEC33FCEE9DECA8
:10210500984005FCEE9DFE0FD5F0E9E4CEFD22EDED
:10211500F8F5F0EE8420D21CFEADF075F008EF2F37
:10212500FFED33FD4007985006D5F0F222C398FD28
:052135000FD5F0EA22C5
:10213A0075F008758200EF2FFFEE33FECD33CDCC5C
:10214A0033CCC58233C5829BED9AEC99E5829840DF
:10215A000CF582EE9BFEED9AFDEC99FC0FD5F0D6BC
:10216A00E4CEFBE4CDFAE4CCF9A88222B800C1B9E6
:10217A000059BA002DEC8BF084CFCECDFCE5F0CB24
:10218A00F97818EF2FFFEE33FEED33FDEC33FCEB5D
:10219A0033FB10D703994004EB99FB0FD8E5E4F918
:1021AA00FA227818EF2FFFEE33FEED33FDEC33FC05
:1021BA00C933C910D7059BE99A4007EC9BFCE99AF9
:1021CA00F90FD8E0E4C9FAE4CCFB2275F010EF2F3E
:1021DA00FFEE33FEED33FDCC33CCC833C810D7073E
:1021EA009BEC9AE899400AED9BFDEC9AFCE899F879
:0E21FA000FD5F0DAE4CDFBE4CCFAE4C8F9220C
:00000001FF
