:102A53003A0053455400434C4F434B00310032007E
:102A630033003400350036003700380039003000B9
:102A73004241434B00000000000000000000000042
:0D2A83000000000000000000000000000046
:1028EF007F73E4D3AB2AAA29A928A827FEFDFC02EF
:1028FF0023257BFF7538F8753900E4F53AF53B224F
:10290F007F5FE4FEFDFCAB2EAA2DA92CA82B227F06
:10291F0087E4A82BFEFDFC0223257B007538F87594
:10292F003900E4F53AF53B227D007BFF7E007F0303
:10293F000222977A2A79557BFF75380075391FE483
:10294F00F53AF53BFD22E47F3CFEFDFCAB2AAA29BC
:10295F00A928A827C30223257538F8753900223412
:10296F00FFFCE4FAF9F81222D6E422E47F69FEFDB7
:06297F00FCA8270223253D
:101C590078087C007A2A7978122937780B7C007AFF
:101C69002A797B122937780E7C007D007BFF7A2A3E
:101C7900797E12293B78117C007D007BFF7A2A79D5
:101C89008112293B78147C007D007BFF7A2A7984B4
:101C990012293B78177C007D007BFF7A2A7987120D
:101CA900293B751A02E4F51B751C04751D04751E84
:101CB90003751F0578207C00FD7BFF7A2A798AFE4F
:101CC9007F06122297E4F526F52AF529F528F52746
:101CD900F52EF52DF52CF52BF52FF530E51A2430D9
:101CE900F508E51B2430F50BE51C2430F50EE51D40
:101CF9002430F511E51E2430F514E51F2430F517BD
:101D09001226E57F057E00122AEBE4FFFE122A90D7
:101D19007A0079081229297F0A1221A57A00790BFC
:101D29001229297F1E12212D7F3212219B7A0079D7
:101D39000E12292B7F461221A57B007A00791112F8
:101D4900292B7F5A12212D7F6E12219B7A0079143B
:101D590012292B7D64FC7F82FE12284A7B007A00BF
:101D6900791712292B7D64FC7F96FE12284A1229C5
:101D790042122155E53064017063FFFE122A907BFF
:101D8900007A0079081229037F1412217F7B007AD7
:101D990000790B1229037F241221917A00790E12FE
:101DA90029037F2E1221917A0079111229037F3E8E
:101DB9001221B77B007A0079141229037F48122176
:101DC900B77B007A0079171229037D5EFC7F58FEE4
:101DD9001227A5122942FC7F7FFE1227A5E52F6451
:101DE900016003021EFDFFFE122A907BFF7A2A7909
:101DF900597538FF7539E0E4F53AF53B7D18FC7FF4
:101E09002FFE1227A57536007537321229677D32E4
:101E190012214675375A1229677D5A12214675379C
:101E2900821229677B9B7D827F141221BF75360040
:101E39007537AA1229677DAA12215D7DD212215D0B
:101E49007B417D5A7F411221BF7536007537D21209
:101E590029677B6E7D327C007F6E7E001224157AA5
:101E69002A795F1229017F1F12217F7A2A7961124B
:101E790029017D5E1221757A2A79631229037D5E13
:101E89001221557BFF7A2A79651229037D86122151
:101E9900AD7A2A79671229037D861221757A2A7902
:101EA900691229037D861221877A2A796B122903FF
:101EB9007DAE1221AD7A2A796D1229037DAEFC7FA0
:101EC90051FE1227A57BFF7A2A796F1229037DAE6D
:101ED9001221877A2A79711229037D3AFC7F7FFEC4
:101EE9001227A57A2A7973122946FC7F6FFE1227D9
:101EF900A5E4F52F12255CEF64016003021D7D85C1
:101F09005C2A855B29F528F527E52A24D0FFE529F0
:101F190034FEFEE52834FFFDE5277BAF12296E7BF1
:101F29005E7A0DF9F81229D08F2A8E298D288C27EF
:101F3900E4855E2E855D2DF52CF52B252EFFE52DEF
:101F490034FFFEE52C34FFFDE52B7BDB12296E7B8C
:101F5900707A0DF9F81229D08F2E8E2D8D2C8C2B9D
:101F69007FAE1228F1400AE4752AAEF529F528F565
:101F7900277FDA122911D3122325400AE4752EDAB4
:101F8900F52DF52CF52B1228EF400EE47F181229B8
:101F9900151228FB5003752F011228EF401BE47F0F
:101FA9002D12291212232550107F5512292040097C
:101FB90074202526F8E4F60526E47F3CC31228F3AD
:101FC900501712290FC3122325500E12291E40093A
:101FD90074202526F876010526E47F461228F2406A
:101FE90021E47F69A827122923501712290FC31248
:101FF9002325500E12291E400974202526F8760241
:1020090005261228EF401612290F122325500E1209
:10201900291E400974202526F8760305261229551C
:10202900501DE47F91122912C31223255011E47F18
:10203900A5122921400974202526F876040526E4ED
:102049007F461228F2402212297A501DE47F91120C
:102059002912C31223255011E47FA5122921400911
:1020690074202526F8760505261228EF401CE47F02
:10207900911229121223255011E47FA5122921401A
:102089000974202526F8760605261229555035E4C7
:102099007FCD12291212232540067F01C007800433
:1020A9007F00C007E47FAF122912C3122325500411
:1020B9007E0180027E00D0E05E600974202526F84A
:1020C90076070526E47F461228F2402212297A5023
:1020D9001DE47FAF122912C31223255011E47FCDCD
:1020E900122921400974202526F876080526122888
:1020F900EF401CE47FAF1229121223255011E47F0F
:10210900CD122921400974202526F876090526854E
:10211900200885210B85220E852311852414852508
:0421290017021D7DFF
:10212D007D64FCFE12284A7BFF7A2A79537538F8B4
:10213D00753900E4F53AF53B227B9B7C007F147EDC
:10214D000012241575360022FC7F7FFE1227A52272
:10215D007B9B7C007F147E0012241575360075372D
:10216D00D27538F875390022FC7F51FE1227A57BF8
:10217D00FF227D5EFCFE1227A522FC7F7FFE12272B
:10218D00A57BFF227D5EFCFE1227A57B00227D5ED6
:10219D00FCFE12284A7B00227D64FCFE12284A2296
:1021AD00FC7F1FFE1227A57BFF227D5EFCFE122702
:0A21BD00A5227C007E0012241522EA
:092B8A008F80C2A5D2A5D2A722BA
:102AEB00E4FDFCC3ED9FEC9E5014E4FBFA0BBB0022
:0E2AFB00010AEBF44A70F60DBD00010C80E5F7
:012B090022A9
:0A2B7600C2A7D2B2C2A6122B8A2217
:042B5100122B76FFCE
:0A2B5500C2A7D2B2D2A6122B8A2228
:1026E500D2B37FC87E00122AEBC2B37F207E0312CD
:1026F5002AEBD2B3122AEBC2A77F367E00122B76C5
:102705007FC8122B557F3A122B767F05122B557FEA
:10271500FE122B767FEF122B767FE2122B767F80CF
:10272500122B557FA3122B767F07122B557FA412F0
:102735002B767F09122B557FFF122B767F12122BDA
:10274500557FFD122B767F04122B557FF5122B76C4
:10275500E4FF122B557FFB122B517FF1122B767F55
:1027650055122B557FF8122B767F22122B557FF3AE
:10277500122B767F52122B557FFA122B767F25125C
:102785002B557FF4122B517FFC122B517F11122BED
:10279500767F78122AEB7F29122B767F32022AEB7D
:102A14008F828E837F2A7E00122B76E583FF122B12
:102A240055AF82122B55EAFF122B55AF03122B55CB
:102A34007F2B122B76ECFF122B55AF05122B55E58D
:0F2A440059FF122B55AF5A122B557F2C022B76B0
:102B2600AD07AC06C2A7D2B2D2A6ECFF8F80C2A573
:082B3600D2A58D80122B8C2228
:042A90008E318F32C2
:102A9400755900755ADB7BAF7A00E4FDFCFFFE122A
:102AA4002A14E4FB900000AF32AE31122B26A3E5CA
:102AB4008264B0458370F00BBB00010AEB64DC4A0E
:022AC40070E2BE
:012AC60022ED
:10000300C6D50000000000E0380000783C00003C4A
:100013007800003C70C0001CE1E01FFFFFF0001CF3
:10002300E3000E1CE7C0079CE78003DCEF0003DC62
:10003300EE0001DCFC60009CF9F07FFFFFF800009C
:10004300000001C00E0001FFFF0001C00E0001C04F
:100053000E0001C00E0001FFFE0001C00E0001C032
:100063000E0001C00E0001FFFE0001C00E0001C022
:100073000E0000000000D6D00000000000070000C2
:1000830000078000000700000007000000070000D1
:10009300000701801FFFFFE01FFFFFE01E0701C0F5
:1000A3001E0701C01E0701C01E0701C01E0701C0B5
:1000B3001E0701C01FFFFFC01FFFFFC01E0701C0B7
:1000C3001C07018000070000000700000007000074
:1000D3000007000000070000000700000007000001
:1000E300000700000007000000000000BFC600007A
:1000F300000000000780003C07C001FC07803FE0D0
:10010300078039C1C78001C0E78001C0F78001C003
:10011300778001DE77807FFE078001C0078003C3FD
:10012300C78003E1E78003F8F78007FCE7F00FDE01
:1001330067F80FDC07F81FC0FF801DDFE78039CCAD
:10014300078071C0078061C0078001C0078001C0BC
:10015300078001E0078001E0078001C0070000007D
:100163000000BCBC000000000380300003C03C0062
:1001730003C03C0003C0380003C0380003C038602C
:1001830003F838F07FFFFFF003C0380003C03800E6
:1001930003C0380003DC39C003FFFFE007E383C07B
:1001A3003FC183C07FC1C3803BC1C78003C0EF0091
:1001B30003C0EF0003C07E0003C07C0003C07C00CB
:1001C30003C0FE003BC3EF803F8787F80FBF03F8F0
:1001D300077800E000000000C4EA0000000000C04F
:1001E300000001F0000001E0000003C000C003C0F4
:1001F30001E007FFFFF00703C0000E03C0001E036A
:10020300C0003C03C3007303C78063FFFFC00383C5
:10021300C0000383C0000383C0000383C0000383C3
:10022300C0600383C0F07FFFFFF80003C00000033A
:10023300C0000003C0000003C0000003C0000003AF
:10024300C0000003C0000003C00000000000D4C2CF
:10025300000000000000000000E0070000FFFF8036
:1002630000F0078000F0070000F0070000F007002F
:1002730000F0070000FFFF0000FFFF0000F0070091
:1002830000F0070000F0070000F0070000E007009F
:1002930000FFFF0000E0070000E0070000E00700A8
:1002A30001E0070001C0070001C007000380070049
:1002B3000780F7000F007F001E001F0038001C009E
:1002C30000000000C8D5000000000000000003008B
:1002D300030003FFFF8003FFFF8003800700038009
:1002E30007000380070003800700038007000380E3
:1002F3000700038007000380070003FFFF0003805C
:1003030007000380070003800700038007000380C2
:1003130007000380070003800700038007000380B2
:10032300070003FFFF00038007000380070003802B
:1003330007000300000000000000D0C70000000019
:10034300000000000380070003FFFF800380070015
:10035300038007000380070003FFFF0003800700FB
:100363000380070003FFFF0003FFFF00038707006D
:100373000387C00003C7810003C7838007FFFFC053
:10038300070780000F0780001E0786001C078F00E9
:100393003BFFFF807007800000078000000780E0BC
:1003A300000781F07FFFFFF800000000000000005D
:1003B300C6DA0000000006000000079E0000079E4A
:1003C3007FF0079E7FF0079FF8F03FFFF8F01F9E36
:1003D30078F0079E78F0079E78F007FE7FF0079E7F
:1003E30078F0079E78F0079E70F007FE70F0079E86
:1003F30070F0079E7FF0079FFFF03FFFF0F0119032
:1004030070F003DCF0F003DEE0F0078FE0F00F0F95
:10041300E0F00E07C0F01C038FF0380F03E0201C40
:1004230001C0000000000000000000000000000008
:1004330000000000000000000000000000000000B9
:1004430000000000000000000000000000000000A9
:100453000000000000000000000000000000070092
:100463000700070007000700020002000200020065
:100473000200020000000000000007000700070060
:1004830000000000000000000000066006600CC0D1
:10049300198011002200000000000000000000008D
:1004A3000000000000000000000000000000000049
:1004B3000000000000000000000000000000000039
:1004C30010401040104010407FE07FE0104010408B
:1004D300208020807FE07FE020802080208020809B
:1004E3000000000000000000000000000200020005
:1004F3000F801AC032C032C032001A000E0007004B
:100503000380038002C032C032C032C012800F00A9
:1005130002000200000000000000000000000000D4
:1005230070C050808880890089008B008A005FC07A
:10053300754006200A200A201A201220114021C0EB
:1005430000000000000000000000000000000000A8
:100553001C00260026002600260025C03880308097
:1005630058804900CD00C700C600C300652038C0CD
:100573000000000000000000000030003800080008
:1005830008001000600000000000000000000000F0
:100593000000000000000000000000000000000058
:1005A3000000000000000000000000200040008068
:1005B3000180010003000300060006000600060098
:1005C300060006000600030003000100018000800E
:1005D3000040002000000000000040002000100048
:1005E300180008000C000C000600060006000600B8
:1005F3000600060006000C000C000800180010009E
:100603002000400000000000000000000000000087
:10061300000002000200020072703AE00F800F80B7
:100623003AE07270020002000200000000000000C5
:1006330000000000000000000000000000000000B7
:1006430000000000020002000200020002007FF02E
:10065300020002000200020002000000000000008D
:100663000000000000000000000000000000000087
:100673000000000000000000000000000000000077
:1006830000000000000000000000300038000800F7
:1006930008001000600000000000000000000000DF
:1006A30000000000000000000000000000007FE0E8
:1006B3000000000000000000000000000000000037
:1006C3000000000000000000000000000000000027
:1006D3000000000000000000000000000000000017
:1006E300000000000000000000003800380038005F
:1006F3000000000000000000000000200060004037
:1007030000C000800080010001000200020006001A
:10071300040004000800080010001000300020004E
:100723006000400000000000000000000000000026
:100733000F00198030C030C060606060606060602E
:10074300606060606060606030C030C019800F001E
:100753000000000000000000000000000000000096
:10076300020006003E000600060006000600060022
:1007730006000600060006000600060006003FC04D
:100783000000000000000000000000000000000066
:100793001F00218040C060C060C000C00180018094
:1007A3000300040008001040204040407FC07FC089
:1007B3000000000000000000000000000000000036
:1007C3001E002300618061806180018003000E00B0
:1007D3000180008000C060C060C060C021801F0035
:1007E3000000000000000000000000000000008086
:1007F30001800380038005800980098011802180A6
:10080300218041807FE0018001800180018007E039
:1008130000000000000000000000000000000000D5
:100823003FC03FC020002000200020002F00318067
:1008330020C000C000C060C060C0418021801F0094
:1008430000000000000000000000000000000000A5
:10085300078018C030C0300020006000678068C087
:1008630070606060606060602060304018C00F009E
:100873000000000000000000000000000000000075
:100883001FE03FE030402080208000800100010015
:100893000200020002000600060006000600060031
:1008A3000000000000000000000000000000000045
:1008B3001F8030C060606060606070403CC00F00AB
:1008C300338020C0606060606060606030C00F8013
:1008D3000000000000000000000000000000000015
:1008E3000F00308030C0604060606060606060E036
:1008F30031601E60006000C000C0308031801E0087
:1009030000000000000000000000000000000000E4
:1009130000000000000000000700070007000000BF
:1009230000000000000000000000070007000700AF
:1009330000000000000000000000000000000000B4
:100943000000000000000000000006000600000098
:100953000000000000000000000000000600060088
:10096300020004000000000000000000000000205E
:100973000040008001000200040008001000200075
:100983001000080004000200010000800040002065
:100993000000000000000000000000000000000054
:1009A300000000000000000000007FE000000000E5
:1009B300000000007FE000000000000000000000D5
:1009C3000000000000000000000000000000200004
:1009D3001000080004000200010000800040002015
:1009E3000040008001000200040008001000200005
:1009F30000000000000000000000000000000F8065
:100A030030C0406040606060606000C001800600EC
:100A1300040004000400000000000E000E000E009D
:100A230000000000000000000000000000000000C3
:100A330007801C601020335026D064906490689027
:100A43006890699069A066C0301030201840078014
:100A53000000000000000000000000000000000093
:100A6300060006000E000B000B001300118011801E
:100A730011801F8020C020C020C020606060F0F083
:100A83000000000000000000000000000000000063
:100A9300FF00618060C060C060C060C061807F0093
:100AA30060C06040606060606060606060C0FF80E4
:100AB3000000000000000000000000000000000033
:100AC30007E01860302030202000600060006000E4
:100AD30060006000600060203020304018800F000C
:100AE3000000000000000000000000000000000003
:100AF300FE00618060C060C06060606060606060D4
:100B0300606060606060606060C060C06380FE00C1
:100B130000000000000000000000000000000000D2
:100B2300FFC06040602060006000610061007F00E2
:100B33006100610060006000602060206040FFC0D1
:100B430000000000000000000000000000000000A2
:100B5300FFC060C0602060206000610061007F0012
:100B63006100610060006000600060006000F000F0
:100B73000000000000000000000000000000000072
:100B83000F4018C03040304020006000600060001B
:100B9300600063F060C060C030C030C018C00F0098
:100BA3000000000000000000000000000000000042
:100BB300F0F06060606060606060606060607FE073
:100BC3006060606060606060606060606060F0F002
:100BD3000000000000000000000000000000000012
:100BE3003FC00600060006000600060006000600D9
:100BF30006000600060006000600060006003FC0C9
:100C030000000000000000000000000000000000E1
:100C13000FF001800180018001800180018001804B
:100C230001800180018001800180018001800180B9
:100C3300618063003E00000000000000000000002F
:100C4300F3E0608061006200620064006C007C007D
:100C53007600670063006380618060C060E0F1F04C
:100C63000000000000000000000000000000000081
:100C7300F0006000600060006000600060006000E1
:100C83006000600060006000602060206040FFC082
:100C93000000000000000000000000000000000051
:100CA300F0F070E070E070E059605960596059608D
:100CB3005A604E604E604E604E6044604460E4F0A3
:100CC3000000000000000000000000000000000021
:100CD300E07070207020582058204C204620462079
:100CE3004320432041A040E040E040604060E020DA
:100CF30000000000000000000000000000000000F1
:100D03000F00198030C030406060606060606060D8
:100D13006060606060606060304030C019800F00C8
:100D230000000000000000000000000000000000C0
:100D3300FF8060C06060606060606060606060C031
:100D43007F80600060006000600060006000F00071
:100D53000000000000000000000000000000000090
:100D63000F00198030C03040606060606060606078
:100D73006060606060606E60324031C011800F80DF
:100D830001E000C0000000000000000000000000BF
:100D9300FF8060C0606060606060606060C07F0012
:100DA3006600630063006180618060C060C0F070B2
:100DB3000000000000000000000000000000000030
:100DC3001F2030E060206020600070003C000F00B6
:100DD30003C000C0006040604060606070C04F802E
:100DE3000000000000000000000000000000000000
:100DF3007FE04620861086100600060006000600E7
:100E030006000600060006000600060006000F00A6
:100E130000000000000000000000000000000000CF
:100E2300F0706020602060206020602060206020DF
:100E330060206020602060206020602030401F80A0
:100E4300000000000000000000000000000000009F
:100E5300F8F07060304030403040308018801880A7
:100E6300188018800D000D000D000F00060006000D
:100E7300000000000000000000000000000000006F
:100E8300F77066206620664066406740374037400B
:100E93003B803B803B803B80398011001100110077
:100EA300000000000000000000000000000000003F
:100EB30079E030C01880188019000D000E0006007C
:100EC300060007000B000B801980118030C079E009
:100ED300000000000000000000000000000000000F
:100EE300F8F0706030403080188018800D000D00DD
:100EF3000E000600060006000600060006001F801E
:100F030000000000000000000000000000000000DE
:100F13003FE020C041C001800380030003000600BE
:100F230006000C000C0018001820382030407FC049
:100F33000000000000000000000007E004000400BF
:100F4300040004000400040004000400040004007E
:100F5300040004000400040004000400040004006E
:100F6300040007E000000000000000000000200073
:100F73001000100010000800080004000400040022
:100F83000200020001000100010000800080004017
:100F9300004000400020000000003F00010001006D
:100FA3000100010001000100010001000100010036
:100FB3000100010001000100010001000100010026
:100FC30001003F0000000000000007000D801040FA
:100FD300000000000000000000000000000000000E
:100FE30000000000000000000000000000000000FE
:100FF30000000000000000000000000000000000EE
:1010030000000000000000000000000000000000DD
:1010130000000000000000000000000000000000CD
:1010230000000000FFF0000000003000380008005E
:101033000800100060000000000000000000000035
:10104300000000000000000000000000000000009D
:10105300000000000000000000000000000000008D
:10106300000000000000000000000F8030C030C00E
:1010730007C01CC030C060C060C060C071D03EF00B
:10108300000000000000000000000000000010004D
:101093007000300030003000300033803CC03860D6
:1010A30030603060306030603060304038C02F8056
:1010B300000000000000000000000000000000002D
:1010C300000000000000000000000F0031803180AC
:1010D30061806000600060006040304030800F003D
:1010E30000000000000000000000000000000040BD
:1010F30001C000C000C000C000C01EC031C030C06D
:1011030060C060C060C060C060C020C031E01E80AD
:1011130000000000000000000000000000000000CC
:1011230000000000000000000000078018C01060ED
:1011330030603FE030003000300018201C40078052
:10114300000000000000000000000000000000009C
:1011530003C006600C600C000C007FC00C000C0088
:101163000C000C000C000C000C000C000C003F8069
:10117300000000000000000000000000000000006C
:10118300000000000000000000000F70199030C044
:1011930030C030C019801F0030003E001FC06060A7
:1011A300606070E01F80000000000000000010007D
:1011B30070003000300030003000378038C030C05D
:1011C30030C030C030C030C030C030C030C079E033
:1011D300000000000000000000000000000000000C
:1011E300060006000000000000003E0006000600A6
:1011F30006000600060006000600060006003FC0C3
:1012030000000000000000000000000000000000DB
:10121300018001800000000000000F800180018038
:1012230001800180018001800180018001800180B3
:10123300018033003E0000000000000000001000A9
:101243007000300030003000300033C03100330014
:10125300320036003E003B0033003180318079E0BC
:101263000000000000000000000000000000020079
:101273003E00060006000600060006000600060003
:1012830006000600060006000600060006003FC032
:10129300000000000000000000000000000000004B
:1012A30000000000000000000000EEE077606660D0
:1012B3006660666066606660666066606660F7705A
:1012C300000000000000000000000000000000001B
:1012D3000000000000000000000073803CC030C02C
:1012E30030C030C030C030C030C030C030C079E012
:1012F30000000000000000000000000000000000EB
:10130300000000000000000000000F00198030C042
:101313006060606060606060606030C030C00F001B
:1013230000000000000000000000000000000000BA
:1013330000000000000000000000778038C030602B
:101343003060306030603060306030C038C037802B
:10135300300030007C0000000000000000000000AE
:10136300000000000000000000001E4031C030C03B
:1013730060C060C060C060C060C020C031C01EC01B
:1013830000C000C003E000000000000000000000F7
:1013930000000000000000000000F9E01A601C00DB
:1013A3001800180018001800180018001800FF0093
:1013B300000000000000000000000000000000002A
:1013C300000000000000000000000FE01860302063
:1013D30030001C000F8001C02060206030C03F80BF
:1013E30000000000000000000000000000000000FA
:1013F3000000040004000C000C007F800C000C00B3
:101403000C000C000C000C000C000C400C4007807E
:1014130000000000000000000000000000000000C9
:101423000000000000000000104071C030C030C058
:1014330030C030C030C030C030C030C039E01E8052
:101443000000000000000000000000000000000099
:10145300000000000000000000007CF0386018402D
:1014630018400C800C800C80070007000700020066
:101473000000000000000000000000000000000069
:1014830000000000000000000000F7B063206320AC
:101493006720372035C039C039C039C0108010806B
:1014A3000000000000000000000000000000000039
:1014B300000000000000000000007DE0188019809B
:1014C3000D000E00060007000B00198011C07BE021
:1014D3000000000000000000000000000000000009
:1014E300000000000000000000007DE0388018804C
:1014F30018800D000D000D00060006000200040018
:101503000400280038000000000000000000000074
:10151300000000000000000000003FC02180238085
:101523000300070006000E000C201C2018603FC0BB
:1015330000000000000000000000000000000000A8
:101543000000000000000000000000000000000098
:101553000000000000000000000000000000000088
:101563000000000000000000000000000000000078
:101573000000000000000000000000000000000068
:101583000000000000000000000000000000000058
:101593000000000000000000000000000000000048
:1015A3000000000000000000000000000000000038
:1015B3000000000000000000000000000000000028
:1015C3000000000000000000000000000000000018
:1015D3000000000000000000000000000000000008
:1015E30000000000000000000000000000000000F8
:1015F30000000000000000000000000000000000E8
:1016030000000000000000000000000000000000D7
:1016130000000000000000000000000000000000C7
:1016230000000000000000000000000000000000B7
:10163300000000000000000000000000000000F8AF
:10164300000386000703000E01800C01C01C00C0CC
:101653001800C03800E03800E03800607000707097
:101663000070700070700070700070700070700017
:101673007070007070007070007070007070007097
:101683003800603800E03800E01800C01C00C00CCF
:1016930001800E018006030003860000F8000000AD
:1016A3000000000000000000000000000000000037
:1016B3000000000000000000000000000000000027
:1016C300000000000000000000000000000000080F
:1016D3000000180000380007F80000380000380048
:1016E30000380000380000380000380000380000DF
:1016F3003800003800003800003800003800003897
:1017030000003800003800003800003800003800BE
:1017130000380000380000380000380000380000AE
:101723003800003800003800007C0007FFC00000CC
:1017330000000000000000000000000000000000A6
:101743000000000000000000000000000000000096
:10175300000000000000000000000000000000FC8A
:10176300000307000C03801801C01801C03800E013
:101773003800E03800E03C00E03C00E01C00E00002
:1017830001C00001C0000380000380000700000EB9
:1017930000001C0000380000700000E00001C000E1
:1017A3000380000300000600200C002018006030B6
:1017B30000602000C07FFFC07FFFC07FFFC000002C
:1017C3000000000000000000000000000000000016
:1017D3000000000000000000000000000000000006
:1017E300000000000000000000000000000000FCFA
:1017F300000307000603800C01C01C01C01C00E0AD
:101803001E00E01E00E00E00E00000E00000C0004B
:1018130001C0000180000300000E0000F800000F6B
:10182300000001800000C00000E0000060000070C4
:101833000000701800703C00703C00703C00603881
:1018430000E01800C00C018006070001FC00000046
:101853000000000000000000000000000000000085
:101863000000000000000000000000000000000075
:101873000000000000000000000000000000000362
:1018830000000700000700000F00001F0000170002
:1018930000370000270000670000C7000087000131
:1018A3008700030700020700060700040700080774
:1018B300001807001007003007006007007FFFF8DB
:1018C3007FFFF80007000007000007000007000083
:1018D300070000070000070000078000FFF8000072
:1018E30000000000000000000000000000000000F5
:1018F30000000000000000000000000000000000E5
:1019030000000000000000000000000000000FFFC6
:10191300E00FFFE00FFFE0080000080000080000F0
:101923000800000800001000001000001000001064
:10193300FE0013FF001703801C01C01C00E0180009
:10194300E00000F000007000007000007000007004
:101953001800703C00703C00703C00603800E018D8
:1019630000E01801C00C018007070001FC00000023
:101973000000000000000000000000000000000064
:101983000000000000000000000000000000000054
:101993000000000000000000000000000000007EC6
:1019A300000183800303800603C00C03C01803C037
:1019B30018000018000038000030000030000070EC
:1019C3000000707E0071FF807783C07601C07C00C9
:1019D300E07800E07000707000707000707000704C
:1019E3007000703000703800703800701800601C90
:1019F30000E00C00C006018003830000FC0000002F
:101A030000000000000000000000000000000000D3
:101A130000000000000000000000000000000000C3
:101A230000000000000000000000000000001FFF95
:101A3300F01FFFF01FFFE01C00601000C0300080AB
:101A430020018020010000030000020000060000C6
:101A53000400000C0000080000180000180000300B
:101A63000000300000700000600000600000E00033
:101A730000E00000E00000E00001E00001E0000100
:101A8300E00001E00001E00001E00000E0000000F0
:101A93000000000000000000000000000000000043
:101AA3000000000000000000000000000000000033
:101AB300000000000000000000000000000001FE24
:101AC300000703800E01C01C00E01800E03800701E
:101AD3003800703800703800703C00701E00E01F42
:101AE30000E00F81C007E38003FE0003FE00063F12
:101AF300000C0F801C07C03801E03801E07000F0D3
:101B0300700070700070700070700070700070383A
:101B130000E01800C00C01C007030001FC00000036
:101B230000000000000000000000000000000000B2
:101B330000000000000000000000000000000000A2
:101B4300000000000000000000000000000001F899
:101B5300000706000C01001C01803800C03800C0DB
:101B63003000607000607000607000707000707012
:101B730000707000707000F03800F03801F03C0322
:101B8300701F0E700FFC7003F0700000600000E027
:101B93000000E00000E00000C00001C00C01801E56
:101BA30003801E03001E06000E1C0003F00000004D
:101BB3000000000000000000000000000000000022
:101BC3000000000000000000000000000000000012
:101BD3000000000000000000000000000000000002
:101BE30000000000000000000000000000000000F2
:101BF300000000000000000000000000007800006A
:101C0300FC0000FC0000FC0000FC00007800000069
:101C130000000000000000000000000000000000C1
:101C23000000000000000000000000000078000039
:101C3300FC0000FC0000FC0000FC00007800000039
:101C43000000000000000000000000000000000091
:061C53000000000000008B
:0A2B8000F582E43583F583E4932227
:0C2985008E4E8F4F8A508B518D828C83B8
:10299100E54F24FFFFE54E34FFFEE58224FFFDE510
:1029A1008334FFFCE54F2402FBE4354EFAE5822433
:1029B10002F55AE43583F559122A14E4F552AF5160
:0E29C100AE50122B260552E552C3941040F082
:0129CF0022E5
:10241500E4F53CF53DF53EF53FC3EB9FF541E49E04
:10242500F540C3E5379DF543E5369CF5428E4C8F67
:102435004D8C4A8D4BD3E5419400E54064809480F2
:102445004008754600754701801DE5414540700609
:10245500F546F547801174FFF546F547C3E4954108
:10246500F541E49540F540D3E5439400E5426480A9
:1024750094804008754800754901801DE543454233
:102485007006F548F549801174FFF548F549C3E430
:102495009543F543E49542F542D3E5419543E5423D
:1024A5006480F8E54064809840088540448541454E
:1024B5008006854244854345E4F53AF53BE54524E8
:1024C50001FFE43544FED3E53B9FE53A9E40030218
:1024D500255BAB39AA38AD4BAC4AAF4DAE4C122992
:1024E50085E541253DF53DE540353CF53CE5432594
:1024F5003FF53FE542353EF53ED3E53D9545E5449F
:102505006480F8E53C6480984018E53D9545F53DC7
:10251500E53C9544F53CE547254DF54DE546354CFF
:10252500F54CD3E53F9545E5446480F8E53E648088
:10253500984018E53F9545F53FE53E9544F53EE560
:1025450049254BF54BE548354AF54A053BE53B70D2
:0625550002053A0224C257
:01255B00225D
:0E27A5008E318F328C338D348B358A368937E6
:1027B300AB35AA36A9371222BD700302284924E09B
:1027C300F53EE532240FFBE43531FAE5342417F501
:1027D3005AE43533F559AD34AC33AF32AE31122A46
:1027E30014E4F53D75F030E53E90042912233BE5F2
:1027F30082253D122B80753F00F540E4F53CE54012
:1028030030E706AF39AE388004AF3BAE3A122B2621
:10281300E54025E0F540E53F33F53F053CE53CC3A6
:10282300940840DA053DE53DC3943040B774012573
:1028330037F537E43536F53674102532F532E4359D
:0628430031F5310227B35C
:01284900226C
:0E284A008E318F328C338D348B358A36893740
:10285800AB35AA36A9371222BD70030228EE24D060
:10286800F53EE5322417FBE43531FAE534242FF53B
:102878005AE43533F559AD34AC33AF32AE31122AA0
:1028880014E4F53D75F090E53E90162912233BE5DA
:1028980082253D122B80753F00F540E4F53CE5406C
:1028A80030E706AF39AE388004AF3BAE3A122B267C
:1028B800E54025E0F540E53F33F53F053CE53CC301
:1028C800940840DA053DE53DC3949040B77401256E
:1028D80037F537E43536F53674182532F532E435F0
:0628E80031F53102285811
:0128EE0022C7
:102B3E00E53B25E0243CF8E6FE08E6FFEA25E02426
:032B4E003CF8222E
:0B2B6B00C2A1D2A3D2A2D2A1C2A32219
:102B0A00C2A1E4FEEFC4131313540124FF92A2EFEF
:0B2B1A0025E0FFC2A1D2A10EBE08E919
:012B2500228D
:102AC700E4FFFEC2A1FDFCEF25E0FFEE33FED2A13D
:102AD700C2A1A2A0E43342070DBD00010CED640CB6
:032AE7004C70E44C
:012AEA0022C9
:02262300AB0703
:10262500C2A1C2A3E4FAAF03122B0A753B06D53B40
:10263500FDD2A10000C2A10000122AC7122B4AA692
:102645000608A6070ABA0ADED2A3E4FAEA04F53BAD
:10265500E53BC3940A5038122B3EE6FC08E6C39FBF
:10266500EC9E5027122B4AE6FE08E6FFE48F538EB8
:1026750052F551F550122B3EA60608A607AF53E5B5
:102685003B25E0243CF8A65208A607053B80C10A75
:10269500EA640970B7E4F553F552F551F5507A023D
:1026A500122B4AE6FE08E6FFE4FCFDE5532FFFE5A5
:1026B500523EFEED3551FDEC35508F538E528D5106
:1026C500F5500ABA08DAAF53AE52AD51AC50E47BBF
:0F26D50006FAF9F81229D08F538E528D518C507E
:0126E40022D3
:10255C00122B6B7FD01226238E318F327F90122656
:10256C00238E378F387FD01226238E338F347F9073
:10257C00122623AD07AC06D3E5329534E5319533FD
:10258C00400EE5329534F536E5319533F535800D51
:10259C00C3E5349532F536E5339531F535D3E53869
:1025AC009DE5379C400CE5389DF53AE5379CF539AF
:1025BC00800BC3ED9538F53AEC9537F539D3E53604
:1025CC009432E5359400500AE53A9432E53994009A
:1025DC0040037F0022E5322534FFE5313533C31348
:1025EC00F55BEF13F55CE5382DFFE5373CC313F5D0
:1025FC005DEF13F55E535CF0535EF0C3E55C9464E1
:10260C00E55B9400400BD3E55E94A0E55D940F4030
:06261C00037F00227F0194
:012622002295
:03000000022B5F71
:0C2B5F00787FE4F6D8FD75815E021C59F9
:1021C700E709F608DFFA8046E709F208DFFA803EFA
:1021D70088828C83E709F0A3DFFA8032E309F608E7
:1021E700DFFA8078E309F208DFFA807088828C834F
:1021F700E309F0A3DFFA806489828A83E0A3F60803
:10220700DFFA805889828A83E0A3F208DFFA804CDC
:1022170080D280FA80C680D4806980F280338010B3
:1022270080A680EA809A80A880DA80E280CA80331C
:1022370089828A83ECFAE493A3C8C582C8CCC58394
:10224700CCF0A3C8C582C8CCC583CCDFE9DEE78064
:102257000D89828A83E493A3F608DFF9ECFAA9F0E3
:10226700EDFB2289828A83ECFAE0A3C8C582C8CC39
:10227700C583CCF0A3C8C582C8CCC583CCDFEADE52
:10228700E880DB89828A83E493A3F208DFF980CCB4
:1022970088F0EF60010E4E60C388F0ED2402B404AD
:1022A7000050B9F582EB2402B4040050AF23234554
:0622B70082239022177340
:1022BD00BB010689828A83E0225002E722BBFE021F
:0922CD00E32289828A83E4932252
:1022D600E88FF0A4CC8BF0A42CFCE98EF0A42CFCA7
:1022E6008AF0EDA42CFCEA8EF0A4CDA8F08BF0A425
:1022F6002DCC3825F0FDE98FF0A42CCD35F0FCEB84
:102306008EF0A4FEA9F0EB8FF0A4CFC5F02ECD3948
:0F231600FEE43CFCEAA42DCE35F0FDE43CFC22B5
:1029D000C2D5E830E70FB2D5E4C39BFBE49AFAE432
:1029E00099F9E498F8EC30E717B2D5122A061223C9
:1029F00083E4C39BFBE49AFAE499F9E498F8800332
:102A000012238330D50DE4C39FFFE49EFEE49DFDB9
:042A1000E49CFC2224
:10232500EB9FF5F0EA9E42F0E99D42F0EC6480C82F
:0623350064809845F022CF
:0C233B00A42582F582E5F03583F58322AD
:1023470075F008758200EF2FFFEE33FECD33CDCC4D
:1023570033CCC58233C5829BED9AEC99E5829840D0
:102367000CF582EE9BFEED9AFDEC99FC0FD5F0D6AD
:10237700E4CEFBE4CDFAE4CCF9A88222B800C1B9D7
:102387000059BA002DEC8BF084CFCECDFCE5F0CB15
:10239700F97818EF2FFFEE33FEED33FDEC33FCEB4E
:1023A70033FB10D703994004EB99FB0FD8E5E4F909
:1023B700FA227818EF2FFFEE33FEED33FDEC33FCF6
:1023C700C933C910D7059BE99A4007EC9BFCE99AEA
:1023D700F90FD8E0E4C9FAE4CCFB2275F010EF2F2F
:1023E700FFEE33FEED33FDCC33CCC833C810D7072F
:1023F7009BEC9AE899400AED9BFDEC9AFCE899F86A
:0E2407000FD5F0DAE4CDFBE4CCFAE4C8F922FC
:00000001FF
