:10333100060A00000000000001140001100104153C
:103341000000000004190000000001120001090141
:0933510001110001080001130044
:0B359B0012357D122CE512221880FB77
:0935EE008F80C2A5D2A5D2A7224C
:10343200E4FDFCC3ED9FEC9E5014E4FBFA0BBB00D1
:0E344200010AEBF44A70F60DBD00010C80E5A6
:013450002259
:0A35BC00C2A7D2B2C2A61235EE2259
:04358D001235BCFF38
:0A359100C2A7D2B2D2A61235EE2274
:102CE500D2B37FC87E00123432C2B37F207E031276
:102CF5003432D2B3123432C2A77F367E001235BCCD
:102D05007FC81235917F3A1235BC7F051235917F08
:102D1500FE1235BC7FEF1235BC7FE21235BC7F80D9
:102D25001235917FA31235BC7F071235917FA4120E
:102D350035BC7F091235917FFF1235BC7F121235E4
:102D4500917FFD1235BC7F041235917FF51235BC9C
:102D5500E4FF1235917FFB12358D7FF11235BC7F73
:102D6500551235917FF81235BC7F221235917FF3CC
:102D75001235BC7F521235917FFA1235BC7F251270
:102D850035917FF412358D7FFC12358D7F1112350B
:102D9500BC7F781234327F291235BC7F320234323F
:103264008F828E837F2A7E001235BCE583FF123560
:1032740091AF82123591EAFF123591AF0312359165
:103284007F2B1235BCECFF123591AF05123591E559
:0F32940049FF123591AF4A1235917F2C0235BC9C
:1034FD00AD07AC06C2A7D2B2D2A6ECFF8F80C2A593
:08350D00D2A58D801235F022D9
:0432A3008E218F22C7
:1032A700754900754ADB7BAF7A00E4FDFCFFFE122F
:1032B7003264E4FB900000AF22AE211234FDA3E597
:1032C7008264B0458370F00BBB00010AEB64DC4AF3
:0232D70070E2A3
:0132D90022D2
:10001E00C6D50000000000E0380000783C00003C2F
:10002E007800003C70C0001CE1E01FFFFFF0001CD8
:10003E00E3000E1CE7C0079CE78003DCEF0003DC47
:10004E00EE0001DCFC60009CF9F07FFFFFF8000081
:10005E00000001C00E0001FFFF0001C00E0001C034
:10006E000E0001C00E0001FFFE0001C00E0001C017
:10007E000E0001C00E0001FFFE0001C00E0001C007
:10008E000E0000000000D6D00000000000070000A7
:10009E0000078000000700000007000000070000B6
:1000AE00000701801FFFFFE01FFFFFE01E0701C0DA
:1000BE001E0701C01E0701C01E0701C01E0701C09A
:1000CE001E0701C01FFFFFC01FFFFFC01E0701C09C
:1000DE001C07018000070000000700000007000059
:1000EE0000070000000700000007000000070000E6
:1000FE00000700000007000000000000BFC600005F
:10010E00000000000780003C07C001FC07803FE0B4
:10011E00078039C1C78001C0E78001C0F78001C0E8
:10012E00778001DE77807FFE078001C0078003C3E2
:10013E00C78003E1E78003F8F78007FCE7F00FDEE6
:10014E0067F80FDC07F81FC0FF801DDFE78039CC92
:10015E00078071C0078061C0078001C0078001C0A1
:10016E00078001E0078001E0078001C00700000062
:10017E000000BCBC000000000380300003C03C0047
:10018E0003C03C0003C0380003C0380003C0386011
:10019E0003F838F07FFFFFF003C0380003C03800CB
:1001AE0003C0380003DC39C003FFFFE007E383C060
:1001BE003FC183C07FC1C3803BC1C78003C0EF0076
:1001CE0003C0EF0003C07E0003C07C0003C07C00B0
:1001DE0003C0FE003BC3EF803F8787F80FBF03F8D5
:1001EE00077800E000000000C4EA0000000000C034
:1001FE00000001F0000001E0000003C000C003C0D9
:10020E0001E007FFFFF00703C0000E03C0001E034E
:10021E00C0003C03C3007303C78063FFFFC00383AA
:10022E00C0000383C0000383C0000383C0000383A8
:10023E00C0600383C0F07FFFFFF80003C00000031F
:10024E00C0000003C0000003C0000003C000000394
:10025E00C0000003C0000003C00000000000D4C2B4
:10026E00000000000000000000E0070000FFFF801B
:10027E0000F0078000F0070000F0070000F0070014
:10028E0000F0070000FFFF0000FFFF0000F0070076
:10029E0000F0070000F0070000F0070000E0070084
:1002AE0000FFFF0000E0070000E0070000E007008D
:1002BE0001E0070001C0070001C00700038007002E
:1002CE000780F7000F007F001E001F0038001C0083
:1002DE0000000000C8D50000000000000000030070
:1002EE00030003FFFF8003FFFF80038007000380EE
:1002FE0007000380070003800700038007000380C8
:10030E000700038007000380070003FFFF00038040
:10031E0007000380070003800700038007000380A7
:10032E000700038007000380070003800700038097
:10033E00070003FFFF000380070003800700038010
:10034E0007000300000000000000D0C700000000FE
:10035E00000000000380070003FFFF8003800700FA
:10036E00038007000380070003FFFF0003800700E0
:10037E000380070003FFFF0003FFFF000387070052
:10038E000387C00003C7810003C7838007FFFFC038
:10039E00070780000F0780001E0786001C078F00CE
:1003AE003BFFFF807007800000078000000780E0A1
:1003BE00000781F07FFFFFF8000000000000000042
:1003CE00C6DA0000000006000000079E0000079E2F
:1003DE007FF0079E7FF0079FF8F03FFFF8F01F9E1B
:1003EE0078F0079E78F0079E78F007FE7FF0079E64
:1003FE0078F0079E78F0079E70F007FE70F0079E6B
:10040E0070F0079E7FF0079FFFF03FFFF0F0119016
:10041E0070F003DCF0F003DEE0F0078FE0F00F0F7A
:10042E00E0F00E07C0F01C038FF0380F03E0201C25
:10043E0001C00000000000000000000000000000ED
:10044E00000000000000000000000000000000009E
:10045E00000000000000000000000000000000008E
:10046E000000000000000000000000000000070077
:10047E00070007000700070002000200020002004A
:10048E000200020000000000000007000700070045
:10049E0000000000000000000000066006600CC0B6
:1004AE001980110022000000000000000000000072
:1004BE00000000000000000000000000000000002E
:1004CE00000000000000000000000000000000001E
:1004DE0010401040104010407FE07FE01040104070
:1004EE00208020807FE07FE0208020802080208080
:1004FE0000000000000000000000000002000200EA
:10050E000F801AC032C032C032001A000E0007002F
:10051E000380038002C032C032C032C012800F008E
:10052E0002000200000000000000000000000000B9
:10053E0070C050808880890089008B008A005FC05F
:10054E00754006200A200A201A201220114021C0D0
:10055E00000000000000000000000000000000008D
:10056E001C00260026002600260025C0388030807C
:10057E0058804900CD00C700C600C300652038C0B2
:10058E0000000000000000000000300038000800ED
:10059E0008001000600000000000000000000000D5
:1005AE00000000000000000000000000000000003D
:1005BE00000000000000000000000020004000804D
:1005CE00018001000300030006000600060006007D
:1005DE0006000600060003000300010001800080F3
:1005EE00004000200000000000004000200010002D
:1005FE00180008000C000C0006000600060006009D
:10060E000600060006000C000C0008001800100082
:10061E00200040000000000000000000000000006C
:10062E00000002000200020072703AE00F800F809C
:10063E003AE07270020002000200000000000000AA
:10064E00000000000000000000000000000000009C
:10065E0000000000020002000200020002007FF013
:10066E000200020002000200020000000000000072
:10067E00000000000000000000000000000000006C
:10068E00000000000000000000000000000000005C
:10069E0000000000000000000000300038000800DC
:1006AE0008001000600000000000000000000000C4
:1006BE0000000000000000000000000000007FE0CD
:1006CE00000000000000000000000000000000001C
:1006DE00000000000000000000000000000000000C
:1006EE0000000000000000000000000000000000FC
:1006FE000000000000000000000038003800380044
:10070E00000000000000000000000020006000401B
:10071E0000C00080008001000100020002000600FF
:10072E000400040008000800100010003000200033
:10073E00600040000000000000000000000000000B
:10074E000F00198030C030C0606060606060606013
:10075E00606060606060606030C030C019800F0003
:10076E00000000000000000000000000000000007B
:10077E00020006003E000600060006000600060007
:10078E0006000600060006000600060006003FC032
:10079E00000000000000000000000000000000004B
:1007AE001F00218040C060C060C000C00180018079
:1007BE000300040008001040204040407FC07FC06E
:1007CE00000000000000000000000000000000001B
:1007DE001E002300618061806180018003000E0095
:1007EE000180008000C060C060C060C021801F001A
:1007FE00000000000000000000000000000000806B
:10080E00018003800380058009800980118021808A
:10081E00218041807FE0018001800180018007E01E
:10082E0000000000000000000000000000000000BA
:10083E003FC03FC020002000200020002F0031804C
:10084E0020C000C000C060C060C0418021801F0079
:10085E00000000000000000000000000000000008A
:10086E00078018C030C0300020006000678068C06C
:10087E0070606060606060602060304018C00F0083
:10088E00000000000000000000000000000000005A
:10089E001FE03FE0304020802080008001000100FA
:1008AE000200020002000600060006000600060016
:1008BE00000000000000000000000000000000002A
:1008CE001F8030C060606060606070403CC00F0090
:1008DE00338020C0606060606060606030C00F80F8
:1008EE0000000000000000000000000000000000FA
:1008FE000F00308030C0604060606060606060E01B
:10090E0031601E60006000C000C0308031801E006B
:10091E0000000000000000000000000000000000C9
:10092E0000000000000000000700070007000000A4
:10093E000000000000000000000007000700070094
:10094E000000000000000000000000000000000099
:10095E00000000000000000000000600060000007D
:10096E00000000000000000000000000060006006D
:10097E000200040000000000000000000000002043
:10098E00004000800100020004000800100020005A
:10099E00100008000400020001000080004000204A
:1009AE000000000000000000000000000000000039
:1009BE00000000000000000000007FE000000000CA
:1009CE00000000007FE000000000000000000000BA
:1009DE0000000000000000000000000000002000E9
:1009EE0010000800040002000100008000400020FA
:1009FE0000400080010002000400080010002000EA
:100A0E0000000000000000000000000000000F8049
:100A1E0030C0406040606060606000C001800600D1
:100A2E00040004000400000000000E000E000E0082
:100A3E0000000000000000000000000000000000A8
:100A4E0007801C601020335026D06490649068900C
:100A5E006890699069A066C03010302018400780F9
:100A6E000000000000000000000000000000000078
:100A7E00060006000E000B000B0013001180118003
:100A8E0011801F8020C020C020C020606060F0F068
:100A9E000000000000000000000000000000000048
:100AAE00FF00618060C060C060C060C061807F0078
:100ABE0060C06040606060606060606060C0FF80C9
:100ACE000000000000000000000000000000000018
:100ADE0007E01860302030202000600060006000C9
:100AEE0060006000600060203020304018800F00F1
:100AFE0000000000000000000000000000000000E8
:100B0E00FE00618060C060C06060606060606060B8
:100B1E00606060606060606060C060C06380FE00A6
:100B2E0000000000000000000000000000000000B7
:100B3E00FFC06040602060006000610061007F00C7
:100B4E006100610060006000602060206040FFC0B6
:100B5E000000000000000000000000000000000087
:100B6E00FFC060C0602060206000610061007F00F7
:100B7E006100610060006000600060006000F000D5
:100B8E000000000000000000000000000000000057
:100B9E000F4018C030403040200060006000600000
:100BAE00600063F060C060C030C030C018C00F007D
:100BBE000000000000000000000000000000000027
:100BCE00F0F06060606060606060606060607FE058
:100BDE006060606060606060606060606060F0F0E7
:100BEE0000000000000000000000000000000000F7
:100BFE003FC00600060006000600060006000600BE
:100C0E0006000600060006000600060006003FC0AD
:100C1E0000000000000000000000000000000000C6
:100C2E000FF0018001800180018001800180018030
:100C3E00018001800180018001800180018001809E
:100C4E00618063003E000000000000000000000014
:100C5E00F3E0608061006200620064006C007C0062
:100C6E007600670063006380618060C060E0F1F031
:100C7E000000000000000000000000000000000066
:100C8E00F0006000600060006000600060006000C6
:100C9E006000600060006000602060206040FFC067
:100CAE000000000000000000000000000000000036
:100CBE00F0F070E070E070E0596059605960596072
:100CCE005A604E604E604E604E6044604460E4F088
:100CDE000000000000000000000000000000000006
:100CEE00E07070207020582058204C20462046205E
:100CFE004320432041A040E040E040604060E020BF
:100D0E0000000000000000000000000000000000D5
:100D1E000F00198030C030406060606060606060BD
:100D2E006060606060606060304030C019800F00AD
:100D3E0000000000000000000000000000000000A5
:100D4E00FF8060C06060606060606060606060C016
:100D5E007F80600060006000600060006000F00056
:100D6E000000000000000000000000000000000075
:100D7E000F00198030C0304060606060606060605D
:100D8E006060606060606E60324031C011800F80C4
:100D9E0001E000C0000000000000000000000000A4
:100DAE00FF8060C0606060606060606060C07F00F7
:100DBE006600630063006180618060C060C0F07097
:100DCE000000000000000000000000000000000015
:100DDE001F2030E060206020600070003C000F009B
:100DEE0003C000C0006040604060606070C04F8013
:100DFE0000000000000000000000000000000000E5
:100E0E007FE04620861086100600060006000600CB
:100E1E0006000600060006000600060006000F008B
:100E2E0000000000000000000000000000000000B4
:100E3E00F0706020602060206020602060206020C4
:100E4E0060206020602060206020602030401F8085
:100E5E000000000000000000000000000000000084
:100E6E00F8F070603040304030403080188018808C
:100E7E00188018800D000D000D000F0006000600F2
:100E8E000000000000000000000000000000000054
:100E9E00F7706620662066406640674037403740F0
:100EAE003B803B803B803B8039801100110011005C
:100EBE000000000000000000000000000000000024
:100ECE0079E030C01880188019000D000E00060061
:100EDE00060007000B000B801980118030C079E0EE
:100EEE0000000000000000000000000000000000F4
:100EFE00F8F0706030403080188018800D000D00C2
:100F0E000E000600060006000600060006001F8002
:100F1E0000000000000000000000000000000000C3
:100F2E003FE020C041C001800380030003000600A3
:100F3E0006000C000C0018001820382030407FC02E
:100F4E000000000000000000000007E004000400A4
:100F5E000400040004000400040004000400040063
:100F6E000400040004000400040004000400040053
:100F7E00040007E000000000000000000000200058
:100F8E001000100010000800080004000400040007
:100F9E0002000200010001000100008000800040FC
:100FAE00004000400020000000003F000100010052
:100FBE00010001000100010001000100010001001B
:100FCE00010001000100010001000100010001000B
:100FDE0001003F0000000000000007000D801040DF
:100FEE0000000000000000000000000000000000F3
:100FFE0000000000000000000000000000000000E3
:10100E0000000000000000000000000000000000D2
:10101E0000000000000000000000000000000000C2
:10102E0000000000000000000000000000000000B2
:10103E0000000000FFF00000000030003800080043
:10104E00080010006000000000000000000000001A
:10105E000000000000000000000000000000000082
:10106E000000000000000000000000000000000072
:10107E00000000000000000000000F8030C030C0F3
:10108E0007C01CC030C060C060C060C071D03EF0F0
:10109E000000000000000000000000000000100032
:1010AE007000300030003000300033803CC03860BB
:1010BE0030603060306030603060304038C02F803B
:1010CE000000000000000000000000000000000012
:1010DE00000000000000000000000F003180318091
:1010EE0061806000600060006040304030800F0022
:1010FE0000000000000000000000000000000040A2
:10110E0001C000C000C000C000C01EC031C030C051
:10111E0060C060C060C060C060C020C031E01E8092
:10112E0000000000000000000000000000000000B1
:10113E0000000000000000000000078018C01060D2
:10114E0030603FE030003000300018201C40078037
:10115E000000000000000000000000000000000081
:10116E0003C006600C600C000C007FC00C000C006D
:10117E000C000C000C000C000C000C000C003F804E
:10118E000000000000000000000000000000000051
:10119E00000000000000000000000F70199030C029
:1011AE0030C030C019801F0030003E001FC060608C
:1011BE00606070E01F800000000000000000100062
:1011CE0070003000300030003000378038C030C042
:1011DE0030C030C030C030C030C030C030C079E018
:1011EE0000000000000000000000000000000000F1
:1011FE00060006000000000000003E00060006008B
:10120E0006000600060006000600060006003FC0A7
:10121E0000000000000000000000000000000000C0
:10122E00018001800000000000000F80018001801D
:10123E000180018001800180018001800180018098
:10124E00018033003E00000000000000000010008E
:10125E007000300030003000300033C031003300F9
:10126E00320036003E003B0033003180318079E0A1
:10127E00000000000000000000000000000002005E
:10128E003E000600060006000600060006000600E8
:10129E0006000600060006000600060006003FC017
:1012AE000000000000000000000000000000000030
:1012BE0000000000000000000000EEE077606660B5
:1012CE006660666066606660666066606660F7703F
:1012DE000000000000000000000000000000000000
:1012EE000000000000000000000073803CC030C011
:1012FE0030C030C030C030C030C030C030C079E0F7
:10130E0000000000000000000000000000000000CF
:10131E00000000000000000000000F00198030C027
:10132E006060606060606060606030C030C00F0000
:10133E00000000000000000000000000000000009F
:10134E0000000000000000000000778038C0306010
:10135E003060306030603060306030C038C0378010
:10136E00300030007C000000000000000000000093
:10137E00000000000000000000001E4031C030C020
:10138E0060C060C060C060C060C020C031C01EC000
:10139E0000C000C003E000000000000000000000DC
:1013AE0000000000000000000000F9E01A601C00C0
:1013BE001800180018001800180018001800FF0078
:1013CE00000000000000000000000000000000000F
:1013DE00000000000000000000000FE01860302048
:1013EE0030001C000F8001C02060206030C03F80A4
:1013FE0000000000000000000000000000000000DF
:10140E000000040004000C000C007F800C000C0097
:10141E000C000C000C000C000C000C400C40078063
:10142E0000000000000000000000000000000000AE
:10143E000000000000000000104071C030C030C03D
:10144E0030C030C030C030C030C030C039E01E8037
:10145E00000000000000000000000000000000007E
:10146E00000000000000000000007CF03860184012
:10147E0018400C800C800C8007000700070002004B
:10148E00000000000000000000000000000000004E
:10149E0000000000000000000000F7B06320632091
:1014AE006720372035C039C039C039C01080108050
:1014BE00000000000000000000000000000000001E
:1014CE00000000000000000000007DE01880198080
:1014DE000D000E00060007000B00198011C07BE006
:1014EE0000000000000000000000000000000000EE
:1014FE00000000000000000000007DE03880188031
:10150E0018800D000D000D000600060002000400FC
:10151E000400280038000000000000000000000059
:10152E00000000000000000000003FC0218023806A
:10153E000300070006000E000C201C2018603FC0A0
:10154E00000000000000000000000000000000008D
:10155E00000000000000000000000000000000007D
:10156E00000000000000000000000000000000006D
:10157E00000000000000000000000000000000005D
:10158E00000000000000000000000000000000004D
:10159E00000000000000000000000000000000003D
:1015AE00000000000000000000000000000000002D
:1015BE00000000000000000000000000000000001D
:1015CE00000000000000000000000000000000000D
:1015DE0000000000000000000000000000000000FD
:1015EE0000000000000000000000000000000000ED
:1015FE0000000000000000000000000000000000DD
:10160E0000000000000000000000000000000000CC
:10161E0000000000000000000000000000000000BC
:10162E0000000000000000000000000000000000AC
:10163E00000000000000000000000000000000009C
:10164E00000000000000000000000000000000F894
:10165E00000386000703000E01800C01C01C00C0B1
:10166E001800C03800E03800E0380060700070707C
:10167E0000707000707000707000707000707000FC
:10168E00707000707000707000707000707000707C
:10169E003800603800E03800E01800C01C00C00CB4
:1016AE0001800E018006030003860000F800000092
:1016BE00000000000000000000000000000000001C
:1016CE00000000000000000000000000000000000C
:1016DE0000000000000000000000000000000008F4
:1016EE000000180000380007F8000038000038002D
:1016FE0000380000380000380000380000380000C4
:10170E00380000380000380000380000380000387B
:10171E0000003800003800003800003800003800A3
:10172E000038000038000038000038000038000093
:10173E003800003800003800007C0007FFC00000B1
:10174E00000000000000000000000000000000008B
:10175E00000000000000000000000000000000007B
:10176E00000000000000000000000000000000FC6F
:10177E00000307000C03801801C01801C03800E0F8
:10178E003800E03800E03C00E03C00E01C00E000E7
:10179E0001C00001C0000380000380000700000E9E
:1017AE0000001C0000380000700000E00001C000C6
:1017BE000380000300000600200C0020180060309B
:1017CE0000602000C07FFFC07FFFC07FFFC0000011
:1017DE0000000000000000000000000000000000FB
:1017EE0000000000000000000000000000000000EB
:1017FE00000000000000000000000000000000FCDF
:10180E00000307000603800C01C01C01C01C00E091
:10181E001E00E01E00E00E00E00000E00000C00030
:10182E0001C0000180000300000E0000F800000F50
:10183E00000001800000C00000E0000060000070A9
:10184E000000701800703C00703C00703C00603866
:10185E0000E01800C00C018006070001FC0000002B
:10186E00000000000000000000000000000000006A
:10187E00000000000000000000000000000000005A
:10188E000000000000000000000000000000000347
:10189E0000000700000700000F00001F00001700E7
:1018AE0000370000270000670000C7000087000116
:1018BE008700030700020700060700040700080759
:1018CE00001807001007003007006007007FFFF8C0
:1018DE007FFFF80007000007000007000007000068
:1018EE00070000070000070000078000FFF8000057
:1018FE0000000000000000000000000000000000DA
:10190E0000000000000000000000000000000000C9
:10191E0000000000000000000000000000000FFFAB
:10192E00E00FFFE00FFFE0080000080000080000D5
:10193E000800000800001000001000001000001049
:10194E00FE0013FF001703801C01C01C00E01800EE
:10195E00E00000F0000070000070000070000070E9
:10196E001800703C00703C00703C00603800E018BD
:10197E0000E01801C00C018007070001FC00000008
:10198E000000000000000000000000000000000049
:10199E000000000000000000000000000000000039
:1019AE000000000000000000000000000000007EAB
:1019BE00000183800303800603C00C03C01803C01C
:1019CE0018000018000038000030000030000070D1
:1019DE000000707E0071FF807783C07601C07C00AE
:1019EE00E07800E070007070007070007070007031
:1019FE007000703000703800703800701800601C75
:101A0E0000E00C00C006018003830000FC00000013
:101A1E0000000000000000000000000000000000B8
:101A2E0000000000000000000000000000000000A8
:101A3E0000000000000000000000000000001FFF7A
:101A4E00F01FFFF01FFFE01C00601000C030008090
:101A5E0020018020010000030000020000060000AB
:101A6E000400000C000008000018000018000030F0
:101A7E000000300000700000600000600000E00018
:101A8E0000E00000E00000E00001E00001E00001E5
:101A9E00E00001E00001E00001E00000E0000000D5
:101AAE000000000000000000000000000000000028
:101ABE000000000000000000000000000000000018
:101ACE00000000000000000000000000000001FE09
:101ADE00000703800E01C01C00E01800E038007003
:101AEE003800703800703800703C00701E00E01F27
:101AFE0000E00F81C007E38003FE0003FE00063FF7
:101B0E00000C0F801C07C03801E03801E07000F0B7
:101B1E00700070700070700070700070700070381F
:101B2E0000E01800C00C01C007030001FC0000001B
:101B3E000000000000000000000000000000000097
:101B4E000000000000000000000000000000000087
:101B5E00000000000000000000000000000001F87E
:101B6E00000706000C01001C01803800C03800C0C0
:101B7E0030006070006070006070007070007070F7
:101B8E0000707000707000F03800F03801F03C0307
:101B9E00701F0E700FFC7003F0700000600000E00C
:101BAE000000E00000E00000C00001C00C01801E3B
:101BBE0003801E03001E06000E1C0003F000000032
:101BCE000000000000000000000000000000000007
:101BDE0000000000000000000000000000000000F7
:101BEE0000000000000000000000000000000000E7
:101BFE0000000000000000000000000000000000D7
:101C0E00000000000000000000000000007800004E
:101C1E00FC0000FC0000FC0000FC0000780000004E
:101C2E0000000000000000000000000000000000A6
:101C3E00000000000000000000000000007800001E
:101C4E00FC0000FC0000FC0000FC0000780000001E
:101C5E000000000000000000000000000000000076
:061C6E0000000000000070
:0A35C600F582E43583F583E49322D7
:0C30FE008E3E8F3F8A408B418D828C8378
:10310A00E53F24FFFFE53E34FFFEE58224FFFDE5AF
:10311A008334FFFCE53F2402FBE4353EFAE58224D2
:10312A0002F54AE43583F549123264E4F542AF41C7
:0E313A00AE401234FD0542E542C3941040F051
:013148002264
:10272800E4F52CF52DF52EF52FC3EB9FF531E49E3E
:10273800F530C3E5279DF533E5269CF5328E3C8FB1
:102748003D8C3A8D3BD3E5319400E530648094802C
:102758004008753600753701801DE5314530700633
:10276800F536F537801174FFF536F537C3E4953142
:10277800F531E49530F530D3E5339400E5326480E3
:1027880094804008753800753901801DE53345325D
:102798007006F538F539801174FFF538F539C3E45A
:1027A8009533F533E49532F532D3E5319533E53297
:1027B8006480F8E530648098400885303485313588
:1027C8008006853234853335E4F52AF52BE5352442
:1027D80001FFE43534FED3E52B9FE52A9E40030232
:1027E800286EAB29AA28AD3BAC3AAF3DAE3C1230BF
:1027F800FEE531252DF52DE530352CF52CE5332575
:102808002FF52FE532352EF52ED3E52D9535E53408
:102818006480F8E52C6480984018E52D9535F52DF1
:10282800E52C9534F52CE537253DF53DE536353C69
:10283800F53CD3E52F9535E5346480F8E52E6480C2
:10284800984018E52F9535F52FE52E9534F52EE5AA
:1028580039253BF53BE538353AF53A052BE52B703C
:0628680002052A0227D53B
:01286E002247
:0E2DA5008E338F348C358D368B378A388939D2
:102DB300AB37AA38A9391220277003022E4924E021
:102DC300F540E534240FFBE43533FAE5362417F5F3
:102DD3004AE43535F549AD36AC35AF34AE3312324E
:102DE30064E4F53F75F030E54090044412213EE57C
:102DF30082253F1235C6754100F542E4F53EE542B2
:102E030030E706AF3BAE3A8004AF3DAE3C1234FD33
:102E1300E54225E0F542E54133F541053EE53EC394
:102E2300940840DA053FE53FC3943040B774012569
:102E330039F539E43538F53874102534F534E4358B
:062E430033F533022DB34C
:012E49002266
:0E2E4A008E338F348C358D368B378A3889392C
:102E5800AB37AA38A9391220277003022EEE24D0E6
:102E6800F540E5342417FBE43533FAE536242FF52D
:102E78004AE43535F549AD36AC35AF34AE331232A8
:102E880064E4F53F75F090E54090164412213EE564
:102E980082253F1235C6754100F542E4F53EE5420C
:102EA80030E706AF3BAE3A8004AF3DAE3C1234FD8E
:102EB800E54225E0F542E54133F541053EE53EC3EF
:102EC800940840DA053FE53FC3949040B774012564
:102ED80039F539E43538F53874182534F534E435DE
:062EE80033F533022E5801
:012EEE0022C1
:10355800E52B25E0242CF8E6FE08E6FFEA25E02422
:033568002CF8221A
:0B35A600C2A1D2A3D2A2D2A1C2A322D4
:10348E00C2A1E4FEEFC4131313540124FF92A2EF62
:0B349E0025E0FFC2A1D2A10EBE08E98C
:0134A9002200
:1033A700E4FFFEC2A1FDFCEF25E0FFEE33FED2A154
:1033B700C2A1A2A0E43342070DBD00010CED640CCD
:0333C7004C70E463
:0133CA0022E0
:022C2300AB07FD
:102C2500C2A1C2A3E4FAAF0312348E752B06D52BCD
:102C3500FDD2A10000C2A100001233A7123564A67F
:102C45000608A6070ABA0ADED2A3E4FAEA04F52BB7
:102C5500E52BC3940A5038123558E6FC08E6C39FA5
:102C6500EC9E5027123564E6FE08E6FFE48F438E9E
:102C750042F541F540123558A60608A607AF43E5CB
:102C85002B25E0242CF8A64208A607052B80C10AAF
:102C9500EA640970B7E4F543F542F541F5407A0277
:102CA500123564E6FE08E6FFE4FCFDE5432FFFE58B
:102CB500423EFEED3541FDEC35408F438E428D4160
:102CC500F5400ABA08DAAF43AE42AD41AC40E47B09
:0F2CD50006FAF9F81232208F438E428D418C405F
:012CE40022CD
:102B5C001235A67FD0122C238E218F227F90122C1F
:102B6C00238E278F287FD0122C238E238F247F90A7
:102B7C00122C23AD07AC06D3E5229524E521952331
:102B8C00400EE5229524F526E5219523F525800DAB
:102B9C00C3E5249522F526E5239521F525D3E528D3
:102BAC009DE5279C400CE5289DF52AE5279CF529F9
:102BBC00800BC3ED9528F52AEC9527F529D3E5264E
:102BCC009432E5259400500AE52A9432E5299400C4
:102BDC0040037F0022E5222524FFE5213523C31382
:102BEC00F565EF13F566E5282DFFE5273CC313F5D6
:102BFC0067EF13F5685366F05368F0C3E5669464A9
:102C0C00E5659400400BD3E56894A0E567940F400C
:062C1C00037F00227F018E
:012C2200228F
:102F7B00E47F73D3AB18AA17A916A815FEFDFC02A4
:102F8B0021287F5FE4FEFDFCAB1CAA1BA91AA81924
:102F9B00221514740A2514F8A613227F87E4A819A6
:102FAB00FEFDFC022128740A2514F8E6F513227F96
:102FBB003CE4FEFDFCAB18AA17A916A815C3022109
:102FCB00280514E51464012234FFFCE4FAF9F81225
:0F2FDB0020CBE422E47F69FEFDFCA8150221282B
:10335B00E510B40109E4FFFE1232A3E4F510122BC1
:10336B005CEF6401600512286F80F3E4F5097508C2
:06337B0001F511F514221A
:10356B001225C912297DE4F512F5087511017510A4
:02357B0001222B
:10221800E509B4010312335BE512B4010312356B0F
:10222800122B5CEF6401600302251C856618856526
:1022380017F516F515E51824D0FFE51734FEFEE569
:102248001634FFFDE5157BAF122FD37B5E7A0DF9AF
:10225800F81232208F188E178D168C15E485681C9D
:1022680085671BF51AF519251CFFE51B34FFFEE5EC
:102278001A34FFFDE5197BDB122FD37B707A0DF939
:10228800F81232208F1C8E1B8D1A8C19E47FAE1227
:102298002F7E400AE47518AEF517F516F5157FDAA6
:1022A800122F8FD3122128400AE4751CDAF51BF58A
:1022B8001AF519E508B40113122F7B400EE47F18B4
:1022C800122F93122F875003751201E511640160D4
:1022D8000302251CC2A9122F7C401DE47F2D122F5A
:1022E80090D312212840117F55122FA8500A740A42
:1022F8002514F8E4F612251DE47F3CC3122F7F5005
:1023080017122F8D122128400F122FA6500A740A77
:102318002514F8760112251DE47F46122F7E4023EE
:10232800E47F69A815122FAB5019122F8D1221289E
:102338004011122FA6500C740A2514F876020514C1
:10234800122541122F7B4020122F8DD312212840B5
:1023580017122FA65012122FB176030514E514B4E4
:102368000103122F9C122541122FBA5025E47F91A8
:10237800122F90122128401AE47FA5122FA950127B
:10238800122FB176040514E514B40103122F9C1220
:102398002563E47F46122F7E4037122FDF5032E448
:1023A8007F91122F901221284027E47FA5122FA990
:1023B800501F122FB176050514E514B40103122F2E
:1023C8009CE50AB40208E514B40203122F9C1225F6
:1023D80063122F7B403CE47F91122F90D312212867
:1023E8004030E47FA5122FA95028122FB17606128B
:1023F8002FCC600BE51464036005E514B4050312E3
:102408002F9CE50AB40208E514B40203122F9C12AB
:102418002585122FBA5054E47FAF122F901221282D
:1024280040067F01C00780047F00C007E47FCD120B
:102438002F90C312212850047E0180027E00D0E034
:102448005E6028122FB17607122FCC600BE514645A
:10245800036005E514B40503122F9CE50AB40208CD
:10246800E514B40203122F9C122585E47F46122F2F
:102478007E4040122FDF503BE47FAF122F90122195
:10248800284030E47FCD122FA95028122FB17608AA
:10249800122FCC600BE51464036005E514B4050342
:1024A800122F9CE50AB40208E514B40203122F9C0B
:1024B8001225A7122F7B403CE47FAF122F90D31236
:1024C80021284030E47FCD122FA95028122FB17651
:1024D80009122FCC600BE51464036005E514B405FC
:1024E80003122F9CE50AB40208E514B40203122F64
:1024F8009C1225A7E514B40603E4F5147F37122FC0
:10250800BC5011E47F18122F90C312212850057572
:102518000901D2A9220514E50A75F00AA4250BF5CC
:1025280069E50C75F00AA4250DF56AE50E75F00A43
:10253800A4250FF56B12297D22E50A75F00AA4255A
:102548000BF569E50C75F00AA4250DF56AE50E751D
:10255800F00AA4250FF56B12297D22E50A75F00A09
:10256800A4250BF569E50C75F00AA4250DF56AE5B7
:102578000E75F00AA4250FF56B12297D22E50A7560
:10258800F00AA4250BF569E50C75F00AA4250DF5EC
:102598006AE50E75F00AA4250FF56B12297D22E570
:1025A8000A75F00AA4250BF569E50C75F00AA4254F
:1025B8000DF56AE50E75F00AA4250FF56B12297D55
:0125C80022F0
:10314900434C4F434B00310032003300340035000B
:10315900360037003800390030004241434B003A0D
:10316900005345540000000000000000000000006A
:103179000000000000000000000000000000000046
:093189000000000000000000003D
:103059007A3179687BFF753AF8753B00E4F53CF500
:103069003D227D007BFF7E007F030220017B0075EE
:103079003AF8753B00E4F53CF53D22E56975F00A3F
:1030890084E5F0243022E56975F00A84243022753C
:1030990028F8752900227BFF753A00753B1FE4F576
:0630A9003CF53DFDFC2298
:1025C900E4FFFE1232A37BFF7A317949753AFF7530
:1025D9003BE0E4F53CF53D7D18FC7F2FFE122DA56F
:1025E9007526007527321230987D321226D175274B
:1025F9005A1230987D5A1226D17527821230987B4B
:102609009B7D827F141227207526007527AA123018
:10261900987DAA1226E07DD21226E07B417D5A7F61
:10262900411227207526007527D21230987B6E7DBE
:10263900327C007F6E7E001227287A31794F123062
:102649005D7F1F1226F87A31795112305F7D5E1253
:1026590027027A31795312305F7F7F1226F87A3157
:10266900795512305F7D861227167A3179571230E3
:102679005F7D861227027A31795912305F7D861281
:10268900270C7A31795B12305F7DAE1227167A31C9
:10269900795D12305F7DAEFC7F51FE122DA57BFF67
:1026A9007A31795F12305F7DAE12270C7A31796108
:1026B90012305F7D3AFC7F7FFE122DA57A31796356
:1026C90012309FFFFE022DA57B9B7C007F147E00AC
:1026D900122728752600227B9B7C007F147E00121E
:1026E90027287526007527D27528F8752900227DB7
:1026F9005EFCFE122DA57BFF22FC7F51FE122DA54B
:102709007BFF22FC7F7FFE122DA57BFF22FC7F1F12
:0F271900FE122DA57BFF227C007E0012272822B6
:10286F0078217C007A31796E12306B78247C007A73
:10287F0031797112306B78277C007D007BFF7A31C4
:10288F00797412306F782A7C007D007BFF7A317962
:10289F007712306F782D7C007D007BFF7A31797A4B
:1028AF0012306F78307C007D007BFF7A31797D129A
:1028BF00306F12308FF521123084F524E56A123013
:1028CF0091F527E56A123086F52AE56B123091F5FE
:1028DF002DE56B123086F5307A0079211230767F34
:1028EF000A1229757A0079241230767F1E12295226
:1028FF007F3212296B7A0079271230787F4612299E
:10290F00757B007A00792A1230787F5A1229527F0C
:10291F006E12296B7A00792D1230787D64FC7F82DC
:10292F00FE122E4A7B007A0079301230787D64FCDB
:10293F007F96FE122E4A7A31796A12309F7F7FFE80
:03294F00022DA5B1
:102952007D64FCFE122E4A7BFF7A317968753AF863
:10296200753B00E4F53CF53D227D5EFCFE122E4AED
:0B2972007B00227D64FCFE122E4A2236
:10297D0078217C007D007BFF7A31798012306F7871
:10298D00247C007D007BFF7A31798312306F7827AC
:10299D007C007D007BFF7A31798612306F782A7C3E
:1029AD00007D007BFF7A31798912306F782D7C00A4
:1029BD007D007BFF7A31798C12306F78307C007D11
:1029CD00007BFF7A31798F12306F12308FF5211223
:1029DD003084F524E56A123091F527E56A123086C8
:1029ED00F52AE56B123091F52DE56B123086F53039
:1029FD001230597D38FC7F27FE122DA51230597DDE
:102A0D0038FC7F47FE122DA57B007A00792112300C
:102A1D005F7F11122A707A00792412305F7F1D12A8
:102A2D002A707A00792712305F7F31122A7A7A0064
:102A3D00792A12305F7F3D122A7A7A00792D123071
:102A4D005F7D3AFC7F51FE122DA57B007A00793017
:102A5D0012305F7D3AFC7F5DFE122DA57FE87E036F
:032A6D00023432FE
:102A70007D3AFCFE122DA57B00227D3AFCFE122D34
:042A8000A57B002210
:10357D00758901758C4C758AD0D2A9D28CD2AF22A7
:03000B000231DAE5
:1031DA00C0E0C0D0758C4C758AD0E56CC39414409D
:1031EA002E756C00E56B943B5004056B8023756B60
:1031FA0000E56AC3943B5004056A8015756A00E5C8
:10320A0069C394175004056980077569008002052F
:06321A006CD0D0D0E032C0
:06000300FFC2A1023475EA
:05347000123475D2A129
:103475000000000000000000000000000000000047
:093485000000000000000000221C
:0A35D000D2A0123470C2A0023475BC
:0A35DA00C2A0123470D2A0023475B2
:0B33EF001234E21233FAAF051234E290
:1033FA00E4FFD2A112347530A009EFC394FA500346
:08340A000F80F4C2A102347529
:0A35E400D2A0123475D2A102347592
:1034E200E4FEEF25E012000392A01234700EBE0833
:0B34F200F1C2A1123475D2A0023475A3
:10341200E4120003D2A0123475FED2A1123475EF69
:0F34220025E0FFA2A0E4334F1200030EBE08EB1B
:013431002278
:10354300AC071235D07FD01234E21233FAAF041233
:0535530033EF0235DA40
:0234AA00AD076C
:1034AC001235D07FD01233EF1235D07FD11234E2E7
:0934BC001233FA1234121235DA4F
:0134C50022E4
:10351500E56325E02451F8E6FE08E622FED3EF94A4
:0735250064EE648094802233
:103381001235E4E4FD7F6B1235437D077F19123559
:10339100437D067F1A1235437D187F1B1235437D0D
:0633A100017F1C02354310
:023306008F1D19
:103308001234AA8F1EE51D04FF1234AAAD07AF1EA2
:10331800EF3395E0EFFEED3395E0FCE42DFFEE3C56
:08332800FE7C007D401220959F
:01333000227A
:102A84007F3D123306EF4E70277F3F123306EF4E21
:102A9400601E7F43123306EF4E60157F45123306E6
:102AA400EF4E600C7F47123306EF4E600312338102
:102AB400122B24F564854B51854C52854D53854E1C
:102AC40054854F5585505685575D85585E85595FA9
:102AD400855A60855B61855C62122B24F56312352F
:102AE40015FFE56325E0244BF8E6FC08E6FDC39FEB
:102AF400FFEC9E1235215014123515C39DFFEE9C38
:102B040012352150070563E563B403D20564E56417
:0F2B1400C3940340A0E563B403037F00227F0155
:102B2300227F3B1233068E4B8F4C7F3D1233068E32
:102B33004D8F4E7F3F1233068E4F8F507F4312339C
:102B4300068E578F587F451233068E598F5A7F470B
:092B53001233068E5B8F5CE42254
:1032DA00758920758B6C758D6CD2ABD28EE4F570C6
:1032EA00756D0AAE6EAF6FFC7D64122040ED4C70B6
:0C32FA000A056DE56DB46403E4F56D2277
:03001B00022FEAC7
:102FEA00C0E0C0F0C083C082C0D075D000C000C0AD
:102FFA0001C002C003C004C005C006C007057005B1
:10300A006FE56F7002056EAE6EFFE4FCFD7B607AC1
:10301A00EAF9F8C31221285006756E00756F00E5AB
:10302A0070B46403757000E570C3956D5004D2A343
:10303A008002C2A3D007D006D005D004D003D002A4
:0F304A00D001D000D0D0D082D083D0F0D0E032EF
:0D000E001234517F017E0012352C7FCC2270
:10352C00D3EF9400EE9400400DE4FD0DBD6EFCEF66
:06353C001F70ED1E80EA85
:013542002266
:10345100C2B77F677E00EF1F70011EEF4E70F7D27B
:0E346100B77E007F04EF1F70011EEF4E70F764
:01346F00223A
:1033CB00C2B70FBF0000D2B70FBF00000FBF000086
:1033DB00A2B792007E007F08EF1F70011EEF4E70A8
:0333EB00F7A20046
:0133EE0022BC
:1034C600E4FDFC1233CBE433FFC43333335480FEC4
:0B34D600EDC3134EFD0CBC08EAAF056F
:0134E10022C8
:10319200E4FEEF139201EFC313FF30011BC2B70B22
:1031A200BB00000BBB0000D2B77A007B08EB1B70A0
:1031B200011AEB4A70F7801BC2B77A007B08EB1B3F
:1031C20070011AEB4A70F7D2B70BBB00010A0BBBB6
:0731D20000010A0EBE08BB5C
:0131D90022D3
:1030AF0012000E1231927FBE1231921234C6AB074C
:1030BF001234C6EFFEEBFFFDAC06E4121E77E4FB05
:1030CF00FA7980783D121D6C8F748E738D728C71AE
:1030DF00E4FFFE7D207C41AB74AA73A972A8711224
:0E30EF001D6CE4FBFAF9783F121C7B121EB038
:0130FD0022B0
:0B35B10012000E1231927F4402319292
:101C7400021F1CE86480F8E933E83360110460F063
:101C8400ED33EC337009E8FCE9FDEAFEEBFF2204D6
:101C940060DED3EB9FEA9EE99DE8C2E78CF0C2F7D1
:101CA40095F0400CE8CCF8E9CDF9EACEFAEBCFFB9D
:101CB400121EE785D0F05804700320D5B3E80470F1
:101CC400075002B2D5021F2692D5EC0460F7E4CC8B
:101CD400C0E0C398F8603B94186008400DD0E0FB66
:101CE400021EFEE4FBFAC9FC8028E830E406E4C9DD
:101CF400FBE4CAFCE830E305E4C9CACBFCE85407BA
:101D04006010F8C3E913F9EA13FAEB13FBEC13FCC4
:101D1400D8F130F52FC3E49CFCEF9BFFEE9AFEED67
:101D240099FDD0E0FBEF4E4D4C701222DB03021FF5
:101D340023EC2CFCEF33FFEE33FEED33FDED30E707
:101D4400EB021EFEEF2BFFEE3AFEED39FDD0E0FB79
:101D540050130BBB0003021F26ED13FDEE13FEEF21
:081D640013FFEC13FC021EFE4C
:101D6C00EC4D6011E8497017ED33EC3304600DE471
:101D7C00FCFFFEFD22E933E8330470F8021F1C124D
:101D8C001EE758046009E4CC24815006285009024F
:101D9C001F26284003021F23C0E0EB4A7044B98081
:101DAC0006D0E0FB021F12EF4E701CBD8008EBFF4B
:101DBC00EAFEE9FD80EBE98DF0A4FEE5F0021E558C
:101DCC00E9CDF9EAFEEBFFEF89F0A4FCE5F0CE8952
:101DDC00F0A42EFFE435F0CD89F0A42DFEE435F00F
:101DEC008067EF4E7005BD80D780C3EF8BF0A4AC3D
:101DFC00F0EE8BF0A42CFCE435F0F8EF8AF0A42C78
:101E0C00E5F038FCE433CB8DF0A42CFCE5F03BF88A
:101E1C00EE8AF0A42CFCE5F038F8E433CF89F0A47A
:101E2C002CFCE5F038CF3400CE89F0A42FFFE5F080
:101E3C003EFEE433C98DF0A42EFEE5F039CD8AF0D8
:101E4C00A42FFFE5F03EFEE43DFD33D0E0FB500750
:101E5C000BBB000F021F26EC2CFCEF33FFEE33FE06
:061E6C00ED33FD021EFE35
:101E720075F020800E75F010800575F0087D007EEB
:101E8200007F003392D530D50312211AEC33401073
:101E9200EF33FFEE33FEED33FDEC33FCD5F0ED22F4
:0E1EA200E5F0247EA2D513CC92E7CDCEFF2230
:101EB000EDD2E7CD33EC3392D524814006E4FFFE2A
:101EC000FDFC22FCE4CFCECDCC24E0501174FF8089
:101ED000EDC3CC13CCCD13CDCE13CECF13CF047026
:071EE000F030D5DE02211AEB
:101EE700E9D2E7C933E833F892D5EDD2E7CD33EC41
:071EF70033FC5002B2D522BA
:101EFE00EC30E7100FBF000C0EBE00080DBD000445
:101F0E000BEB6014A2D5EB13FCED92E7FD2274FFF0
:101F1E00FCFDFEFF22E480F8A2D574FF13FC7D8049
:031F2E00E480EF5D
:03000000022EEFDE
:0C2EEF00787FE4F6D8FD758174022F3660
:101F3100E709F608DFFA8046E709F208DFFA803E92
:101F410088828C83E709F0A3DFFA8032E309F6087F
:101F5100DFFA8078E309F208DFFA807088828C83E7
:101F6100E309F0A3DFFA806489828A83E0A3F6089B
:101F7100DFFA805889828A83E0A3F208DFFA804C75
:101F810080D280FA80C680D4806980F2803380104C
:101F910080A680EA809A80A880DA80E280CA8033B5
:101FA10089828A83ECFAE493A3C8C582C8CCC5832D
:101FB100CCF0A3C8C582C8CCC583CCDFE9DEE780FD
:101FC1000D89828A83E493A3F608DFF9ECFAA9F07C
:101FD100EDFB2289828A83ECFAE0A3C8C582C8CCD2
:101FE100C583CCF0A3C8C582C8CCC583CCDFEADEEB
:101FF100E880DB89828A83E493A3F208DFF980CC4D
:1020010088F0EF60010E4E60C388F0ED2402B40445
:102011000050B9F582EB2402B4040050AF232345EC
:062021008223901F817371
:10202700BB010689828A83E0225002E722BBFE02B7
:09203700E32289828A83E49322EA
:10204000BC000BBE0029EF8DF084FFADF022E4CC84
:10205000F875F008EF2FFFEE33FEEC33FCEE9DEC4D
:10206000984005FCEE9DFE0FD5F0E9E4CEFD22ED93
:10207000F8F5F0EE8420D21CFEADF075F008EF2FDD
:10208000FFED33FD4007985006D5F0F222C398FDCE
:052090000FD5F0EA226B
:10209500C2D5EC30E709B2D5E4C39DFDE49CFCEE66
:1020A50030E715B2D5E4C39FFFE49EFE122040C37E
:1020B500E49DFDE49CFC800312204030D507C3E479
:0620C5009FFFE49EFE22D5
:1020CB00E88FF0A4CC8BF0A42CFCE98EF0A42CFCB4
:1020DB008AF0EDA42CFCEA8EF0A4CDA8F08BF0A432
:1020EB002DCC3825F0FDE98FF0A42CCD35F0FCEB91
:1020FB008EF0A4FEA9F0EB8FF0A4CFC5F02ECD3956
:0F210B00FEE43CFCEAA42DCE35F0FDE43CFC22C2
:10322000C2D5E830E70FB2D5E4C39BFBE49AFAE4D9
:1032300099F9E498F8EC30E717B2D512325612211A
:1032400086E4C39BFBE49AFAE499F9E498F88003D6
:1032500012218630D50DE4C39FFFE49EFEE49DFD60
:04326000E49CFC22CC
:0E211A00C3E49FFFE49EFEE49DFDE49CFC22D6
:10212800EB9FF5F0EA9E42F0E99D42F0EC6480C82E
:0621380064809845F022CE
:0C213E00A42582F582E5F03583F58322AC
:102EFB0002359BE493A3F8E493A34003F68001F21D
:102F0B0008DFF48029E493A3F85407240CC8C333D7
:102F1B00C4540F4420C8834004F456800146F6DFA6
:102F2B00E4800B0102040810204080903331E47ED2
:102F3B00019360BCA3FF543F30E509541FFEE4939B
:102F4B00A360010ECF54C025E060A840B8E493A362
:102F5B00FAE493A3F8E493A3C8C582C8CAC583CA8D
:102F6B00F0A3C8C582C8CAC583CADFE9DEE780BE45
:01335A000072
:10214A0075F008758200EF2FFFEE33FECD33CDCC4C
:10215A0033CCC58233C5829BED9AEC99E5829840CF
:10216A000CF582EE9BFEED9AFDEC99FC0FD5F0D6AC
:10217A00E4CEFBE4CDFAE4CCF9A88222B800C1B9D6
:10218A000059BA002DEC8BF084CFCECDFCE5F0CB14
:10219A00F97818EF2FFFEE33FEED33FDEC33FCEB4D
:1021AA0033FB10D703994004EB99FB0FD8E5E4F908
:1021BA00FA227818EF2FFFEE33FEED33FDEC33FCF5
:1021CA00C933C910D7059BE99A4007EC9BFCE99AE9
:1021DA00F90FD8E0E4C9FAE4CCFB2275F010EF2F2E
:1021EA00FFEE33FEED33FDCC33CCC833C810D7072E
:1021FA009BEC9AE899400AED9BFDEC9AFCE899F869
:0E220A000FD5F0DAE4CDFBE4CCFAE4C8F922FB
:00000001FF
