:10388F00060A0000000000000114000110010415D9
:10389F0000000000041900000000011200010901DE
:0938AF00011100010800011300E1
:10383500E4AB18AA17A916A815FEFDFCD30220D3E0
:1038450078217C007D007B007A00796E7E007F0305
:0F38550002200134FFFCE4FAF9F8122076E42295
:102DCF00E4F5A01231E2E4FFFE1237FE123AE912E7
:102DDF003B12123845123845122ABD123B121236D9
:102DEF000A122F8A123059BF01EBE48576188575C8
:102DFF0017F516F515E51824D0FFE51734FEFEE597
:102E0F001634FFFDE5157BAF1238587B5E7A0DF94E
:102E1F00F81237388F188E178D168C15E485781C9D
:102E2F0085771BF51AF519251CFFE51B34FFFEE509
:102E3F001A34FFFDE5197BDB1238587B707A0DF9D8
:102E4F00F81237388F1C8E1B8D1A8C197FAE1238E3
:102E5F0035400AE47518AEF517F516F515E47FDA67
:102E6F00AB1CAA1BA91AA81912383E400AE4751CFC
:102E7F00DAF51BF51AF5197F731238355003022D49
:102E8F00E4E47F18FEFDFCAB1CAA1BA91AA81912BB
:102E9F0020D34003022DE412269CE4FFFE1237FEDE
:032EAF00022DE40D
:093B4F008F80C2A5D2A5D2A722E5
:10396A00E4FDFCC3ED9FEC9E5014E4FBFA0BBB0094
:0E397A00010AEBF44A70F60DBD00010C80E569
:01398800221C
:0A3B1D00C2A7D2B2C2A6123B4F228B
:043AF900123B1DFF60
:0A3AFD00C2A7D2B2D2A6123B4F229C
:1031E200D2B37FC87E0012396AC2B37F207E031237
:1031F200396AD2B312396AC2A77F367E00123B1DEA
:103202007FC8123AFD7F3A123B1D7F05123AFD7FBD
:10321200FE123B1D7FEF123B1D7FE2123B1D7F80A2
:10322200123AFD7FA3123B1D7F07123AFD7FA412C3
:103232003B1D7F09123AFD7FFF123B1D7F12123A9E
:10324200FD7FFD123B1D7F04123AFD7FF5123B1DEF
:10325200E4FF123AFD7FFB123AF97FF1123B1D7F28
:1032620055123AFD7FF8123B1D7F22123AFD7FF381
:10327200123B1D7F52123AFD7FFA123B1D7F25122F
:103282003AFD7FF4123AF97FFC123AF97F11123BB0
:103292001D7F7812396A7F29123B1D7F3202396AFB
:1037BF008F828E837F2A7E00123B1DE583FF123A94
:1037CF00FDAF82123AFDEAFF123AFDAF03123AFD46
:1037DF007F2B123B1DECFF123AFDAF05123AFDE5B0
:0F37EF0051FF123AFDAF52123AFD7F2C023B1DE3
:103A6700AD07AC06C2A7D2B2D2A6ECFF8F80C2A523
:083A7700D2A58D80123B512203
:0437FE008E278F285B
:103802007551007552DB7BAF7A00E4FDFCFFFE12BE
:1038120037BFE4FB900000AF28AE27123A67A3E55A
:103822008264B0458370F00BBB00010AEB64DC4A92
:0238320070E242
:013834002271
:10001E00C6D50000000000E0380000783C00003C2F
:10002E007800003C70C0001CE1E01FFFFFF0001CD8
:10003E00E3000E1CE7C0079CE78003DCEF0003DC47
:10004E00EE0001DCFC60009CF9F07FFFFFF8000081
:10005E00000001C00E0001FFFF0001C00E0001C034
:10006E000E0001C00E0001FFFE0001C00E0001C017
:10007E000E0001C00E0001FFFE0001C00E0001C007
:10008E000E0000000000D6D00000000000070000A7
:10009E0000078000000700000007000000070000B6
:1000AE00000701801FFFFFE01FFFFFE01E0701C0DA
:1000BE001E0701C01E0701C01E0701C01E0701C09A
:1000CE001E0701C01FFFFFC01FFFFFC01E0701C09C
:1000DE001C07018000070000000700000007000059
:1000EE0000070000000700000007000000070000E6
:1000FE00000700000007000000000000BFC600005F
:10010E00000000000780003C07C001FC07803FE0B4
:10011E00078039C1C78001C0E78001C0F78001C0E8
:10012E00778001DE77807FFE078001C0078003C3E2
:10013E00C78003E1E78003F8F78007FCE7F00FDEE6
:10014E0067F80FDC07F81FC0FF801DDFE78039CC92
:10015E00078071C0078061C0078001C0078001C0A1
:10016E00078001E0078001E0078001C00700000062
:10017E000000BCBC000000000380300003C03C0047
:10018E0003C03C0003C0380003C0380003C0386011
:10019E0003F838F07FFFFFF003C0380003C03800CB
:1001AE0003C0380003DC39C003FFFFE007E383C060
:1001BE003FC183C07FC1C3803BC1C78003C0EF0076
:1001CE0003C0EF0003C07E0003C07C0003C07C00B0
:1001DE0003C0FE003BC3EF803F8787F80FBF03F8D5
:1001EE00077800E000000000C4EA0000000000C034
:1001FE00000001F0000001E0000003C000C003C0D9
:10020E0001E007FFFFF00703C0000E03C0001E034E
:10021E00C0003C03C3007303C78063FFFFC00383AA
:10022E00C0000383C0000383C0000383C0000383A8
:10023E00C0600383C0F07FFFFFF80003C00000031F
:10024E00C0000003C0000003C0000003C000000394
:10025E00C0000003C0000003C00000000000D4C2B4
:10026E00000000000000000000E0070000FFFF801B
:10027E0000F0078000F0070000F0070000F0070014
:10028E0000F0070000FFFF0000FFFF0000F0070076
:10029E0000F0070000F0070000F0070000E0070084
:1002AE0000FFFF0000E0070000E0070000E007008D
:1002BE0001E0070001C0070001C00700038007002E
:1002CE000780F7000F007F001E001F0038001C0083
:1002DE0000000000C8D50000000000000000030070
:1002EE00030003FFFF8003FFFF80038007000380EE
:1002FE0007000380070003800700038007000380C8
:10030E000700038007000380070003FFFF00038040
:10031E0007000380070003800700038007000380A7
:10032E000700038007000380070003800700038097
:10033E00070003FFFF000380070003800700038010
:10034E0007000300000000000000D0C700000000FE
:10035E00000000000380070003FFFF8003800700FA
:10036E00038007000380070003FFFF0003800700E0
:10037E000380070003FFFF0003FFFF000387070052
:10038E000387C00003C7810003C7838007FFFFC038
:10039E00070780000F0780001E0786001C078F00CE
:1003AE003BFFFF807007800000078000000780E0A1
:1003BE00000781F07FFFFFF8000000000000000042
:1003CE00C6DA0000000006000000079E0000079E2F
:1003DE007FF0079E7FF0079FF8F03FFFF8F01F9E1B
:1003EE0078F0079E78F0079E78F007FE7FF0079E64
:1003FE0078F0079E78F0079E70F007FE70F0079E6B
:10040E0070F0079E7FF0079FFFF03FFFF0F0119016
:10041E0070F003DCF0F003DEE0F0078FE0F00F0F7A
:10042E00E0F00E07C0F01C038FF0380F03E0201C25
:10043E0001C00000000000000000000000000000ED
:10044E00000000000000000000000000000000009E
:10045E00000000000000000000000000000000008E
:10046E000000000000000000000000000000070077
:10047E00070007000700070002000200020002004A
:10048E000200020000000000000007000700070045
:10049E0000000000000000000000066006600CC0B6
:1004AE001980110022000000000000000000000072
:1004BE00000000000000000000000000000000002E
:1004CE00000000000000000000000000000000001E
:1004DE0010401040104010407FE07FE01040104070
:1004EE00208020807FE07FE0208020802080208080
:1004FE0000000000000000000000000002000200EA
:10050E000F801AC032C032C032001A000E0007002F
:10051E000380038002C032C032C032C012800F008E
:10052E0002000200000000000000000000000000B9
:10053E0070C050808880890089008B008A005FC05F
:10054E00754006200A200A201A201220114021C0D0
:10055E00000000000000000000000000000000008D
:10056E001C00260026002600260025C0388030807C
:10057E0058804900CD00C700C600C300652038C0B2
:10058E0000000000000000000000300038000800ED
:10059E0008001000600000000000000000000000D5
:1005AE00000000000000000000000000000000003D
:1005BE00000000000000000000000020004000804D
:1005CE00018001000300030006000600060006007D
:1005DE0006000600060003000300010001800080F3
:1005EE00004000200000000000004000200010002D
:1005FE00180008000C000C0006000600060006009D
:10060E000600060006000C000C0008001800100082
:10061E00200040000000000000000000000000006C
:10062E00000002000200020072703AE00F800F809C
:10063E003AE07270020002000200000000000000AA
:10064E00000000000000000000000000000000009C
:10065E0000000000020002000200020002007FF013
:10066E000200020002000200020000000000000072
:10067E00000000000000000000000000000000006C
:10068E00000000000000000000000000000000005C
:10069E0000000000000000000000300038000800DC
:1006AE0008001000600000000000000000000000C4
:1006BE0000000000000000000000000000007FE0CD
:1006CE00000000000000000000000000000000001C
:1006DE00000000000000000000000000000000000C
:1006EE0000000000000000000000000000000000FC
:1006FE000000000000000000000038003800380044
:10070E00000000000000000000000020006000401B
:10071E0000C00080008001000100020002000600FF
:10072E000400040008000800100010003000200033
:10073E00600040000000000000000000000000000B
:10074E000F00198030C030C0606060606060606013
:10075E00606060606060606030C030C019800F0003
:10076E00000000000000000000000000000000007B
:10077E00020006003E000600060006000600060007
:10078E0006000600060006000600060006003FC032
:10079E00000000000000000000000000000000004B
:1007AE001F00218040C060C060C000C00180018079
:1007BE000300040008001040204040407FC07FC06E
:1007CE00000000000000000000000000000000001B
:1007DE001E002300618061806180018003000E0095
:1007EE000180008000C060C060C060C021801F001A
:1007FE00000000000000000000000000000000806B
:10080E00018003800380058009800980118021808A
:10081E00218041807FE0018001800180018007E01E
:10082E0000000000000000000000000000000000BA
:10083E003FC03FC020002000200020002F0031804C
:10084E0020C000C000C060C060C0418021801F0079
:10085E00000000000000000000000000000000008A
:10086E00078018C030C0300020006000678068C06C
:10087E0070606060606060602060304018C00F0083
:10088E00000000000000000000000000000000005A
:10089E001FE03FE0304020802080008001000100FA
:1008AE000200020002000600060006000600060016
:1008BE00000000000000000000000000000000002A
:1008CE001F8030C060606060606070403CC00F0090
:1008DE00338020C0606060606060606030C00F80F8
:1008EE0000000000000000000000000000000000FA
:1008FE000F00308030C0604060606060606060E01B
:10090E0031601E60006000C000C0308031801E006B
:10091E0000000000000000000000000000000000C9
:10092E0000000000000000000700070007000000A4
:10093E000000000000000000000007000700070094
:10094E000000000000000000000000000000000099
:10095E00000000000000000000000600060000007D
:10096E00000000000000000000000000060006006D
:10097E000200040000000000000000000000002043
:10098E00004000800100020004000800100020005A
:10099E00100008000400020001000080004000204A
:1009AE000000000000000000000000000000000039
:1009BE00000000000000000000007FE000000000CA
:1009CE00000000007FE000000000000000000000BA
:1009DE0000000000000000000000000000002000E9
:1009EE0010000800040002000100008000400020FA
:1009FE0000400080010002000400080010002000EA
:100A0E0000000000000000000000000000000F8049
:100A1E0030C0406040606060606000C001800600D1
:100A2E00040004000400000000000E000E000E0082
:100A3E0000000000000000000000000000000000A8
:100A4E0007801C601020335026D06490649068900C
:100A5E006890699069A066C03010302018400780F9
:100A6E000000000000000000000000000000000078
:100A7E00060006000E000B000B0013001180118003
:100A8E0011801F8020C020C020C020606060F0F068
:100A9E000000000000000000000000000000000048
:100AAE00FF00618060C060C060C060C061807F0078
:100ABE0060C06040606060606060606060C0FF80C9
:100ACE000000000000000000000000000000000018
:100ADE0007E01860302030202000600060006000C9
:100AEE0060006000600060203020304018800F00F1
:100AFE0000000000000000000000000000000000E8
:100B0E00FE00618060C060C06060606060606060B8
:100B1E00606060606060606060C060C06380FE00A6
:100B2E0000000000000000000000000000000000B7
:100B3E00FFC06040602060006000610061007F00C7
:100B4E006100610060006000602060206040FFC0B6
:100B5E000000000000000000000000000000000087
:100B6E00FFC060C0602060206000610061007F00F7
:100B7E006100610060006000600060006000F000D5
:100B8E000000000000000000000000000000000057
:100B9E000F4018C030403040200060006000600000
:100BAE00600063F060C060C030C030C018C00F007D
:100BBE000000000000000000000000000000000027
:100BCE00F0F06060606060606060606060607FE058
:100BDE006060606060606060606060606060F0F0E7
:100BEE0000000000000000000000000000000000F7
:100BFE003FC00600060006000600060006000600BE
:100C0E0006000600060006000600060006003FC0AD
:100C1E0000000000000000000000000000000000C6
:100C2E000FF0018001800180018001800180018030
:100C3E00018001800180018001800180018001809E
:100C4E00618063003E000000000000000000000014
:100C5E00F3E0608061006200620064006C007C0062
:100C6E007600670063006380618060C060E0F1F031
:100C7E000000000000000000000000000000000066
:100C8E00F0006000600060006000600060006000C6
:100C9E006000600060006000602060206040FFC067
:100CAE000000000000000000000000000000000036
:100CBE00F0F070E070E070E0596059605960596072
:100CCE005A604E604E604E604E6044604460E4F088
:100CDE000000000000000000000000000000000006
:100CEE00E07070207020582058204C20462046205E
:100CFE004320432041A040E040E040604060E020BF
:100D0E0000000000000000000000000000000000D5
:100D1E000F00198030C030406060606060606060BD
:100D2E006060606060606060304030C019800F00AD
:100D3E0000000000000000000000000000000000A5
:100D4E00FF8060C06060606060606060606060C016
:100D5E007F80600060006000600060006000F00056
:100D6E000000000000000000000000000000000075
:100D7E000F00198030C0304060606060606060605D
:100D8E006060606060606E60324031C011800F80C4
:100D9E0001E000C0000000000000000000000000A4
:100DAE00FF8060C0606060606060606060C07F00F7
:100DBE006600630063006180618060C060C0F07097
:100DCE000000000000000000000000000000000015
:100DDE001F2030E060206020600070003C000F009B
:100DEE0003C000C0006040604060606070C04F8013
:100DFE0000000000000000000000000000000000E5
:100E0E007FE04620861086100600060006000600CB
:100E1E0006000600060006000600060006000F008B
:100E2E0000000000000000000000000000000000B4
:100E3E00F0706020602060206020602060206020C4
:100E4E0060206020602060206020602030401F8085
:100E5E000000000000000000000000000000000084
:100E6E00F8F070603040304030403080188018808C
:100E7E00188018800D000D000D000F0006000600F2
:100E8E000000000000000000000000000000000054
:100E9E00F7706620662066406640674037403740F0
:100EAE003B803B803B803B8039801100110011005C
:100EBE000000000000000000000000000000000024
:100ECE0079E030C01880188019000D000E00060061
:100EDE00060007000B000B801980118030C079E0EE
:100EEE0000000000000000000000000000000000F4
:100EFE00F8F0706030403080188018800D000D00C2
:100F0E000E000600060006000600060006001F8002
:100F1E0000000000000000000000000000000000C3
:100F2E003FE020C041C001800380030003000600A3
:100F3E0006000C000C0018001820382030407FC02E
:100F4E000000000000000000000007E004000400A4
:100F5E000400040004000400040004000400040063
:100F6E000400040004000400040004000400040053
:100F7E00040007E000000000000000000000200058
:100F8E001000100010000800080004000400040007
:100F9E0002000200010001000100008000800040FC
:100FAE00004000400020000000003F000100010052
:100FBE00010001000100010001000100010001001B
:100FCE00010001000100010001000100010001000B
:100FDE0001003F0000000000000007000D801040DF
:100FEE0000000000000000000000000000000000F3
:100FFE0000000000000000000000000000000000E3
:10100E0000000000000000000000000000000000D2
:10101E0000000000000000000000000000000000C2
:10102E0000000000000000000000000000000000B2
:10103E0000000000FFF00000000030003800080043
:10104E00080010006000000000000000000000001A
:10105E000000000000000000000000000000000082
:10106E000000000000000000000000000000000072
:10107E00000000000000000000000F8030C030C0F3
:10108E0007C01CC030C060C060C060C071D03EF0F0
:10109E000000000000000000000000000000100032
:1010AE007000300030003000300033803CC03860BB
:1010BE0030603060306030603060304038C02F803B
:1010CE000000000000000000000000000000000012
:1010DE00000000000000000000000F003180318091
:1010EE0061806000600060006040304030800F0022
:1010FE0000000000000000000000000000000040A2
:10110E0001C000C000C000C000C01EC031C030C051
:10111E0060C060C060C060C060C020C031E01E8092
:10112E0000000000000000000000000000000000B1
:10113E0000000000000000000000078018C01060D2
:10114E0030603FE030003000300018201C40078037
:10115E000000000000000000000000000000000081
:10116E0003C006600C600C000C007FC00C000C006D
:10117E000C000C000C000C000C000C000C003F804E
:10118E000000000000000000000000000000000051
:10119E00000000000000000000000F70199030C029
:1011AE0030C030C019801F0030003E001FC060608C
:1011BE00606070E01F800000000000000000100062
:1011CE0070003000300030003000378038C030C042
:1011DE0030C030C030C030C030C030C030C079E018
:1011EE0000000000000000000000000000000000F1
:1011FE00060006000000000000003E00060006008B
:10120E0006000600060006000600060006003FC0A7
:10121E0000000000000000000000000000000000C0
:10122E00018001800000000000000F80018001801D
:10123E000180018001800180018001800180018098
:10124E00018033003E00000000000000000010008E
:10125E007000300030003000300033C031003300F9
:10126E00320036003E003B0033003180318079E0A1
:10127E00000000000000000000000000000002005E
:10128E003E000600060006000600060006000600E8
:10129E0006000600060006000600060006003FC017
:1012AE000000000000000000000000000000000030
:1012BE0000000000000000000000EEE077606660B5
:1012CE006660666066606660666066606660F7703F
:1012DE000000000000000000000000000000000000
:1012EE000000000000000000000073803CC030C011
:1012FE0030C030C030C030C030C030C030C079E0F7
:10130E0000000000000000000000000000000000CF
:10131E00000000000000000000000F00198030C027
:10132E006060606060606060606030C030C00F0000
:10133E00000000000000000000000000000000009F
:10134E0000000000000000000000778038C0306010
:10135E003060306030603060306030C038C0378010
:10136E00300030007C000000000000000000000093
:10137E00000000000000000000001E4031C030C020
:10138E0060C060C060C060C060C020C031C01EC000
:10139E0000C000C003E000000000000000000000DC
:1013AE0000000000000000000000F9E01A601C00C0
:1013BE001800180018001800180018001800FF0078
:1013CE00000000000000000000000000000000000F
:1013DE00000000000000000000000FE01860302048
:1013EE0030001C000F8001C02060206030C03F80A4
:1013FE0000000000000000000000000000000000DF
:10140E000000040004000C000C007F800C000C0097
:10141E000C000C000C000C000C000C400C40078063
:10142E0000000000000000000000000000000000AE
:10143E000000000000000000104071C030C030C03D
:10144E0030C030C030C030C030C030C039E01E8037
:10145E00000000000000000000000000000000007E
:10146E00000000000000000000007CF03860184012
:10147E0018400C800C800C8007000700070002004B
:10148E00000000000000000000000000000000004E
:10149E0000000000000000000000F7B06320632091
:1014AE006720372035C039C039C039C01080108050
:1014BE00000000000000000000000000000000001E
:1014CE00000000000000000000007DE01880198080
:1014DE000D000E00060007000B00198011C07BE006
:1014EE0000000000000000000000000000000000EE
:1014FE00000000000000000000007DE03880188031
:10150E0018800D000D000D000600060002000400FC
:10151E000400280038000000000000000000000059
:10152E00000000000000000000003FC0218023806A
:10153E000300070006000E000C201C2018603FC0A0
:10154E00000000000000000000000000000000008D
:10155E00000000000000000000000000000000007D
:10156E00000000000000000000000000000000006D
:10157E00000000000000000000000000000000005D
:10158E00000000000000000000000000000000004D
:10159E00000000000000000000000000000000003D
:1015AE00000000000000000000000000000000002D
:1015BE00000000000000000000000000000000001D
:1015CE00000000000000000000000000000000000D
:1015DE0000000000000000000000000000000000FD
:1015EE0000000000000000000000000000000000ED
:1015FE0000000000000000000000000000000000DD
:10160E0000000000000000000000000000000000CC
:10161E0000000000000000000000000000000000BC
:10162E0000000000000000000000000000000000AC
:10163E00000000000000000000000000000000009C
:10164E00000000000000000000000000000000F894
:10165E00000386000703000E01800C01C01C00C0B1
:10166E001800C03800E03800E0380060700070707C
:10167E0000707000707000707000707000707000FC
:10168E00707000707000707000707000707000707C
:10169E003800603800E03800E01800C01C00C00CB4
:1016AE0001800E018006030003860000F800000092
:1016BE00000000000000000000000000000000001C
:1016CE00000000000000000000000000000000000C
:1016DE0000000000000000000000000000000008F4
:1016EE000000180000380007F8000038000038002D
:1016FE0000380000380000380000380000380000C4
:10170E00380000380000380000380000380000387B
:10171E0000003800003800003800003800003800A3
:10172E000038000038000038000038000038000093
:10173E003800003800003800007C0007FFC00000B1
:10174E00000000000000000000000000000000008B
:10175E00000000000000000000000000000000007B
:10176E00000000000000000000000000000000FC6F
:10177E00000307000C03801801C01801C03800E0F8
:10178E003800E03800E03C00E03C00E01C00E000E7
:10179E0001C00001C0000380000380000700000E9E
:1017AE0000001C0000380000700000E00001C000C6
:1017BE000380000300000600200C0020180060309B
:1017CE0000602000C07FFFC07FFFC07FFFC0000011
:1017DE0000000000000000000000000000000000FB
:1017EE0000000000000000000000000000000000EB
:1017FE00000000000000000000000000000000FCDF
:10180E00000307000603800C01C01C01C01C00E091
:10181E001E00E01E00E00E00E00000E00000C00030
:10182E0001C0000180000300000E0000F800000F50
:10183E00000001800000C00000E0000060000070A9
:10184E000000701800703C00703C00703C00603866
:10185E0000E01800C00C018006070001FC0000002B
:10186E00000000000000000000000000000000006A
:10187E00000000000000000000000000000000005A
:10188E000000000000000000000000000000000347
:10189E0000000700000700000F00001F00001700E7
:1018AE0000370000270000670000C7000087000116
:1018BE008700030700020700060700040700080759
:1018CE00001807001007003007006007007FFFF8C0
:1018DE007FFFF80007000007000007000007000068
:1018EE00070000070000070000078000FFF8000057
:1018FE0000000000000000000000000000000000DA
:10190E0000000000000000000000000000000000C9
:10191E0000000000000000000000000000000FFFAB
:10192E00E00FFFE00FFFE0080000080000080000D5
:10193E000800000800001000001000001000001049
:10194E00FE0013FF001703801C01C01C00E01800EE
:10195E00E00000F0000070000070000070000070E9
:10196E001800703C00703C00703C00603800E018BD
:10197E0000E01801C00C018007070001FC00000008
:10198E000000000000000000000000000000000049
:10199E000000000000000000000000000000000039
:1019AE000000000000000000000000000000007EAB
:1019BE00000183800303800603C00C03C01803C01C
:1019CE0018000018000038000030000030000070D1
:1019DE000000707E0071FF807783C07601C07C00AE
:1019EE00E07800E070007070007070007070007031
:1019FE007000703000703800703800701800601C75
:101A0E0000E00C00C006018003830000FC00000013
:101A1E0000000000000000000000000000000000B8
:101A2E0000000000000000000000000000000000A8
:101A3E0000000000000000000000000000001FFF7A
:101A4E00F01FFFF01FFFE01C00601000C030008090
:101A5E0020018020010000030000020000060000AB
:101A6E000400000C000008000018000018000030F0
:101A7E000000300000700000600000600000E00018
:101A8E0000E00000E00000E00001E00001E00001E5
:101A9E00E00001E00001E00001E00000E0000000D5
:101AAE000000000000000000000000000000000028
:101ABE000000000000000000000000000000000018
:101ACE00000000000000000000000000000001FE09
:101ADE00000703800E01C01C00E01800E038007003
:101AEE003800703800703800703C00701E00E01F27
:101AFE0000E00F81C007E38003FE0003FE00063FF7
:101B0E00000C0F801C07C03801E03801E07000F0B7
:101B1E00700070700070700070700070700070381F
:101B2E0000E01800C00C01C007030001FC0000001B
:101B3E000000000000000000000000000000000097
:101B4E000000000000000000000000000000000087
:101B5E00000000000000000000000000000001F87E
:101B6E00000706000C01001C01803800C03800C0C0
:101B7E0030006070006070006070007070007070F7
:101B8E0000707000707000F03800F03801F03C0307
:101B9E00701F0E700FFC7003F0700000600000E00C
:101BAE000000E00000E00000C00001C00C01801E3B
:101BBE0003801E03001E06000E1C0003F000000032
:101BCE000000000000000000000000000000000007
:101BDE0000000000000000000000000000000000F7
:101BEE0000000000000000000000000000000000E7
:101BFE0000000000000000000000000000000000D7
:101C0E00000000000000000000000000007800004E
:101C1E00FC0000FC0000FC0000FC0000780000004E
:101C2E0000000000000000000000000000000000A6
:101C3E00000000000000000000000000007800001E
:101C4E00FC0000FC0000FC0000FC0000780000001E
:101C5E000000000000000000000000000000000076
:061C6E0000000000000070
:0A3B2700F582E43583F583E4932270
:0C36A5008E448F458A468B478D828C83B3
:1036B100E54524FFFFE54434FFFEE58224FFFDE5F7
:1036C1008334FFFCE5452402FBE43544FAE582241A
:1036D10002F552E43583F5511237BFE4F548AF479F
:0E36E100AE46123A670548E548C3941040F023
:0136EF0022B8
:10297600E4F532F533F534F535C3EB9FF537E49ED0
:10298600F536C3E52D9DF539E52C9CF5388E428F3D
:10299600438C408D41D3E5379400E53664809480BE
:1029A6004008753C00753D01801DE53745367006CB
:1029B600F53CF53D801174FFF53CF53DC3E49537D4
:1029C600F537E49536F536D3E5399400E538648075
:1029D60094804008753E00753F01801DE5394538F5
:1029E6007006F53EF53F801174FFF53EF53FC3E4F2
:1029F6009539F539E49538F538D3E5379539E5381D
:102A06006480F8E536648098400885363A85373B19
:102A1600800685383A85393BE4F530F531E53B24C7
:102A260001FFE4353AFED3E5319FE5309E400302CF
:102A36002ABCAB2FAA2EAD41AC40AF43AE421236F4
:102A4600A5E5372533F533E5363532F532E5392553
:102A560035F535E5383534F534D3E533953BE53A88
:102A66006480F8E5326480984018E533953BF53389
:102A7600E532953AF532E53D2543F543E53C3542E9
:102A8600F542D3E535953BE53A6480F8E534648054
:102A9600984018E535953BF535E534953AF534E536
:102AA6003F2541F541E53E3540F5400531E53170BC
:062AB600020530022A2394
:012ABC0022F7
:0E32A2008E3B8F3C8C3D8D3E8B3F8A40894198
:1032B000AB3FAA40A941122027700302334624E005
:1032C000F548E53C240FFBE4353BFAE53E2417F5D1
:1032D00052E4353DF551AD3EAC3DAF3CAE3B12370F
:1032E000BFE4F54775F030E5489004441220E9E565
:1032F000822547123B27754900F54AE4F546E54A21
:1033000030E706AF43AE428004AF45AE44123A67A1
:10331000E54A25E0F54AE54933F5490546E546C362
:10332000940840DA0547E547C3943040B774012557
:1033300041F541E43540F5407410253CF53CE43559
:063340003BF53B0232B038
:013346002264
:0E3347008E368F378C388D398B3A8A3B893C15
:10335500AB3AAA3BA93C12202770030233EB24D0D9
:10336500F543E5372417FBE43536FAE539242FF51F
:1033750052E43538F551AD39AC38AF37AE36123782
:10338500BFE4F54275F090E5439016441220E9E557
:10339500822542123B27754400F545E4F541E54594
:1033A50030E706AF3EAE3D8004AF40AE3F123A6710
:1033B500E54525E0F545E54433F5440541E541C3DB
:1033C500940840DA0542E542C3949040B77401255C
:1033D5003CF53CE4353BF53B74182537F537E435CA
:0633E50036F536023355F7
:0133EB0022BF
:103AD600E53025E02431F8E6FE08E6FFEA25E02495
:033AE60031F82292
:0B3B0700C2A1D2A3D2A2D2A1C2A3226D
:1039C600C2A1E4FEEFC4131313540124FF92A2EF25
:0B39D60025E0FFC2A1D2A10EBE08E94F
:0139E10022C3
:1038DF00E4FFFEC2A1FDFCEF25E0FFEE33FED2A117
:1038EF00C2A1A2A0E43342070DBD00010CED640C90
:0338FF004C70E426
:0139020022A2
:02312000AB07FB
:10312200C2A1C2A3E4FAAF031239C6753006D53084
:10313200FDD2A10000C2A100001238DF123AE2A6BD
:103142000608A6070ABA0ADED2A3E4FAEA04F530B0
:10315200E530C3940A5038123AD6E6FC08E6C39F1B
:10316200EC9E5027123AE2E6FE08E6FFE48F488E14
:1031720047F546F545123AD6A60608A607AF48E532
:103182003025E02431F8A64708A607053080C10A99
:10319200EA640970B7E4F548F547F546F5457A0261
:1031A200123AE2E6FE08E6FFE4FCFDE5482FFFE501
:1031B200473EFEED3546FDEC35458F488E478D4640
:1031C200F5450ABA08DAAF48AE47AD46AC45E47BEE
:0F31D20006FAF9F81237388F488E478D468C452C
:0131E10022CB
:10305900123B077FD01231208E268F277F901231A5
:10306900208E2C8F2D7FD01231208E288F297F9092
:10307900123120AD07AC06D3E5279529E526952819
:10308900400EE5279529F52BE5269528F52A800D8B
:10309900C3E5299527F52BE5289526F52AD3E52DAE
:1030A9009DE52C9C400CE52D9DF52FE52C9CF52EDE
:1030B900800BC3ED952DF52FEC952CF52ED3E52B33
:1030C9009432E52A9400500AE52F9432E52E9400B3
:1030D90040037F0022E5272529FFE5263528C3136C
:1030E900F575EF13F576E52D2DFFE52C3CC313F5AA
:1030F90077EF13F5785376F05378F0C3E576946457
:10310900E5759400400BD3E57894A0E577940F40DA
:06311900037F00227F018C
:01311F00228D
:1036590054494D4500434C4F434B004241434B00B5
:103669005345540038006C00C6008200C6006C0047
:1036790038FE01FE07000E000E000E000C000C00C3
:103689000C000C000E000E00060003FE00FE0000F8
:0C36990000000000000000002E000000F7
:103478007F87FEFDFCAB1CAA1BA91AA8190220D342
:103488007B0075427F7543FFE4F544F54522FEFD58
:10349800FCAB18AA17A916A8150220D378267C0019
:1034A8007D007B007E007F030220017D64AE24AF97
:1034B800257C00022040FEFDFCAB1CAA1BA91AA813
:1034C800190220D334FFFCE4FAF9F8122076E4223A
:1034D800E4F50875110175100122752EF8752F0095
:0A34E80022E4FEFDFCA8190220D327
:103A35007BFF7A3679591228117A00796E1234A4EF
:093A4500122BCF1234D802245BCD
:103A4E007BFF7A36795E1228117A0079711234A4CE
:093A5E00122BCF1234D8022218F9
:10269C00E4FFFE1237FE7BFF7A36796475420075D3
:1026AC00431FE4F544F545FDFCFFFE1232A27BFF0F
:1026BC007A3679697542FF7543E0E4F544F5457D5A
:1026CC00181228077A36795975420712348D7D5EB7
:1026DC001228077A36795E12348A7D86FC7F32FEA8
:1026EC001232A2752C00752D321234E27D32122773
:1026FC00FB752C00752D821234E27D821227FB753E
:10270C002C00752DAA1234E27B9B7DAA7C007F14D1
:10271C007E00122976123059BF01FAE485761885AD
:10272C007517F516F515E51824D0FFE51734FEFEE0
:10273C00E51634FFFDE5157BAF1234CC7B5E7A0DCC
:10274C00F9F81237388F188E178D168C15E485789A
:10275C001C85771BF51AF519251CFFE51B34FFFEAC
:10276C00E51A34FFFDE5197BDB1234CC7B707A0D56
:10277C00F9F81237388F1C8E1B8D1A8C19E47FAE2A
:10278C00D3123496400AE47518AEF517F516F51504
:10279C00E47FDAD31234BE400AE4751CDAF51BF57B
:1027AC001AF519E4C3123478500D7F5F1234E940E6
:1027BC0006123A35022721E4D3123478400D7FA556
:1027CC001234E95006123A4E022721E47F37C31225
:1027DC0034964003022721E47F18C31234BE400311
:1027EC00022721750901E4F512FFFE1237FE227B48
:1027FC009B7C007F147E0012297622FC7F32FE1215
:05280C0032A27BFF2257
:042F8A008E248F25DD
:102F8E0078297C007D007BFF7A36799D7E007F0854
:102F9E001220011234B3EF2430F5291234B37E001F
:102FAE007F0ACFCDCFCECCCE122040EF2430F52BE2
:102FBE007D0A1234B5ED2430F52F7A0079291234BA
:102FCE00887F3C1230517A00792B1234887F46125A
:102FDE0030517B007A00792D12348A7DAAFC7F5005
:102FEE00FE1232A27B007A00792F12348A7DAAFC5F
:102FFE007F5AFE1232A27551007552C17B787A004B
:10300E007DAA7C007F697E001237BFE4F527E52795
:10301E0090366D93F526E4F528E52630E7067FFF1A
:10302E007E7F8003E4FFFE123A67E52625E0F52653
:10303E000528E528C3940840E00527E527C394300A
:02304E0040CC74
:09305000227DAAFCFE1232A2222C
:10377C003100320033003400350036003700380099
:10378C00390030004241434B003A0053455400008D
:10379C00000000000000000000000000000000001D
:1037AC00000000000000000000000000000000000D
:0337BC000000000A
:1035B8007A3779957BFF7542F8754300E4F544F551
:1035C80045227D007BFF7E007F030220017B007582
:1035D8003DF8753E00E4F53FF5402275F00A84E5B4
:1035E800F024302275F00A84243022752EF8752FC5
:1035F80000227BFF75420075431FE4F544F545FD45
:02360800FC22A2
:102811008B248A258926E4FFFE1237FEAB24AA25E4
:10282100A9267542FF7543E0E4F544F5457D18FCA2
:102831007F2FFE1232A2752C00752D321235F37DD9
:102841003212291F752D5A1235F37D5A12291F751F
:102851002D821235F37B9B7D827F1412296E752C9C
:1028610000752DAA1235F37DAA12292E7DD21229C7
:102871002E7B417D5A7F4112296E752C00752DD218
:102881001235F37B6E7D327C007F6E7E00122976DD
:102891007A37797C1235BC7F1F1229467A37797EC7
:1028A1001235BE7D5E1229507A3779801235BE7F8E
:1028B1007F1229467A3779821235BE7D86122964C4
:1028C1007A3779841235BE7D861229507A37798616
:1028D1001235BE7D8612295A7A3779881235BE7D26
:1028E100AE1229647A37798A1235BE7DAEFC7F51EA
:1028F100FE1232A27BFF7A37798C1235BE7DAE1281
:10290100295A7A37798E1235BE7D3AFC7F7FFE12C5
:1029110032A27A3779901235FAFFFE0232A27B9BFE
:102921007C007F147E00122976752C00227B9B7C13
:10293100007F147E00122976752C00752DD2752E1C
:10294100F8752F00227D5EFCFE1232A27BFF22FC75
:102951007F51FE1232A27BFF22FC7F7FFE1232A248
:102961007BFF22FC7F1FFE1232A27BFF227C007EB6
:0529710000122976228E
:102ABD0078247C007A37799B1235CA78277C007A86
:102ACD0037799E1235CA782A7C007D007BFF7A37D4
:102ADD0079A11235CE782D7C007D007BFF7A377978
:102AED00A41235CE78307C007D007BFF7A3779A734
:102AFD001235CE78337C007D007BFF7A3779AA12B0
:102B0D0035CEE56E1235ECF524E56E1235E3F5277D
:102B1D00E56F1235ECF52AE56F1235E3F52DE5700D
:102B2D001235ECF530E5701235E3F5337A00792482
:102B3D001235D57F0A122BC77A0079271235D57F2A
:102B4D001E122BA47F32122BBD7A00792A1235D793
:102B5D007F46122BC77B007A00792D1235D77F5A0D
:102B6D00122BA47F6E122BBD7A0079301235D77DD2
:102B7D0064FC7F82FE1233477B007A007933123575
:102B8D00D77D64FC7F96FE1233477A3779971235DD
:072B9D00FA7F7FFE0232A265
:102BA4007D64FCFE1233477BFF7A377995753DF8D7
:102BB400753E00E4F53FF540227D5EFCFE1233478E
:0B2BC4007B00227D64FCFE12334722E0
:102BCF0078297C007D007BFF7A3779AD1235CE787E
:102BDF002C7C007D007BFF7A3779B01235CE782FB1
:102BEF007C007D007BFF7A3779B31235CE78327C4B
:102BFF00007D007BFF7A3779B61235CE78357C00B1
:102C0F007D007BFF7A3779B91235CE78387C007D1D
:102C1F00007BFF7A3779BC1235CEE5261235ECF5FD
:102C2F0029E5261235E3F52CE5271235ECF52FE5CE
:102C3F00271235E3F532E5281235ECF535E5281284
:102C4F0035E3F5381235B87D38FC7F27FE1232A2F6
:102C5F001235B87D38FC7F47FE1232A27B007A0016
:102C6F0079291235BE7F11122CBF7A00792C1235BB
:102C7F00BE7F1D122CBF7A00792F1235BE7F311205
:102C8F002CC97A0079321235BE7F3D122CC97A00D9
:102C9F0079351235BE7D3AFC7F51FE1232A27B0090
:102CAF007A0079381235BE7D3AFC7F5DFE0232A282
:102CBF007D3AFCFE1232A27B00227D3AFCFE1232DC
:042CCF00A27B0022C2
:103AE900758901758C4C758ACED2A9D28CD2AF2238
:03000B000235615A
:10356100C0E0C0D0758C4C758AD2E574C394144008
:103571003F757400E570943B50040570803475709C
:1035810000E56FC3943B5004056F8011756F00E532
:103591006EC394175004056E8003756E00E56DB41B
:1035A1000110E56EB5710BE56FB57206D2A0800210
:0735B1000574D0D0D0E03218
:06000300FFC2A10239ADAD
:0539A8001239ADD2A1AF
:1039AD00000000000000000000000000000000000A
:0939BD00000000000000000022DF
:0A3B3100D2A01239A8C2A00239ADDB
:0A3B3B00C2A01239A8D2A00239ADD1
:0B392700123A1A123932AF05123A1A98
:10393200E4FFD2A11239AD30A009EFC394FA5003CB
:083942000F80F4C2A10239ADAF
:0A3B4500D2A01239ADD2A10239ADB1
:103A1A00E4FEEF25E012000392A01239A80EBE08B8
:0B3A2A00F1C2A11239ADD2A00239ADEB
:10394A00E4120003D2A01239ADFED2A11239ADEFB2
:0F395A0025E0FFA2A0E4334F1200030EBE08EBDE
:01396900223B
:103AAD00AC07123B317FD0123A1A123932AF0412E1
:053ABD003927023B3B2C
:0239E200AD072F
:1039E400123B317FD0123927123B317FD1123A1A60
:0939F40012393212394A123B3B30
:0139FD0022A7
:103A7F00E56B25E02459F8E6FE08E622FED3EF9425
:073A8F0064EE6480948022C4
:1038B900123B45E4FD7F6B123AAD7D077F19123A41
:1038C900AD7D067F1A123AAD7D187F1B123AAD7D88
:0638D900017F1C023AAD64
:023864008F1DB6
:103866001239E28F1EE51D04FF1239E2AD07AF1EC5
:10387600EF3395E0EFFEED3395E0FCE42DFFEE3CF3
:08388600FE7C007D4012204091
:01388E002217
:102EB2007F3D123864EF4E70277F3F123864EF4E29
:102EC200601E7F43123864EF4E60157F45123864EE
:102ED200EF4E600C7F47123864EF4E60031238B930
:102EE200122F52F56C85535985545A85555B855678
:102EF2005C85575D85585E855F658560668561671F
:102F020085626885636985646A122F52F56B123A8D
:102F12007FFFE56B25E02453F8E6FC08E6FDC39F3E
:102F2200FFEC9E123A8B5014123A7FC39DFFEE9C27
:102F3200123A8B5007056BE56BB403D2056CE56C56
:0F2F4200C3940340A0E56BB403037F00227F011B
:102F5100227F3B1238648E538F547F3D1238648E2A
:102F6100558F567F3F1238648E578F587F431238E2
:102F7100648E5F8F607F451238648E618F627F47F8
:092F81001238648E638F64E422AF
:103AC200758920758B6C758D6CD2ABD28EE4F57CCA
:043AD20075790A22D6
:03001B000234F2BA
:1034F200C0E0C0F0C083C082C0D075D000C000C0A0
:1035020001C002C003C004C005C006C007057C0597
:103512007BE57B7002057AAE7AFFE4FCFD7B607A84
:10352200EAF9F8C31220D35006757A00757B00E5DC
:103532007CB46403757C00E57CC395795004D2A306
:103542008002C2A3D007D006D005D004D003D00297
:0F355200D001D000D0D0D082D083D0F0D0E032E2
:0D000E001239897F017E00123A967FCC22C4
:103A9600D3EF9400EE9400400DE4FD0DBD6EFCEFF7
:063AA6001F70ED1E80EA16
:013AAC0022F7
:10398900C2B77F677E00EF1F70011EEF4E70F7D23E
:0E399900B77E007F04EF1F70011EEF4E70F727
:0139A70022FD
:10390300C2B70FBF0000D2B70FBF00000FBF000048
:10391300A2B792007E007F08EF1F70011EEF4E706A
:03392300F7A20008
:01392600227E
:1039FE00E4FDFC123903E433FFC43333335480FE49
:0B3A0E00EDC3134EFD0CBC08EAAF0531
:013A1900228A
:1036F000E4FEEF139200EFC313FF30001BC2B70BC1
:10370000BB00000BBB0000D2B77A007B08EB1B703C
:10371000011AEB4A70F7801BC2B77A007B08EB1BDB
:1037200070011AEB4A70F7D2B70BBB00010A0BBB52
:0737300000010A0EBE08BBF8
:01373700226F
:10360A0012000E1236F07FBE1236F01239FEAB07E8
:10361A001239FEEFFEEBFFFDAC06E4121E77E4FB67
:10362A00FA7980783D121D6C8F278E268D258C2481
:10363A00E4FFFE7D207C41AB27AA26A925A82412F7
:0E364A001D6CE4FBFAF9783F121C7B121EB0D7
:01365800224F
:0B3B120012000E1236F07F440236F065
:102CD300E4857618857517F516F515E51824D0FFE4
:102CE300E51734FEFEE51634FFFDE51534FFFCE47D
:102CF3007BAFFAF9F8122076E47B5E7A0DF9F812CD
:102D030037388F188E178D168C15E485781C8577C8
:102D13001BF51AF519251CFFE51B34FFFEE51A34D4
:102D2300FFFDE51934FFFCE47BDBFAF9F8122076AA
:102D3300E47B707A0DF9F81237388F1C8E1B8D1ACD
:102D43008C197FAEE4D3AB18AA17A916A815FEFDFC
:102D5300FC0220D37F91E4FEFDFCAB1CAA1BA91A45
:102D6300A819227F87E4A819FEFDFC0220D37F3C2B
:102D7300E4FEFDFCAB18AA17A916A815C30220D3BD
:102D8300E47F69FEFDFCA8150220D375F00A84E5F3
:102D930024AFF075F00AA42F2278267C007D007BF7
:102DA300007E007F0302200175F00A84AFF0E52462
:102DB30075F00AA42F22E47518AEF517F516F5156C
:0C2DC30022E4751CDAF51BF51AF5192244
:10245B00E4F525C2A9F514123059BF01FA122CD399
:10246B004003122DB97FDA122D59D31220D340031A
:10247B00122DC47F73122D474019E47F2D122D5A54
:10248B00D31220D3400D7F55122D685006E4F5244E
:10249B000225DBE47F3CC3122D495016E47F5F120B
:1024AB002D5D122D51400B122D6650067524010225
:1024BB0025DBE47F46122D484020E47F69A81512E6
:1024CB002D6B5016E47F5F122D5A1220D3400B1246
:1024DB002D6650067524020225DBE47F73122D480E
:1024EB004017E47F5F122D5AD31220D3400B122DCD
:1024FB006650067524030225DB122D715016122D22
:10250B00571220D3400EE47FA5122D695006752477
:10251B00040225DBE47F46122D48401B122D83500D
:10252B0016122D571220D3400EE47FA5122D6950A1
:10253B00067524050225DBE47F73122D4840171224
:10254B002D57D31220D3400EE47FA5122D695006D0
:10255B007524060225DB122D715031E47FAF122D4D
:10256B005A1220D340067F01C00780047F00C007AA
:10257B00E47FCD122D5AC31220D350047E0180026A
:10258B007E00D0E05E60057524078044E47F461230
:10259B002D48401D122D835018E47FAF122D5A1277
:1025AB0020D3400DE47FCD122D6950057524088092
:1025BB001FE47F73122D48401CE47FAF122D5AD3BA
:1025CB001220D34010E47FCD122D695008752409D9
:1025DB0075250180167F37122D73500FE47F18126B
:1025EB002D5AC31220D35003D2A922E525640160D2
:1025FB0003022462F525E51414601E14603B14607D
:10260B00461460561460612405706EE524C3940370
:10261B005067E56E122D8E801AE524C39404400694
:10262B00E56E94145053E56E75F00A84C3E56E9510
:10263B00F02524F56E05148040E524C3940650392B
:10264B00E56F122D8E800DE56F75F00A84C3E56F73
:10265B0095F02524F56F0514801FE524C3940650CF
:10266B0018E570122D8E800DE57075F00A84C3E5A8
:10267B007095F02524F57005147A00796E122D9C57
:10268B00122BCFE51464066003022462F5140224B6
:01269B0062DC
:10221800E4F525F514756D01123059BF01FA122C39
:10222800D34003122DB9E47FDA122D5AD31220D3EA
:102238004003122DC4E47F73122D48401AE47F2D09
:10224800122D5AD31220D3400EE47F55122D695017
:1022580006E4F524022393122D715016E47F5F12D1
:102268002D5A1220D3400B122D66500675240102F8
:102278002393E47F46122D48401B122D835016E409
:102288007F5F122D5A1220D3400B122D665006750F
:102298002402022393E47F73122D484017E47F5FE2
:1022A800122D5AD31220D3400B122D6650067524D6
:1022B80003022393122D715016122D571220D3406A
:1022C8000EE47FA5122D695006752404022393E4B9
:1022D8007F46122D48401B122D835016122D57127F
:1022E80020D3400EE47FA5122D69500675240502FF
:1022F8002393E47F73122D484017122D57D31220D1
:10230800D3400EE47FA5122D6950067524060223DA
:1023180093122D715031E47FAF122D5A1220D34001
:10232800067F01C00780047F00C007E47FCD122D1F
:102338005AC31220D350047E0180027E00D0E05E92
:1023480060057524078044E47F46122D48401D121D
:102358002D835018E47FAF122D5A1220D3400DE47C
:102368007FCD122D695005752408801FE47F7312F4
:102378002D48401CE47FAF122D5AD31220D34010B1
:10238800E47FCD122D695008752409752501801741
:10239800E47F37122D74500FE47F18122D5AC312A0
:1023A80020D35003D2A922E525640160030222202C
:1023B800F525E51414602414604114604C14605C25
:1023C80014606724057074E524C39403506DE571A7
:1023D80075F00A84E524122D94801AE524C3940428
:1023E8004006E56E94145053E57175F00A84C3E510
:1023F8007195F02524F57105148040E524C39406F1
:102408005039E572122DAB800DE57275F00A84C360
:10241800E57295F02524F5720514801FE524C39410
:10242800065018E573122DAB800DE57375F00A841C
:10243800C3E57395F02524F57305147A00797112B4
:102448002D9C122BCFE51464066003022220F5149C
:032458000222203D
:101C7400021F1CE86480F8E933E83360110460F063
:101C8400ED33EC337009E8FCE9FDEAFEEBFF2204D6
:101C940060DED3EB9FEA9EE99DE8C2E78CF0C2F7D1
:101CA40095F0400CE8CCF8E9CDF9EACEFAEBCFFB9D
:101CB400121EE785D0F05804700320D5B3E80470F1
:101CC400075002B2D5021F2692D5EC0460F7E4CC8B
:101CD400C0E0C398F8603B94186008400DD0E0FB66
:101CE400021EFEE4FBFAC9FC8028E830E406E4C9DD
:101CF400FBE4CAFCE830E305E4C9CACBFCE85407BA
:101D04006010F8C3E913F9EA13FAEB13FBEC13FCC4
:101D1400D8F130F52FC3E49CFCEF9BFFEE9AFEED67
:101D240099FDD0E0FBEF4E4D4C701222DB03021FF5
:101D340023EC2CFCEF33FFEE33FEED33FDED30E707
:101D4400EB021EFEEF2BFFEE3AFEED39FDD0E0FB79
:101D540050130BBB0003021F26ED13FDEE13FEEF21
:081D640013FFEC13FC021EFE4C
:101D6C00EC4D6011E8497017ED33EC3304600DE471
:101D7C00FCFFFEFD22E933E8330470F8021F1C124D
:101D8C001EE758046009E4CC24815006285009024F
:101D9C001F26284003021F23C0E0EB4A7044B98081
:101DAC0006D0E0FB021F12EF4E701CBD8008EBFF4B
:101DBC00EAFEE9FD80EBE98DF0A4FEE5F0021E558C
:101DCC00E9CDF9EAFEEBFFEF89F0A4FCE5F0CE8952
:101DDC00F0A42EFFE435F0CD89F0A42DFEE435F00F
:101DEC008067EF4E7005BD80D780C3EF8BF0A4AC3D
:101DFC00F0EE8BF0A42CFCE435F0F8EF8AF0A42C78
:101E0C00E5F038FCE433CB8DF0A42CFCE5F03BF88A
:101E1C00EE8AF0A42CFCE5F038F8E433CF89F0A47A
:101E2C002CFCE5F038CF3400CE89F0A42FFFE5F080
:101E3C003EFEE433C98DF0A42EFEE5F039CD8AF0D8
:101E4C00A42FFFE5F03EFEE43DFD33D0E0FB500750
:101E5C000BBB000F021F26EC2CFCEF33FFEE33FE06
:061E6C00ED33FD021EFE35
:101E720075F020800E75F010800575F0087D007EEB
:101E8200007F003392D530D5031220C5EC334010C9
:101E9200EF33FFEE33FEED33FDEC33FCD5F0ED22F4
:0E1EA200E5F0247EA2D513CC92E7CDCEFF2230
:101EB000EDD2E7CD33EC3392D524814006E4FFFE2A
:101EC000FDFC22FCE4CFCECDCC24E0501174FF8089
:101ED000EDC3CC13CCCD13CDCE13CECF13CF047026
:071EE000F030D5DE0220C541
:101EE700E9D2E7C933E833F892D5EDD2E7CD33EC41
:071EF70033FC5002B2D522BA
:101EFE00EC30E7100FBF000C0EBE00080DBD000445
:101F0E000BEB6014A2D5EB13FCED92E7FD2274FFF0
:101F1E00FCFDFEFF22E480F8A2D574FF13FC7D8049
:031F2E00E480EF5D
:030000000233ECDC
:0C33EC00787FE4F6D8FD75817C02343354
:101F3100E709F608DFFA8046E709F208DFFA803E92
:101F410088828C83E709F0A3DFFA8032E309F6087F
:101F5100DFFA8078E309F208DFFA807088828C83E7
:101F6100E309F0A3DFFA806489828A83E0A3F6089B
:101F7100DFFA805889828A83E0A3F208DFFA804C75
:101F810080D280FA80C680D4806980F2803380104C
:101F910080A680EA809A80A880DA80E280CA8033B5
:101FA10089828A83ECFAE493A3C8C582C8CCC5832D
:101FB100CCF0A3C8C582C8CCC583CCDFE9DEE780FD
:101FC1000D89828A83E493A3F608DFF9ECFAA9F07C
:101FD100EDFB2289828A83ECFAE0A3C8C582C8CCD2
:101FE100C583CCF0A3C8C582C8CCC583CCDFEADEEB
:101FF100E880DB89828A83E493A3F208DFF980CC4D
:1020010088F0EF60010E4E60C388F0ED2402B40445
:102011000050B9F582EB2402B4040050AF232345EC
:062021008223901F817371
:10202700BB010689828A83E0225002E722BBFE02B7
:09203700E32289828A83E49322EA
:10204000C2D5EC30E709B2D5E4C39DFDE49CFCEEBB
:1020500030E715B2D5E4C39FFFE49EFE1220F5C31E
:10206000E49DFDE49CFC80031220F530D507C3E419
:062070009FFFE49EFE222A
:10207600E88FF0A4CC8BF0A42CFCE98EF0A42CFC09
:102086008AF0EDA42CFCEA8EF0A4CDA8F08BF0A487
:102096002DCC3825F0FDE98FF0A42CCD35F0FCEBE6
:1020A6008EF0A4FEA9F0EB8FF0A4CFC5F02ECD39AB
:0F20B600FEE43CFCEAA42DCE35F0FDE43CFC2218
:10373800C2D5E830E70FB2D5E4C39BFBE49AFAE4BC
:1037480099F9E498F8EC30E717B2D512376E1221E0
:1037580086E4C39BFBE49AFAE499F9E498F88003B9
:1037680012218630D50DE4C39FFFE49EFEE49DFD43
:04377800E49CFC22AF
:0E20C500C3E49FFFE49EFEE49DFDE49CFC222C
:1020D300EB9FF5F0EA9E42F0E99D42F0EC6480C884
:0620E30064809845F02224
:0C20E900A42582F582E5F03583F5832202
:1033F800022DCFE493A3F8E493A34003F68001F2EF
:1034080008DFF48029E493A3F85407240CC8C333D5
:10341800C4540F4420C8834004F456800146F6DFA4
:10342800E4800B010204081020408090388FE47E6D
:10343800019360BCA3FF543F30E509541FFEE49399
:10344800A360010ECF54C025E060A840B8E493A360
:10345800FAE493A3F8E493A3C8C582C8CAC583CA8B
:10346800F0A3C8C582C8CAC583CADFE9DEE780BE43
:0138B800000F
:1020F500BC000BBE0029EF8DF084FFADF022E4CCCF
:10210500F875F008EF2FFFEE33FEEC33FCEE9DEC97
:10211500984005FCEE9DFE0FD5F0E9E4CEFD22EDDD
:10212500F8F5F0EE8420D21CFEADF075F008EF2F27
:10213500FFED33FD4007985006D5F0F222C398FD18
:052145000FD5F0EA22B5
:10214A0075F008758200EF2FFFEE33FECD33CDCC4C
:10215A0033CCC58233C5829BED9AEC99E5829840CF
:10216A000CF582EE9BFEED9AFDEC99FC0FD5F0D6AC
:10217A00E4CEFBE4CDFAE4CCF9A88222B800C1B9D6
:10218A000059BA002DEC8BF084CFCECDFCE5F0CB14
:10219A00F97818EF2FFFEE33FEED33FDEC33FCEB4D
:1021AA0033FB10D703994004EB99FB0FD8E5E4F908
:1021BA00FA227818EF2FFFEE33FEED33FDEC33FCF5
:1021CA00C933C910D7059BE99A4007EC9BFCE99AE9
:1021DA00F90FD8E0E4C9FAE4CCFB2275F010EF2F2E
:1021EA00FFEE33FEED33FDCC33CCC833C810D7072E
:1021FA009BEC9AE899400AED9BFDEC9AFCE899F869
:0E220A000FD5F0DAE4CDFBE4CCFAE4C8F922FB
:00000001FF
