:107ABC000608000000000000010E00040F0000008A
:077ACC00000413000000009C
:107BD600E4AB12AA11A910A80FFEFDFCD3025BBFED
:0C7BE60034FFFCE4FAF9F8125B62E422C0
:106CE700D200752132E4F5B0127A2B1271EEE4FF6F
:106CF700FE127996127CCB127CF4E55CB402031287
:106D0700748DA2009201126254C200E521B4320CC4
:106D1700E4F521127CF4127831126F9A127065EF44
:106D270064016003026DDF851812851711F510F5F0
:106D37000FE51224D0FFE51134FEFEE51034FFFD08
:106D4700E50F7BAF127BE67B5E7A0DF9F8127913BC
:106D57008F128E118D108C0FE4851A16851915F573
:106D670014F5132516FFE51534FFFEE51434FFFD72
:106D7700E5137BDB127BE67B707A0DF9F81279134A
:106D87008F168E158D148C137FAE127BD6400AE4B6
:106D97007512AEF511F510F50FE47FDAAB16AA15EB
:106DA700A914A813127BDF400AE47516DAF515F566
:106DB70014F5137F73127BD6401EE47F18FEFDFC8B
:106DC700AB16AA15A914A813125BBF500B126BE4DC
:0D6DD700E4FFFE127996D2000521026D0145
:097D27008F80C2A5D2A5D2A722CB
:107B1F00E4FDFCC3ED9FEC9E5014E4FBFA0BBB009D
:0E7B2F00010AEBF44A70F60DBD00010C80E572
:017B3D002225
:0A7CFF00C2A7D2B2C2A6127D27224E
:047CDB00127CFFFF19
:0A7CDF00C2A7D2B2D2A6127D27225E
:1071EE00D2B37FC87E00127B1FC2B37F207E0312F4
:1071FE007B1FD2B3127B1FC2A77F367E00127CFF8D
:10720E007FC8127CDF7F3A127CFF7F05127CDF7F06
:10721E00FE127CFF7FEF127CFF7FE2127CFF7F80ED
:10722E00127CDF7FA3127CFF7F07127CDF7FA4120C
:10723E007CFF7F09127CDF7FFF127CFF7F12127CA6
:10724E00DF7FFD127CFF7F04127CDF7FF5127CFF57
:10725E00E4FF127CDF7FFB127CDB7FF1127CFF7F71
:10726E0055127CDF7FF8127CFF7F22127CDF7FF3CA
:10727E00127CFF7F52127CDF7FFA127CFF7F251279
:10728E007CDF7FF4127CDB7FFC127CDB7F11127CB7
:10729E00FF7F78127B1F7F29127CFF7F32027B1FBC
:107957008F828E837F2A7E00127CFFE583FF127C55
:10796700DFAF82127CDFEAFF127CDFAF03127CDF1E
:107977007F2B127CFFECFF127CDFAF05127CDFE56B
:0F7987005AFF127CDFAF5B127CDF7F2C027CFF8C
:107C6100AD07AC06C2A7D2B2D2A6ECFF8F80C2A5E7
:087C7100D2A58D80127D2922AD
:047996008E328F336B
:10799A00755A00755BDB7BAF7A00E4FDFCFFFE12D3
:1079AA007957E4FB900000AF33AE32127C61A3E555
:1079BA008264B0458370F00BBB00010AEB64DC4AB9
:0279CA0070E269
:0179CC002298
:10001E00C4EA0000000000C0000001F0000001E092
:10002E00000003C000C003C001E007FFFFF007039C
:10003E00C0000E03C0001E03C0003C03C3007303C8
:10004E00C78063FFFFC00383C0000383C000038328
:10005E00C0000383C0000383C0600383C0F07FFF32
:10006E00FFF80003C0000003C0000003C00000033F
:10007E00C0000003C0000003C0000003C000000366
:10008E00C00000000000D4C200000000000000000C
:10009E0000E0070000FFFF8000F0078000F007007F
:1000AE0000F0070000F0070000F0070000FFFF005F
:1000BE0000FFFF0000F0070000F0070000F007004F
:1000CE0000F0070000E0070000FFFF0000E007005F
:1000DE0000E0070000E0070001E0070001C0070094
:1000EE0001C00700038007000780F7000F007F00A4
:1000FE001E001F0038001C0000000000C8D50000C4
:10010E000000000000000300030003FFFF8003FF58
:10011E00FF80038007000380070003800700038031
:10012E000700038007000380070003800700038099
:10013E00070003FFFF000380070003800700038012
:10014E000700038007000380070003800700038079
:10015E000700038007000380070003FFFF000380F2
:10016E000700038007000380070003000000000063
:10017E000000D0C700000000000000000380070050
:10018E0003FFFF8003800700038007000380070042
:10019E0003FFFF00038007000380070003FFFF003B
:1001AE0003FFFF00038707000387C00003C781001A
:1001BE0003C7838007FFFFC0070780000F0780007B
:1001CE001E0786001C078F003BFFFF807007800014
:1001DE0000078000000780E0000781F07FFFFFF836
:1001EE000000000000000000C6DA0000000006005B
:1001FE000000079E0000079E7FF0079E7FF0079F7E
:10020E00F8F03FFFF8F01F9E78F0079E78F0079EFB
:10021E0078F007FE7FF0079E78F0079E78F0079E35
:10022E0070F007FE70F0079E70F0079E7FF0079F3C
:10023E00FFF03FFFF0F0119070F003DCF0F003DE02
:10024E00E0F0078FE0F00F0FE0F00E07C0F01C0398
:10025E008FF0380F03E0201C01C0000000000000EA
:10026E000000000000000000000000000000000080
:10027E000000000000000000000000000000000070
:10028E000000000000000000000000000000000060
:10029E00000000000000070007000700070007002D
:1002AE000200020002000200020002000000000034
:1002BE00000007000700070000000000000000001B
:1002CE000000066006600CC01980110022000000BC
:1002DE000000000000000000000000000000000010
:1002EE000000000000000000000000000000000000
:1002FE0000000000000000001040104010401040B0
:10030E007FE07FE010401040208020807FE07FE083
:10031E00208020802080208000000000000000004F
:10032E0000000000020002000F801AC032C032C06E
:10033E0032001A000E0007000380038002C032C094
:10034E0032C032C012800F00020002000000000016
:10035E00000000000000000070C0508088808900FE
:10036E0089008B008A005FC0754006200A200A2093
:10037E001A201220114021C00000000000000000D1
:10038E0000000000000000001C00260026002600D1
:10039E00260025C03880308058804900CD00C70027
:1003AE00C600C300652038C0000000000000000039
:1003BE000000300038000800080010006000000047
:1003CE00000000000000000000000000000000001F
:1003DE00000000000000000000000000000000000F
:1003EE000000002000400080018001000300030097
:1003FE0006000600060006000600060006000300C2
:10040E000300010001800080004000200000000079
:10041E000000400020001000180008000C000C0026
:10042E0006000600060006000600060006000C0088
:10043E000C00080018001000200040000000000012
:10044E000000000000000000000002000200020098
:10045E0072703AE00F800F803AE072700200020074
:10046E00020000000000000000000000000000007C
:10047E00000000000000000000000000020002006A
:10048E000200020002007FF00200020002000200E1
:10049E00020000000000000000000000000000004C
:1004AE00000000000000000000000000000000003E
:1004BE00000000000000000000000000000000002E
:1004CE000000300038000800080010006000000036
:1004DE00000000000000000000000000000000000E
:1004EE000000000000007FE000000000000000009F
:1004FE0000000000000000000000000000000000EE
:10050E0000000000000000000000000000000000DD
:10051E0000000000000000000000000000000000CD
:10052E000000380038003800000000000000000015
:10053E00000000200060004000C00080008001002C
:10054E00010002000200060004000400080008007A
:10055E00100010003000200060004000000000007D
:10056E0000000000000000000F00198030C030C0F5
:10057E00606060606060606060606060606060606D
:10058E0030C030C019800F000000000000000000D5
:10059E000000000000000000020006003E00060001
:1005AE00060006000600060006000600060006000D
:1005BE000600060006003FC000000000000000001C
:1005CE0000000000000000001F00218040C060C03D
:1005DE0060C000C0018001800300040008001040CC
:1005EE00204040407FC07FC000000000000000009F
:1005FE0000000000000000001E00230061806180EA
:10060E006180018003000E000180008000C060C088
:10061E0060C060C021801F000000000000000000CC
:10062E000000000000000080018003800380058030
:10063E000980098011802180218041807FE0018026
:10064E0001800180018007E0000000000000000032
:10065E0000000000000000003FC03FC0200020004E
:10066E00200020002F00318020C000C000C060C0DC
:10067E0060C0418021801F000000000000000000CB
:10068E000000000000000000078018C030C03000DD
:10069E0020006000678068C07060606060606060AD
:1006AE002060304018C00F00000000000000000065
:1006BE0000000000000000001FE03FE030402080FE
:1006CE0020800080010001000200020002000600EE
:1006DE0006000600060006000000000000000000F4
:1006EE0000000000000000001F8030C060606060ED
:1006FE00606070403CC00F00338020C0606060605E
:10070E006060606030C00F800000000000000000DC
:10071E0000000000000000000F00308030C060407C
:10072E0060606060606060E031601E60006000C00C
:10073E0000C0308031801E0000000000000000006C
:10074E00000000000000000000000000000000009B
:10075E000700070007000000000000000000000076
:10076E000000070007000700000000000000000066
:10077E00000000000000000000000000000000006B
:10078E00000006000600000000000000000000004F
:10079E000000000006000600020004000000000039
:1007AE000000000000000020004000800100020058
:1007BE0004000800100020001000080004000200D1
:1007CE00010000800040002000000000000000003A
:1007DE00000000000000000000000000000000000B
:1007EE0000007FE000000000000000007FE000003D
:1007FE0000000000000000000000000000000000EB
:10080E00000000000000200010000800040002009C
:10081E000100008000400020004000800100020026
:10082E00040008001000200000000000000000007E
:10083E000000000000000F8030C04060406060602B
:10084E00606000C001800600040004000400000087
:10085E0000000E000E000E00000000000000000060
:10086E00000000000000000007801C6010203350C4
:10087E0026D06490649068906890699069A066C074
:10088E0030103020184007800000000000000000EB
:10089E000000000000000000060006000E000B0025
:1008AE000B0013001180118011801F8020C020C00A
:1008BE0020C020606060F0F000000000000000002A
:1008CE000000000000000000FF00618060C060C0FA
:1008DE0060C060C061807F0060C06040606060602A
:1008EE006060606060C0FF800000000000000000DB
:1008FE00000000000000000007E0186030203020EB
:10090E0020006000600060006000600060006020F9
:10091E003020304018800F00000000000000000062
:10092E000000000000000000FE00618060C060C09A
:10093E0060606060606060606060606060606060A9
:10094E0060C060C06380FE00000000000000000078
:10095E000000000000000000FFC06040602060004A
:10096E006000610061007F00610061006000600056
:10097E00602060206040FFC000000000000000000A
:10098E000000000000000000FFC060C0602060207A
:10099E006000610061007F00610061006000600026
:1009AE00600060006000F000000000000000000029
:1009BE0000000000000000000F4018C03040304022
:1009CE002000600060006000600063F060C060C0E6
:1009DE0030C030C018C00F00000000000000000042
:1009EE000000000000000000F0F0606060606060D9
:1009FE006060606060607FE060606060606060604A
:100A0E00606060606060F0F00000000000000000B8
:100A1E0000000000000000003FC0060006000600B7
:100A2E000600060006000600060006000600060088
:100A3E000600060006003FC0000000000000000097
:100A4E0000000000000000000FF001800180018016
:100A5E000180018001800180018001800180018080
:100A6E000180018001800180618063003E000000F2
:100A7E000000000000000000F3E0608061006200F2
:100A8E00620064006C007C00760067006300638087
:100A9E00618060C060E0F1F0000000000000000026
:100AAE000000000000000000F00060006000600028
:100ABE006000600060006000600060006000600028
:100ACE00602060206040FFC00000000000000000B9
:100ADE000000000000000000F0F070E070E070E038
:100AEE0059605960596059605A604E604E604E6050
:100AFE004E6044604460E4F000000000000000001E
:100B0E000000000000000000E070702070205820EF
:100B1E0058204C20462046204320432041A040E050
:100B2E0040E040604060E020000000000000000057
:100B3E0000000000000000000F00198030C030409F
:100B4E006060606060606060606060606060606097
:100B5E00304030C019800F0000000000000000007F
:100B6E000000000000000000FF8060C06060606058
:100B7E0060606060606060C07F80600060006000E8
:100B8E00600060006000F000000000000000000047
:100B9E0000000000000000000F00198030C030403F
:100BAE0060606060606060606060606060606E6029
:100BBE00324031C011800F8001E000C00000000003
:100BCE000000000000000000FF8060C060606060F8
:100BDE006060606060C07F006600630063006180DB
:100BEE00618060C060C0F070000000000000000076
:100BFE0000000000000000001F2030E06020602098
:100C0E00600070003C000F0003C000C00060406038
:100C1E004060606070C04F80000000000000000067
:100C2E0000000000000000007FE0462086108610C5
:100C3E000600060006000600060006000600060076
:100C4E000600060006000F00000000000000000075
:100C5E000000000000000000F070602060206020A6
:100C6E006020602060206020602060206020602076
:100C7E006020602030401F80000000000000000057
:100C8E000000000000000000F8F0706030403040BE
:100C9E003040308018801880188018800D000D00AC
:100CAE000D000F000600060000000000000000000E
:100CBE000000000000000000F7706620662066400D
:100CCE0066406740374037403B803B803B803B80EF
:100CDE00398011001100110000000000000000001A
:100CEE00000000000000000079E030C0188018807D
:100CFE0019000D000E000600060007000B000B8009
:100D0E001980118030C079E0000000000000000062
:100D1E000000000000000000F8F0706030403080ED
:100D2E00188018800D000D000E000600060006004B
:100D3E000600060006001F800000000000000000F4
:100D4E0000000000000000003FE020C041C0018014
:100D5E00038003000300060006000C000C001800C0
:100D6E001820382030407FC0000000000000000036
:100D7E00000007E004000400040004000400040066
:100D8E000400040004000400040004000400040035
:100D9E000400040004000400040007E0000000004A
:100DAE0000000000000020001000100010000800DD
:100DBE00080004000400040002000200010001000B
:100DCE000100008000800040004000400020000034
:100DDE0000003F00010001000100010001000100C0
:100DEE0001000100010001000100010001000100ED
:100DFE00010001000100010001003F0000000000A1
:100E0E00000007000D8010400000000000000000F0
:100E1E0000000000000000000000000000000000C4
:100E2E0000000000000000000000000000000000B4
:100E3E0000000000000000000000000000000000A4
:100E4E000000000000000000000000000000000094
:100E5E00000000000000000000000000FFF0000095
:100E6E00000030003800080008001000600000008C
:100E7E000000000000000000000000000000000064
:100E8E000000000000000000000000000000000054
:100E9E000000000000000000000000000000000044
:100EAE0000000F8030C030C007C01CC030C060C012
:100EBE0060C060C071D03EF0000000000000000075
:100ECE000000000000001000700030003000300004
:100EDE00300033803CC0386030603060306030604D
:100EEE003060304038C02F8000000000000000004D
:100EFE0000000000000000000000000000000000E4
:100F0E0000000F0031803180618060006000600061
:100F1E006040304030800F000000000000000000F4
:100F2E00000000000000004001C000C000C000C072
:100F3E0000C01EC031C030C060C060C060C060C0A4
:100F4E0060C020C031E01E800000000000000000E4
:100F5E000000000000000000000000000000000083
:100F6E000000078018C0106030603FE03000300095
:100F7E00300018201C400780000000000000000018
:100F8E00000000000000000003C006600C600C00B2
:100F9E000C007FC00C000C000C000C000C000C00B0
:100FAE000C000C000C003F80000000000000000050
:100FBE000000000000000000000000000000000023
:100FCE0000000F70199030C030C030C019801F0063
:100FDE0030003E001FC06060606070E01F80000047
:100FEE0000000000000010007000300030003000E3
:100FFE003000378038C030C030C030C030C030C054
:10100E0030C030C030C079E00000000000000000A9
:10101E0000000000000000000600060000000000B6
:10102E0000003E0006000600060006000600060050
:10103E000600060006003FC0000000000000000091
:10104E000000000000000000018001800000000090
:10105E0000000F80018001800180018001800180ED
:10106E000180018001800180018033003E0000007C
:10107E000000000000001000700030003000300052
:10108E00300033C031003300320036003E003B00EA
:10109E0033003180318079E0000000000000000054
:1010AE0000000000000002003E00060006000600E0
:1010BE0006000600060006000600060006000600F2
:1010CE000600060006003FC0000000000000000001
:1010DE000000000000000000000000000000000002
:1010EE000000EEE07760666066606660666066606F
:1010FE00666066606660F770000000000000000029
:10110E0000000000000000000000000000000000D1
:10111E00000073803CC030C030C030C030C030C022
:10112E0030C030C030C079E0000000000000000088
:10113E0000000000000000000000000000000000A1
:10114E0000000F00198030C06060606060606060F9
:10115E00606030C030C00F000000000000000000D2
:10116E000000000000000000000000000000000071
:10117E000000778038C030603060306030603060A2
:10118E00306030C038C03780300030007C00000046
:10119E000000000000000000000000000000000041
:1011AE0000001E4031C030C060C060C060C060C072
:1011BE0060C020C031C01EC000C000C003E00000EF
:1011CE000000000000000000000000000000000011
:1011DE000000F9E01A601C00180018001800180032
:1011EE00180018001800FF000000000000000000AA
:1011FE0000000000000000000000000000000000E1
:10120E0000000FE01860302030001C000F8001C07D
:10121E002060206030C03F80000000000000000011
:10122E0000000000000000000000040004000C009C
:10123E000C007F800C000C000C000C000C000C004D
:10124E000C000C400C400780000000000000000065
:10125E000000000000000000000000000000000080
:10126E00104071C030C030C030C030C030C030C04F
:10127E0030C030C039E01E800000000000000000C9
:10128E000000000000000000000000000000000050
:10129E0000007CF03860184018400C800C800C80E8
:1012AE000700070007000200000000000000000019
:1012BE000000000000000000000000000000000020
:1012CE000000F7B0632063206720372035C039C097
:1012DE0039C039C0108010800000000000000000EE
:1012EE0000000000000000000000000000000000F0
:1012FE0000007DE0188019800D000E00060007002A
:10130E000B00198011C07BE00000000000000000FF
:10131E0000000000000000000000000000000000BF
:10132E0000007DE03880188018800D000D000D0043
:10133E000600060002000400040028003800000029
:10134E00000000000000000000000000000000008F
:10135E0000003FC0218023800300070006000E001E
:10136E000C201C2018603FC0000000000000000090
:10137E00000000000000000000000000000000005F
:10138E00000000000000000000000000000000004F
:10139E00000000000000000000000000000000003F
:1013AE00000000000000000000000000000000002F
:1013BE00000000000000000000000000000000001F
:1013CE00000000000000000000000000000000000F
:1013DE0000000000000000000000000000000000FF
:1013EE0000000000000000000000000000000000EF
:1013FE0000000000000000000000000000000000DF
:10140E0000000000000000000000000000000000CE
:10141E0000000000000000000000000000000000BE
:10142E0000000000000000000000000000000000AE
:10143E00000000000000000000000000000000009E
:10144E00000000000000000000000000000000008E
:10145E00000000000000000000000000000000007E
:10146E00000000000000000000000000000000006E
:10147E0000000000000000F8000386000703000EC5
:10148E0001800C01C01C00C01800C03800E03800FC
:10149E00E038006070007070007070007070007046
:1014AE00700070700070700070700070700070705E
:1014BE0000707000707000703800603800E0380006
:1014CE00E01800C01C00C00C01800E018006030055
:1014DE0003860000F800000000000000000000007D
:1014EE0000000000000000000000000000000000EE
:1014FE0000000000000000000000000000000000DE
:10150E00000000000000000800001800003800076E
:10151E00F8000038000038000038000038000038AD
:10152E000000380000380000380000380000380095
:10153E000038000038000038000038000038000085
:10154E00380000380000380000380000380000383D
:10155E000000380000380000380000380000380065
:10156E00007C0007FFC0000000000000000000002B
:10157E00000000000000000000000000000000005D
:10158E00000000000000000000000000000000004D
:10159E0000000000000000FC000307000C03801890
:1015AE0001C01801C03800E03800E03800E03C000F
:1015BE00E03C00E01C00E00001C00001C000038020
:1015CE00000380000700000E00001C000038000021
:1015DE00700000E00001C000038000030000060060
:1015EE00200C00201800603000602000C07FFFC07B
:1015FE007FFFC07FFFC00000000000000000000061
:10160E0000000000000000000000000000000000CC
:10161E0000000000000000000000000000000000BC
:10162E0000000000000000FC000307000603800C11
:10163E0001C01C01C01C00E01E00E01E00E00E00F8
:10164E00E00000E00000C00001C0000180000300C7
:10165E00000E0000F800000F000001800000C00026
:10166E0000E00000600000700000701800703C0088
:10167E00703C00703C00603800E01800C00C018027
:10168E0006070001FC000000000000000000000042
:10169E00000000000000000000000000000000003C
:1016AE00000000000000000000000000000000002C
:1016BE00000000000000000300000700000700000B
:1016CE000F00001F00001700003700002700006702
:1016DE000000C70000870001870003070002070013
:1016EE00060700040700080700180700100700305F
:1016FE0007006007007FFFF87FFFF8000700000774
:10170E0000000700000700000700000700000700A8
:10171E0000078000FFF8000000000000000000003D
:10172E0000000000000000000000000000000000AB
:10173E00000000000000000000000000000000009B
:10174E000000000000000FFFE00FFFE00FFFE008B9
:10175E00000008000008000008000008000010004B
:10176E000010000010000010FE0013FF0017038091
:10177E001C01C01C00E01800E00000F0000070002A
:10178E0000700000700000701800703C00703C008B
:10179E00703C00603800E01800E01801C00C0180B9
:1017AE0007070001FC000000000000000000000020
:1017BE00000000000000000000000000000000001B
:1017CE00000000000000000000000000000000000B
:1017DE00000000000000007E0001838003038006ED
:1017EE0003C00C03C01803C0180000180000380016
:1017FE0000300000300000700000707E0071FF802D
:10180E007783C07601C07C00E07800E070007070D5
:10181E0000707000707000707000703000703800D2
:10182E00703800701800601C00E00C00C0060180CB
:10183E0003830000FC000000000000000000000018
:10184E00000000000000000000000000000000008A
:10185E00000000000000000000000000000000007A
:10186E000000000000001FFFF01FFFF01FFFE01C34
:10187E0000601000C03000802001802001000003B5
:10188E0000000200000600000400000C000008002A
:10189E00001800001800003000003000007000003A
:1018AE00600000600000E00000E00000E00000E0EA
:1018BE000001E00001E00001E00001E00001E000B5
:1018CE0001E00000E0000000000000000000000049
:1018DE0000000000000000000000000000000000FA
:1018EE0000000000000000000000000000000000EA
:1018FE0000000000000001FE000703800E01C01C66
:10190E0000E01800E03800703800703800703800C1
:10191E00703C00701E00E01F00E00F81C007E380E6
:10192E0003FE0003FE00063F000C0F801C07C038AC
:10193E0001E03801E07000F070007070007070000F
:10194E00707000707000703800E01800C00C01C09C
:10195E0007030001FC000000000000000000000072
:10196E000000000000000000000000000000000069
:10197E000000000000000000000000000000000059
:10198E0000000000000001F8000706000C01001C1A
:10199E0001803800C03800C03000607000607000F8
:1019AE00607000707000707000707000707000F0E9
:1019BE003800F03801F03C03701F0E700FFC7003FE
:1019CE00F0700000600000E00000E00000E00000A9
:1019DE00C00001C00C01801E03801E03001E060005
:1019EE000E1C0003F00000000000000000000000CC
:1019FE0000000000000000000000000000000000D9
:101A0E0000000000000000000000000000000000C8
:101A1E0000000000000000000000000000000000B8
:101A2E0000000000000000000000000000000000A8
:101A3E000000000000780000FC0000FC0000FC002C
:101A4E0000FC000078000000000000000000000014
:101A5E000000000000000000000000000000000078
:101A6E000000000000780000FC0000FC0000FC00FC
:101A7E0000FC0000780000000000000000000000E4
:101A8E000000000000000000000000000000001038
:101A9E0064004D00011B4008400820082108211059
:101AAE0021084108410840006000600840006108BC
:101ABE0041006200410041000000296B4E8C000085
:101ACE004100610840004008611800080008000845
:101ADE0080200139E5592A832E9CE8728341022920
:101AEE0040100000400840084108410862084000CC
:101AFE0040004108410041084108000041084000F3
:101B0E004000E120200820086208220062084100FF
:101B1E00410081004000200041084000610841085A
:101B2E002108410820082108410821080000855A93
:101B3E008018200841082110210840084000410863
:101B4E0041082108410821082108610040082008A9
:101B5E00410840084000410841082000E4200000F0
:101B6E000000000000000000000000000000000067
:101B7E000000200000000000200000000000000017
:101B8E0000002010801800000000000000006431EA
:101B9E00EA6A611885414752C962AC8B886AA028EF
:101BAE000008000862418341A441A120000000000A
:101BBE00000000000000A118000000002008000036
:101BCE000000200800000000B194096B000800001E
:101BDE0000000000000000000000000020000000D7
:101BEE000000200000000000000800082010001077
:101BFE0000080000000819EF623100080000000024
:101C0E0001000000000000000000000000000000C5
:101C1E0000000000000000000000000000000000B6
:101C2E0000000000E31800000000000000000000AB
:101C3E000000000000000000000000000000000096
:101C4E0000000000000000000008A030A351201882
:101C5E000008000002214431064AC549265A4A733B
:101C6E00C43900000008000000084139824941498A
:101C7E004249A4490008000800000008401000294D
:101C8E0049734A7B675A0652C5494339A120000859
:101C9E000008A02000080000000800100239A4412E
:101CAE00633940180008000000000000000000002A
:101CBE000008478B08AC09A4C57200080008000094
:101CCE000000000000000100000000000000000005
:101CDE0000000000000000000000000000000000F6
:101CEE00000000000000000000000000E3180000EB
:101CFE0000000000000000000000000000000000D6
:101D0E0000000000000000000008000000080008AD
:101D1E00CC8B34EEEFC44EACA449A441022905523B
:101D2E000452255AA349201000004008000000006C
:101D3E00200883416141404900414149055AA76A43
:101D4E0024528DA4A98B888390CD13DE4562A349BE
:101D5E00C451A349465AC86A8762875AA86263313A
:101D6E000008214121410039424123398120811847
:101D7E0000000000000800080452A79B84A3639B88
:101D8E00E8A3656A43390000000000080008000857
:101D9E0000000000000000002000200000000000F5
:101DAE000000000000000000000000000000000025
:101DBE0000000000E318000000000000000000001A
:101DCE000000000000000000000000000000000005
:101DDE00000000008018C028255AAA930FC5CA9B80
:101DEE000783A028898353E653E6445A044AC5392B
:101DFE00E22000000321200060084139604923627F
:101E0E008572078350CDA472C47A28A408A46ECD1F
:101E1E00015A6028856AA15160496149E0304C94AD
:101E2E00287349732552254A086B446281496141E2
:101E3E00213964492439CF830000A020A349001022
:101E4E00E77AC7A3A5A3A5A3869B688B8249001832
:101E5E004041468BA89B268B60490010000800006D
:101E6E000000200020000000000000000000010023
:101E7E00000000000000000000000000E318000059
:101E8E000000000000000000000000000000000044
:101E9E00000001000000000000000000E5492239AA
:101EAE002139A038A99B0AAC0683C030D2D56FD594
:101EBE0090D550BDB3BD2E8CE218022163298F94AC
:101ECE00865A898B2BA4C572067BC251646AA47A8A
:101EDE00669327AC0BC5AFD552E6C993B1CD888BAF
:101EEE00888B698B4DA4CEA4E3410008CB83C762D7
:101EFE006D9C99FFE67282496241213900100008FB
:101F0E0000086241C251246A236A41722493859B60
:101F1E0008AC00410020847AE8A3E7AB48B407ACD4
:101F2E00E8A3A672001000002100000000000000CF
:101F3E000000000001000100000000000000000091
:101F4E0000000000C31800000000000000000000A8
:101F5E000000000000000000000000004208000029
:101F6E0000000231465A42394241C038E782E9A3A5
:101F7E00C58260288A9334EE75F6A7622229C110B5
:101F8E0000000000497399FF90C5468363622A944E
:101F9E0054D655D60C8CF1DD8AB42CC5AECD57FF78
:101FAE006039E030003940492041214180204231E2
:101FBE00CB7B34D671BDC76AA020E030A249424126
:101FCE0001318241C76A4139C349A028846A4372EC
:101FDE004372627AE1696793846A0010856AA79BEF
:101FEE0089BC8ED5AED56CCD89B4E9A3004100086D
:101FFE0000080008000800080000000000000000B3
:10200E00000000000000000000000000E3180000C7
:10201E0000000000000000000000000000000000B2
:10202E00000000000000A539C12860204883C030A0
:10203E00C0380041ADBC2AAC2ECD488B0018625181
:10204E0021410008C1180000C43971B554D6E66AA2
:10205E0047832A9C74E66C9400000000A018C028E8
:10206E00EEB453E657FF0C8C401020310352E3516F
:10207E00E451E6518020801000000008697BAFA477
:10208E0038F750BD03520008A86214D60352A57249
:10209E00646A025A636A427222722172ACC424626A
:1020AE0000106020ADB4E7A36CD571E675FFD1F6D4
:1020BE004CC5E8A3C57A0010465A8B8B4A83C128BB
:1020CE0000080000000000000000000000000000FA
:1020DE0000000000E31800000000000000002000D7
:1020EE002000000020000000000062100429C549F5
:1020FE00C0288893ECBC458B458BAAB469AC48A428
:10210E006DD5E8ABE9A30010000800080000A75A3F
:10211E0039F7CA83E02810B52D94C028E028E020B6
:10212E00E120601000000008000802294010643110
:10213E000321000860102231023100080000000067
:10214E006008A118C120A120000877FFE56A4A7B2C
:10215E00875A0008477B2683C47A226A837A227ABA
:10216E00227A437AE68A856A6A830010E67A07A4A1
:10217E00ACD512F774FF13F7AED527A4E4828049CD
:10218E00698B288B288BAB93201800080000000069
:10219E00000020000000000000000000E318000016
:1021AE000000000000000000000020000000000001
:1021BE0066314110A12020104CA4668B4CCDAAC4D0
:1021CE000BCDADD56CCD4BC589ACE7AB0CCD235A41
:1021DE00034A002992BD8B7B8018697BD3CD265292
:1021EE00000802312239E0284010000000000000F3
:1021FE000000000000000000200800080000000899
:10220E000008000000000000200000000000000098
:10221E0040100A8C066B0008AC83D3CD02520052DC
:10222E00ECBC4693E58AA482637A437A64720552C3
:10223E00A0202018C77AC7A34BCD70E633F771E6FE
:10224E002BC5E79BA0516BACEAA365720883698B23
:10225E0083410000000000000000000000000000AC
:10226E0000000000E3180000000000000000200045
:10227E000000200081104531000044312010E03074
:10228E004EBDC6932FE6EBC410EEAED5EFDD2FDEBE
:10229E000BBDEAC46DDDCBBC4AACF4F6D1CD000863
:1022AE00C4418662201880204018824981496041CD
:1022BE008241A018884A6B6B4B6B2A6B0963A85A34
:1022CE006752A862C8620A6B2A6B4A6B4B6B8531E8
:1022DE0000000000000000000000000840188120EF
:1022EE0000080010EB8B35F7C78B57FF4BACA1598D
:1022FE004372436A71CD0008000068622DA4879B6B
:10230E0049B42FDED2F62BCDE7A3A6932DC531E629
:10231E000AA4035A6020EC9301290000000000007B
:10232E00000000000000000000000000E318200084
:10233E0000000000000000000000E32061102008F3
:10234E00A2200008A02000318BA491E6D1F6D2F68F
:10235E00AFD54DCD30E6F2F62BBD4CCD69BC49BCA8
:10236E006EDD14FFACAC8A7B064A0E94E128201079
:10237E0002314141A151267BA56A455240082008F1
:10238E0040108239665AE86AE86A0873C76A45528D
:10239E0082392008000802290A63CD7BA85200006A
:1023AE0000000008201040180231E128A241ACA420
:1023BE0072DE2EBDA56A91D56049688BE0300010A3
:1023CE000008013161494051869BAED530E608AC1C
:1023DE0049ACC03097FFF0DD09A4245A6018E549D6
:1023EE0000002000000000000000000000000000BF
:1023FE0000000000E31800000000000000000000D4
:10240E00A6392008653985414752C96A4A7BCEAC48
:10241E00F0CDF6FF95FFD2EE34FF92EE75FF12FF70
:10242E004FE60062A7A38BCCE8B3CBC42AA4055217
:10243E000008811800000008465AE67A0262C1516F
:10244E00E151898370B5F7EE54DEEFB40B94697BDE
:10245E00487329738A7B0C942FB573E6D5EE30B58D
:10246E00E76A0008A0208B7BCC8322312018A0289D
:10247E00A0284239C3492031E25174E6898B40418C
:10248E0075E640412A9C8472C259EA9B74EEA159AA
:10249E00A89B2AACE9A38BB400200010B9FFEFDD96
:1024AE0029A4445AA02000000000000000000000F3
:1024BE00000000000000000000000000E318000013
:1024CE00000000000000853900002329200840107C
:1024DE00601820100010E030AFCDD2EE33F74DC5AE
:1024EE0071E696FF34F7B1EECDD5E06125934AC47F
:1024FE006AC4268BCA93601820080000A5390E8C7A
:10250E00C0200039888B12DE95EEEB8BA241003194
:10251E008020A020A020C020A020C020C020002904
:10252E00C020E0302039445A6DA4F7F6D2CD655A5A
:10253E0000102873EC93C028C028E030E0306141D1
:10254E0081498028B5EEE030203994EE6049ABBC6D
:10255E00C8A363722583C99BA89B4793478B278B80
:10256E00688B00084873B3EE29A40252401820006D
:10257E00000000002000000000000000000000002D
:10258E0000000000E3180000000041086531000063
:10259E00853100008110A1102008801820182B9C76
:1025AE00C893CFD50BC5A9BC4CCDD2E6F2EEB1E6A1
:1025BE000FDE69B4C38A29B44793E772E02020087E
:1025CE0000002F84A4312008487337F7EEACC349BE
:1025DE00A028C128E2280008000020080008254A8B
:1025EE008239C441054A000860102010C02862419B
:1025FE00414101394562D1CD16F7277340180C942D
:10260E002973A028203921416149C251446A2B9C6B
:10261E008DAC003994EE805104832162626A8BB4D2
:10262E002AAC268BE9A3268B0AA440180008804109
:10263E006362888B297B0000000000000000000010
:10264E00000000000000000000000000E318000081
:10265E00410824290000653100008108E2180000BD
:10266E00E1286141EA9B2020668B2CC52BC52BCD22
:10267E0064930FDE0FD695FFCED526AC85A3479378
:10268E000010000800000542CC7B0000E44138EF4A
:10269E000FADE020C020012900080008000800004E
:1026AE00210000000000E9626231865A875A200834
:1026BE0060108118812080208028803083516041F5
:1026CE000152F2D5D5EEE249C249CEAC414141416B
:1026DE0041496151E261E03890CD2BA4A15152E6FF
:1026EE00A0512583048308A4CCBC8BB48BB429AC35
:1026FE00C89B6883A9836FC58049B1D5CFB400004C
:10270E0000000000000800000000000000000000B3
:10271E0000000000E31800006631000003214008AD
:10272E004008C21800002D94A56A058B24938ABC1C
:10273E00E7A3CEDD74FFD1F606A489B44CCD0BC54C
:10274E00C9BC84A308ACC028000800008C7BE541FE
:10275E00000830B5F7E64131E020A118000000086E
:10276E000000000000000000000000000000875A7A
:10277E00A339A65AA66240106018A120A120C12834
:10278E00C128C130E030C030E3516041C67257FFFE
:10279E00ACACA028CDB4246240498151A151236A2A
:1027AE00004132E64683047B4DC5416A258B49B410
:1027BE00ABBCD7FFD3EEC79BE79B49A48ECD4DCDC7
:1027CE002AAC603000100000000000000000000085
:1027DE00000000000000000000000000E31865315A
:1027EE000000E32060100000232900004331045252
:1027FE002683859B27B42CCDEBBC8DCD34FF70EE9C
:10280E0027A4A6A307B4A6A3A69BE8A3E159200874
:10281E0000006F946010000859F76D9C401821312C
:10282E000008274A00000000000000000000000021
:10283E00000020080008054AA341C76AE76A60182D
:10284E00C128C128C1280231E128013101392139BD
:10285E00E0304041035AA149F1D593EE00392BA443
:10286E00C67A8151C159E261468B468B14FF616273
:10287E00EBBCA69BAABC6ABCECC46DCD6DC5299CF5
:10288E00CBB42BC512FFF3FEECC42CA4C86A00080F
:10289E0000000000210000000000200000000000E9
:1028AE0000000000E31800004010C2200000443178
:1028BE000000A2208020A04949AC69B44CCD10DEA6
:1028CE00D0D58AACCBBC69ACE8A34493659BA6A3D8
:1028DE00F0DD655A000800008F8C00004121DAFF00
:1028EE006552C1204010000867520229264A20086E
:1028FE0000000000000040086010401060102652DA
:10290E006A7B086B28738020E128E128E130E128FA
:10291E002139213941390039488340414041025A19
:10292E00A0516BAC77FFC0490A9447830262E269FB
:10293E004272E482416ACFDDEBBC2CC571F6F0ED3C
:10294E0011F6C7A38372EA9336FF2CC591FE2FEEC4
:10295E00ABB48DAC4A7300002000000000000000F4
:10296E00000000002000000000000000E31800003E
:10297E0044290000E220000820084431E0280039F4
:10298E002DBDAED530E6B8FF40396049426AA05140
:10299E00E038EFDD04836AB4025A833980108E94D6
:1029AE00A018A331FBFF81318131200800002F9444
:1029BE00064A0000AC7B00084008601060106010F2
:1029CE008118A1184010054AAB8308736A7BA020BA
:1029DE000131013121394239423941396141A2492E
:1029EE00CA934041C259A151C1590262888BD8FF86
:1029FE00C0492AA40683016A4272627AC37A8ED5CE
:102A0E00AABC659349B408B44ABC669B05832039B9
:102A1E002B9C6AACCBBC089C099CA0202008000013
:102A2E00810800000000000000000000000000000F
:102A3E0000000000E31804290008E54143290000C6
:102A4E00E220E120C862C018E3416783D0DDE2597D
:102A5E000010077B202040208CA4A88B36FF8149D4
:102A6E00404100296D948239C341BAFFE341E341ED
:102A7E00A018A118A2180000EE8BE54120084F9473
:102A8E000008A118A118C220A120C120E1284D9C48
:102A9E004D9C2D944E9C0031413962416141614102
:102AAE006141C2512039ADAC6049E259A151E159A1
:102ABE00E15902628472C89397FF2262ABB4E58239
:102ACE00627A627AC382827AA6A3659BA6AB45A37D
:102ADE0045A386A3058BC57A00206041ADACF1CD30
:102AEE00E2496139A020E220000000000008000049
:102AFE00000000000000000000000000E318821833
:102B0E00000023214000642984316752DDFF6B737E
:102B1E0062310EBD90D5F2DD71CD96EEA35100312E
:102B2E0037F74B9C0A94A5626CA4EA8BE66A414186
:102B3E0079FFC76A455241312229232102210229F8
:102B4E006010D0A48439264AA85AE128E128E12849
:102B5E0002290131E02880188020C028C028414178
:102B6E00414161418249A249C2516041856AA9939E
:102B7E00E259E259E259436A236A0262226A837277
:102B8E006AAC14FFE0594DCD837AC382A382E38AE7
:102B9E00E38AA6AB45A365A386A3659B258B268BEF
:102BAE00436AF6F658FF99FF0029AEAC92C50000B5
:102BBE000000000000000000000000000000000007
:102BCE0000000000E31800084110A11000000219D7
:102BDE0040082752AD83C549CB8BB1D58FD56FD564
:102BEE00B1DD088300202FBDC88BD4EE8041467B1B
:102BFE0093DE0DB56041B4EE4CA46662C449A441A7
:102C0E00C441C43984316331223125522D94455249
:102C1E004D94623921310029E028E349697B8DA466
:102C2E000FB52FB5EEB42C9C077B61496041C251A4
:102C3E00C151E25170CDA151025A436A436A436AAF
:102C4E00436A6472837A837A8272CFDD10E682726F
:102C5E00ECC48282E38A24932493459B449B85A3F0
:102C6E004593827A6593659B879B488B8149C662A3
:102C7E00856233E695EEA43920000000210800009D
:102C8E00000020000000000000000000E318000813
:102C9E00E4280000C11080106010E2200329E23009
:102CAE00CFB491D58FD56FDDB1DD8A93E03836FF85
:102CBE00ECB44683A049425A4DB5215AECB452E6C3
:102CCE0023624662265A465A2652E541054AC541B6
:102CDE00A44141314D948D9C61392131C4498EA45A
:102CEE00B3CDADA4687B856203520252435A277B53
:102CFE006DA434DE74EECA93804923624683436228
:102D0E004262636A436A8472847A647A847AA37AAA
:102D1E00E382A27A14FF28AC28B4C7A304930493C9
:102D2E00459B0393D2FEA28250F6248B248B0BCDAF
:102D3E00659BC99BC2518DAC277B8CACE672801013
:102D4E00A1100000000020000000000000000000A4
:102D5E0000000000E3180000E32000000321000043
:102D6E00A2180000A63900088B83F3DD90DD6FDD1D
:102D7E0012E6035A2B9C4AA4B4EEA151E259678382
:102D8E0066838262B7FFC472E67AA772C872A772B0
:102D9E00876A8862475A26520652C449E86A445ADC
:102DAE000352CFAC11B546624239A249C349C34959
:102DBE00656203520252E351E251A251E2598CACC8
:102DCE0057FFC993C151636A836AA472A472C47A0D
:102DDE00A47AA482C582C382E38A048BC69B96FF23
:102DEE00A27A6DDD0393449B449B249B4CDD89BCEE
:102DFE004CCD89B434FF2BC507A446938CB4A8934D
:102E0E00EA93067BC3492A634429000000000000B0
:102E1E00200000000000000000000000E318C320A6
:102E2E0020080000E2180000A95A0008A020201077
:102E3E0000100BA413E612EE478B602057FF8BA4F5
:102E4E00E993A249077BEEBCC05172E6CBB4E57A9A
:102E5E002683077B288309830983E972C96AC96AB5
:102E6E00475A8762C349487B33D66562C349E551E9
:102E7E00265A05520452245A07736462445A6462F5
:102E8E006462646A646A2362C1596FCDB4F6636A80
:102E9E00A372E47AC47AE582E582E58AE48A048B39
:102EAE00048B2593048BCFE5AEDDC6A3AAC4449B49
:102EBE0085A385A3449BF2FE659350EECAB470EED3
:102ECE000BC5258B016A2AA4D1D54CA4E87200004B
:102EDE0020000000000000000000000000000000C4
:102EEE0000000000E318C2180000E22000004010AD
:102EFE0059FFC572268B09ACC79B404940208028DC
:102F0E00C030A56AB0CD73E6C149401001310783C8
:102F1E00668B35FFE37A458BE99B4BA4488B8A9BE6
:102F2E008A938A8B4A7B097B08736562ADA4ADAC2C
:102F3E00A56A4CA4245A666A45626662A76A455A17
:102F4E00AA8BA66A85626562A56A856AA572A57254
:102F5E00C57A436A879356FFE47AC47A258305833C
:102F6E00258B258B048B659B6DDD2493859B859B23
:102F7E0075FF448B8DDD449BA5A365A3449B50F642
:102F8E00A69B0FE6CABCD2F6EBBCC47AA89B067B06
:102F9E0074E6CFB4A86A200800000000000000000C
:102FAE00000000000000000000000000E318E3181D
:102FBE000000E2200008A12040188272A9C42FEE62
:102FCE008DDD2AA4404100310031EDACECB415FF8B
:102FDE00C56A0010E028436251EEEBC4248B459382
:102FEE002DCDD1DDEDBCA99BEA9BEB9BEB9B8A8B98
:102FFE004983EEB46CA4856AA66A71C5CB93866AC2
:10300E00A66AA76A866AA66A8DA4EB93C56A06733A
:10301E00C672E67A067BC57AE682268BC47A05836B
:10302E0076FF468B058345934593048BECCC4CD5AC
:10303E00A69BCBCC4493659BEFE5ADDD27AC89C455
:10304E00A5A3A6AB65A389BC8DDD69B491F691F6F7
:10305E00EBBC05830041E03830C52883001000002A
:10306E000000000000002000000000000000000032
:10307E0000000000E31881102008A2200000C220EA
:10308E000010C8A3CDE5B5FF13F78AAC836A4039AB
:10309E008141F5EE2EBDC89BA372257B099C45830D
:1030AE0075FF0383859BA7A3E8A3C8A36FCD93EEFB
:1030BE00D0D56BAC4BAC0B9CCEB40FBD48834983C3
:1030CE002983E772F3D54883087B0873087BC66AA9
:1030DE008DAC8DA4C672277BE67227830683478B41
:1030EE000683068B47930583669315FF24836693A9
:1030FE00C7A3EFE5C7A30BCD4CD585A3C6AB85A360
:10310E00E7AB75FF859BADE585A3A6ABA6A3449B58
:10311E00D2FEA6A32FEED2FEEBBC2683A0306051CA
:10312E006893446A6141C439000000000000000049
:10313E00000000000000000000000000E318000086
:10314E000000C2200000C2180008E57AECC471E647
:10315E00CFCD299C225A4B9CEA93D0CD72E6C05912
:10316E00006AEBBCA2724CC5EFDD4493A5A3C7ABBE
:10317E0008AC4ABC49ACECB48ECD11E6CDBCACB4B7
:10318E0012DECA9BEB9BAB938A8B6983ADAC70C589
:10319E00277B077B067BB0CD90C5EDB4E993E57236
:1031AE004783678B478B6793689347936793879B98
:1031BE00669329AC51EE45934DD5C7A3EFED27ACE1
:1031CE00A6A3C6ABC7B3E7B3449BB1FECAC40BD527
:1031DE00C6ABC6B3C6AB44A370FE48BC0BCD4CCD3C
:1031EE00EBC42583A893E5826372647A0783423920
:1031FE0000002000000000000000000000000000A1
:10320E0000000000E31800004008A118000880101C
:10321E000008E030898B2AA409A40262A151F2DDD4
:10322E002EBD0CBD10DEE06162720CCD6172F3FE3C
:10323E0048A4A59BC6AB28B449BC6AC4CBCCCCC4AD
:10324E004ED56FDDCDC452EECCB46DAC2DA40C9C1E
:10325E000C9CEB93688BCDB48FC5299C72E6B3EEB4
:10326E0035FF96FFB7FF15F70DBD2683889388931C
:10327E006793A8A3A8A3A89BC8A36693EFE569B418
:10328E0069B40CCD86A3E7B3C6ABE7BBC7B307B42F
:10329E00C6A36CD570F6E6AB0BDDA6B3A5B385ABB6
:1032AE002CD52BCD4CD528B44ABC46938BB4837AFF
:1032BE0042726372447262490008000021000000ED
:1032CE00000000000000000000000000E3180000F5
:1032DE00200811B515D6C7628018A018602061515C
:1032EE00C0404049C251E259ACB4CFD549AC216A75
:1032FE00459328B4248BD6FF6493C6A307B428BC89
:10330E006AC4AACCCBCC0DCD2ECD2ECD90DD11E640
:10331E00EDBCCEBCAEB48DB44CA42BA40A9CEDB4C3
:10332E0010D691E66DC54DBD10D6AECD30DE55FF33
:10333E00B7FFB3F6E99BA89BC8A3A8A3A8A3C8A3ED
:10334E00E8A3E8A3E7A392F6A69B07AC07B4E7BBF6
:10335E00E7BBE7BBE7BB28B406AC47AC94FF85A33D
:10336E006CE5A6B3A6BB65AB07B40FEE89BCABCCC0
:10337E00A48AC482E48228AC04836793A472A672E2
:10338E00E030000800000000000000000000000017
:10339E0000000000E318000060104E9C34DE13D6CF
:1033AE00A65A687360104139E038A349C25180496A
:1033BE0073EEAFD52583827249B4459BAAC471F6CC
:1033CE006493E6B348BC48C48ACCCACCECCC0DD5C9
:1033DE004ED52ECDB4F64FCD6FD5EECCEEC4CDBCC2
:1033EE008CB4ACB4ACACF1D5B3EE6EC5ECAC4EBD9A
:1033FE00AFCD72E68BB466932DC576FFB3EE29ACD6
:10340E00C8AB09ACE8A308AC08AC28B4E7A3CEDD82
:10341E00A9B407B408BC28BC28BC07BC27BC27BC71
:10342E0027BCA5A332FF68B46CDD86B3A6BB86AB02
:10343E00249BD2FEE7A38ABC058B436AA372ABBC66
:10344E00F3FE72EE6683C151035260102008000035
:10345E00000000000000000000000000E318000063
:10346E004008C028CB932873F7EEA239E762824159
:10347E002039A66A4041225A72EED0DD2162C27A0C
:10348E000BCDE38A8DE58DE585A3E6B327BC49C454
:10349E0069C4EBCCEBCC2DD56ED58ED5B3F66FD5EE
:1034AE004FD56FDD2ED50ECDEDBCACB432E632DE8F
:1034BE00ABACB8FFCBAC6EBD31DE8FD5E9A32AAC79
:1034CE00E89B6AA435FFAFDDE8AB08AC29B449B47C
:1034DE0049B428B428B489B4EEE528BC28C407BC86
:1034EE0028BC27BC47BC27BC27BCA5A370FE2BCD90
:1034FE00EACC07BC86B386AB249BB2FE248B8ED55A
:10350E00468B678B87936AB451EE72EE6683636265
:10351E00A141C34100000000000020000000000097
:10352E0000000000E318E31800006018001843398B
:10353E00223966524010287B88832A9C8783467BDB
:10354E0092E6CFD52062E3822BCDC282B2FEAAC410
:10355E00859B48B427B448BC89C4AAC4EBCC0CCD17
:10356E002DCD52EE11E66FD56FDD6FDD4FD54FD5F8
:10357E000DC5F1DDB3F6EDBCAFD52DBD92E66AA457
:10358E00F0D5AFD56AAC4AAC8AB449ACCBBCB3FE6D
:10359E00ECC44ABC49B429B469BC49B449BC28B48A
:1035AE0030F607B448C428C448C448C448C427C425
:1035BE0027BCA5A38DDD0EEE48B48ACC86AB86ABB8
:1035CE00249B92FEC37AD3FE09A4478B879B058B5F
:1035DE00048BA79BE47A226281498EA4E12800081D
:1035EE00000000000000000000000000E318C118F9
:1035FE00200804298220C2280010E451245290C5CC
:10360E0097FFB7FF299CE028AFC5CED5406A038B44
:10361E00EBC4E38213FF28B485A3C6A307AC69BC31
:10362E0048BCAAC4CBCCCBCC0DD5F4FE6ECD6FD599
:10363E006FDD6FDD6FDD4FD54ECDF5FE11E6ACBC07
:10364E00ECBC6ECD6ECD8FCDF0D510DE6AAC8BB4EA
:10365E008BB48BBC29AC6ECDAFDD6ABC69BC6ABCC9
:10366E008AC489C449BC69C48EED69C449C448C4BE
:10367E0048C428C428BC07BC27BCE6B30BD590F6BB
:10368E00C6A30CD586A386AB249B50F6248311E6E5
:10369E00ACB4468BE582A37AC482A482026A857298
:1036AE0041494141C128000800000000000000000F
:1036BE0000000000E318E11820002B6BA539E2286A
:1036CE0060202139856A55FFF3F692EE8BACA55A30
:1036DE00034AF1DD6272E3822CCDA27A95FF85A3B7
:1036EE0085A389BC27ACE6A348B48ABC6EDD0CD595
:1036FE00CCCCF4FE2DCD6FD56FDD6FDD6FDD6FD5CC
:10370E00D0DDD4FED0DD4ECD0CC5ECC42DC56ECDB6
:10371E000CBDABB4CBBCCBBC49ACE8AB29B46DCDC6
:10372E0010E68ABC8AC48AC48AC469C469C449C4FE
:10373E004CDDEBD428BC69C469C448C428C428C471
:10374E0007BCE7B3A9C4D2FE859B4CDD65A345A398
:10375E00049BEFE58693D0DD468BB0DDCCC4268B83
:10376E00058B437A237203628251414101318018E5
:10377E00000000000000000000000000E3182221FD
:10378E000642232100000231A02821398DAC75FF9D
:10379E00EED548A4E99BA339000873EE006A249382
:1037AE00CBC4C27AB6FF459B65A389BCEEE52FEE6E
:1037BE000FEE71FEEBCCECD48BC4D3FE0DC54ED503
:1037CE006FDD4FDD6FDD6FD552EED4FE8FD54ED54A
:1037DE002DCD2DCD2DCD49AC71EECFDD49AC6AB4DA
:1037EE00CCC4ABC4ABC40BBD0FE60CCDAACC8ABC0B
:1037FE008AC48AC48ACC69CC0BDD0BD5CACC68C40A
:10380E0089C469C469C469CC07BCC7B369C4F3FE73
:10381E00859B4CD565A346A3049B8EDDA693CFD581
:10382E00216209ACACBC32EE068B026AC261CA9B45
:10383E00E87A2041E03080186008000000000000A7
:10384E0000000000E31800006C730321A118423140
:10385E00A028C351EEB454FFCDCD28AC846A044ADF
:10386E00A02032E6417245938ABCC27A95FF449BF2
:10387E00459B27ACA59BA59BA59BA6A38AC4ABCCB9
:10388E008BC492FE0CC52DD54EDD2ED56FDD4ECDE3
:10389E0072EE55FF6ECD6ED58EDD4DD50CCDECC4D2
:1038AE0096FF14FF69B4ECCCCCCCCCCCABC40CC51D
:1038BE0050EEECCC8AC4CAC4CACCAACC8ACCAACC50
:1038CE00EBD40BD5ADE5ADE58DDD6DE54CDD2CE531
:1038DE0049C4A7B348BCF3FE65932CD5459B45A3BD
:1038EE00E49A8EDD8693EFDD2162E8A38BBCB8FFF0
:1038FE00E682A15981598151824920390031C12076
:10390E00400800000000000000000000E3188118CD
:10391E00C220000043310131A249E459604976FFCB
:10392E00AECD08A4E57A80182873D0DD41722493B9
:10393E008ABCA172D6FF249B049BCACC2BCD8DDDF5
:10394E00ADDD8DE5AEED6AC408B492FECBBC2DD5CF
:10395E000DD54EDD6ED56ED552E655FFAFD56ED573
:10396E002DD5F0ED31F669B46DD5EBC4AAC40CD5E6
:10397E00CCCCECD4EBCC2CC591EE0CD5CBCCCACCAC
:10398E00AACCAACCCACC89C40BD50BD56CDDCEE59E
:10399E00ADDD8DDD4CDD6DE549C4A6B349C4F3FE46
:1039AE00448B2CD5459B25A3C492AFE5458BCFDD2B
:1039BE00416A6AAC63724BB46472847AC57A4049C8
:1039CE0041412139E028C12060102008000000008C
:1039DE0000000000E3180329000803316339E028D2
:1039EE00A349A351E038C1512EBD2ECD268B467B67
:1039FE00B4EEAFD54172E382CBC4616AB5FF659B6D
:103A0E00049B249B4493449385A385A3C7B308BC0E
:103A1E0008B430EE8ABCECCCCCCC2ED52ED54DCD08
:103A2E00F0DD55FF10DE31EE72F68EDD4DD56ED522
:103A3E00ECC4ECCC4DD50CD50CD50DD5EBC4EED5D8
:103A4E0070E6EBCCCBD4EBD4CACCCAD4AACCAACCDD
:103A5E000BD5EACC8DDDEEEDADE58EE54DE58EEDCB
:103A6E0049C4A6AB8ACCB2FE448B2CCD259B25A394
:103A7E00A49210EEC37AEFDDE06109A4236A689385
:103A8E000AAC64728472646A40412039E128C12014
:103A9E00601000000000000000000000C31820109D
:103AAE0043396441A028E349245A20412141203959
:103ABE00E0382049605115FF14FFCFDD006AA37A6C
:103ACE00CBBC816A13FFE7AB049B249B449B449BB6
:103ADE00A5A385A3A6ABC7B308B4EFE58ABCABC458
:103AEE00ECCCCCCC2DCD2DCD6ECD75FFF4FE4DCDC9
:103AFE006ED56ED56ED56ED56DD54DD54DD54DD504
:103B0E002CD52DD5EBBCF2F670E6EBCCCBD4EBD4AA
:103B1E00CACCAACCCAD489C4ADE589C469C468BC70
:103B2E0028B428BC07B4E7BBE7B386AB0CD510EEC0
:103B3E0066932DCD0593259BA48A72F6C37A8FD5F5
:103B4E002162A47A8893647A4372437263726372B9
:103B5E002362E030C128A120811820080000000057
:103B6E0000000000C31802310131C4494D9CC24906
:103B7E006141C3592141414120416051C482258395
:103B8E006ECD32EE63726272CBC4A27271EE69BCFC
:103B9E000493E392249B449B449B249BA6ABA6AB2D
:103BAE00C7ABEAC4EBC449BCABCCACCCECCC6ED549
:103BBE00AED530DE34FFCFDD2DCD6ED58EDD4DD5BD
:103BCE008EDD6EDD2DD54DD54DD54CCD30E674FF49
:103BDE00ADD50BD5EBD4EBD4AACCCBD4CAD489C4F7
:103BEE004CDD69CC69CC49C449BC49C428C4C7B3AF
:103BFE0008BC66A38EE58EDD869BABBC0593059354
:103C0E00C48293F625838BB4426A236A236A437A6D
:103C1E002372437242726272847AE038C130A120FC
:103C2E00201061100000000000000000C318601892
:103C3E00E449C351C772E251235A035A4149204104
:103C4E004049847A8372626A8272F2E5A47A427281
:103C5E00EBC482724CCDCEDDC38AE392E392049B19
:103C6E00249B45A3449B85A3A6A307ACAEE528B42D
:103C7E0029BCABC4CCCCABBCECC40CC5B3F6B3F610
:103C8E008ED56DD58ED56DD56DD54DD56EDD4DD50B
:103C9E002CCDAED5B5FFD1F60BC50BD5EBD4CAD412
:103CAE00EBD4AAD4AACCAACC2CDD69CC49CC29C49D
:103CBE0049C408C408C4E8BBC7B3459B72FEABC475
:103CCE0008ACE8AB4693E58AA37A93EE4AA46793D1
:103CDE00226A23724372237A437A2272627A2272A2
:103CEE0064722141812861206118210800000000C2
:103CFE0000000000C3186018C128455AA249E251BD
:103D0E00E259E359E359446AC15963724272216A16
:103D1E002683A893E99B226A4DD5627208A4F3FE0E
:103D2E00C382E492E49A24930393249BE392659BCB
:103D3E00A6A3659BCACCC7AB29B449BC8AC4CBC465
:103D4E00ABC4ECC40CCD92FE51F6AFDD2DCD4DD5EE
:103D5E006ED54DD52DD54CCD50EE95FF95FF4CCD56
:103D6E000BCDEBD4EBD4CACCEBDCAAD48ACC4CDD95
:103D7E00CACC69CC49CC49CC49CCE8C3C7BBC8BB7B
:103D8E00A6AB459B55FF869B0CCD2693E58A258BCE
:103D9E000583D0DD4ECD426A4372068B4372227A82
:103DAE00227A427A227243726472A030A128812054
:103DBE00611800080000000000000000A318A120F8
:103DCE00E128E0306562035A646A03620362E259D5
:103DDE00C99B226A6272416AA793057B6ECDC8A306
:103DEE006693669B827296FFC37AC48AC392C38A15
:103DFE00E38AA282AAC40BCD859B659B28B4AAC474
:103E0E0007AC48BC28BC6AC48BC4ABC4CBC4CCCCF6
:103E1E00F0ED31EEEFE5AEDD4DD56ED5CFE591F699
:103E2E0013FFF2FE0BC52CD50BD50BD50BD5EBD452
:103E3E00CAD4AACCCAD48DE548BC69CC49C428C41E
:103E4E0008C4E8C3E8BBC7B3A7AB08AC35FFE48230
:103E5E000DCDE592E592C4824AAC4AACD0DDE1616B
:103E6E00058B4693EDCC0272437A42724272857A8A
:103E7E00E361A030A128812040100008000000005E
:103E8E0000000000A318A020C1280131E030035A21
:103E9E000BA4E67A446A246AE2618CBCA37A626A55
:103EAE0049A4CBB492EEA059837A4ABC0162D3F6F0
:103EBE008AACC48AA38A828208AC4CD545930CCDB9
:103ECE008ABC049304936DDDA6A3C6AB28BC29BCA3
:103EDE006AC469BCABC4ABC4ABC4EBC46DD5AEDDB8
:103EEE006DD5AEDD71F630EE8EDDEBCC4DDDEBD467
:103EFE00EBD4EBDCEBD4CAD4CAD48ACC4CE5EBCCF5
:103F0E00CACCCACC48BC29C408C4E8C3E7BB86AB3C
:103F1E0066A38EDDAFDD048BEDCCE592C48AA48260
:103F2E00D0DDE47A8FD5E161669B4593258B837A4C
:103F3E006372016AE682EFBCE038A130C1286018D6
:103F4E00601040080000000000000000A218802051
:103F5E00E12801318341035A33E60BA48572446A8A
:103F6E00036A80514ECD86930CBDEFD555FF62721C
:103F7E00016ACCC421628AACB2EE627AA38A2DD5D4
:103F8E0045938ABC0BCDA27A4DD5C7AB0493859BC6
:103F9E002BD5659BC7AB08B408BC49BC6AC46AC4C0
:103FAE008AC4CBC4CBC4EBC40CCD2CCDEBCC0BCD87
:103FBE002CD54DDDEBD40CDDEBDCEBDCCAD4EBDC2D
:103FCE00AACCEBD4CEED89C4EBD4CEEDCEED08BCAD
:103FDE0008BCE8BBE7BBC7B3459BF4FE28AC09ACF5
:103FEE0009B4E592E5924372B4FEE89BA79B627218
:103FFE00E8A310E66DD5E89B258367932049003929
:10400E00C130E1308020A1206010000800000000C7
:10401E0000000000A2186020C128E1304139214182
:10402E0044622362077B2783C99B2AA4878BF4F6FD
:10403E0096FFAAA434FFA793E0612AACE47A41620A
:10404E00B6FFE4828382E8ABECC4A37A49B46DDD9B
:10405E00C28229BC459B039307B469BC65A3A6AB7A
:10406E00E7B328BC08B449BC49BC8AC48AC4AAC4F4
:10407E00AAC4CBCCEBCCEBCC0CD5EBCC0BD50BD567
:10408E00EBD4CBD4EBD4CBD4AACC30FE8AC489C427
:10409E000FF68DE548BCEFF50CDDE7B308B4A6AB23
:1040AE0069C4F3FE048B2DD505930593E592069313
:1040BE008FDDAFD50162869B49B471EE50DE4CC5E3
:1040CE00EBBC6DDD4272A0300A7BA028A0208018C8
:1040DE00401020080000000000000000A210602028
:1040EE00C128C02841396141856A6141C251E67AD1
:1040FE00A5722262089C35FFD7FF8EC5F0D5F0DD84
:10410E00C47AA3726AAC005AAFDD4DD5A37A637A36
:10411E00E9A34DD54593A3828AC48BC4A382E38AB7
:10412E00E39249BC49BC65A386A3C6AB08B408B4E8
:10413E0028BC28BC48BC69C489C489C4AACCCACCD2
:10414E00EBCCCBCCCBCCEBD4EBCCEBD4CACCAACC3B
:10415E00B2FECBCC89C4CACC48BC6DE50FF68AC47E
:10416E00CBCC30FE07B4659B51FEEBCC459B2DDDD1
:10417E000493259BC48A8FDD6793D0DD8272C7A31B
:10418E00CAC40FDED2EED2EECED507A4C89BE0385D
:10419E00A028A028C028611861182008000000007F
:1041AE0000000000A2108018C120633905526D9CDA
:1041BE00EFB4C35140414049A57A068387938FD50A
:1041CE008BB411E6C47AB8FFC0592162ECBC01620F
:1041DE004272D7FFA372837A469B427A869BC8AB04
:1041EE006ABC427AA382A38AE48AE39228BC69BCA1
:1041FE00249BA6ABA6ABC7ABC7AB07B428BC28BCE9
:10420E0049BC69C469BC89C469C4CACCAACCCACC2D
:10421E00CACC89BCEBCCD2FEEACC89CC8ACCAACC57
:10422E0089C489C42BDD4CDDAEED07BCC6B389C491
:10423E00F3FE85A3EBCCC7B346A3259B8382D4FEA6
:10424E00ABB46793A48286A30BD5D1F6B5FF54FF0A
:10425E0010D6099C688301316339097BA028601848
:10426E00201020080000000000000000A2106010C6
:10427E00A018A01842316D9C2C94E351C359A25141
:10428E0081518472EDBCC89B8372A3724ECD15FF13
:10429E00ACB4E059A47A09ACC0594EC5F0DD6272D7
:1042AE00A3822AB425936BBC21728382A382A3823C
:1042BE00A38AC48AC38AA7AB2CD565A365A3A5A37D
:1042CE00E6ABC7ABC6ABE7B3E7B308B449BC69BC52
:1042DE0069BC69BC89C489BC48BC0FEEF2FEA9C496
:1042EE0089C4CACC89C489C4A9CC68C469C44CDD4C
:1042FE0007B428BC85AB71FE4CD5659B8EE566A3D5
:10430E0086AB259B8BBCCBBC52EE226AA48286A3C5
:10431E00CACC0EE6F2F6D3EECCA4A1416139012946
:10432E0063394662C0308128411820080000000021
:10433E0000000000A2184008A1180129E02825520B
:10434E00413962412041614920418CB460510AA437
:10435E00E5828372678B2AA497FFA059C061CCBCFB
:10436E000162E16197FF4693827A2272479B227225
:10437E00637A627A827A637AC4828382E48AC38A97
:10438E00E38A8AC4AAC485A3449B65A3A6A3A6A355
:10439E00E7AB08B4C7ABE7B348BC28B428B48DDD8F
:1043AE0074FF6CDD48B489C489C489C4A9C468C4C7
:1043BE0048C468CC28C4EBD4EACCC6AB4CDD91FE25
:1043CE0085A32CD528BC86ABA7AB259355FFABBCDC
:1043DE008BBCE169C8A3469BC7AB2BCD30E6E56A23
:1043EE004031C3395AEFE120C120E03060288128E6
:1043FE00411800080000000000000000A318601023
:10440E006010E120A0208339013141414141214119
:10441E000883605102628893C57A4FCDA89BA4721F
:10442E00B4F66BB4E161636A6BB4C059879355FF00
:10443E004272637A437A2372437A6272837AA47ADF
:10444E006372627ACCC4469BC38AE392459BAACC24
:10445E00CACCA9C428BCC7AB86A386A3E7B348BC05
:10446E000BD50FEE91FE8DDD07ACC9C448B468BC08
:10447E0068BC68BC48BC68C448C469CC48C448BC65
:10448E0007B447B412FF48BC07B4AEEDA6AB08B4F0
:10449E00669B258B869B08AC2272C48AABC4A38212
:1044AE00869B07AC8ED56041A0208339C118222986
:1044BE004010E028E1308128411821100000000052
:1044CE0000000000C318200840104F94C441013171
:1044DE00E03021390039E459A2518151404922621C
:1044EE00E99BF5FE88930EBD636A77FFC159C159EA
:1044FE000AA4A47AA0514ECD51EEE1692272437AFC
:10450E004272427242724272016ACCC4669BA7A387
:10451E00A3822493C38AE392039385A328BCAAC4DF
:10452E000CD54DDD2CD50CD569BCC6AB85A3A5A38A
:10453E00C6AB2BD5CDE5E6A347BC27BC48C448C4C3
:10454E0028C4E7BB48C427BCC5AB90FE8CDDA5A331
:10455E00AEEDC7B308BCE38AA27AC79B4593E48A43
:10456E00627AE48A679B8AB40CC5C6A36693C2516D
:10457E004018C128601800082231423902398120C2
:10458E00812020080008000000000000C318000869
:10459E006010A120E128C028013121396241A249D1
:1045AE00204160496049A572E67AE67A02620262AB
:1045BE00E99B32E672E6805180592ECDC059A05942
:1045CE0093F60DCD016A02722272226A226A426A43
:1045DE00E582E9A3CCC4C0696ABCC38AA38AE4920B
:1045EE00E4920493E392E38AE38A048B2493459B3B
:1045FE00459B65A3A5A3A6ABA6A385A34CD58DDD30
:10460E00A5A307B407B427BC07BC48BC27BCA5A309
:10461E000FF62FEEA5A30BD5CBD408BC0493E38ADB
:10462E006593458B669B627A627AE48AA37A55FF1C
:10463E00EBBC4493048BA572C028A34900088020CC
:10464E006662A349E130C1286018611800000000BD
:10465E0000000000C31800084010064A4B7BE128FA
:10466E00C03022414241213941416141A149E151CC
:10467E00E259604943626049A993C572F5FE09A4E7
:10468E00E059226AACBC8051A05935FF8AB4016A48
:10469E002272226A0262A0590DC52AAC226A469382
:1046AE00E9AB227A8382A38AC38AC38AA382AAC46D
:1046BE00859BEBCC038B0493459B459B449B85A329
:1046CE0085A365A3A6AB8ACC4CDDA5ABE6ABC6AB8A
:1046DE0007B4C6B385A3CEED2FF6E6AB48BCAEE568
:1046EE00C6ABC7B3C38A048BA69BA69BC382627A52
:1046FE00E492058B4593858B2CC5A6A3E7A3478330
:10470E00035AEA93A151EA93C35162492139E02831
:10471E00C02060102008000000000000E3182008F0
:10472E0040108118E228C028E130013101392139C9
:10473E002139A2494041C2514041A151035A614918
:10474E008149C1512039878B25836051A47A2AACC7
:10475E006051E15935FFCBBCE161226AA1598CB49D
:10476E00668B2AAC0583C9A3637A0272427A637A96
:10477E008382A48A827AABC4C382AEDDA282E49223
:10478E0004930493449B249B249B449B249B49C4E5
:10479E00E7B348BC85A3C6AB85A3449BCEED30F6EC
:1047AE00649BE6ABEEEDA6ABE7B3459BE38A28AC84
:1047BE00458B45934172C48A2593637A66938AB476
:1047CE0007A44493827A0DBD225A099CACB4A15120
:1047DE00E259614941412131C02060104010000072
:1047EE0000000000C3180000401060186018C128B7
:1047FE00E128E1300139013921394141277B856AB0
:10480E00035A6149A151A572E25927836462025A83
:10481E006BAC4AACA47AE58287934049C059B3F693
:10482E00D0D5C161847A80518BB48793436A0AAC28
:10483E00C16123722272437A437A637A637A6ABCC5
:10484E00827AECCC6593C382A38AE4920493C492D9
:10485E00049B0493249B249BEBD4039365A3249382
:10486E00659B30F6CEE54493C6A3AEE5A6A3A6ABF4
:10487E00C7AB869BC7A330EE8ABC827A827A059339
:10488E0083820593C482048BE38AC38AABBCAFD503
:10489E00F7FF92F608A46272E161815161494139D4
:1048AE00C02080182008000000000000E31800005F
:1048BE0040088018C120C128E128E128E1304239A2
:1048CE008241C35175E68DACE359C359A251B1D59E
:1048DE0091CDE038035A40418CAC6ECD468BA89BEF
:1048EE00E9A3A89B204980498FCDD4FE4372426A2A
:1048FE000162C47A436AC57AC161026A026A22728F
:10490E002272637A016A6BBCA37AA79B29B4827A5E
:10491E00A382A38AA38AC38AC392C38AE392E39231
:10492E00459B04930493C7ABB2FEEBCC048B65930B
:10493E00AEE5659B659BA6A3659B49B4E8A3F0E530
:10494E00A7A3048B669BC482E48A058B627A427AA3
:10495E00A38A0593C7A3B2F6D6FF34FFAABC669B03
:10496E002272E26181514141E028A120000800003D
:10497E0000000000E3182000400840108018C120FD
:10498E00C128C128E13001312139A3498662E351A2
:10499E0061494149456A856A277BA2514141A67208
:1049AE00204197FFCBB4A37A268B2BA40A9C4041BF
:1049BE004041678B57FF8BB4C159226AE161805128
:1049CE00C161026AC161026AE1692272E1614AB49F
:1049DE00837A258B8BBC21726382627A8382A38257
:1049EE008282C48AA38AC38AC38AE38A2DD592FEA1
:1049FE00A69BC3826693AEE5E38A459B45A32593AA
:104A0E00ABBCB2FE08AC048B8382C48A679B058B59
:104A1E00A79B05936382838263820172ABBCEFDD39
:104A2E0054FF91F669B4627AA4822372A25962414C
:104A3E00012981180008000000000000E32000009A
:104A4E00200881188018C120A028C128E130E1304B
:104A5E0021312131A3492039414162492141E3519C
:104A6E004141824941490362B5F6C572B7FF8BB425
:104A7E00426AC57AC993ADBC60512041A0516FCD39
:104A8E0016FFA893C159226A0262A059C161C16181
:104A9E00E161E169A059CCC4C9A3058BC8A3016A21
:104AAE004272637A627A6272827AA3828282A3826D
:104ABE008ABC92FEEBC4827A827AE8AB0CCDA382DA
:104ACE00E48A059B0493048BE7A328AC048B827ABB
:104ADE008382C48A679B76FF46934272427A8382B0
:104AEE00427A09B4E48A68B489BCE7AB6ABCA38293
:104AFE00637A437A03628249E12860180008000055
:104B0E0000000000042100002008601060188020C2
:104B1E008020C128C1280231C028003141392139F5
:104B2E0041410141424921414141A2494041856AE9
:104B3E002FC52BA4204177FFEDBC0162C47AC57A44
:104B4E008CB4267B0039E038236A90D5F5FEACB4E0
:104B5E006372C059226A226A026AC061C0596051EA
:104B6E00A57AE261C161C161637A2272637A62726F
:104B7E004172258BCBC472F6ECC4827A006A827ABB
:104B8E000DD5C8A3427A8382E492A38205938693BD
:104B9E008AB4869B4272058BC8ABC482879B4AB48B
:104BAE00058B837A637A83824693627A827AE6AB46
:104BBE00239304938382A7A3427A627A226AA2493C
:104BCE00A0204010000000000000000004210000A2
:104BDE00200840104018A120A120A120C128C128E2
:104BEE000131E128013101310039224101392239E7
:104BFE0042412141E35960496149A6728151E03039
:104C0E0094EE73EE436A8472436A856ACDB4025A97
:104C1E00E038C038C1592BA494F674F68CB4268BA8
:104C2E00436AE161C1590262C159E159C1596372C6
:104C3E00B0DDC8A34693ABBCF1E5D0E509A4416A4B
:104C4E00E061216A29ACCCCC427A2172A3828282A5
:104C5E00006A4ED5E8A3869B42722272427209B454
:104C6E00A382637A058B42722593427A0593C7A37A
:104C7E00627A627A048B659BC38AE492C492A38A99
:104C8E000493627A226AC249601800080008000084
:104C9E0000000000042100000000200860106118D0
:104CAE008118A120A120C128C128E128E1300131BD
:104CBE0001310139213921392139214121416149FE
:104CCE002041E040E459C3516020ADACB5F6889365
:104CDE008472A151E038898B6DA4035AC038C03854
:104CEE00A030E359AA930FC533EED5FE53EEF1DD96
:104CFE00B0D5B0D5D0DD31E631E68FD5ACB4A893C2
:104D0E0064728159E269016AE482258BE482E16969
:104D1E00E2714BBCAFDD28A430E6F4FEA8A301720D
:104D2E002272447AE58AA382627AC482637A4272DC
:104D3E00A382427A058B87A3C382A3820593E48A5A
:104D4E00C48AC492A38A828AA38A837A64726241D5
:104D5E0040100008000000000000200004210000A8
:104D6E00000020084008611081188118A120A020A1
:104D7E00C128C128E128E130E13001310131213172
:104D8E000131013901394141404121410039E45994
:104D9E008A8B4020A572F6FEEEC46472C030E030FD
:104DAE00E030087B4DA44A8342418028A030402049
:104DBE008028C0306049035A235A435A025A804908
:104DCE00E0382041C159E159C1594472E68AE58261
:104DDE006272216AE061E269C1618BBCAFD5F0D528
:104DEE00F3F6C89B016A0272437AC68A4372637AEB
:104DFE008FDDA482A47A4272C48A837A627A417267
:104E0E00A282C48AC58AA48AC48AC492A38AA38AA7
:104E1E008382837A85720139201000000000000021
:104E2E00000041080421000000000000200840108E
:104E3E00601081188018A020A020A128C128C128A8
:104E4E00E128E1300131E130E0280139C772698390
:104E5E0061418249E3514049C259CB9B60282049A8
:104E6E002FCD94F6E57A4041C028C028802082419B
:104E7E006A83EB8B8A83C76AC349802080204018DF
:104E8E006020802060184020C038C1598472C57AD5
:104E9E0006836472E161E161E161016A6372A159A5
:104EAE00E26132DED4EED0CD2262E161E169647A54
:104EBE004893026A0262A47AACB4268B268BC89BF6
:104ECE00A89B42724272427A838283826382838279
:104EDE008382638283828382637A6472656A00103E
:104EEE0000080000000000000000811003210000F7
:104EFE000000000020084008601060108018801824
:104F0E00A020A120C128C128C128C128E128023132
:104F1E00E130A02862418241614192C5CA93C259D3
:104F2E00E2610BA4EB9B41514051CDBCD5F670C54F
:104F3E0065622039C028401860180031A662E0284A
:104F4E0046522A736B7B6B7B8B7B6A7B6A7B14DE90
:104F5E0014E6D2E5847A404960518059A05102622C
:104F6E000162C059C1596CACB9FF54DE0773A14937
:104F7E00A151A059C482A47AC161A47A0EC50EC5EE
:104F8E00468BA05909A4B8FFA893C482E58A427241
:104F9E00427A427A638283826382437A8482647223
:104FAE006472A672A0280008000000000000000035
:104FBE000000C218E32000000000000000002008DE
:104FCE00400860106010801881188120A120A12057
:104FDE00A120C128C128C128A128E130A028A028DD
:104FEE006241E3598572A159E261E57A636AA99B30
:104FFE00AA9B277B8DA4C86A56DEF3DD4362E57A51
:10500E00257B67834A9CC249000800000000000807
:10501E0000080008EB93D2DD90DD70D512EEA15999
:10502E00A159C159A1594049226A67934AACCEB4DD
:10503E00487B2131A02020182041EEBCA893A05916
:10504E00268BF1EDB0DD8FDDB0E5E9AB889BE99BFA
:10505E00B8FFACBC068BA57A847A43722372237296
:10506E0043726472446A2462824940182010000020
:10507E0000002000000000000000E320E318000004
:10508E0000000000000000002008400840106010E2
:10509E0060188018811881188120A120A1208020FD
:1050AE00C128A120A020C228A0208249C259026294
:1050BE00A0518051E58212E6B1DDF3DD29830010A7
:1050CE000010E0388CB48FD52DC5ECB44A9C267BED
:1050DE002452C020E22803210229CB8B91CD0ECD84
:1050EE000ECD0ECD6FD5E67A4049A572C99B8BB415
:1050FE000AA4478B446A0039A028000840180C9C6B
:10510E00D3DD0262A051E159F1E590DD4FD56EDDA0
:10511E006ED58CBC026A477B70C52883A251A259FA
:10512E008251A251A151615161492041A0284018DC
:10513E0060182010000000000000000000000000B9
:10514E0000000421E3180000000000000000000031
:10515E0000002008200840104010601060106118F8
:10516E00601881188118801880186018A120C1203D
:10517E0080182131E351A2510362E2590EC590DD30
:10518E0050D54FDDD2E592D56149C159678BC88B99
:10519E0011D6B7FFAFC52DBD8CAC287BAB8B0D8C5C
:1051AE00ED8BEB9312DEF1ED90E533F6F1DD0A9C1B
:1051BE00E67AC572ADB4E67A81516149E038A2490A
:1051CE00245A446234E6D2DD90DDEDCCC161404913
:1051DE00EA9BB0DD6FDDAFDDB0DD2CAC2020802092
:1051EE00E86A0C8C6018A0208020C028C028802877
:1051FE006020802060186010000020080000000071
:10520E00000000000000000000002421E320000048
:10521E000000000000000000000000000000200858
:10522E0020082008401040104010401060108118D7
:10523E006010601880188010801040100031A24954
:10524E002041A03012E670D58FDD4FDDD1ED857A8D
:10525E00A159C57A678BCCAC4EB56FB56EBD6AA43D
:10526E0009A4A993A249865AE449E251636AB0E5BA
:10527E0090E533EE2CA4A030E0380039E038204120
:10528E0040414249E4594C9CF6F6846AEEBC70D516
:10529E0090DDB1E5EAAB0031A241F3DDD2DDD2DD26
:1052AE0033E6E0306339401043314010C1188118A5
:1052BE0081188018601060186010401020080000DF
:1052CE0020000000000000000000000000000000B0
:1052DE002000242103210000000000000000000037
:1052EE000000000000000000200800000000200860
:1052FE000008000820082010201020084008200870
:10530E000008001000100010287B44626CACF0DD29
:10531E0072F64FDDF2ED61510041637A63724FC553
:10532E0012CEF1C5B0C576FFE482A151E03040182F
:10533E0080208472879B869B268B8151A0304141B1
:10534E002141656A8A8B20416983E451E3510352FE
:10535E00477B646ACAA3D1E553F670DDCEBC8018D4
:10536E00400800084C7BEA724131C65A37E76A732F
:10537E00000000080000200020002008200820085F
:10538E00000000000000000000000000000000000F
:10539E0000000000000000008110E3200421000046
:1053AE0000000000000000000000000000000000EF
:1053BE0000000000000061108218200800000000AC
:1053CE000008000000080000E5416983E772001044
:1053DE0059FF697BE0302FBD12DED1DD288B4041B5
:1053EE004041236A8372EA936C9CEDAC0994E89B6E
:1053FE006693A572866AE86A087BA89B86A308B4A2
:10540E00C89B2462E451414121416349A3498EA4C2
:10541E004239A0206018244ABAFFC3512CA4F2DDF1
:10542E00B1DD13E6087BA43927422329A21881187F
:10543E00875291ADC23160100008000000000000DC
:10544E00000000000000000000000000000000004E
:10545E00000000000000000000000000000000003E
:10546E008210032103210000000000000000000054
:10547E000000000000000000000000000000C21844
:10548E00308C0000000000000000000890A44331A2
:10549E008339C6722BA44CA4CEAC0973A020433121
:1054AE0042310131AEAC8141A241A249C67268833C
:1054BE000A94E993A372416AE4820039E259856A3B
:1054CE00C993A79B659B48B455FF4883E0300039CC
:1054DE0021412241434163394331C1206431E541C9
:1054EE00675284392231AB83CB8BA34152B5D4BDE5
:1054FE00A018E0206231E549C020E4498018000080
:10550E000008000000000000000000000000000085
:10551E00000000000000000000000000000000007D
:10552E000000000000000000C2180321E32000006C
:10553E00000000000000000000000000000000005D
:10554E000000000000000000000020080000000025
:10555E0000006018D9E6C5416018C251278353E692
:10556E00F3CD8441074A032964314231A3412129F5
:10557E00413101314239C76A0873277BA88B678B8B
:10558E002041E2512B9C91CD468BE7A3A5A369B494
:10559E00AFD585624139C251414942414339022951
:1055AE00E2202429C2206429C2188639C22060183C
:1055BE00E1206331ED8393B52029A01899FFA762EE
:1055CE00C028E549E2288220611861100008000019
:1055DE0000000000000000000000000000000000BD
:1055EE0000000000000000000000000000000000AD
:1055FE00E3180321E3180000000000000000000083
:10560E000000000000000000000000002000200844
:10561E006108A2180321E320E32003218110611009
:10562E008118A028255A4B9C6039A75AC1206B734C
:10563E004A73423943390221C120E220E228C220B6
:10564E0023292231865A045A4041C3490873287BC4
:10565E008CAC8EDD649BE7A3A472623962394D9CDB
:10566E0000392239E228E2200321C320E32003215E
:10567E000319E3180421E32864396F9C63394652F9
:10568E004231801813CEA6628018C220032915DE7F
:10569E006662C2200321E320A21840080000000029
:1056AE0000000000000000000000000000000000EC
:0E56BE00000000000000000003210321E3189B
:1079CD00F582E43583F583E49322EF240FFBE43E47
:1079DD00FAED2417F55BE43CF55A2275F030900270
:1079ED006C125BD5E5822275F09090146C125BD50C
:0379FD00E58222FE
:0C7880008E4F8F508A518B528D828C836A
:10788C00E55024FFFFE54F34FFFEE58224FFFDE5C4
:10789C008334FFFCE5502402FBE4354FFAE58224E7
:1078AC0002F55BE43583F55A127957E4F553AF5280
:0E78BC00AE51127C610553E553C3941040F0A9
:0178CA00229B
:10676800E4F53DF53EF53FF540C3EB9FF542E49E69
:10677800F541C3E5389DF544E5379CF5438E4D8FCB
:106788004E8C4B8D4CD3E5429400E5416480948057
:106798004008754700754801801DE542454170066F
:1067A800F547F548801174FFF547F548C3E495426D
:1067B800F542E49541F541D3E5449400E54364800E
:1067C80094804008754900754A01801DE544454399
:1067D8007006F549F54A801174FFF549F54AC3E496
:1067E8009544F544E49543F543D3E5429544E543A0
:1067F8006480F8E5416480984008854145854246B3
:106808008006854345854446E4F53BF53CE546244A
:1068180001FFE43545FED3E53C9FE53B9E4003027E
:1068280068AEAB3AAA39AD4CAC4BAF4EAE4D127810
