:10327F00060A0000000000000114000110010415EF
:10328F0000000000041900000000011200010901F4
:09329F00011100010800011300F7
:0B34E9001234CB122C4C122F5180FB30
:09353C008F80C2A5D2A5D2A722FE
:10338000E4FDFCC3ED9FEC9E5014E4FBFA0BBB0084
:0E339000010AEBF44A70F60DBD00010C80E559
:01339E00220C
:0A350A00C2A7D2B2C2A612353C22BD
:0434DB0012350AFF9D
:0A34DF00C2A7D2B2D2A612353C22D9
:102C4C00D2B37FC87E00123380C2B37F207E0312C2
:102C5C003380D2B3123380C2A77F367E0012350A7E
:102C6C007FC81234DF7F3A12350A7F051234DF7FBA
:102C7C00FE12350A7FEF12350A7FE212350A7F8089
:102C8C001234DF7FA312350A7F071234DF7FA412C0
:102C9C00350A7F091234DF7FFF12350A7F12123496
:102CAC00DF7FFD12350A7F041234DF7FF512350AFF
:102CBC00E4FF1234DF7FFB1234DB7FF112350A7F25
:102CCC00551234DF7FF812350A7F221234DF7FF37E
:102CDC0012350A7F521234DF7FFA12350A7F251221
:102CEC0034DF7FF41234DB7FFC1234DB7F111235BE
:102CFC000A7F781233807F2912350A7F32023380A3
:1031B2008F828E837F2A7E0012350AE583FF1234C6
:1031C200DFAF821234DFEAFF1234DFAF031234DFE3
:1031D2007F2B12350AECFF1234DFAF051234DFE524
:0F31E2004BFF1234DFAF4C1234DF7F2C02350A63
:10344B00AD07AC06C2A7D2B2D2A6ECFF8F80C2A545
:08345B00D2A58D8012353E223E
:0431F1008E218F227A
:1031F500754B00754CDB7BAF7A00E4FDFCFFFE12DE
:1032050031B2E4FB900000AF22AE2112344BA3E5AE
:103215008264B0458370F00BBB00010AEB64DC4AA5
:0232250070E255
:013227002284
:10001E00C6D50000000000E0380000783C00003C2F
:10002E007800003C70C0001CE1E01FFFFFF0001CD8
:10003E00E3000E1CE7C0079CE78003DCEF0003DC47
:10004E00EE0001DCFC60009CF9F07FFFFFF8000081
:10005E00000001C00E0001FFFF0001C00E0001C034
:10006E000E0001C00E0001FFFE0001C00E0001C017
:10007E000E0001C00E0001FFFE0001C00E0001C007
:10008E000E0000000000D6D00000000000070000A7
:10009E0000078000000700000007000000070000B6
:1000AE00000701801FFFFFE01FFFFFE01E0701C0DA
:1000BE001E0701C01E0701C01E0701C01E0701C09A
:1000CE001E0701C01FFFFFC01FFFFFC01E0701C09C
:1000DE001C07018000070000000700000007000059
:1000EE0000070000000700000007000000070000E6
:1000FE00000700000007000000000000BFC600005F
:10010E00000000000780003C07C001FC07803FE0B4
:10011E00078039C1C78001C0E78001C0F78001C0E8
:10012E00778001DE77807FFE078001C0078003C3E2
:10013E00C78003E1E78003F8F78007FCE7F00FDEE6
:10014E0067F80FDC07F81FC0FF801DDFE78039CC92
:10015E00078071C0078061C0078001C0078001C0A1
:10016E00078001E0078001E0078001C00700000062
:10017E000000BCBC000000000380300003C03C0047
:10018E0003C03C0003C0380003C0380003C0386011
:10019E0003F838F07FFFFFF003C0380003C03800CB
:1001AE0003C0380003DC39C003FFFFE007E383C060
:1001BE003FC183C07FC1C3803BC1C78003C0EF0076
:1001CE0003C0EF0003C07E0003C07C0003C07C00B0
:1001DE0003C0FE003BC3EF803F8787F80FBF03F8D5
:1001EE00077800E000000000C4EA0000000000C034
:1001FE00000001F0000001E0000003C000C003C0D9
:10020E0001E007FFFFF00703C0000E03C0001E034E
:10021E00C0003C03C3007303C78063FFFFC00383AA
:10022E00C0000383C0000383C0000383C0000383A8
:10023E00C0600383C0F07FFFFFF80003C00000031F
:10024E00C0000003C0000003C0000003C000000394
:10025E00C0000003C0000003C00000000000D4C2B4
:10026E00000000000000000000E0070000FFFF801B
:10027E0000F0078000F0070000F0070000F0070014
:10028E0000F0070000FFFF0000FFFF0000F0070076
:10029E0000F0070000F0070000F0070000E0070084
:1002AE0000FFFF0000E0070000E0070000E007008D
:1002BE0001E0070001C0070001C00700038007002E
:1002CE000780F7000F007F001E001F0038001C0083
:1002DE0000000000C8D50000000000000000030070
:1002EE00030003FFFF8003FFFF80038007000380EE
:1002FE0007000380070003800700038007000380C8
:10030E000700038007000380070003FFFF00038040
:10031E0007000380070003800700038007000380A7
:10032E000700038007000380070003800700038097
:10033E00070003FFFF000380070003800700038010
:10034E0007000300000000000000D0C700000000FE
:10035E00000000000380070003FFFF8003800700FA
:10036E00038007000380070003FFFF0003800700E0
:10037E000380070003FFFF0003FFFF000387070052
:10038E000387C00003C7810003C7838007FFFFC038
:10039E00070780000F0780001E0786001C078F00CE
:1003AE003BFFFF807007800000078000000780E0A1
:1003BE00000781F07FFFFFF8000000000000000042
:1003CE00C6DA0000000006000000079E0000079E2F
:1003DE007FF0079E7FF0079FF8F03FFFF8F01F9E1B
:1003EE0078F0079E78F0079E78F007FE7FF0079E64
:1003FE0078F0079E78F0079E70F007FE70F0079E6B
:10040E0070F0079E7FF0079FFFF03FFFF0F0119016
:10041E0070F003DCF0F003DEE0F0078FE0F00F0F7A
:10042E00E0F00E07C0F01C038FF0380F03E0201C25
:10043E0001C00000000000000000000000000000ED
:10044E00000000000000000000000000000000009E
:10045E00000000000000000000000000000000008E
:10046E000000000000000000000000000000070077
:10047E00070007000700070002000200020002004A
:10048E000200020000000000000007000700070045
:10049E0000000000000000000000066006600CC0B6
:1004AE001980110022000000000000000000000072
:1004BE00000000000000000000000000000000002E
:1004CE00000000000000000000000000000000001E
:1004DE0010401040104010407FE07FE01040104070
:1004EE00208020807FE07FE0208020802080208080
:1004FE0000000000000000000000000002000200EA
:10050E000F801AC032C032C032001A000E0007002F
:10051E000380038002C032C032C032C012800F008E
:10052E0002000200000000000000000000000000B9
:10053E0070C050808880890089008B008A005FC05F
:10054E00754006200A200A201A201220114021C0D0
:10055E00000000000000000000000000000000008D
:10056E001C00260026002600260025C0388030807C
:10057E0058804900CD00C700C600C300652038C0B2
:10058E0000000000000000000000300038000800ED
:10059E0008001000600000000000000000000000D5
:1005AE00000000000000000000000000000000003D
:1005BE00000000000000000000000020004000804D
:1005CE00018001000300030006000600060006007D
:1005DE0006000600060003000300010001800080F3
:1005EE00004000200000000000004000200010002D
:1005FE00180008000C000C0006000600060006009D
:10060E000600060006000C000C0008001800100082
:10061E00200040000000000000000000000000006C
:10062E00000002000200020072703AE00F800F809C
:10063E003AE07270020002000200000000000000AA
:10064E00000000000000000000000000000000009C
:10065E0000000000020002000200020002007FF013
:10066E000200020002000200020000000000000072
:10067E00000000000000000000000000000000006C
:10068E00000000000000000000000000000000005C
:10069E0000000000000000000000300038000800DC
:1006AE0008001000600000000000000000000000C4
:1006BE0000000000000000000000000000007FE0CD
:1006CE00000000000000000000000000000000001C
:1006DE00000000000000000000000000000000000C
:1006EE0000000000000000000000000000000000FC
:1006FE000000000000000000000038003800380044
:10070E00000000000000000000000020006000401B
:10071E0000C00080008001000100020002000600FF
:10072E000400040008000800100010003000200033
:10073E00600040000000000000000000000000000B
:10074E000F00198030C030C0606060606060606013
:10075E00606060606060606030C030C019800F0003
:10076E00000000000000000000000000000000007B
:10077E00020006003E000600060006000600060007
:10078E0006000600060006000600060006003FC032
:10079E00000000000000000000000000000000004B
:1007AE001F00218040C060C060C000C00180018079
:1007BE000300040008001040204040407FC07FC06E
:1007CE00000000000000000000000000000000001B
:1007DE001E002300618061806180018003000E0095
:1007EE000180008000C060C060C060C021801F001A
:1007FE00000000000000000000000000000000806B
:10080E00018003800380058009800980118021808A
:10081E00218041807FE0018001800180018007E01E
:10082E0000000000000000000000000000000000BA
:10083E003FC03FC020002000200020002F0031804C
:10084E0020C000C000C060C060C0418021801F0079
:10085E00000000000000000000000000000000008A
:10086E00078018C030C0300020006000678068C06C
:10087E0070606060606060602060304018C00F0083
:10088E00000000000000000000000000000000005A
:10089E001FE03FE0304020802080008001000100FA
:1008AE000200020002000600060006000600060016
:1008BE00000000000000000000000000000000002A
:1008CE001F8030C060606060606070403CC00F0090
:1008DE00338020C0606060606060606030C00F80F8
:1008EE0000000000000000000000000000000000FA
:1008FE000F00308030C0604060606060606060E01B
:10090E0031601E60006000C000C0308031801E006B
:10091E0000000000000000000000000000000000C9
:10092E0000000000000000000700070007000000A4
:10093E000000000000000000000007000700070094
:10094E000000000000000000000000000000000099
:10095E00000000000000000000000600060000007D
:10096E00000000000000000000000000060006006D
:10097E000200040000000000000000000000002043
:10098E00004000800100020004000800100020005A
:10099E00100008000400020001000080004000204A
:1009AE000000000000000000000000000000000039
:1009BE00000000000000000000007FE000000000CA
:1009CE00000000007FE000000000000000000000BA
:1009DE0000000000000000000000000000002000E9
:1009EE0010000800040002000100008000400020FA
:1009FE0000400080010002000400080010002000EA
:100A0E0000000000000000000000000000000F8049
:100A1E0030C0406040606060606000C001800600D1
:100A2E00040004000400000000000E000E000E0082
:100A3E0000000000000000000000000000000000A8
:100A4E0007801C601020335026D06490649068900C
:100A5E006890699069A066C03010302018400780F9
:100A6E000000000000000000000000000000000078
:100A7E00060006000E000B000B0013001180118003
:100A8E0011801F8020C020C020C020606060F0F068
:100A9E000000000000000000000000000000000048
:100AAE00FF00618060C060C060C060C061807F0078
:100ABE0060C06040606060606060606060C0FF80C9
:100ACE000000000000000000000000000000000018
:100ADE0007E01860302030202000600060006000C9
:100AEE0060006000600060203020304018800F00F1
:100AFE0000000000000000000000000000000000E8
:100B0E00FE00618060C060C06060606060606060B8
:100B1E00606060606060606060C060C06380FE00A6
:100B2E0000000000000000000000000000000000B7
:100B3E00FFC06040602060006000610061007F00C7
:100B4E006100610060006000602060206040FFC0B6
:100B5E000000000000000000000000000000000087
:100B6E00FFC060C0602060206000610061007F00F7
:100B7E006100610060006000600060006000F000D5
:100B8E000000000000000000000000000000000057
:100B9E000F4018C030403040200060006000600000
:100BAE00600063F060C060C030C030C018C00F007D
:100BBE000000000000000000000000000000000027
:100BCE00F0F06060606060606060606060607FE058
:100BDE006060606060606060606060606060F0F0E7
:100BEE0000000000000000000000000000000000F7
:100BFE003FC00600060006000600060006000600BE
:100C0E0006000600060006000600060006003FC0AD
:100C1E0000000000000000000000000000000000C6
:100C2E000FF0018001800180018001800180018030
:100C3E00018001800180018001800180018001809E
:100C4E00618063003E000000000000000000000014
:100C5E00F3E0608061006200620064006C007C0062
:100C6E007600670063006380618060C060E0F1F031
:100C7E000000000000000000000000000000000066
:100C8E00F0006000600060006000600060006000C6
:100C9E006000600060006000602060206040FFC067
:100CAE000000000000000000000000000000000036
:100CBE00F0F070E070E070E0596059605960596072
:100CCE005A604E604E604E604E6044604460E4F088
:100CDE000000000000000000000000000000000006
:100CEE00E07070207020582058204C20462046205E
:100CFE004320432041A040E040E040604060E020BF
:100D0E0000000000000000000000000000000000D5
:100D1E000F00198030C030406060606060606060BD
:100D2E006060606060606060304030C019800F00AD
:100D3E0000000000000000000000000000000000A5
:100D4E00FF8060C06060606060606060606060C016
:100D5E007F80600060006000600060006000F00056
:100D6E000000000000000000000000000000000075
:100D7E000F00198030C0304060606060606060605D
:100D8E006060606060606E60324031C011800F80C4
:100D9E0001E000C0000000000000000000000000A4
:100DAE00FF8060C0606060606060606060C07F00F7
:100DBE006600630063006180618060C060C0F07097
:100DCE000000000000000000000000000000000015
:100DDE001F2030E060206020600070003C000F009B
:100DEE0003C000C0006040604060606070C04F8013
:100DFE0000000000000000000000000000000000E5
:100E0E007FE04620861086100600060006000600CB
:100E1E0006000600060006000600060006000F008B
:100E2E0000000000000000000000000000000000B4
:100E3E00F0706020602060206020602060206020C4
:100E4E0060206020602060206020602030401F8085
:100E5E000000000000000000000000000000000084
:100E6E00F8F070603040304030403080188018808C
:100E7E00188018800D000D000D000F0006000600F2
:100E8E000000000000000000000000000000000054
:100E9E00F7706620662066406640674037403740F0
:100EAE003B803B803B803B8039801100110011005C
:100EBE000000000000000000000000000000000024
:100ECE0079E030C01880188019000D000E00060061
:100EDE00060007000B000B801980118030C079E0EE
:100EEE0000000000000000000000000000000000F4
:100EFE00F8F0706030403080188018800D000D00C2
:100F0E000E000600060006000600060006001F8002
:100F1E0000000000000000000000000000000000C3
:100F2E003FE020C041C001800380030003000600A3
:100F3E0006000C000C0018001820382030407FC02E
:100F4E000000000000000000000007E004000400A4
:100F5E000400040004000400040004000400040063
:100F6E000400040004000400040004000400040053
:100F7E00040007E000000000000000000000200058
:100F8E001000100010000800080004000400040007
:100F9E0002000200010001000100008000800040FC
:100FAE00004000400020000000003F000100010052
:100FBE00010001000100010001000100010001001B
:100FCE00010001000100010001000100010001000B
:100FDE0001003F0000000000000007000D801040DF
:100FEE0000000000000000000000000000000000F3
:100FFE0000000000000000000000000000000000E3
:10100E0000000000000000000000000000000000D2
:10101E0000000000000000000000000000000000C2
:10102E0000000000000000000000000000000000B2
:10103E0000000000FFF00000000030003800080043
:10104E00080010006000000000000000000000001A
:10105E000000000000000000000000000000000082
:10106E000000000000000000000000000000000072
:10107E00000000000000000000000F8030C030C0F3
:10108E0007C01CC030C060C060C060C071D03EF0F0
:10109E000000000000000000000000000000100032
:1010AE007000300030003000300033803CC03860BB
:1010BE0030603060306030603060304038C02F803B
:1010CE000000000000000000000000000000000012
:1010DE00000000000000000000000F003180318091
:1010EE0061806000600060006040304030800F0022
:1010FE0000000000000000000000000000000040A2
:10110E0001C000C000C000C000C01EC031C030C051
:10111E0060C060C060C060C060C020C031E01E8092
:10112E0000000000000000000000000000000000B1
:10113E0000000000000000000000078018C01060D2
:10114E0030603FE030003000300018201C40078037
:10115E000000000000000000000000000000000081
:10116E0003C006600C600C000C007FC00C000C006D
:10117E000C000C000C000C000C000C000C003F804E
:10118E000000000000000000000000000000000051
:10119E00000000000000000000000F70199030C029
:1011AE0030C030C019801F0030003E001FC060608C
:1011BE00606070E01F800000000000000000100062
:1011CE0070003000300030003000378038C030C042
:1011DE0030C030C030C030C030C030C030C079E018
:1011EE0000000000000000000000000000000000F1
:1011FE00060006000000000000003E00060006008B
:10120E0006000600060006000600060006003FC0A7
:10121E0000000000000000000000000000000000C0
:10122E00018001800000000000000F80018001801D
:10123E000180018001800180018001800180018098
:10124E00018033003E00000000000000000010008E
:10125E007000300030003000300033C031003300F9
:10126E00320036003E003B0033003180318079E0A1
:10127E00000000000000000000000000000002005E
:10128E003E000600060006000600060006000600E8
:10129E0006000600060006000600060006003FC017
:1012AE000000000000000000000000000000000030
:1012BE0000000000000000000000EEE077606660B5
:1012CE006660666066606660666066606660F7703F
:1012DE000000000000000000000000000000000000
:1012EE000000000000000000000073803CC030C011
:1012FE0030C030C030C030C030C030C030C079E0F7
:10130E0000000000000000000000000000000000CF
:10131E00000000000000000000000F00198030C027
:10132E006060606060606060606030C030C00F0000
:10133E00000000000000000000000000000000009F
:10134E0000000000000000000000778038C0306010
:10135E003060306030603060306030C038C0378010
:10136E00300030007C000000000000000000000093
:10137E00000000000000000000001E4031C030C020
:10138E0060C060C060C060C060C020C031C01EC000
:10139E0000C000C003E000000000000000000000DC
:1013AE0000000000000000000000F9E01A601C00C0
:1013BE001800180018001800180018001800FF0078
:1013CE00000000000000000000000000000000000F
:1013DE00000000000000000000000FE01860302048
:1013EE0030001C000F8001C02060206030C03F80A4
:1013FE0000000000000000000000000000000000DF
:10140E000000040004000C000C007F800C000C0097
:10141E000C000C000C000C000C000C400C40078063
:10142E0000000000000000000000000000000000AE
:10143E000000000000000000104071C030C030C03D
:10144E0030C030C030C030C030C030C039E01E8037
:10145E00000000000000000000000000000000007E
:10146E00000000000000000000007CF03860184012
:10147E0018400C800C800C8007000700070002004B
:10148E00000000000000000000000000000000004E
:10149E0000000000000000000000F7B06320632091
:1014AE006720372035C039C039C039C01080108050
:1014BE00000000000000000000000000000000001E
:1014CE00000000000000000000007DE01880198080
:1014DE000D000E00060007000B00198011C07BE006
:1014EE0000000000000000000000000000000000EE
:1014FE00000000000000000000007DE03880188031
:10150E0018800D000D000D000600060002000400FC
:10151E000400280038000000000000000000000059
:10152E00000000000000000000003FC0218023806A
:10153E000300070006000E000C201C2018603FC0A0
:10154E00000000000000000000000000000000008D
:10155E00000000000000000000000000000000007D
:10156E00000000000000000000000000000000006D
:10157E00000000000000000000000000000000005D
:10158E00000000000000000000000000000000004D
:10159E00000000000000000000000000000000003D
:1015AE00000000000000000000000000000000002D
:1015BE00000000000000000000000000000000001D
:1015CE00000000000000000000000000000000000D
:1015DE0000000000000000000000000000000000FD
:1015EE0000000000000000000000000000000000ED
:1015FE0000000000000000000000000000000000DD
:10160E0000000000000000000000000000000000CC
:10161E0000000000000000000000000000000000BC
:10162E0000000000000000000000000000000000AC
:10163E00000000000000000000000000000000009C
:10164E00000000000000000000000000000000F894
:10165E00000386000703000E01800C01C01C00C0B1
:10166E001800C03800E03800E0380060700070707C
:10167E0000707000707000707000707000707000FC
:10168E00707000707000707000707000707000707C
:10169E003800603800E03800E01800C01C00C00CB4
:1016AE0001800E018006030003860000F800000092
:1016BE00000000000000000000000000000000001C
:1016CE00000000000000000000000000000000000C
:1016DE0000000000000000000000000000000008F4
:1016EE000000180000380007F8000038000038002D
:1016FE0000380000380000380000380000380000C4
:10170E00380000380000380000380000380000387B
:10171E0000003800003800003800003800003800A3
:10172E000038000038000038000038000038000093
:10173E003800003800003800007C0007FFC00000B1
:10174E00000000000000000000000000000000008B
:10175E00000000000000000000000000000000007B
:10176E00000000000000000000000000000000FC6F
:10177E00000307000C03801801C01801C03800E0F8
:10178E003800E03800E03C00E03C00E01C00E000E7
:10179E0001C00001C0000380000380000700000E9E
:1017AE0000001C0000380000700000E00001C000C6
:1017BE000380000300000600200C0020180060309B
:1017CE0000602000C07FFFC07FFFC07FFFC0000011
:1017DE0000000000000000000000000000000000FB
:1017EE0000000000000000000000000000000000EB
:1017FE00000000000000000000000000000000FCDF
:10180E00000307000603800C01C01C01C01C00E091
:10181E001E00E01E00E00E00E00000E00000C00030
:10182E0001C0000180000300000E0000F800000F50
:10183E00000001800000C00000E0000060000070A9
:10184E000000701800703C00703C00703C00603866
:10185E0000E01800C00C018006070001FC0000002B
:10186E00000000000000000000000000000000006A
:10187E00000000000000000000000000000000005A
:10188E000000000000000000000000000000000347
:10189E0000000700000700000F00001F00001700E7
:1018AE0000370000270000670000C7000087000116
:1018BE008700030700020700060700040700080759
:1018CE00001807001007003007006007007FFFF8C0
:1018DE007FFFF80007000007000007000007000068
:1018EE00070000070000070000078000FFF8000057
:1018FE0000000000000000000000000000000000DA
:10190E0000000000000000000000000000000000C9
:10191E0000000000000000000000000000000FFFAB
:10192E00E00FFFE00FFFE0080000080000080000D5
:10193E000800000800001000001000001000001049
:10194E00FE0013FF001703801C01C01C00E01800EE
:10195E00E00000F0000070000070000070000070E9
:10196E001800703C00703C00703C00603800E018BD
:10197E0000E01801C00C018007070001FC00000008
:10198E000000000000000000000000000000000049
:10199E000000000000000000000000000000000039
:1019AE000000000000000000000000000000007EAB
:1019BE00000183800303800603C00C03C01803C01C
:1019CE0018000018000038000030000030000070D1
:1019DE000000707E0071FF807783C07601C07C00AE
:1019EE00E07800E070007070007070007070007031
:1019FE007000703000703800703800701800601C75
:101A0E0000E00C00C006018003830000FC00000013
:101A1E0000000000000000000000000000000000B8
:101A2E0000000000000000000000000000000000A8
:101A3E0000000000000000000000000000001FFF7A
:101A4E00F01FFFF01FFFE01C00601000C030008090
:101A5E0020018020010000030000020000060000AB
:101A6E000400000C000008000018000018000030F0
:101A7E000000300000700000600000600000E00018
:101A8E0000E00000E00000E00001E00001E00001E5
:101A9E00E00001E00001E00001E00000E0000000D5
:101AAE000000000000000000000000000000000028
:101ABE000000000000000000000000000000000018
:101ACE00000000000000000000000000000001FE09
:101ADE00000703800E01C01C00E01800E038007003
:101AEE003800703800703800703C00701E00E01F27
:101AFE0000E00F81C007E38003FE0003FE00063FF7
:101B0E00000C0F801C07C03801E03801E07000F0B7
:101B1E00700070700070700070700070700070381F
:101B2E0000E01800C00C01C007030001FC0000001B
:101B3E000000000000000000000000000000000097
:101B4E000000000000000000000000000000000087
:101B5E00000000000000000000000000000001F87E
:101B6E00000706000C01001C01803800C03800C0C0
:101B7E0030006070006070006070007070007070F7
:101B8E0000707000707000F03800F03801F03C0307
:101B9E00701F0E700FFC7003F0700000600000E00C
:101BAE000000E00000E00000C00001C00C01801E3B
:101BBE0003801E03001E06000E1C0003F000000032
:101BCE000000000000000000000000000000000007
:101BDE0000000000000000000000000000000000F7
:101BEE0000000000000000000000000000000000E7
:101BFE0000000000000000000000000000000000D7
:101C0E00000000000000000000000000007800004E
:101C1E00FC0000FC0000FC0000FC0000780000004E
:101C2E0000000000000000000000000000000000A6
:101C3E00000000000000000000000000007800001E
:101C4E00FC0000FC0000FC0000FC0000780000001E
:101C5E000000000000000000000000000000000076
:061C6E0000000000000070
:0A351400F582E43583F583E4932289
:0C304C008E3E8F3F8A408B418D828C832A
:10305800E53F24FFFFE53E34FFFEE58224FFFDE562
:103068008334FFFCE53F2402FBE4353EFAE5822485
:1030780002F54CE43583F54B1231B2E4F542AF4129
:0E308800AE4012344B0542E542C3941040F0B6
:013096002217
:1025B800E4F52CF52DF52EF52FC3EB9FF531E49EB0
:1025C800F530C3E5279DF533E5269CF5328E3C8F23
:1025D8003D8C3A8D3BD3E5319400E530648094809E
:1025E8004008753600753701801DE53145307006A5
:1025F800F536F537801174FFF536F537C3E49531B4
:10260800F531E49530F530D3E5339400E532648054
:1026180094804008753800753901801DE5334532CE
:102628007006F538F539801174FFF538F539C3E4CB
:102638009533F533E49532F532D3E5319533E53208
:102648006480F8E5306480984008853034853135F9
:102658008006853234853335E4F52AF52BE53524B3
:1026680001FFE43534FED3E52B9FE52A9E400302A3
:1026780026FEAB29AA28AD3BAC3AAF3DAE3C1230A2
:102688004CE531252DF52DE530352CF52CE5332598
:102698002FF52FE532352EF52ED3E52D9535E5347A
:1026A8006480F8E52C6480984018E52D9535F52D63
:1026B800E52C9534F52CE537253DF53DE536353CDB
:1026C800F53CD3E52F9535E5346480F8E52E648034
:1026D800984018E52F9535F52FE52E9534F52EE51C
:1026E80039253BF53BE538353AF53A052BE52B70AE
:0626F80002052A0226651E
:0126FE0022B9
:0E2D0C008E358F368C378D388B398A3A893B5D
:102D1A00AB39AA3AA93B1220277003022DB024E04E
:102D2A00F542E536240FFBE43535FAE5382417F584
:102D3A004CE43537F54BAD38AC37AF36AE351231DA
:102D4A00B2E4F54175F030E54290044412213EE5C3
:102D5A00822541123514754300F544E4F540E544F3
:102D6A0030E706AF3DAE3C8004AF3FAE3E12344B77
:102D7A00E54425E0F544E54333F5430540E540C322
:102D8A00940840DA0541E541C3943040B7740125FF
:102D9A003BF53BE4353AF53A74102536F536E43519
:062DAA0035F535022D1A7B
:012DB0002200
:0E2DB1008E338F348C358D368B378A388939C6
:102DBF00AB37AA38A9391220277003022E5524D019
:102DCF00F540E5342417FBE43533FAE536242FF5C7
:102DDF004CE43535F54BAD36AC35AF34AE3312313F
:102DEF00B2E4F53F75F090E54090164412213EE5B0
:102DFF0082253F123514754100F542E4F53EE54258
:102E0F0030E706AF3BAE3A8004AF3DAE3C12344BD9
:102E1F00E54225E0F542E54133F541053EE53EC388
:102E2F00940840DA053FE53FC3949040B7740125FD
:102E3F0039F539E43538F53874182534F534E43577
:062E4F0033F533022DBF34
:012E5500225A
:1034A600E52D25E0242EF8E6FE08E6FFEA25E024D1
:0334B6002EF822CB
:0B34F400C2A1D2A3D2A2D2A1C2A32287
:1033DC00C2A1E4FEEFC4131313540124FF92A2EF15
:0B33EC0025E0FFC2A1D2A10EBE08E93F
:0133F70022B3
:1032F500E4FFFEC2A1FDFCEF25E0FFEE33FED2A107
:10330500C2A1A2A0E43342070DBD00010CED640C7F
:033315004C70E415
:013318002292
:022B8A00AB0797
:102B8C00C2A1C2A3E4FAAF031233DC752D06D52D16
:102B9C00FDD2A10000C2A100001232F51234B2A67F
:102BAC000608A6070ABA0ADED2A3E4FAEA04F52D4F
:102BBC00E52DC3940A50381234A6E6FC08E6C39FF0
:102BCC00EC9E50271234B2E6FE08E6FFE48F458EE9
:102BDC0044F543F5421234A6A60608A607AF45E510
:102BEC002D25E0242EF8A64408A607052D80C10A41
:102BFC00EA640970B7E4F545F544F543F5427A0209
:102C0C001234B2E6FE08E6FFE4FCFDE5452FFFE5D5
:102C1C00443EFEED3543FDEC35428F458E448D43ED
:102C2C00F5420ABA08DAAF45AE44AD43AC42E47B98
:0F2C3C0006FAF9F812316E8F458E448D438C42A3
:012C4B002266
:102AC3001234F47FD0122B8A8E238F247F90122B03
:102AD3008A8E298F2A7FD0122B8A8E258F267F906C
:102AE300122B8AAD07AC06D3E5249526E52395255D
:102AF300400EE5249526F528E5239525F527800D39
:102B0300C3E5269524F528E5259523F527D3E52A5E
:102B13009DE5299C400CE52A9DF52CE5299CF52B88
:102B2300800BC3ED952AF52CEC9529F52BD3E528DD
:102B33009432E5279400500AE52C9432E52B940057
:102B430040037F0022E5242526FFE5233525C31313
:102B5300F567EF13F568E52A2DFFE5293CC313F567
:102B630069EF13F56A5368F0536AF0C3E568946438
:102B7300E5679400400BD3E56A94A0E569940F40A0
:062B8300037F00227F0128
:012B89002229
:10290D00856818856717F516F515E51824D0FFE5C8
:10291D001734FEFEE51634FFFDE51534FFFCE47BB0
:10292D00AFFAF9F81220CBE47B5E7A0DF9F812318B
:10293D006E8F188E178D168C15E4856A1C85691B94
:10294D00F51AF519251CFFE51B34FFFEE51A34FFBA
:10295D00FDE51934FFFCE47BDBFAF9F81220CBE43A
:10296D007B707A0DF9F812316E8F1C8E1B8D1A8CBF
:10297D00197FAEE4D3AB18AA17A916A815FEFDFC56
:10298D000221287F91E4FEFDFCAB1CAA1BA91AA80D
:10299D0019227F87E4A819FEFDFC0221287F3CE463
:1029AD00FEFDFCAB18AA17A916A815C302212875A0
:1029BD00F00A84AFF0E52175F00AA42F22E47F69B7
:1029CD00FEFDFCA815022128E47518AEF517F516C5
:0E29DD00F51522E4751CDAF51BF51AF5192222
:1032A900E510B40109E4FFFE1231F1E4F510122A28
:1032B900C3EF640160051226FF80F3E4F509750880
:0632C90001F511F51422CD
:1034B90012245912280DE4F512F508751101751039
:0234C9000122DE
:10221800E4F522C2A9F514122AC3BF01FAE412296F
:102228000D40031229D57FDA122992D312212840B2
:10223800031229E07F731229804019E47F2D1229A7
:1022480093D3122128400D7F551229A15006E4F599
:1022580021022399E47F3CC31229825016E47F5F50
:1022680012299612298A400B12299F5006752101BE
:10227800022399E47F461229814020E47F69A8154A
:102288001229A45016E47F5F122993122128400BCB
:1022980012299F5006752102022399E47F7312299F
:1022A800814017E47F5F122993D3122128400B1233
:1022B800299F50067521030223991229AA50161244
:1022C8002990122128400EE47FA51229A2500675F4
:1022D8002104022399E47F46122981401B1229CA4E
:1022E8005016122990122128400EE47FA51229A227
:1022F8005006752105022399E47F7312298140173E
:10230800122990D3122128400EE47FA51229A25049
:10231800067521060223991229AA5031E47FAF12CB
:10232800299312212840067F01C00780047F00C03E
:1023380007E47FCD122993C312212850047E01801F
:10234800027E00D0E05E60057521078044E47F4688
:10235800122981401D1229CA5018E47FAF1229930F
:10236800122128400DE47FCD1229A25005752108BD
:10237800801FE47F73122981401CE47FAF122993E8
:10238800D31221284010E47FCD1229A250087521CC
:1023980009752201801C7F371229AC5015E47F187B
:1023A800122993C31221285009750901E4F512D2A4
:1023B800A922E5226401600302221FF522E5141414
:1023C800601E14603B146046146056146061240556
:1023D800706EE521C394035067E56B1229BC801A1F
:1023E800E521C394044006E56B94145053E56B75DE
:1023F800F00A84C3E56B95F02521F56B0514804040
:10240800E521C394065039E56C1229BC800DE56CB2
:1024180075F00A84C3E56C95F02521F56C051480E8
:102428001FE521C394065018E56D1229BC800DE5FF
:102438006D75F00A84C3E56D95F02521F56D0514D9
:1024480012280DE5146406600302221FF514022207
:012458001F64
:102F5100E509B401031232A9E512B401031234B92F
:102F6100122AC3EF6401703D12290D40031229D5C5
:102F7100E47FDA122993D312212840031229E0E5D4
:102F810008B40119E47F731229814011E47F1812FA
:102F910029931221285006751201E4F509E511B4AF
:062FA100010312221822B8
:10309700434C4F434B0031003200330034003500BE
:1030A700360037003800390030004241434B003AC0
:1030B700005345540000000000000000000000001D
:1030C70000000000000000000000000000000000F9
:0930D700000000000000000000F0
:102FA7007A3079B67BFF753CF8753D00E4F53EF560
:102FB7003F227D007BFF7E007F030220017B00759F
:102FC7003AF8753B00E4F53CF53D22E56B75F00AF0
:102FD70084E5F0243022E56B75F00A8424302275ED
:102FE70028F8752900227BFF753C00753D1FE4F525
:062FF7003EF53FFDFC2247
:10245900E4FFFE1231F17BFF7A307997753CFF7505
:102469003DE0E4F53EF53F7D18FC7F2FFE122D0C73
:10247900752600752732122FE67D321225617527E0
:102489005A122FE67D5A122561752782122FE67B93
:102499009B7D827F141225B07526007527AA122FFD
:1024A900E67DAA1225707DD21225707B417D5A7F67
:1024B900411225B07526007527D2122FE67B6E7D55
:1024C900327C007F6E7E001225B87A30799D122FFA
:1024D900AB7F1F1225887A30799F122FAD7D5E124E
:1024E90025927A3079A1122FAD7F7F1225887A3013
:1024F90079A3122FAD7D861225A67A3079A5122FE0
:10250900AD7D861225927A3079A7122FAD7D86127C
:10251900259C7A3079A9122FAD7DAE1225A67A3085
:1025290079AB122FAD7DAEFC7F51FE122D0C7BFFD6
:102539007A3079AD122FAD7DAE12259C7A3079AF04
:10254900122FAD7D3AFC7F7FFE122D0C7A3079B1C6
:10255900122FEDFFFE022D0C7B9B7C007F147E0069
:102569001225B8752600227B9B7C007F147E001201
:1025790025B87526007527D27528F8752900227D9A
:102589005EFCFE122D0C7BFF22FC7F51FE122D0CEE
:102599007BFF22FC7F7FFE122D0C7BFF22FC7F1F1D
:0F25A900FE122D0C7BFF227C007E001225B82233
:1026FF0078217C007A3079BC122FB978247C007A4B
:10270F003079BF122FB978277C007D007BFF7A309C
:10271F0079C2122FBD782A7C007D007BFF7A307939
:10272F00C5122FBD782D7C007D007BFF7A3079C8D4
:10273F00122FBD78307C007D007BFF7A3079CB1271
:10274F002FBD122FDDF521122FD2F524E56C122F9C
:10275F00DFF527E56C122FD4F52AE56D122FDFF583
:10276F002DE56D122FD4F5307A007921122FC47F09
:10277F000A1228057A007924122FC47F1E1227E22D
:10278F007F321227FB7A007927122FC67F46122835
:10279F00057B007A00792A122FC67F5A1227E27F13
:1027AF006E1227FB7A00792D122FC67D64FC7F8273
:1027BF00FE122DB17B007A007930122FC67D64FC9A
:1027CF007F96FE122DB17A3079B8122FED7F7FFEF2
:0327DF00022D0CBC
:1027E2007D64FCFE122DB17BFF7A3079B6753AF822
:1027F200753B00E4F53CF53D227D5EFCFE122DB1F9
:0B2802007B00227D64FCFE122DB12241
:10280D0078237C007D007BFF7A3079CE122FBD7846
:10281D00267C007D007BFF7A3079D1122FBD78297F
:10282D007C007D007BFF7A3079D4122FBD782C7C13
:10283D00007D007BFF7A3079D7122FBD782F7C0079
:10284D007D007BFF7A3079DA122FBD78327C007DE6
:10285D00007BFF7A3079DD122FBD122FDDF52312AB
:10286D002FD2F526E56C122FDFF529E56C122FD44A
:10287D00F52CE56D122FDFF52FE56D122FD4F53206
:10288D00122FA77D38FC7F27FE122D0C122FA77D4E
:10289D0038FC7F47FE122D0C7B007A007923122F16
:1028AD00AD7F111228F97A007926122FAD7F1D12F6
:1028BD0028F97A007929122FAD7F311229037A0078
:1028CD00792C122FAD7F3D1229037A00792F122F0B
:1028DD00AD7D3AFC7F51FE122D0C7B007A007932D2
:0C28ED00122FAD7D3AFC7F5DFE022D0C29
:1028F9007D3AFCFE122D0C7B00227D3AFCFE122D46
:042909000C7B002221
:1034CB00758901758C4C758AD0D2A9D28CD2AF225A
:03000B0002312897
:10312800C0E0C0D0758C4C758AD0E56EC39414404D
:103138002E756E00E56D943B5004056D8023756D0A
:1031480000E56CC3943B5004056C8015756C00E574
:103158006BC394175004056B8007756B00800205DC
:063168006ED0D0D0E03271
:06000300FFC2A10233C39D
:0533BE001233C3D2A18F
:1033C30000000000000000000000000000000000FA
:0933D300000000000000000022CF
:0A351E00D2A01233BEC2A00233C3D4
:0A352800C2A01233BED2A00233C3CA
:0B333D00123430123348AF0512343058
:10334800E4FFD2A11233C330A009EFC394FA5003AB
:083358000F80F4C2A10233C38F
:0A353200D2A01233C3D2A10233C3AA
:10343000E4FEEF25E012000392A01233BE0EBE0898
:0B344000F1C2A11233C3D2A00233C3BB
:10336000E4120003D2A01233C3FED2A11233C3EF82
:0F33700025E0FFA2A0E4334F1200030EBE08EBCE
:01337F00222B
:10349100AC0712351E7FD0123430123348AF0412FC
:0534A100333D02352857
:0233F800AD071F
:1033FA0012351E7FD012333D12351E7FD112343062
:09340A0012334812336012352818
:013413002296
:10346300E56525E02453F8E6FE08E622FED3EF9453
:0734730064EE6480948022E6
:1032CF00123532E4FD7F6B1234917D077F19123472
:1032DF00917D067F1A1234917D187F1B1234917DD8
:0632EF00017F1C02349176
:023254008F1DCC
:103256001233F88F1EE51D04FF1233F8AD07AF1EBB
:10326600EF3395E0EFFEED3395E0FCE42DFFEE3C09
:08327600FE7C007D4012209552
:01327E00222D
:1029EB007F3D123254EF4E70277F3F123254EF4E21
:1029FB00601E7F43123254EF4E60157F45123254E6
:102A0B00EF4E600C7F47123254EF4E60031232CF01
:102A1B00122A8BF566854D53854E54854F5585503F
:102A2B005685515785525885595F855A60855B612C
:102A3B00855C62855D63855E64122A8BF565123455
:102A4B0063FFE56525E0244DF8E6FC08E6FDC39F32
:102A5B00FFEC9E12346F5014123463C39DFFEE9C37
:102A6B0012346F50070565E565B403D20566E5665C
:0F2A7B00C3940340A0E565B403037F00227F01ED
:102A8A00227F3B1232548E4D8F4E7F3D1232548E2E
:102A9A004F8F507F3F1232548E518F527F431232E2
:102AAA00548E598F5A7F451232548E5B8F5C7F4702
:092ABA001232548E5D8F5EE4229D
:10322800758920758B6C758D6CD2ABD28EE4F57276
:10323800756F0AAE70AF71FC7D64122040ED4C7062
:0C3248000A056FE56FB46403E4F56F2223
:03001B00022EE2D0
:102EE200C0E0C0F0C083C082C0D075D000C000C0B6
:102EF20001C002C003C004C005C006C007057205B8
:102F020071E57170020570AE70FFE4FCFD7B607AC2
:102F1200EAF9F8C31221285006757000757100E5B0
:102F220072B46403757200E572C3956F5004D2A344
:102F32008002C2A3D007D006D005D004D003D002AD
:0F2F4200D001D000D0D0D082D083D0F0D0E032F8
:0D000E0012339F7F017E0012347A7FCC22D6
:10347A00D3EF9400EE9400400DE4FD0DBD6EFCEF19
:06348A001F70ED1E80EA38
:013490002219
:10339F00C2B77F677E00EF1F70011EEF4E70F7D22E
:0E33AF00B77E007F04EF1F70011EEF4E70F717
:0133BD0022ED
:10331900C2B70FBF0000D2B70FBF00000FBF000038
:10332900A2B792007E007F08EF1F70011EEF4E705A
:03333900F7A200F8
:01333C00226E
:10341400E4FDFC123319E433FFC43333335480FE28
:0B342400EDC3134EFD0CBC08EAAF0521
:01342F00227A
:1030E000E4FEEF139201EFC313FF30011BC2B70BD5
:1030F000BB00000BBB0000D2B77A007B08EB1B7053
:10310000011AEB4A70F7801BC2B77A007B08EB1BF1
:1031100070011AEB4A70F7D2B70BBB00010A0BBB68
:0731200000010A0EBE08BB0E
:013127002285
:102FFD0012000E1230E07FBE1230E0123414AB0717
:10300D00123414EFFEEBFFFDAC06E4121E77E4FB69
:10301D00FA7980783D121D6C8F768E758D748C7358
:10302D00E4FFFE7D207C41AB76AA75A974A87312CE
:0E303D001D6CE4FBFAF9783F121C7B121EB0EA
:01304B002262
:0B34FF0012000E1230E07F440230E0AB
:101C7400021F1CE86480F8E933E83360110460F063
:101C8400ED33EC337009E8FCE9FDEAFEEBFF2204D6
:101C940060DED3EB9FEA9EE99DE8C2E78CF0C2F7D1
:101CA40095F0400CE8CCF8E9CDF9EACEFAEBCFFB9D
:101CB400121EE785D0F05804700320D5B3E80470F1
:101CC400075002B2D5021F2692D5EC0460F7E4CC8B
:101CD400C0E0C398F8603B94186008400DD0E0FB66
:101CE400021EFEE4FBFAC9FC8028E830E406E4C9DD
:101CF400FBE4CAFCE830E305E4C9CACBFCE85407BA
:101D04006010F8C3E913F9EA13FAEB13FBEC13FCC4
:101D1400D8F130F52FC3E49CFCEF9BFFEE9AFEED67
:101D240099FDD0E0FBEF4E4D4C701222DB03021FF5
:101D340023EC2CFCEF33FFEE33FEED33FDED30E707
:101D4400EB021EFEEF2BFFEE3AFEED39FDD0E0FB79
:101D540050130BBB0003021F26ED13FDEE13FEEF21
:081D640013FFEC13FC021EFE4C
:101D6C00EC4D6011E8497017ED33EC3304600DE471
:101D7C00FCFFFEFD22E933E8330470F8021F1C124D
:101D8C001EE758046009E4CC24815006285009024F
:101D9C001F26284003021F23C0E0EB4A7044B98081
:101DAC0006D0E0FB021F12EF4E701CBD8008EBFF4B
:101DBC00EAFEE9FD80EBE98DF0A4FEE5F0021E558C
:101DCC00E9CDF9EAFEEBFFEF89F0A4FCE5F0CE8952
:101DDC00F0A42EFFE435F0CD89F0A42DFEE435F00F
:101DEC008067EF4E7005BD80D780C3EF8BF0A4AC3D
:101DFC00F0EE8BF0A42CFCE435F0F8EF8AF0A42C78
:101E0C00E5F038FCE433CB8DF0A42CFCE5F03BF88A
:101E1C00EE8AF0A42CFCE5F038F8E433CF89F0A47A
:101E2C002CFCE5F038CF3400CE89F0A42FFFE5F080
:101E3C003EFEE433C98DF0A42EFEE5F039CD8AF0D8
:101E4C00A42FFFE5F03EFEE43DFD33D0E0FB500750
:101E5C000BBB000F021F26EC2CFCEF33FFEE33FE06
:061E6C00ED33FD021EFE35
:101E720075F020800E75F010800575F0087D007EEB
:101E8200007F003392D530D50312211AEC33401073
:101E9200EF33FFEE33FEED33FDEC33FCD5F0ED22F4
:0E1EA200E5F0247EA2D513CC92E7CDCEFF2230
:101EB000EDD2E7CD33EC3392D524814006E4FFFE2A
:101EC000FDFC22FCE4CFCECDCC24E0501174FF8089
:101ED000EDC3CC13CCCD13CDCE13CECF13CF047026
:071EE000F030D5DE02211AEB
:101EE700E9D2E7C933E833F892D5EDD2E7CD33EC41
:071EF70033FC5002B2D522BA
:101EFE00EC30E7100FBF000C0EBE00080DBD000445
:101F0E000BEB6014A2D5EB13FCED92E7FD2274FFF0
:101F1E00FCFDFEFF22E480F8A2D574FF13FC7D8049
:031F2E00E480EF5D
:03000000022E5677
:0C2E5600787FE4F6D8FD758176022E9D91
:101F3100E709F608DFFA8046E709F208DFFA803E92
:101F410088828C83E709F0A3DFFA8032E309F6087F
:101F5100DFFA8078E309F208DFFA807088828C83E7
:101F6100E309F0A3DFFA806489828A83E0A3F6089B
:101F7100DFFA805889828A83E0A3F208DFFA804C75
:101F810080D280FA80C680D4806980F2803380104C
:101F910080A680EA809A80A880DA80E280CA8033B5
:101FA10089828A83ECFAE493A3C8C582C8CCC5832D
:101FB100CCF0A3C8C582C8CCC583CCDFE9DEE780FD
:101FC1000D89828A83E493A3F608DFF9ECFAA9F07C
:101FD100EDFB2289828A83ECFAE0A3C8C582C8CCD2
:101FE100C583CCF0A3C8C582C8CCC583CCDFEADEEB
:101FF100E880DB89828A83E493A3F208DFF980CC4D
:1020010088F0EF60010E4E60C388F0ED2402B40445
:102011000050B9F582EB2402B4040050AF232345EC
:062021008223901F817371
:10202700BB010689828A83E0225002E722BBFE02B7
:09203700E32289828A83E49322EA
:10204000BC000BBE0029EF8DF084FFADF022E4CC84
:10205000F875F008EF2FFFEE33FEEC33FCEE9DEC4D
:10206000984005FCEE9DFE0FD5F0E9E4CEFD22ED93
:10207000F8F5F0EE8420D21CFEADF075F008EF2FDD
:10208000FFED33FD4007985006D5F0F222C398FDCE
:052090000FD5F0EA226B
:10209500C2D5EC30E709B2D5E4C39DFDE49CFCEE66
:1020A50030E715B2D5E4C39FFFE49EFE122040C37E
:1020B500E49DFDE49CFC800312204030D507C3E479
:0620C5009FFFE49EFE22D5
:1020CB00E88FF0A4CC8BF0A42CFCE98EF0A42CFCB4
:1020DB008AF0EDA42CFCEA8EF0A4CDA8F08BF0A432
:1020EB002DCC3825F0FDE98FF0A42CCD35F0FCEB91
:1020FB008EF0A4FEA9F0EB8FF0A4CFC5F02ECD3956
:0F210B00FEE43CFCEAA42DCE35F0FDE43CFC22C2
:10316E00C2D5E830E70FB2D5E4C39BFBE49AFAE48C
:10317E0099F9E498F8EC30E717B2D51231A4122180
:10318E0086E4C39BFBE49AFAE499F9E498F8800389
:10319E0012218630D50DE4C39FFFE49EFEE49DFD13
:0431AE00E49CFC227F
:0E211A00C3E49FFFE49EFEE49DFDE49CFC22D6
:10212800EB9FF5F0EA9E42F0E99D42F0EC6480C82E
:0621380064809845F022CE
:0C213E00A42582F582E5F03583F58322AC
:102E62000234E9E493A3F8E493A34003F68001F269
:102E720008DFF48029E493A3F85407240CC8C33371
:102E8200C4540F4420C8834004F456800146F6DF40
:102E9200E4800B010204081020408090327FE47E1F
:102EA200019360BCA3FF543F30E509541FFEE49335
:102EB200A360010ECF54C025E060A840B8E493A3FC
:102EC200FAE493A3F8E493A3C8C582C8CAC583CA27
:102ED200F0A3C8C582C8CAC583CADFE9DEE780BEDF
:0132A8000025
:10214A0075F008758200EF2FFFEE33FECD33CDCC4C
:10215A0033CCC58233C5829BED9AEC99E5829840CF
:10216A000CF582EE9BFEED9AFDEC99FC0FD5F0D6AC
:10217A00E4CEFBE4CDFAE4CCF9A88222B800C1B9D6
:10218A000059BA002DEC8BF084CFCECDFCE5F0CB14
:10219A00F97818EF2FFFEE33FEED33FDEC33FCEB4D
:1021AA0033FB10D703994004EB99FB0FD8E5E4F908
:1021BA00FA227818EF2FFFEE33FEED33FDEC33FCF5
:1021CA00C933C910D7059BE99A4007EC9BFCE99AE9
:1021DA00F90FD8E0E4C9FAE4CCFB2275F010EF2F2E
:1021EA00FFEE33FEED33FDCC33CCC833C810D7072E
:1021FA009BEC9AE899400AED9BFDEC9AFCE899F869
:0E220A000FD5F0DAE4CDFBE4CCFAE4C8F922FB
:00000001FF
