:1028AC0053455400434C4F434B003100320033002E
:1028BC003400350036003700380039003000424112
:0F28CC00434B000000000000000000000000006F
:102772007BFF7528F8752900E4F52AF52B227D00E8
:102782007BFF7E007F01022118D3E51C9473E51BB9
:102792009400227528F875290022C3E51C943CE5B3
:1027A2001B940022D3E51C9446E51B940022C3E54A
:1027B2001E945FE51D940022C3E51E9491E51D94CD
:1027C2000022C3E51E94AFE51D940022E51E948706
:1027D200E51D940022E51C9469E51B940022E51E88
:1027E20094A5E51D940022E51E94CDE51D940022DA
:101BC90078087C007A2879CF12278078097C007AF6
:101BD9002879D0122780780A7C007D007BFF7A283B
:101BE90079D1122784780B7C007D007BFF7A2879D4
:101BF900D2122784780C7C007D007BFF7A2879D368
:101C0900122784780D7C007D007BFF7A2879D41215
:101C19002784E4F50EF50FF510F511F512F5137893
:101C2900147C00FD7BFF7A2879D5FE7F06122118E6
:101C3900E4F51AF51BF51CF51DF51EF51FF520E554
:101C49000E2430F508E5122430F50CE5132430F59F
:101C59000D1225687F057E001228FFE4FFFE122879
:101C6900757B007A00790C1227747DAA7F481220AF
:101C79000A121FCEE5206401706AFFFE12287575ED
:101C890000007500967B96E4FDFCFFFE1200007BC8
:101C9900007A0079081227747F141220027B007AD7
:101CA9000079091227747F241220227A00790A12F6
:101CB90027747F2E1220227A00790B1227747F3E17
:101CC90012203E7A00790C1227747F4812203E7A3E
:101CD90000790D1227747D5E7F5812200AFC7F7FE0
:101CE900FE122628E51F64016003021E0FFFFE1283
:101CF90028757BFF7A2879B07528FF7529E0E4F506
:101D09002AF52B7D18FC7F2FFE12262875260075D3
:101D190027321227957D32121FBF75275A12279530
:101D29007D5A121FBF7527821227957B9B7D827F63
:101D3900141220367526007527AA1227957DAA1236
:101D49001FD67DD2121FD67B417D5A7F4112203684
:101D59007526007527D21227957B6E7D327C007F10
:101D69006E7E001222987A2879B61227727F1F1286
:101D790020027A2879B81227727D5E121FEE7A281E
:101D890079BA1227747D5E121FCE7BFF7A2879BC3F
:101D99001227747D8612202C7A2879BE1227747D29
:101DA90086121FEE7A2879C01227747D86121FF8D1
:101DB9007A2879C21227747DAE12202C7A2879C428
:101DC9001227747DAEFC7F51FE1226287BFF7A28EC
:101DD90079C61227747DAE121FF87A2879C812279E
:101DE900747D3AFC7F7FFE1226287BFF7A2879CA08
:101DF90075280075291FE4F52AF52BFDFC7F6FFE78
:101E0900122628E4F51F1223DFEF64016003021C88
:101E19007D85541B85551CE51C24D0FFE51B34FE2C
:101E2900FE7C007DAF1221577C0D7D5E1221698EEB
:101E39001B8F1C85561D85571EE4251EFFE51D3485
:101E4900FFFE7C007DDB1221577C0D7D701221691C
:101E59008E1D8F1ED3E51C94AEE51B9400400675BC
:101E69001B00751CAED3E51E94DAE51D94004006EF
:101E7900751D00751EDA12278B400DE51E9418E5B5
:101E89001D9400500375200112278B401DE51E94F7
:101E99002DE51D94005013E51E9455E51D94004051
:101EA900097414251AF8E4F6051A12279C5013121E
:101EB90027B0500E1227CE40097414251AF876015E
:101EC900051A1227A640181227D750131227B05007
:101ED9000E1227CE40097414251AF87602051A1233
:101EE900278B40131227B1500E1227CE40097414C4
:101EF900251AF87603051A12279C50131227BA508F
:101F09000E1227E040097414251AF87604051A12EE
:101F190027A640181227D750131227BA500E122796
:101F2900E040097414251AF87605051A12278B4022
:101F3900131227BB500E1227E040097414251AF812
:101F49007606051A12279C50231227E940047F01BF
:101F590080027F001227C450047E0180027E00EEB9
:101F69005F60097414251AF87607051A1227A64026
:101F7900181227D750131227C4500E1227E9400907
:101F89007414251AF87608051A12278B401312279C
:101F9900C5500E1227E940097414251AF876090567
:101FA9001A85140885150985160A85170B85180CD5
:061FB90085190D021C7DDC
:101FBF007B9B7C007F147E0012229875260022FCEA
:101FCF007F7FFE122628227B9B7C007F147E0012CF
:101FDF0022987526007527D27528F875290022FCDE
:101FEF007F51FE1226287BFF22FC7F7FFE122628C0
:101FFF007BFF227D5EFCFE12262822FCFE12262885
:10200F007BFF7A2879AC75280075291FE4F52AF52E
:10201F002BFD227D5EFCFE1226287B0022FC7F1FFB
:10202F00FE1226287BFF227C007E00122298227D42
:09203F005EFCFE1226287B002243
:09299E008F80C2A5D2A5D2A722A8
:1028FF00E4FDFCC3ED9FEC9E5014E4FBFA0BBB0010
:0E290F00010AEBF44A70F60DBD00010C80E5E4
:01291D002297
:0A298A00C2A7D2B2C2A612299E22F3
:0429650012298AFFAA
:0A296900C2A7D2B2D2A612299E2204
:10256800D2B37FC87E001228FFC2B37F207E031239
:1025780028FFD2B31228FFC2A77F367E0012298A0D
:102588007FC81229697F3A12298A7F051229697F33
:10259800FE12298A7FEF12298A7FE212298A7F8018
:1025A8001229697FA312298A7F071229697FA41239
:1025B800298A7F091229697FFF12298A7F12122925
:1025C800697FFD12298A7F041229697FF512298AF9
:1025D800E4FF1229697FFB1229657FF112298A7F9E
:1025E800551229697FF812298A7F221229697FF3F7
:1025F80012298A7F521229697FFA12298A7F2512A5
:1026080029697FF41229657FFC1229657F11122937
:102618008A7F781228FF7F2912298A7F320228FFB1
:102836008F828E837F2A7E0012298AE583FF1229E2
:1028460069AF82122969EAFF122969AF0312296961
:102856007F2B12298AECFF122969AF05122969E537
:0F28660037FF122969AF381229697F2C02298A9E
:10293A00AD07AC06C2A7D2B2D2A6ECFF8F80C2A561
:08294A00D2A58D801229A02204
:042875008E218F22FF
:102879007537007538DB7BAF7A00E4FDFCFFFE128B
:102889002836E4FB900000AF22AE2112293AA3E5D5
:102899008264B0458370F00BBB00010AEB64DC4A2B
:0228A90070E2DB
:0128AB00220A
:10000300C6D50000000000E0380000783C00003C4A
:100013007800003C70C0001CE1E01FFFFFF0001CF3
:10002300E3000E1CE7C0079CE78003DCEF0003DC62
:10003300EE0001DCFC60009CF9F07FFFFFF800009C
:10004300000001C00E0001FFFF0001C00E0001C04F
:100053000E0001C00E0001FFFE0001C00E0001C032
:100063000E0001C00E0001FFFE0001C00E0001C022
:100073000E0000000000D6D00000000000070000C2
:1000830000078000000700000007000000070000D1
:10009300000701801FFFFFE01FFFFFE01E0701C0F5
:1000A3001E0701C01E0701C01E0701C01E0701C0B5
:1000B3001E0701C01FFFFFC01FFFFFC01E0701C0B7
:1000C3001C07018000070000000700000007000074
:1000D3000007000000070000000700000007000001
:1000E300000700000007000000000000BFC600007A
:1000F300000000000780003C07C001FC07803FE0D0
:10010300078039C1C78001C0E78001C0F78001C003
:10011300778001DE77807FFE078001C0078003C3FD
:10012300C78003E1E78003F8F78007FCE7F00FDE01
:1001330067F80FDC07F81FC0FF801DDFE78039CCAD
:10014300078071C0078061C0078001C0078001C0BC
:10015300078001E0078001E0078001C0070000007D
:100163000000BCBC000000000380300003C03C0062
:1001730003C03C0003C0380003C0380003C038602C
:1001830003F838F07FFFFFF003C0380003C03800E6
:1001930003C0380003DC39C003FFFFE007E383C07B
:1001A3003FC183C07FC1C3803BC1C78003C0EF0091
:1001B30003C0EF0003C07E0003C07C0003C07C00CB
:1001C30003C0FE003BC3EF803F8787F80FBF03F8F0
:1001D300077800E000000000C4EA0000000000C04F
:1001E300000001F0000001E0000003C000C003C0F4
:1001F30001E007FFFFF00703C0000E03C0001E036A
:10020300C0003C03C3007303C78063FFFFC00383C5
:10021300C0000383C0000383C0000383C0000383C3
:10022300C0600383C0F07FFFFFF80003C00000033A
:10023300C0000003C0000003C0000003C0000003AF
:10024300C0000003C0000003C00000000000D4C2CF
:10025300000000000000000000E0070000FFFF8036
:1002630000F0078000F0070000F0070000F007002F
:1002730000F0070000FFFF0000FFFF0000F0070091
:1002830000F0070000F0070000F0070000E007009F
:1002930000FFFF0000E0070000E0070000E00700A8
:1002A30001E0070001C0070001C007000380070049
:1002B3000780F7000F007F001E001F0038001C009E
:1002C30000000000C8D5000000000000000003008B
:1002D300030003FFFF8003FFFF8003800700038009
:1002E30007000380070003800700038007000380E3
:1002F3000700038007000380070003FFFF0003805C
:1003030007000380070003800700038007000380C2
:1003130007000380070003800700038007000380B2
:10032300070003FFFF00038007000380070003802B
:1003330007000300000000000000D0C70000000019
:10034300000000000380070003FFFF800380070015
:10035300038007000380070003FFFF0003800700FB
:100363000380070003FFFF0003FFFF00038707006D
:100373000387C00003C7810003C7838007FFFFC053
:10038300070780000F0780001E0786001C078F00E9
:100393003BFFFF807007800000078000000780E0BC
:1003A300000781F07FFFFFF800000000000000005D
:1003B300C6DA0000000006000000079E0000079E4A
:1003C3007FF0079E7FF0079FF8F03FFFF8F01F9E36
:1003D30078F0079E78F0079E78F007FE7FF0079E7F
:1003E30078F0079E78F0079E70F007FE70F0079E86
:1003F30070F0079E7FF0079FFFF03FFFF0F0119032
:1004030070F003DCF0F003DEE0F0078FE0F00F0F95
:10041300E0F00E07C0F01C038FF0380F03E0201C40
:1004230001C0000000000000000000000000000008
:1004330000000000000000000000000000000000B9
:1004430000000000000000000000000000000000A9
:100453000000000000000000000000000000070092
:100463000700070007000700020002000200020065
:100473000200020000000000000007000700070060
:1004830000000000000000000000066006600CC0D1
:10049300198011002200000000000000000000008D
:1004A3000000000000000000000000000000000049
:1004B3000000000000000000000000000000000039
:1004C30010401040104010407FE07FE0104010408B
:1004D300208020807FE07FE020802080208020809B
:1004E3000000000000000000000000000200020005
:1004F3000F801AC032C032C032001A000E0007004B
:100503000380038002C032C032C032C012800F00A9
:1005130002000200000000000000000000000000D4
:1005230070C050808880890089008B008A005FC07A
:10053300754006200A200A201A201220114021C0EB
:1005430000000000000000000000000000000000A8
:100553001C00260026002600260025C03880308097
:1005630058804900CD00C700C600C300652038C0CD
:100573000000000000000000000030003800080008
:1005830008001000600000000000000000000000F0
:100593000000000000000000000000000000000058
:1005A3000000000000000000000000200040008068
:1005B3000180010003000300060006000600060098
:1005C300060006000600030003000100018000800E
:1005D3000040002000000000000040002000100048
:1005E300180008000C000C000600060006000600B8
:1005F3000600060006000C000C000800180010009E
:100603002000400000000000000000000000000087
:10061300000002000200020072703AE00F800F80B7
:100623003AE07270020002000200000000000000C5
:1006330000000000000000000000000000000000B7
:1006430000000000020002000200020002007FF02E
:10065300020002000200020002000000000000008D
:100663000000000000000000000000000000000087
:100673000000000000000000000000000000000077
:1006830000000000000000000000300038000800F7
:1006930008001000600000000000000000000000DF
:1006A30000000000000000000000000000007FE0E8
:1006B3000000000000000000000000000000000037
:1006C3000000000000000000000000000000000027
:1006D3000000000000000000000000000000000017
:1006E300000000000000000000003800380038005F
:1006F3000000000000000000000000200060004037
:1007030000C000800080010001000200020006001A
:10071300040004000800080010001000300020004E
:100723006000400000000000000000000000000026
:100733000F00198030C030C060606060606060602E
:10074300606060606060606030C030C019800F001E
:100753000000000000000000000000000000000096
:10076300020006003E000600060006000600060022
:1007730006000600060006000600060006003FC04D
:100783000000000000000000000000000000000066
:100793001F00218040C060C060C000C00180018094
:1007A3000300040008001040204040407FC07FC089
:1007B3000000000000000000000000000000000036
:1007C3001E002300618061806180018003000E00B0
:1007D3000180008000C060C060C060C021801F0035
:1007E3000000000000000000000000000000008086
:1007F30001800380038005800980098011802180A6
:10080300218041807FE0018001800180018007E039
:1008130000000000000000000000000000000000D5
:100823003FC03FC020002000200020002F00318067
:1008330020C000C000C060C060C0418021801F0094
:1008430000000000000000000000000000000000A5
:10085300078018C030C0300020006000678068C087
:1008630070606060606060602060304018C00F009E
:100873000000000000000000000000000000000075
:100883001FE03FE030402080208000800100010015
:100893000200020002000600060006000600060031
:1008A3000000000000000000000000000000000045
:1008B3001F8030C060606060606070403CC00F00AB
:1008C300338020C0606060606060606030C00F8013
:1008D3000000000000000000000000000000000015
:1008E3000F00308030C0604060606060606060E036
:1008F30031601E60006000C000C0308031801E0087
:1009030000000000000000000000000000000000E4
:1009130000000000000000000700070007000000BF
:1009230000000000000000000000070007000700AF
:1009330000000000000000000000000000000000B4
:100943000000000000000000000006000600000098
:100953000000000000000000000000000600060088
:10096300020004000000000000000000000000205E
:100973000040008001000200040008001000200075
:100983001000080004000200010000800040002065
:100993000000000000000000000000000000000054
:1009A300000000000000000000007FE000000000E5
:1009B300000000007FE000000000000000000000D5
:1009C3000000000000000000000000000000200004
:1009D3001000080004000200010000800040002015
:1009E3000040008001000200040008001000200005
:1009F30000000000000000000000000000000F8065
:100A030030C0406040606060606000C001800600EC
:100A1300040004000400000000000E000E000E009D
:100A230000000000000000000000000000000000C3
:100A330007801C601020335026D064906490689027
:100A43006890699069A066C0301030201840078014
:100A53000000000000000000000000000000000093
:100A6300060006000E000B000B001300118011801E
:100A730011801F8020C020C020C020606060F0F083
:100A83000000000000000000000000000000000063
:100A9300FF00618060C060C060C060C061807F0093
:100AA30060C06040606060606060606060C0FF80E4
:100AB3000000000000000000000000000000000033
:100AC30007E01860302030202000600060006000E4
:100AD30060006000600060203020304018800F000C
:100AE3000000000000000000000000000000000003
:100AF300FE00618060C060C06060606060606060D4
:100B0300606060606060606060C060C06380FE00C1
:100B130000000000000000000000000000000000D2
:100B2300FFC06040602060006000610061007F00E2
:100B33006100610060006000602060206040FFC0D1
:100B430000000000000000000000000000000000A2
:100B5300FFC060C0602060206000610061007F0012
:100B63006100610060006000600060006000F000F0
:100B73000000000000000000000000000000000072
:100B83000F4018C03040304020006000600060001B
:100B9300600063F060C060C030C030C018C00F0098
:100BA3000000000000000000000000000000000042
:100BB300F0F06060606060606060606060607FE073
:100BC3006060606060606060606060606060F0F002
:100BD3000000000000000000000000000000000012
:100BE3003FC00600060006000600060006000600D9
:100BF30006000600060006000600060006003FC0C9
:100C030000000000000000000000000000000000E1
:100C13000FF001800180018001800180018001804B
:100C230001800180018001800180018001800180B9
:100C3300618063003E00000000000000000000002F
:100C4300F3E0608061006200620064006C007C007D
:100C53007600670063006380618060C060E0F1F04C
:100C63000000000000000000000000000000000081
:100C7300F0006000600060006000600060006000E1
:100C83006000600060006000602060206040FFC082
:100C93000000000000000000000000000000000051
:100CA300F0F070E070E070E059605960596059608D
:100CB3005A604E604E604E604E6044604460E4F0A3
:100CC3000000000000000000000000000000000021
:100CD300E07070207020582058204C204620462079
:100CE3004320432041A040E040E040604060E020DA
:100CF30000000000000000000000000000000000F1
:100D03000F00198030C030406060606060606060D8
:100D13006060606060606060304030C019800F00C8
:100D230000000000000000000000000000000000C0
:100D3300FF8060C06060606060606060606060C031
:100D43007F80600060006000600060006000F00071
:100D53000000000000000000000000000000000090
:100D63000F00198030C03040606060606060606078
:100D73006060606060606E60324031C011800F80DF
:100D830001E000C0000000000000000000000000BF
:100D9300FF8060C0606060606060606060C07F0012
:100DA3006600630063006180618060C060C0F070B2
:100DB3000000000000000000000000000000000030
:100DC3001F2030E060206020600070003C000F00B6
:100DD30003C000C0006040604060606070C04F802E
:100DE3000000000000000000000000000000000000
:100DF3007FE04620861086100600060006000600E7
:100E030006000600060006000600060006000F00A6
:100E130000000000000000000000000000000000CF
:100E2300F0706020602060206020602060206020DF
:100E330060206020602060206020602030401F80A0
:100E4300000000000000000000000000000000009F
:100E5300F8F07060304030403040308018801880A7
:100E6300188018800D000D000D000F00060006000D
:100E7300000000000000000000000000000000006F
:100E8300F77066206620664066406740374037400B
:100E93003B803B803B803B80398011001100110077
:100EA300000000000000000000000000000000003F
:100EB30079E030C01880188019000D000E0006007C
:100EC300060007000B000B801980118030C079E009
:100ED300000000000000000000000000000000000F
:100EE300F8F0706030403080188018800D000D00DD
:100EF3000E000600060006000600060006001F801E
:100F030000000000000000000000000000000000DE
:100F13003FE020C041C001800380030003000600BE
:100F230006000C000C0018001820382030407FC049
:100F33000000000000000000000007E004000400BF
:100F4300040004000400040004000400040004007E
:100F5300040004000400040004000400040004006E
:100F6300040007E000000000000000000000200073
:100F73001000100010000800080004000400040022
:100F83000200020001000100010000800080004017
:100F9300004000400020000000003F00010001006D
:100FA3000100010001000100010001000100010036
:100FB3000100010001000100010001000100010026
:100FC30001003F0000000000000007000D801040FA
:100FD300000000000000000000000000000000000E
:100FE30000000000000000000000000000000000FE
:100FF30000000000000000000000000000000000EE
:1010030000000000000000000000000000000000DD
:1010130000000000000000000000000000000000CD
:1010230000000000FFF0000000003000380008005E
:101033000800100060000000000000000000000035
:10104300000000000000000000000000000000009D
:10105300000000000000000000000000000000008D
:10106300000000000000000000000F8030C030C00E
:1010730007C01CC030C060C060C060C071D03EF00B
:10108300000000000000000000000000000010004D
:101093007000300030003000300033803CC03860D6
:1010A30030603060306030603060304038C02F8056
:1010B300000000000000000000000000000000002D
:1010C300000000000000000000000F0031803180AC
:1010D30061806000600060006040304030800F003D
:1010E30000000000000000000000000000000040BD
:1010F30001C000C000C000C000C01EC031C030C06D
:1011030060C060C060C060C060C020C031E01E80AD
:1011130000000000000000000000000000000000CC
:1011230000000000000000000000078018C01060ED
:1011330030603FE030003000300018201C40078052
:10114300000000000000000000000000000000009C
:1011530003C006600C600C000C007FC00C000C0088
:101163000C000C000C000C000C000C000C003F8069
:10117300000000000000000000000000000000006C
:10118300000000000000000000000F70199030C044
:1011930030C030C019801F0030003E001FC06060A7
:1011A300606070E01F80000000000000000010007D
:1011B30070003000300030003000378038C030C05D
:1011C30030C030C030C030C030C030C030C079E033
:1011D300000000000000000000000000000000000C
:1011E300060006000000000000003E0006000600A6
:1011F30006000600060006000600060006003FC0C3
:1012030000000000000000000000000000000000DB
:10121300018001800000000000000F800180018038
:1012230001800180018001800180018001800180B3
:10123300018033003E0000000000000000001000A9
:101243007000300030003000300033C03100330014
:10125300320036003E003B0033003180318079E0BC
:101263000000000000000000000000000000020079
:101273003E00060006000600060006000600060003
:1012830006000600060006000600060006003FC032
:10129300000000000000000000000000000000004B
:1012A30000000000000000000000EEE077606660D0
:1012B3006660666066606660666066606660F7705A
:1012C300000000000000000000000000000000001B
:1012D3000000000000000000000073803CC030C02C
:1012E30030C030C030C030C030C030C030C079E012
:1012F30000000000000000000000000000000000EB
:10130300000000000000000000000F00198030C042
:101313006060606060606060606030C030C00F001B
:1013230000000000000000000000000000000000BA
:1013330000000000000000000000778038C030602B
:101343003060306030603060306030C038C037802B
:10135300300030007C0000000000000000000000AE
:10136300000000000000000000001E4031C030C03B
:1013730060C060C060C060C060C020C031C01EC01B
:1013830000C000C003E000000000000000000000F7
:1013930000000000000000000000F9E01A601C00DB
:1013A3001800180018001800180018001800FF0093
:1013B300000000000000000000000000000000002A
:1013C300000000000000000000000FE01860302063
:1013D30030001C000F8001C02060206030C03F80BF
:1013E30000000000000000000000000000000000FA
:1013F3000000040004000C000C007F800C000C00B3
:101403000C000C000C000C000C000C400C4007807E
:1014130000000000000000000000000000000000C9
:101423000000000000000000104071C030C030C058
:1014330030C030C030C030C030C030C039E01E8052
:101443000000000000000000000000000000000099
:10145300000000000000000000007CF0386018402D
:1014630018400C800C800C80070007000700020066
:101473000000000000000000000000000000000069
:1014830000000000000000000000F7B063206320AC
:101493006720372035C039C039C039C0108010806B
:1014A3000000000000000000000000000000000039
:1014B300000000000000000000007DE0188019809B
:1014C3000D000E00060007000B00198011C07BE021
:1014D3000000000000000000000000000000000009
:1014E300000000000000000000007DE0388018804C
:1014F30018800D000D000D00060006000200040018
:101503000400280038000000000000000000000074
:10151300000000000000000000003FC02180238085
:101523000300070006000E000C201C2018603FC0BB
:1015330000000000000000000000000000000000A8
:101543000000000000000000000000000000000098
:101553000000000000000000000000000000000088
:101563000000000000000000000000000000000078
:101573000000000000000000000000000000000068
:101583000000000000000000000000000000000058
:101593000000000000000000000000000000000048
:1015A3000000000000000000000000000000000038
:1015B3000000000000000000000000000000000028
:1015C3000000000000000000000000000000000018
:1015D3000000000000000000000000000000000008
:1015E30000000000000000000000000000000000F8
:1015F30000000000000000000000000000000000E8
:1016030000000000000000000000000000000000D7
:1016130000000000000000000000000000000000C7
:1016230000000000000000000000000000000000B7
:10163300000000000000000000000000000000F8AF
:10164300000386000703000E01800C01C01C00C0CC
:101653001800C03800E03800E03800607000707097
:101663000070700070700070700070700070700017
:101673007070007070007070007070007070007097
:101683003800603800E03800E01800C01C00C00CCF
:1016930001800E018006030003860000F8000000AD
:1016A3000000000000000000000000000000000037
:1016B3000000000000000000000000000000000027
:1016C300000000000000000000000000000000080F
:1016D3000000180000380007F80000380000380048
:1016E30000380000380000380000380000380000DF
:1016F3003800003800003800003800003800003897
:1017030000003800003800003800003800003800BE
:1017130000380000380000380000380000380000AE
:101723003800003800003800007C0007FFC00000CC
:1017330000000000000000000000000000000000A6
:101743000000000000000000000000000000000096
:10175300000000000000000000000000000000FC8A
:10176300000307000C03801801C01801C03800E013
:101773003800E03800E03C00E03C00E01C00E00002
:1017830001C00001C0000380000380000700000EB9
:1017930000001C0000380000700000E00001C000E1
:1017A3000380000300000600200C002018006030B6
:1017B30000602000C07FFFC07FFFC07FFFC000002C
:1017C3000000000000000000000000000000000016
:1017D3000000000000000000000000000000000006
:1017E300000000000000000000000000000000FCFA
:1017F300000307000603800C01C01C01C01C00E0AD
:101803001E00E01E00E00E00E00000E00000C0004B
:1018130001C0000180000300000E0000F800000F6B
:10182300000001800000C00000E0000060000070C4
:101833000000701800703C00703C00703C00603881
:1018430000E01800C00C018006070001FC00000046
:101853000000000000000000000000000000000085
:101863000000000000000000000000000000000075
:101873000000000000000000000000000000000362
:1018830000000700000700000F00001F0000170002
:1018930000370000270000670000C7000087000131
:1018A3008700030700020700060700040700080774
:1018B300001807001007003007006007007FFFF8DB
:1018C3007FFFF80007000007000007000007000083
:1018D300070000070000070000078000FFF8000072
:1018E30000000000000000000000000000000000F5
:1018F30000000000000000000000000000000000E5
:1019030000000000000000000000000000000FFFC6
:10191300E00FFFE00FFFE0080000080000080000F0
:101923000800000800001000001000001000001064
:10193300FE0013FF001703801C01C01C00E0180009
:10194300E00000F000007000007000007000007004
:101953001800703C00703C00703C00603800E018D8
:1019630000E01801C00C018007070001FC00000023
:101973000000000000000000000000000000000064
:101983000000000000000000000000000000000054
:101993000000000000000000000000000000007EC6
:1019A300000183800303800603C00C03C01803C037
:1019B30018000018000038000030000030000070EC
:1019C3000000707E0071FF807783C07601C07C00C9
:1019D300E07800E07000707000707000707000704C
:1019E3007000703000703800703800701800601C90
:1019F30000E00C00C006018003830000FC0000002F
:101A030000000000000000000000000000000000D3
:101A130000000000000000000000000000000000C3
:101A230000000000000000000000000000001FFF95
:101A3300F01FFFF01FFFE01C00601000C0300080AB
:101A430020018020010000030000020000060000C6
:101A53000400000C0000080000180000180000300B
:101A63000000300000700000600000600000E00033
:101A730000E00000E00000E00001E00001E0000100
:101A8300E00001E00001E00001E00000E0000000F0
:101A93000000000000000000000000000000000043
:101AA3000000000000000000000000000000000033
:101AB300000000000000000000000000000001FE24
:101AC300000703800E01C01C00E01800E03800701E
:101AD3003800703800703800703C00701E00E01F42
:101AE30000E00F81C007E38003FE0003FE00063F12
:101AF300000C0F801C07C03801E03801E07000F0D3
:101B0300700070700070700070700070700070383A
:101B130000E01800C00C01C007030001FC00000036
:101B230000000000000000000000000000000000B2
:101B330000000000000000000000000000000000A2
:101B4300000000000000000000000000000001F899
:101B5300000706000C01001C01803800C03800C0DB
:101B63003000607000607000607000707000707012
:101B730000707000707000F03800F03801F03C0322
:101B8300701F0E700FFC7003F0700000600000E027
:101B93000000E00000E00000C00001C00C01801E56
:101BA30003801E03001E06000E1C0003F00000004D
:101BB3000000000000000000000000000000000022
:061BC3000000000000001C
:0A299400F582E43583F583E4932215
:10229800E4F52CF52DF52EF52FC3EB9FF531E49ED3
:1022A800F530C3E5279DF533E5269CF5328E3C8F46
:1022B8003D8C3A8D3BD3E5319400E53064809480C1
:1022C8004008753600753701801DE53145307006C8
:1022D800F536F537801174FFF536F537C3E49531D7
:1022E800F531E49530F530D3E5339400E532648078
:1022F80094804008753800753901801DE5334532F2
:102308007006F538F539801174FFF538F539C3E4EE
:102318009533F533E49532F532D3E5319533E5322B
:102328006480F8E53064809840088530348531351C
:102338008006853234853335E4F52AF52BE53524D6
:1023480001FFE43534FED3E52B9FE52A9E400302C6
:1023580023DEAB29AA28AD3BAC3AAF3DAE3C120018
:1023680000E531252DF52DE530352CF52CE5332507
:102378002FF52FE532352EF52ED3E52D9535E5349D
:102388006480F8E52C6480984018E52D9535F52D86
:10239800E52C9534F52CE537253DF53DE536353CFE
:1023A800F53CD3E52F9535E5346480F8E52E648057
:1023B800984018E52F9535F52FE52E9534F52EE53F
:1023C80039253BF53BE538353AF53A052BE52B70D1
:0623D80002052A02234564
:0123DE0022DC
:0E2628008E218F228C238D248B258A268927D4
:10263600AB25AA26A92712213E70030226CC24E048
:10264600F52EE522240FFBE43521FAE5242417F5BF
:1026560038E43523F537AD24AC23AF22AE2112285A
:1026660036E4F52D75F030E52E9004291221BEE5ED
:1026760082252D122994752F00F530E4F52CE530CE
:1026860030E706AF29AE288004AF2BAE2A12293ACE
:10269600E53025E0F530E52F33F52F052CE52CC385
:1026A600940840DA052DE52DC3943040B774012512
:1026B60027F527E43526F52674102522F522E4357C
:0626C60021F52102263679
:0126CC0022EB
:0E26CD008E448F458C468D478B488A49894A3A
:1026DB00AB48AA49A94A12213E700302277124D0A4
:1026EB00F551E5452417FBE43544FAE547242FF56E
:1026FB0038E43546F537AD47AC46AF45AE44122806
:10270B0036E4F55075F090E5519016291221BEE58F
:10271B00822550122994755200F553E4F54FE55379
:10272B0030E706AF4CAE4B8004AF4EAE4D12293A9C
:10273B00E55325E0F553E55233F552054FE54FC30D
:10274B00940840DA0550E550C3949040B7740125C6
:10275B004AF54AE43549F54974182545F545E435FC
:06276B0044F5440226DBE8
:012771002245
:10295200E52B25E0242CF8E6FE08E6FFEA25E02434
:032962002CF8222C
:0B297F00C2A1D2A3D2A2D2A1C2A32207
:10291E00C2A1E4FEEFC4131313540124FF92A2EFDD
:0B292E0025E0FFC2A1D2A10EBE08E907
:01293900227B
:1028DB00E4FFFEC2A1FDFCEF25E0FFEE33FED2A12B
:1028EB00C2A1A2A0E43342070DBD00010CED640CA4
:0328FB004C70E43A
:0128FE0022B7
:0224A600AB0782
:1024A800C2A1C2A3E4FAAF0312291E752B06D52BCD
:1024B800FDD2A10000C2A100001228DB12295EA6ED
:1024C8000608A6070ABA0ADED2A3E4FAEA04F52B3C
:1024D800E52BC3940A5038122952E6FC08E6C39F3C
:1024E800EC9E502712295EE6FE08E6FFE48F438E35
:1024F80042F541F540122952A60608A607AF43E562
:102508002B25E0242CF8A64208A607052B80C10A33
:10251800EA640970B7E4F543F542F541F5407A02FB
:1025280012295EE6FE08E6FFE4FCFDE5432FFFE521
:10253800423EFEED3541FDEC35408F438E428D41E4
:10254800F5400ABA08DAAF43AE42AD41AC40E47B8D
:0F25580006FAF9F81227F28F438E428D418C401C
:012567002251
:1023DF0012297F7FD01224A68E218F227F90122464
:1023EF00A68E278F287FD01224A68E238F247F902E
:1023FF001224A6AD07AC06D3E5229524E52195233B
:10240F00400EE5229524F526E5219523F525800D2F
:10241F00C3E5249522F526E5239521F525D3E52857
:10242F009DE5279C400CE5289DF52AE5279CF5297D
:10243F00800BC3ED9528F52AEC9527F529D3E526D2
:10244F009432E5259400500AE52A9432E529940048
:10245F0040037F0022E5222524FFE5213523C31306
:10246F00F554EF13F555E5282DFFE5273CC313F57C
:10247F0056EF13F5575355F05357F0C3E555946482
:10248F00E5549400400BD3E55794A0E556940F40C4
:06249F00037F00227F0113
:0124A5002214
:030000000229735F
:0C297300787FE4F6D8FD758157021BC97F
:10204800E709F608DFFA8046E709F208DFFA803E7A
:1020580088828C83E709F0A3DFFA8032E309F60867
:10206800DFFA8078E309F208DFFA807088828C83CF
:10207800E309F0A3DFFA806489828A83E0A3F60883
:10208800DFFA805889828A83E0A3F208DFFA804C5D
:1020980080D280FA80C680D4806980F28033801034
:1020A80080A680EA809A80A880DA80E280CA80339D
:1020B80089828A83ECFAE493A3C8C582C8CCC58315
:1020C800CCF0A3C8C582C8CCC583CCDFE9DEE780E5
:1020D8000D89828A83E493A3F608DFF9ECFAA9F064
:1020E800EDFB2289828A83ECFAE0A3C8C582C8CCBA
:1020F800C583CCF0A3C8C582C8CCC583CCDFEADED3
:10210800E880DB89828A83E493A3F208DFF980CC34
:1021180088F0EF60010E4E60C388F0ED2402B4042D
:102128000050B9F582EB2402B4040050AF232345D4
:0621380082239020987341
:10213E00BB010689828A83E0225002E722BBFE029F
:09214E00E32289828A83E49322D2
:10215700EF8DF0A4A8F0CF8CF0A428CE8DF0A42E9C
:02216700FE2256
:10216900BC000BBE0029EF8DF084FFADF022E4CC5A
:10217900F875F008EF2FFFEE33FEEC33FCEE9DEC23
:10218900984005FCEE9DFE0FD5F0E9E4CEFD22ED69
:10219900F8F5F0EE8420D21CFEADF075F008EF2FB3
:1021A900FFED33FD4007985006D5F0F222C398FDA4
:0521B9000FD5F0EA2241
:1027F200C2D5E830E70FB2D5E4C39BFBE49AFAE412
:1028020099F9E498F8EC30E717B2D5122828122289
:1028120006E4C39BFBE49AFAE499F9E498F880038E
:1028220012220630D50DE4C39FFFE49EFEE49DFD17
:04283200E49CFC2204
:0C21BE00A42582F582E5F03583F583222C
:1021CA0075F008758200EF2FFFEE33FECD33CDCCCC
:1021DA0033CCC58233C5829BED9AEC99E58298404F
:1021EA000CF582EE9BFEED9AFDEC99FC0FD5F0D62C
:1021FA00E4CEFBE4CDFAE4CCF9A88222B800C1B956
:10220A000059BA002DEC8BF084CFCECDFCE5F0CB93
:10221A00F97818EF2FFFEE33FEED33FDEC33FCEBCC
:10222A0033FB10D703994004EB99FB0FD8E5E4F987
:10223A00FA227818EF2FFFEE33FEED33FDEC33FC74
:10224A00C933C910D7059BE99A4007EC9BFCE99A68
:10225A00F90FD8E0E4C9FAE4CCFB2275F010EF2FAD
:10226A00FFEE33FEED33FDCC33CCC833C810D707AD
:10227A009BEC9AE899400AED9BFDEC9AFCE899F8E8
:0E228A000FD5F0DAE4CDFBE4CCFAE4C8F9227B
:00000001FF
