:03000000023A4978
:0C3A4900787FE4F6D8FD758159023A90B0
:103B320054494D4500434C4F434B005945530042B5
:103B420041434B005345540053544F500038006CCE
:103B520000C6008200C6006C0038FE01FE07000E9F
:103B6200000E000E000C000C000C000C000E000EEB
:103B720000060003FE00FE0000000000000000003E
:053B8200002E00000010
:103E86007BFF7A3B79321228F278237C007D007B17
:103E9600007A00794F7E007F03121E29122E6C02D3
:023EA60024A84E
:103CF5007BFF7A3B79371228F27BFF7A3B793D755A
:103D05003907753AE0E4F53BF53CFDFC7F63FE12AF
:103D1500385578237C007D007B007A0079537E003E
:0B3D25007F03121E29122E6C022034B6
:102AE300E4FFFE123D307BFF7A3B79417539007577
:102AF3003A1FE4F53BF53CFDFCFFFE1238557BFF26
:102B03007A3B79467539FF753AE0E4F53BF53C7D50
:102B130018FC7F32FE1238557BFF7A3B79327539C8
:102B230007753AFFE4F53BF53C7D5EFC7F32FE1210
:102B330038557BFF7A3B793775397F753AFFE4F572
:102B43003BF53C7D86FC7F32FE12385575290075B6
:102B53002A32752BF8752C007B9B7D327C007F1409
:102B63007E00123159752900752A82752BF8752C50
:102B7300007B9B7D827C007F147E00123159752976
:102B830000752AAA752BF8752C007B9B7DAA7C0007
:102B93007F147E001231591236CEBF01FAE4851834
:102BA30012851711F510F50FE51224D0FFE5113446
:102BB300FEFEE51034FFFDE50F34FFFCE47BAFFAC6
:102BC300F9F8121EF3E47B5E7A0DF9F8123C728F6A
:102BD300128E118D108C0FE4851A16851915F514B4
:102BE300F5132516FFE51534FFFEE51434FFFDE567
:102BF3001334FFFCE47BDBFAF9F8121EF3E47B7079
:102C03007A0DF9F8123C728F168E158D148C13E41D
:102C13007FAEFEFDFCAB12AA11A910A80FD3121FA1
:102C230050400AE47512AEF511F510F50FE47FDAA2
:102C3300FEFDFCAB16AA15A914A813D3121F50400E
:102C43000AE47516DAF515F514F513E47F87FEFD2E
:102C5300FCAB16AA15A914A813C3121F505012E4F3
:102C63007F5FFEFDFCA813121F504005123E8680B5
:102C730054E47F87FEFDFCAB16AA15A914A813D351
:102C8300121F504012E47FA5FEFDFCA813121F5033
:102C93005005123CF5802EE47F37FEFDFCAB12AAF3
:102CA30011A910A80FC3121F504003022B9AE47FEF
:102CB30018FEFDFCAB16AA15A914A813C3121F50C6
:0C2CC3004003022B9AE4FFFE123D302279
:0434DF008E218F2289
:1034E30078267C007D007BFF7A3B797F7E007F0816
:1034F300121E29AE21AF227C007D64121EBDEF2473
:1035030030F526AE21AF227C007D64121EBD7E0005
:103513007F0ACFCDCFCECCCE121EBDEF2430F528FF
:10352300AE21AF227C007D0A121EBDED2430F52CA6
:103533007B007A00792675397F753AFFE4F53BF510
:103543003C7DAAFC7F3CFE1238557B007A0079282B
:1035530075397F753AFFE4F53BF53C7DAAFC7F4660
:10356300FE1238557B007A00792A75397F753AFF48
:10357300E4F53BF53C7DAAFC7F50FE1238557B00F9
:103583007A00792C75397F753AFFE4F53BF53C7D7C
:10359300AAFC7F5AFE123855754C00754DC17B78D5
:1035A3007A007DAA7C007F697E00123CB6E4F52494
:1035B300E524903B4F93F523E4F525E52330E70617
:1035C3007FFF7E7F8003E4FFFE123F94E52325E027
:1035D300F5230525E525C3940840E00524E524C328
:0435E300943040CC14
:0135E70022C1
:102FF000758911758BCC758DCCD2ABD28EE4F55919
:10300000755246FFFE123D307BFF7A3B794A753997
:10301000FF753AE0E4F53BF53C7D64FC7F41FE1230
:10302000385578237C007D007B007A00794F7E0044
:103030007F03121E29122E6C1236CEEF640160033C
:10304000023140851812851711F510F50FE512248D
:10305000D0FFE51134FEFEE51034FFFDE50F34FF2F
:10306000FCE47BAFFAF9F8121EF3E47B5E7A0DF90B
:10307000F8123C728F128E118D108C0FE4851A1687
:10308000851915F514F5132516FFE51534FFFEE532
:103090001434FFFDE51334FFFCE47BDBFAF9F8128E
:1030A0001EF3E47B707A0DF9F8123C728F168E15C0
:1030B0008D148C13E47FAEFEFDFCAB12AA11A91097
:1030C000A80FD3121F50400AE47512AEF511F51087
:1030D000F50FE47FDAFEFDFCAB16AA15A914A813C0
:1030E000D3121F50400AE47516DAF515F514F513DE
:1030F000E47F41FEFDFCAB12AA11A910A80FD31268
:103100001F505003023022E47F82FEFDFCA80F1204
:103110001F504003023022E47F61FEFDFCAB16AA83
:1031200015A914A813121F505003023022E47F7D0A
:10313000FEFDFCA813121F504003023022E4800B56
:103140001232A0EF64016003023022F54EC28EC23B
:09315000ABC2B5FFFE123D3022B6
:063EE600015800014E002E
:103FEE00758901758C4C758ACED2A9D28CD2AF222E
:03000B00023AD5E1
:103AD500C0E0C0D0758C4C758AD2E558C3941440AB
:103AE50045755800E551943B50040551801F7551AB
:103AF50000E550C3943B500405508011755000E516
:103B05004FC394175004054F8003754F00E54EB41D
:103B15000116E54FB55311E550B5540CE551B555B2
:0D3B250007754E0280020558D0D0D0E03266
:03001B000239B5F2
:1039B500C0E0C0F0C083C082C0D075D000C000C0D8
:1039C50001C002C003C004C005C006C007758DCC88
:1039D500758BCC05590557E55770020556AE56FF50
:1039E500E4FCFD7B607AEAF9F8C3121F50500675B6
:1039F5005600755700AE56AF577C037DE8121E681A
:103A0500ED4C7006740A2552F552E559B4640375F8
:103A15005900E552D394644003755246E559C39560
:103A2500525004D2B58002C2B5D007D006D005D019
:103A350004D003D002D001D000D0D0D082D083D022
:043A4500F0D0E032AB
:103FAF00D3EF9400EE9400400DE4FD0DBD6EFCEFD9
:063FBF001F70ED1E80EAF8
:013FC50022D9
:103EA800C2B77F677E00EF1F70011EEF4E70F7D21A
:0E3EB800B77E007F04EF1F70011EEF4E70F703
:013EC60022D9
:103E1B00C2B70FBF0000D2B70FBF00000FBF00002B
:103E2B00A2B792007E007F08EF1F70011EEF4E704D
:033E3B00F7A200EB
:013E3E002261
:103F4000E4FDFC123E1BE433FFC43333335480FEE4
:0B3F5000EDC3134EFD0CBC08EAAF05EA
:013F5B002243
:0C3B8700123EA87F017E00123FAF7FCCF1
:103B9300E4FEEF139200EFC313FF30001BC2B70B19
:103BA300BB00000BBB0000D2B77A007B08EB1B7095
:103BB300011AEB4A70F7801BC2B77A007B08EB1B34
:103BC30070011AEB4A70F7D2B70BBB00010A0BBBAB
:073BD30000010A0EBE08BB51
:013BDA0022C8
:103BDB00123B877FBE123B93123F40AB07123F4015
:103BEB00EFFEEBFFFDAC06E4121C9FE4FBFA7980C1
:103BFB00783D121B948F248E238D228C21E4FFFEA3
:103C0B007D207C41AB24AA23A922A821121B94E47A
:0B3C1B00FBFAF9783F121AA3121CD824
:013C2600227B
:08000300123B877F44023B938E
:10001E00C4EA0000000000C0000001F0000001E092
:10002E00000003C000C003C001E007FFFFF007039C
:10003E00C0000E03C0001E03C0003C03C3007303C8
:10004E00C78063FFFFC00383C0000383C000038328
:10005E00C0000383C0000383C0600383C0F07FFF32
:10006E00FFF80003C0000003C0000003C00000033F
:10007E00C0000003C0000003C0000003C000000366
:10008E00C00000000000D4C200000000000000000C
:10009E0000E0070000FFFF8000F0078000F007007F
:1000AE0000F0070000F0070000F0070000FFFF005F
:1000BE0000FFFF0000F0070000F0070000F007004F
:1000CE0000F0070000E0070000FFFF0000E007005F
:1000DE0000E0070000E0070001E0070001C0070094
:1000EE0001C00700038007000780F7000F007F00A4
:1000FE001E001F0038001C0000000000C8D50000C4
:10010E000000000000000300030003FFFF8003FF58
:10011E00FF80038007000380070003800700038031
:10012E000700038007000380070003800700038099
:10013E00070003FFFF000380070003800700038012
:10014E000700038007000380070003800700038079
:10015E000700038007000380070003FFFF000380F2
:10016E000700038007000380070003000000000063
:10017E000000D0C700000000000000000380070050
:10018E0003FFFF8003800700038007000380070042
:10019E0003FFFF00038007000380070003FFFF003B
:1001AE0003FFFF00038707000387C00003C781001A
:1001BE0003C7838007FFFFC0070780000F0780007B
:1001CE001E0786001C078F003BFFFF807007800014
:1001DE0000078000000780E0000781F07FFFFFF836
:1001EE000000000000000000C6DA0000000006005B
:1001FE000000079E0000079E7FF0079E7FF0079F7E
:10020E00F8F03FFFF8F01F9E78F0079E78F0079EFB
:10021E0078F007FE7FF0079E78F0079E78F0079E35
:10022E0070F007FE70F0079E70F0079E7FF0079F3C
:10023E00FFF03FFFF0F0119070F003DCF0F003DE02
:10024E00E0F0078FE0F00F0FE0F00E07C0F01C0398
:10025E008FF0380F03E0201C01C0000000000000EA
:10026E000000000000000000000000000000000080
:10027E000000000000000000000000000000000070
:10028E000000000000000000000000000000000060
:10029E00000000000000070007000700070007002D
:1002AE000200020002000200020002000000000034
:1002BE00000007000700070000000000000000001B
:1002CE000000066006600CC01980110022000000BC
:1002DE000000000000000000000000000000000010
:1002EE000000000000000000000000000000000000
:1002FE0000000000000000001040104010401040B0
:10030E007FE07FE010401040208020807FE07FE083
:10031E00208020802080208000000000000000004F
:10032E0000000000020002000F801AC032C032C06E
:10033E0032001A000E0007000380038002C032C094
:10034E0032C032C012800F00020002000000000016
:10035E00000000000000000070C0508088808900FE
:10036E0089008B008A005FC0754006200A200A2093
:10037E001A201220114021C00000000000000000D1
:10038E0000000000000000001C00260026002600D1
:10039E00260025C03880308058804900CD00C70027
:1003AE00C600C300652038C0000000000000000039
:1003BE000000300038000800080010006000000047
:1003CE00000000000000000000000000000000001F
:1003DE00000000000000000000000000000000000F
:1003EE000000002000400080018001000300030097
:1003FE0006000600060006000600060006000300C2
:10040E000300010001800080004000200000000079
:10041E000000400020001000180008000C000C0026
:10042E0006000600060006000600060006000C0088
:10043E000C00080018001000200040000000000012
:10044E000000000000000000000002000200020098
:10045E0072703AE00F800F803AE072700200020074
:10046E00020000000000000000000000000000007C
:10047E00000000000000000000000000020002006A
:10048E000200020002007FF00200020002000200E1
:10049E00020000000000000000000000000000004C
:1004AE00000000000000000000000000000000003E
:1004BE00000000000000000000000000000000002E
:1004CE000000300038000800080010006000000036
:1004DE00000000000000000000000000000000000E
:1004EE000000000000007FE000000000000000009F
:1004FE0000000000000000000000000000000000EE
:10050E0000000000000000000000000000000000DD
:10051E0000000000000000000000000000000000CD
:10052E000000380038003800000000000000000015
:10053E00000000200060004000C00080008001002C
:10054E00010002000200060004000400080008007A
:10055E00100010003000200060004000000000007D
:10056E0000000000000000000F00198030C030C0F5
:10057E00606060606060606060606060606060606D
:10058E0030C030C019800F000000000000000000D5
:10059E000000000000000000020006003E00060001
:1005AE00060006000600060006000600060006000D
:1005BE000600060006003FC000000000000000001C
:1005CE0000000000000000001F00218040C060C03D
:1005DE0060C000C0018001800300040008001040CC
:1005EE00204040407FC07FC000000000000000009F
:1005FE0000000000000000001E00230061806180EA
:10060E006180018003000E000180008000C060C088
:10061E0060C060C021801F000000000000000000CC
:10062E000000000000000080018003800380058030
:10063E000980098011802180218041807FE0018026
:10064E0001800180018007E0000000000000000032
:10065E0000000000000000003FC03FC0200020004E
:10066E00200020002F00318020C000C000C060C0DC
:10067E0060C0418021801F000000000000000000CB
:10068E000000000000000000078018C030C03000DD
:10069E0020006000678068C07060606060606060AD
:1006AE002060304018C00F00000000000000000065
:1006BE0000000000000000001FE03FE030402080FE
:1006CE0020800080010001000200020002000600EE
:1006DE0006000600060006000000000000000000F4
:1006EE0000000000000000001F8030C060606060ED
:1006FE00606070403CC00F00338020C0606060605E
:10070E006060606030C00F800000000000000000DC
:10071E0000000000000000000F00308030C060407C
:10072E0060606060606060E031601E60006000C00C
:10073E0000C0308031801E0000000000000000006C
:10074E00000000000000000000000000000000009B
:10075E000700070007000000000000000000000076
:10076E000000070007000700000000000000000066
:10077E00000000000000000000000000000000006B
:10078E00000006000600000000000000000000004F
:10079E000000000006000600020004000000000039
:1007AE000000000000000020004000800100020058
:1007BE0004000800100020001000080004000200D1
:1007CE00010000800040002000000000000000003A
:1007DE00000000000000000000000000000000000B
:1007EE0000007FE000000000000000007FE000003D
:1007FE0000000000000000000000000000000000EB
:10080E00000000000000200010000800040002009C
:10081E000100008000400020004000800100020026
:10082E00040008001000200000000000000000007E
:10083E000000000000000F8030C04060406060602B
:10084E00606000C001800600040004000400000087
:10085E0000000E000E000E00000000000000000060
:10086E00000000000000000007801C6010203350C4
:10087E0026D06490649068906890699069A066C074
:10088E0030103020184007800000000000000000EB
:10089E000000000000000000060006000E000B0025
:1008AE000B0013001180118011801F8020C020C00A
:1008BE0020C020606060F0F000000000000000002A
:1008CE000000000000000000FF00618060C060C0FA
:1008DE0060C060C061807F0060C06040606060602A
:1008EE006060606060C0FF800000000000000000DB
:1008FE00000000000000000007E0186030203020EB
:10090E0020006000600060006000600060006020F9
:10091E003020304018800F00000000000000000062
:10092E000000000000000000FE00618060C060C09A
:10093E0060606060606060606060606060606060A9
:10094E0060C060C06380FE00000000000000000078
:10095E000000000000000000FFC06040602060004A
:10096E006000610061007F00610061006000600056
:10097E00602060206040FFC000000000000000000A
:10098E000000000000000000FFC060C0602060207A
:10099E006000610061007F00610061006000600026
:1009AE00600060006000F000000000000000000029
:1009BE0000000000000000000F4018C03040304022
:1009CE002000600060006000600063F060C060C0E6
:1009DE0030C030C018C00F00000000000000000042
:1009EE000000000000000000F0F0606060606060D9
:1009FE006060606060607FE060606060606060604A
:100A0E00606060606060F0F00000000000000000B8
:100A1E0000000000000000003FC0060006000600B7
:100A2E000600060006000600060006000600060088
:100A3E000600060006003FC0000000000000000097
:100A4E0000000000000000000FF001800180018016
:100A5E000180018001800180018001800180018080
:100A6E000180018001800180618063003E000000F2
:100A7E000000000000000000F3E0608061006200F2
:100A8E00620064006C007C00760067006300638087
:100A9E00618060C060E0F1F0000000000000000026
:100AAE000000000000000000F00060006000600028
:100ABE006000600060006000600060006000600028
:100ACE00602060206040FFC00000000000000000B9
:100ADE000000000000000000F0F070E070E070E038
:100AEE0059605960596059605A604E604E604E6050
:100AFE004E6044604460E4F000000000000000001E
:100B0E000000000000000000E070702070205820EF
:100B1E0058204C20462046204320432041A040E050
:100B2E0040E040604060E020000000000000000057
:100B3E0000000000000000000F00198030C030409F
:100B4E006060606060606060606060606060606097
:100B5E00304030C019800F0000000000000000007F
:100B6E000000000000000000FF8060C06060606058
:100B7E0060606060606060C07F80600060006000E8
:100B8E00600060006000F000000000000000000047
:100B9E0000000000000000000F00198030C030403F
:100BAE0060606060606060606060606060606E6029
:100BBE00324031C011800F8001E000C00000000003
:100BCE000000000000000000FF8060C060606060F8
:100BDE006060606060C07F006600630063006180DB
:100BEE00618060C060C0F070000000000000000076
:100BFE0000000000000000001F2030E06020602098
:100C0E00600070003C000F0003C000C00060406038
:100C1E004060606070C04F80000000000000000067
:100C2E0000000000000000007FE0462086108610C5
:100C3E000600060006000600060006000600060076
:100C4E000600060006000F00000000000000000075
:100C5E000000000000000000F070602060206020A6
:100C6E006020602060206020602060206020602076
:100C7E006020602030401F80000000000000000057
:100C8E000000000000000000F8F0706030403040BE
:100C9E003040308018801880188018800D000D00AC
:100CAE000D000F000600060000000000000000000E
:100CBE000000000000000000F7706620662066400D
:100CCE0066406740374037403B803B803B803B80EF
:100CDE00398011001100110000000000000000001A
:100CEE00000000000000000079E030C0188018807D
:100CFE0019000D000E000600060007000B000B8009
:100D0E001980118030C079E0000000000000000062
:100D1E000000000000000000F8F0706030403080ED
:100D2E00188018800D000D000E000600060006004B
:100D3E000600060006001F800000000000000000F4
:100D4E0000000000000000003FE020C041C0018014
:100D5E00038003000300060006000C000C001800C0
:100D6E001820382030407FC0000000000000000036
:100D7E00000007E004000400040004000400040066
:100D8E000400040004000400040004000400040035
:100D9E000400040004000400040007E0000000004A
:100DAE0000000000000020001000100010000800DD
:100DBE00080004000400040002000200010001000B
:100DCE000100008000800040004000400020000034
:100DDE0000003F00010001000100010001000100C0
:100DEE0001000100010001000100010001000100ED
:100DFE00010001000100010001003F0000000000A1
:100E0E00000007000D8010400000000000000000F0
:100E1E0000000000000000000000000000000000C4
:100E2E0000000000000000000000000000000000B4
:100E3E0000000000000000000000000000000000A4
:100E4E000000000000000000000000000000000094
:100E5E00000000000000000000000000FFF0000095
:100E6E00000030003800080008001000600000008C
:100E7E000000000000000000000000000000000064
:100E8E000000000000000000000000000000000054
:100E9E000000000000000000000000000000000044
:100EAE0000000F8030C030C007C01CC030C060C012
:100EBE0060C060C071D03EF0000000000000000075
:100ECE000000000000001000700030003000300004
:100EDE00300033803CC0386030603060306030604D
:100EEE003060304038C02F8000000000000000004D
:100EFE0000000000000000000000000000000000E4
:100F0E0000000F0031803180618060006000600061
:100F1E006040304030800F000000000000000000F4
:100F2E00000000000000004001C000C000C000C072
:100F3E0000C01EC031C030C060C060C060C060C0A4
:100F4E0060C020C031E01E800000000000000000E4
:100F5E000000000000000000000000000000000083
:100F6E000000078018C0106030603FE03000300095
:100F7E00300018201C400780000000000000000018
:100F8E00000000000000000003C006600C600C00B2
:100F9E000C007FC00C000C000C000C000C000C00B0
:100FAE000C000C000C003F80000000000000000050
:100FBE000000000000000000000000000000000023
:100FCE0000000F70199030C030C030C019801F0063
:100FDE0030003E001FC06060606070E01F80000047
:100FEE0000000000000010007000300030003000E3
:100FFE003000378038C030C030C030C030C030C054
:10100E0030C030C030C079E00000000000000000A9
:10101E0000000000000000000600060000000000B6
:10102E0000003E0006000600060006000600060050
:10103E000600060006003FC0000000000000000091
:10104E000000000000000000018001800000000090
:10105E0000000F80018001800180018001800180ED
:10106E000180018001800180018033003E0000007C
:10107E000000000000001000700030003000300052
:10108E00300033C031003300320036003E003B00EA
:10109E0033003180318079E0000000000000000054
:1010AE0000000000000002003E00060006000600E0
:1010BE0006000600060006000600060006000600F2
:1010CE000600060006003FC0000000000000000001
:1010DE000000000000000000000000000000000002
:1010EE000000EEE07760666066606660666066606F
:1010FE00666066606660F770000000000000000029
:10110E0000000000000000000000000000000000D1
:10111E00000073803CC030C030C030C030C030C022
:10112E0030C030C030C079E0000000000000000088
:10113E0000000000000000000000000000000000A1
:10114E0000000F00198030C06060606060606060F9
:10115E00606030C030C00F000000000000000000D2
:10116E000000000000000000000000000000000071
:10117E000000778038C030603060306030603060A2
:10118E00306030C038C03780300030007C00000046
:10119E000000000000000000000000000000000041
:1011AE0000001E4031C030C060C060C060C060C072
:1011BE0060C020C031C01EC000C000C003E00000EF
:1011CE000000000000000000000000000000000011
:1011DE000000F9E01A601C00180018001800180032
:1011EE00180018001800FF000000000000000000AA
:1011FE0000000000000000000000000000000000E1
:10120E0000000FE01860302030001C000F8001C07D
:10121E002060206030C03F80000000000000000011
:10122E0000000000000000000000040004000C009C
:10123E000C007F800C000C000C000C000C000C004D
:10124E000C000C400C400780000000000000000065
:10125E000000000000000000000000000000000080
:10126E00104071C030C030C030C030C030C030C04F
:10127E0030C030C039E01E800000000000000000C9
:10128E000000000000000000000000000000000050
:10129E0000007CF03860184018400C800C800C80E8
:1012AE000700070007000200000000000000000019
:1012BE000000000000000000000000000000000020
:1012CE000000F7B0632063206720372035C039C097
:1012DE0039C039C0108010800000000000000000EE
:1012EE0000000000000000000000000000000000F0
:1012FE0000007DE0188019800D000E00060007002A
:10130E000B00198011C07BE00000000000000000FF
:10131E0000000000000000000000000000000000BF
:10132E0000007DE03880188018800D000D000D0043
:10133E000600060002000400040028003800000029
:10134E00000000000000000000000000000000008F
:10135E0000003FC0218023800300070006000E001E
:10136E000C201C2018603FC0000000000000000090
:10137E00000000000000000000000000000000005F
:10138E00000000000000000000000000000000004F
:10139E00000000000000000000000000000000003F
:1013AE00000000000000000000000000000000002F
:1013BE00000000000000000000000000000000001F
:1013CE00000000000000000000000000000000000F
:1013DE0000000000000000000000000000000000FF
:1013EE0000000000000000000000000000000000EF
:1013FE0000000000000000000000000000000000DF
:10140E0000000000000000000000000000000000CE
:10141E0000000000000000000000000000000000BE
:10142E0000000000000000000000000000000000AE
:10143E00000000000000000000000000000000009E
:10144E00000000000000000000000000000000008E
:10145E00000000000000000000000000000000007E
:10146E00000000000000000000000000000000006E
:10147E0000000000000000F8000386000703000EC5
:10148E0001800C01C01C00C01800C03800E03800FC
:10149E00E038006070007070007070007070007046
:1014AE00700070700070700070700070700070705E
:1014BE0000707000707000703800603800E0380006
:1014CE00E01800C01C00C00C01800E018006030055
:1014DE0003860000F800000000000000000000007D
:1014EE0000000000000000000000000000000000EE
:1014FE0000000000000000000000000000000000DE
:10150E00000000000000000800001800003800076E
:10151E00F8000038000038000038000038000038AD
:10152E000000380000380000380000380000380095
:10153E000038000038000038000038000038000085
:10154E00380000380000380000380000380000383D
:10155E000000380000380000380000380000380065
:10156E00007C0007FFC0000000000000000000002B
:10157E00000000000000000000000000000000005D
:10158E00000000000000000000000000000000004D
:10159E0000000000000000FC000307000C03801890
:1015AE0001C01801C03800E03800E03800E03C000F
:1015BE00E03C00E01C00E00001C00001C000038020
:1015CE00000380000700000E00001C000038000021
:1015DE00700000E00001C000038000030000060060
:1015EE00200C00201800603000602000C07FFFC07B
:1015FE007FFFC07FFFC00000000000000000000061
:10160E0000000000000000000000000000000000CC
:10161E0000000000000000000000000000000000BC
:10162E0000000000000000FC000307000603800C11
:10163E0001C01C01C01C00E01E00E01E00E00E00F8
:10164E00E00000E00000C00001C0000180000300C7
:10165E00000E0000F800000F000001800000C00026
:10166E0000E00000600000700000701800703C0088
:10167E00703C00703C00603800E01800C00C018027
:10168E0006070001FC000000000000000000000042
:10169E00000000000000000000000000000000003C
:1016AE00000000000000000000000000000000002C
:1016BE00000000000000000300000700000700000B
:1016CE000F00001F00001700003700002700006702
:1016DE000000C70000870001870003070002070013
:1016EE00060700040700080700180700100700305F
:1016FE0007006007007FFFF87FFFF8000700000774
:10170E0000000700000700000700000700000700A8
:10171E0000078000FFF8000000000000000000003D
:10172E0000000000000000000000000000000000AB
:10173E00000000000000000000000000000000009B
:10174E000000000000000FFFE00FFFE00FFFE008B9
:10175E00000008000008000008000008000010004B
:10176E000010000010000010FE0013FF0017038091
:10177E001C01C01C00E01800E00000F0000070002A
:10178E0000700000700000701800703C00703C008B
:10179E00703C00603800E01800E01801C00C0180B9
:1017AE0007070001FC000000000000000000000020
:1017BE00000000000000000000000000000000001B
:1017CE00000000000000000000000000000000000B
:1017DE00000000000000007E0001838003038006ED
:1017EE0003C00C03C01803C0180000180000380016
:1017FE0000300000300000700000707E0071FF802D
:10180E007783C07601C07C00E07800E070007070D5
:10181E0000707000707000707000703000703800D2
:10182E00703800701800601C00E00C00C0060180CB
:10183E0003830000FC000000000000000000000018
:10184E00000000000000000000000000000000008A
:10185E00000000000000000000000000000000007A
:10186E000000000000001FFFF01FFFF01FFFE01C34
:10187E0000601000C03000802001802001000003B5
:10188E0000000200000600000400000C000008002A
:10189E00001800001800003000003000007000003A
:1018AE00600000600000E00000E00000E00000E0EA
:1018BE000001E00001E00001E00001E00001E000B5
:1018CE0001E00000E0000000000000000000000049
:1018DE0000000000000000000000000000000000FA
:1018EE0000000000000000000000000000000000EA
:1018FE0000000000000001FE000703800E01C01C66
:10190E0000E01800E03800703800703800703800C1
:10191E00703C00701E00E01F00E00F81C007E380E6
:10192E0003FE0003FE00063F000C0F801C07C038AC
:10193E0001E03801E07000F070007070007070000F
:10194E00707000707000703800E01800C00C01C09C
:10195E0007030001FC000000000000000000000072
:10196E000000000000000000000000000000000069
:10197E000000000000000000000000000000000059
:10198E0000000000000001F8000706000C01001C1A
:10199E0001803800C03800C03000607000607000F8
:1019AE00607000707000707000707000707000F0E9
:1019BE003800F03801F03C03701F0E700FFC7003FE
:1019CE00F0700000600000E00000E00000E00000A9
:1019DE00C00001C00C01801E03801E03001E060005
:1019EE000E1C0003F00000000000000000000000CC
:1019FE0000000000000000000000000000000000D9
:101A0E0000000000000000000000000000000000C8
:101A1E0000000000000000000000000000000000B8
:101A2E0000000000000000000000000000000000A8
:101A3E000000000000780000FC0000FC0000FC002C
:101A4E0000FC000078000000000000000000000014
:101A5E000000000000000000000000000000000078
:101A6E000000000000780000FC0000FC0000FC00FC
:101A7E0000FC0000780000000000000000000000E4
:0E1A8E0000000000000000000000000000004A
:0C3C27008E418F428A438B448D828C8337
:103C3300E54224FFFFE54134FFFEE58224FFFDE575
:103C43008334FFFCE5422402FBE43541FAE5822498
:103C530002F54DE43583F54C123CB6E4F545AF442B
:0E3C6300AE43123F940545E545C3941040F072
:013C71002230
:10315900E4F52FF530F531F532C3EB9FF534E49EF4
:10316900F533C3E52A9DF536E5299CF5358E3F8F64
:10317900408C3D8D3ED3E5349400E53364809480E2
:103189004008753900753A01801DE53445337006EC
:10319900F539F53A801174FFF539F53AC3E49534F8
:1031A900F534E49533F533D3E5369400E535648099
:1031B90094804008753B00753C01801DE536453516
:1031C9007006F53BF53C801174FFF53BF53CC3E413
:1031D9009536F536E49535F535D3E5349536E53547
:1031E9006480F8E53364809840088533378534383E
:1031F9008006853537853638E4F52DF52EE53824F2
:1032090001FFE43537FED3E52E9FE52D9E400302ED
:10321900329FAB2CAA2BAD3EAC3DAF40AE3F123C2A
:1032290027E5342530F530E533352FF52FE53625FB
:1032390032F532E5353531F531D3E5309538E537B5
:103249006480F8E52F6480984018E5309538F530AA
:10325900E52F9537F52FE53A2540F540E539353F16
:10326900F53FD3E5329538E5376480F8E531648078
:10327900984018E5329538F532E5319537F531E55D
:103289003C253EF53EE53B353DF53D052EE52E70E9
:0632990002052D023206C1
:01329F00220C
:0E3855008E328F338C348D358B368A3789381E
:10386300AB36AA37A938121E4F700302390424E07D
:10387300F53FE533240FFBE43532FAE5352417F53C
:103883004DE43534F54CAD35AC34AF33AE32123C88
:10389300B6E4F53E75F030E53FA4246CF582E5F01F
:1038A3003402F583E582253EF582E43583F583E42E
:1038B30093754000F541E4F53DE54130E706AF3A45
:1038C300AE398004AF3CAE3B123F94E54125E0F5B1
:1038D30041E54033F540053DE53DC3940840DA0535
:1038E3003EE53EC3943040AC74012538F538E435E9
:1038F30037F53774102533F533E43532F5320238B2
:013903006360
:0139040022A0
:0E3905008E2D8F2E8C2F8D308B318A32893390
:10391300AB31AA32A933121E4F70030239B424D03B
:10392300F53AE52E2417FBE4352DFAE530242FF57F
:103933004DE4352FF54CAD30AC2FAF2EAE2D123CF0
:10394300B6E4F53975F090E53AA4246CF582E5F018
:103953003414F583E5822539F582E43583F583E470
:1039630093753B00F53CE4F538E53C30E706AF35AD
:10397300AE348004AF37AE36123F94E53C25E0F514
:103983003CE53B33F53B0538E538C3940840DA059D
:1039930039E539C3949040AC74012533F533E435EC
:1039A30032F5327418252EF52EE4352DF52D023916
:0139B3001300
:0139B40022F0
:103DCF00124021E4FD7F6B123FC67D077F19123F22
:103DDF00C67D067F1A123FC67D187F1B123FC67D18
:063DEF00017F1C023FC62B
:063D9E008E218F227F3D03
:023DA4008F3B53
:103DA600123F5C8F3CE53B04FF123F5CAD07AF3C26
:103DB600EF3395E0EFFEED3395E0FCE42DFFEE3CAE
:083DC600FE7C007D40121EBDD1
:013DCE0022D2
:1032A000E4F53A7F3D123DA4EF4E70277F3F123D7B
:1032B000A4EF4E601E7F43123DA4EF4E60157F4584
:1032C000123DA4EF4E600C7F47123DA4EF4E600309
:1032D000123DCF7F3B123DA4123D9E8E238F247F53
:1032E0003F123DA48E258F267F43123DA48E2D8F45
:1032F0002E7F45123DA48E2F8F307F47123DA48E26
:10330000318F32E4F53985212785222885232985C7
:10331000242A85252B85262C852D33852E34852F33
:10332000358530368531378532387F3B123DA412E2
:103330003D9E8E238F247F3F123DA48E258F267FB6
:1033400043123DA48E2D8F2E7F45123DA48E2F8FCC
:10335000307F47123DA48E318F32E4FFEF25E02409
:1033600027F8E6FC08E6FDEF25E02421F8E6FA0858
:10337000E6C39DFDEA9CFCD3ED9464EC64809480EC
:103380005026EF25E02421F8E6FC08E6FDEF25E0D5
:103390002427F8E6FA08E6C39DFDEA9CFCD3ED94E9
:1033A00064EC648094804004053A80040FBF03AC51
:1033B0000539E539C394035003023306E53AC39453
:0833C0000350037F00227F018E
:0133C80022E2
:053F0400123F09D2B1DB
:103F090000000000000000000000000000000000A8
:093F19000000000000000000227D
:0A400D00D2B0123F04C2B0023F0916
:0A401700C2B0123F04D2B0023F090C
:0B3E6300123F22123E6EAF05123F22FC
:103E6E00E4FFD2B1123F0930B009EFC394FA500308
:083E7E000F80F4C2B1023F09FC
:0A402100D2B0123F09D2B1023F09EC
:103F2200E4FEEF25E0FFC2B1123F0992B0123F0456
:0E3F32000EBE08EEC2B1123F09D2B0023F0926
:103DF500E4FFC2B1123F09D2B0123F09FED2B1129F
:103E05003F09EF25E0FFA2B0E4334FFFC2B1123FF7
:053E1500090EBE08E8E3
:013E1A002285
:103FC600AC0712400D7FD0123F22123E6EAF041294
:053FD6003E63024017EC
:023F5C00AD07AF
:103F5E0012400D7FD0123E6312400D7FD1123F22D0
:093F6E00123E6E123DF5124017DF
:013F77002227
:103EC700E4FDFCC3ED9FEC9E5014E4FBFA0BBB0032
:0E3ED700010AEBF44A70F60DBD00010C80E507
:013EE50022BA
:0F3FFE00C2A7D2B2C2A68F80C2A5D2A5D2A722D7
:043FDB00123FFEFF94
:0F3FDF00C2A7D2B2D2A68F80C2A5D2A5D2A722E6
:10379500D2B37FC87E00123EC7C2B37F207E03121C
:1037A5003EC7D2B3123EC7C2A77F367E00123FFE88
:1037B5007FC8123FDF7F3A123FFE7F05123FDF7F52
:1037C500FE123FFE7FEF123FFE7FE2123FFE7F803B
:1037D500123FDF7FA3123FFE7F07123FDF7FA41258
:1037E5003FFE7F09123FDF7FFF123FFE7F12123F30
:1037F500DF7FFD123FFE7F04123FDF7FF5123FFEA4
:10380500E4FF123FDF7FFB123FDB7FF1123FFE7FBC
:1038150055123FDF7FF8123FFE7F22123FDF7FF315
:10382500123FFE7F52123FDF7FFA123FFE7F2512C5
:103835003FDF7FF4123FDB7FFC123FDB7F11123F3E
:10384500FE7F78123EC77F29123FFE7F32023EC7B8
:103CB6008F828E837F2A7E00123FFEE583FF123FAE
:103CC600DFAF82123FDFEAFF123FDFAF03123FDFB3
:103CD6007F2B123FFEECFF123FDFAF05123FDFE501
:0F3CE6004CFF123FDFAF4D123FDF7F2C023FFE3E
:103F9400AD07AC06C2A7D2B2D2A6ECFF8F80C2A5F1
:0B3FA400D2A58D80C2A5D2A5D2A72215
:043D30008E248F2529
:103D3400754C00754DDB7BAF7A00E4FDFCFFFE1291
:103D44003CB6E4FB900000AF25AE24123F94A3E5FB
:103D54008264B0458370F00BBB00010AEB64DC4A5B
:023D640070E20B
:013D6600223A
:103EEC000608000000000000010E00040F00000096
:073EFC0000041300000000A8
:1033C900E4F5B0123DCF123795E4FFFE123D3012FD
:1033D9003FEE120003E54EB40203122FF0122CCF78
:1033E900120003123BDB1234DF1236CEBF01E6E4D2
:1033F900851812851711F510F50FE51224D0FFE590
:103409001134FEFEE51034FFFDE50F34FFFCE47BCB
:10341900AFFAF9F8121EF3E47B5E7A0DF9F8123C63
:10342900728F128E118D108C0FE4851A168519155D
:10343900F514F5132516FFE51534FFFEE51434FFE1
:10344900FDE51334FFFCE47BDBFAF9F8121EF3E423
:103459007B707A0DF9F8123C728F168E158D148CCB
:1034690013E47FAEFEFDFCAB12AA11A910A80FD37D
:10347900121F50400AE47512AEF511F510F50FE46C
:103489007FDAFEFDFCAB16AA15A914A813D3121FE7
:1034990050400AE47516DAF515F514F513E47F734F
:1034A900FEFDFCAB12AA11A910A80FD3121F505090
:1034B900030233DEE47F18FEFDFCAB16AA15A9143E
:1034C900A813121F5040030233DE122AE3E4FFFE61
:0634D900123D300233DE5B
:103D670031003200330034003500360037003800A8
:103D7700390030004241434B003A0053455400009C
:103D8700000000000000000000000000000000002C
:073D97000000000000000025
:1028F2008B218A228923E4FFFE123D30AB21AA22DA
:10290200A9237539FF753AE0E4F53BF53C7D18FCE7
:102912007F2FFE123855752900752A32752BF875EE
:102922002C007B9B7D327C007F147E001231597516
:102932002900752A5A752BF8752C007B9B7D5A7CD1
:10294200007F147E00123159752900752A82752B79
:10295200F8752C007B9B7D827C007F147E001231F7
:1029620059752900752AAA752BF8752C007B9B7D59
:10297200AA7C007F147E00123159752900752AD273
:10298200752BF8752C007B9B7DD27C007F147E001A
:10299200123159752900752AD2752BF8752C007BD6
:1029A200417D5A7C007F417E0012315975290075A4
:1029B2002AD2752BF8752C007B6E7D327C007F6EDF
:1029C2007E001231597BFF7A3D79677539F8753A85
:1029D20000E4F53BF53C7D5EFC7F1FFE1238557B23
:1029E200FF7A3D79697539F8753A00E4F53BF53CB3
:1029F2007D5EFC7F51FE1238557BFF7A3D796B7507
:102A020039F8753A00E4F53BF53C7D5EFC7F7FFECC
:102A12001238557BFF7A3D796D7539F8753A00E4C5
:102A2200F53BF53C7D86FC7F1FFE1238557BFF7A15
:102A32003D796F7539F8753A00E4F53BF53C7D86D2
:102A4200FC7F51FE1238557BFF7A3D79717539F85A
:102A5200753A00E4F53BF53C7D86FC7F7FFE12383B
:102A6200557BFF7A3D79737539F8753A00E4F53B89
:102A7200F53C7DAEFC7F1FFE1238557BFF7A3D7917
:102A8200757539F8753A00E4F53BF53C7DAEFC7F8F
:102A920051FE1238557BFF7A3D79777539F8753AD0
:102AA20000E4F53BF53C7DAEFC7F7FFE1238557BA2
:102AB200FF7A3D79797539F8753A00E4F53BF53CD2
:102AC2007D3AFC7F7FFE1238557BFF7A3D797B751C
:102AD2003900753A1FE4F53BF53CFDFCFFFE023878
:012AE200559E
:102CCF0078217C007D007BFF7A3D79867E007F0234
:102CDF00121E2978237C007D007BFF7A3D79887E48
:102CEF00007F02121E2978257C007D007BFF7A3D34
:102CFF00798A7E007F02121E2978277C007D007B57
:102D0F00FF7A3D798C7E007F02121E2978297C0084
:102D1F007D007BFF7A3D798E7E007F02121E29781F
:102D2F002B7C007D007BFF7A3D79907E007F021225
:102D3F001E29E54F75F00A842430F521E54F75F013
:102D4F000A84E5F02430F523E55075F00A84243029
:102D5F00F525E55075F00A84E5F02430F527E551A7
:102D6F0075F00A842430F529E55175F00A84E5F0F1
:102D7F002430F52B7B007A0079217534F8753500F6
:102D8F00E4F536F5377D64FC7F0AFE1239057B00CA
:102D9F007A0079237534F8753500E4F536F5377D0B
:102DAF0064FC7F1EFE1239057BFF7A3D79807534F6
:102DBF00F8753500E4F536F5377D5EFC7F32FE128F
:102DCF0039057B007A0079257534F8753500E4F5FF
:102DDF0036F5377D64FC7F46FE1239057B007A009D
:102DEF0079277534F8753500E4F536F5377D64FCD1
:102DFF007F5AFE1239057BFF7A3D79807534F8755D
:102E0F003500E4F536F5377D5EFC7F6EFE12390531
:102E1F007B007A0079297534F8753500E4F536F5BD
:102E2F00377D64FC7F82FE1239057B007A00792B97
:102E3F007534F8753500E4F536F5377D64FC7F960B
:102E4F00FE1239057BFF7A3D7982753900753A1F7D
:0D2E5F00E4F53BF53CFDFC7F7FFE0238559D
:102E6C0078267C007D007BFF7A3D79927E007F0284
:102E7C00121E2978287C007D007BFF7A3D79947E98
:102E8C00007F02121E29782A7C007D007BFF7A3D90
:102E9C0079967E007F02121E29782C7C007D007BA7
:102EAC00FF7A3D79987E007F02121E29782E7C00D5
:102EBC007D007BFF7A3D799A7E007F02121E297875
:102ECC00307C007D007BFF7A3D799C7E007F021276
:102EDC001E29E52375F00A842430F526E52375F0C8
:102EEC000A84E5F02430F528E52475F00A842430B2
:102EFC00F52AE52475F00A84E5F02430F52CE52557
:102F0C0075F00A842430F52EE52575F00A84E5F079
:102F1C002430F5307BFF7A3D79807539F8753A00AD
:102F2C00E4F53BF53C7D38FC7F27FE1238557BFFE2
:102F3C007A3D79807539F8753A00E4F53BF53C7DBE
:102F4C0038FC7F47FE1238557B007A00792675399C
:102F5C00F8753A00E4F53BF53C7D3AFC7F11FE1226
:102F6C0038557B007A0079287539F8753A00E4F504
:102F7C003BF53C7D3AFC7F1DFE1238557B007A00F8
:102F8C00792A7539F8753A00E4F53BF53C7D3AFC45
:102F9C007F31FE1238557B007A00792C7539F87523
:102FAC003A00E4F53BF53C7D3AFC7F3DFE1238558A
:102FBC007B007A00792E7539F8753A00E4F53BF50B
:102FCC003C7D3AFC7F51FE1238557B007A007930FB
:102FDC007539F8753A00E4F53BF53C7D3AFC7F5DBC
:042FEC00FE02385554
:1024A800E4F522C2A9F50E1236CEBF01FAE485186A
:1024B80012851711F510F50FE51224D0FFE5113438
:1024C800FEFEE51034FFFDE50F34FFFCE47BAFFAB8
:1024D800F9F8121EF3E47B5E7A0DF9F8123C728F5C
:1024E800128E118D108C0FE4851A16851915F514A6
:1024F800F5132516FFE51534FFFEE51434FFFDE559
:102508001334FFFCE47BDBFAF9F8121EF3E47B706A
:102518007A0DF9F8123C728F168E158D148C13E40F
:102528007FAEFEFDFCAB12AA11A910A80FD3121F93
:1025380050400AE47512AEF511F510F50FE47FDA94
:10254800FEFDFCAB16AA15A914A813D3121F504000
:102558000AE47516DAF515F514F513E47F73FEFD34
:10256800FCAB12AA11A910A80FD3121F504027E4E0
:102578007F2DFEFDFCAB16AA15A914A813D3121FB4
:10258800504013E47F55FEFDFCA813121F5050065F
:10259800E4F5210227E9E47F3CFEFDFCAB12AA1119
:1025A800A910A80FC3121F505026E47F5FFEFDFC40
:1025B800AB16AA15A914A813121F504013E47F875D
:1025C800FEFDFCA813121F5050067521010227E9D1
:1025D800E47F46FEFDFCAB12AA11A910A80FD31286
:1025E8001F504033E47F69FEFDFCA80F121F5050B6
:1025F80026E47F5FFEFDFCAB16AA15A914A81312EA
:102608001F504013E47F87FEFDFCA813121F505093
:10261800067521020227E9E47F73FEFDFCAB12AACE
:1026280011A910A80FD3121F504027E47F5FFEFDA9
:10263800FCAB16AA15A914A813D3121F504013E413
:102648007F87FEFDFCA813121F5050067521030258
:1026580027E9E47F3CFEFDFCAB12AA11A910A80FE4
:10266800C3121F505026E47F91FEFDFCAB16AA153D
:10267800A914A813121F504013E47FA5FEFDFCA85F
:1026880013121F5050067521040227E9E47F46FE05
:10269800FDFCAB12AA11A910A80FD3121F5040338A
:1026A800E47F69FEFDFCA80F121F505026E47F91BD
:1026B800FEFDFCAB16AA15A914A813121F5040134F
:1026C800E47FA5FEFDFCA813121F505006752105D6
:1026D8000227E9E47F73FEFDFCAB12AA11A910A83A
:1026E8000FD3121F504027E47F91FEFDFCAB16AAC2
:1026F80015A914A813D3121F504013E47FA5FEFD9B
:10270800FCA813121F5050067521060227E9E47F22
:102718003CFEFDFCAB12AA11A910A80FC3121F5052
:102728005041E47FAFFEFDFCAB16AA15A914A8130F
:10273800121F5040067F01C00780047F00C007E4D5
:102748007FCDFEFDFCAB16AA15A914A813C3121F52
:102758005050047E0180027E00D0E05E6005752145
:1027680007807EE47F46FEFDFCAB12AA11A910A8E3
:102778000FD3121F504032E47F69FEFDFCA80F12F0
:102788001F505025E47FAFFEFDFCAB16AA15A91417
:10279800A813121F504012E47FCDFEFDFCA81312AF
:1027A8001F5050057521088038E47F73FEFDFCAB8F
:1027B80012AA11A910A80FD3121F504029E47FAF05
:1027C800FEFDFCAB16AA15A914A813D3121F50407E
:1027D80015E47FCDFEFDFCA813121F50500875218B
:1027E80009752201802BE47F37FEFDFCAB12AA118C
:1027F800A910A80FC3121F505017E47F18FEFDFC44
:10280800AB16AA15A914A813C3121F505003D2A9B6
:1028180022E522640160030224AFF522E50E14606C
:102828003114604E1460631460731470030228BD81
:10283800240560030228CEE521C39403400302283F
:10284800CEE54F75F00A84AFF0E52175F00AA42FA4
:10285800801AE521C394044006E54F94145067E5B7
:102868004F75F00A84C3E54F95F02521F54F050E05
:102878008054E521C39406504DE55075F00A84AFA5
:10288800F0E52175F00AA42F800DE55075F00A8453
:10289800C3E55095F02521F550050E8029E521C3A3
:1028A80094065022E55175F00A84AFF0E52175F0E1
:1028B8000AA42F800DE55175F00A84C3E55195F0FF
:1028C8002521F551050E78237C007D007B007A00D8
:1028D800794F7E007F03121E29122E6CE50E6406C6
:0A28E80060030224AFF50E0224AFD6
:10203400E4F522F50E1236CEBF01FAE485181285B6
:102044001711F510F50FE51224D0FFE51134FEFE4B
:10205400E51034FFFDE50F34FFFCE47BAFFAF9F83B
:10206400121EF3E47B5E7A0DF9F8123C728F128E25
:10207400118D108C0FE4851A16851915F514F513B6
:102084002516FFE51534FFFEE51434FFFDE5133492
:10209400FFFCE47BDBFAF9F8121EF3E47B707A0DA3
:1020A400F9F8123C728F168E158D148C13E47FAEE2
:1020B400FEFDFCAB12AA11A910A80FD3121F5040A9
:1020C4000AE47512AEF511F510F50FE47FDAFEFDA2
:1020D400FCAB16AA15A914A813D3121F50400AE486
:1020E4007516DAF515F514F513E47F73FEFDFCABF4
:1020F40012AA11A910A80FD3121F504027E47F2D54
:10210400FEFDFCAB16AA15A914A813D3121F504048
:1021140013E47F55FEFDFCA813121F505006E4F58E
:1021240021022373E47F3CFEFDFCAB12AA11A9102B
:10213400A80FC3121F505026E47F5FFEFDFCAB16B0
:10214400AA15A914A813121F504013E47F87FEFD9B
:10215400FCA813121F505006752101022373E47F5B
:1021640046FEFDFCAB12AA11A910A80FD3121F50F2
:102174004033E47F69FEFDFCA80F121F505026E493
:102184007F5FFEFDFCAB16AA15A914A813121F50FD
:102194004013E47F87FEFDFCA813121F5050067500
:1021A4002102022373E47F73FEFDFCAB12AA11A982
:1021B40010A80FD3121F504027E47F5FFEFDFCAB35
:1021C40016AA15A914A813D3121F504013E47F872D
:1021D400FEFDFCA813121F50500675210302237341
:1021E400E47F3CFEFDFCAB12AA11A910A80FC31298
:1021F4001F505026E47F91FEFDFCAB16AA15A914CE
:10220400A813121F504013E47FA5FEFDFCA813126F
:102214001F505006752104022373E47F46FEFDFC23
:10222400AB12AA11A910A80FD3121F504033E47F98
:1022340069FEFDFCA80F121F505026E47F91FEFD9D
:10224400FCAB16AA15A914A813121F504013E47F5F
:10225400A5FEFDFCA813121F50500675210502238C
:1022640073E47F73FEFDFCAB12AA11A910A80FD36F
:10227400121F504027E47F91FEFDFCAB16AA15A95E
:1022840014A813D3121F504013E47FA5FEFDFCA82D
:1022940013121F505006752106022373E47F3CFE7F
:1022A400FDFCAB12AA11A910A80FC3121F50504174
:1022B400E47FAFFEFDFCAB16AA15A914A813121FE8
:1022C4005040067F01C00780047F00C007E47FCD33
:1022D400FEFDFCAB16AA15A914A813C3121F505077
:1022E400047E0180027E00D0E05E600575210780D7
:1022F4007EE47F46FEFDFCAB12AA11A910A80FD301
:10230400121F504032E47F69FEFDFCA80F121F50DB
:102314005025E47FAFFEFDFCAB16AA15A914A81343
:10232400121F504012E47FCDFEFDFCA813121F5073
:1023340050057521088038E47F73FEFDFCAB12AABA
:1023440011A910A80FD3121F504029E47FAFFEFD3E
:10235400FCAB16AA15A914A813D3121F504015E4F8
:102364007FCDFEFDFCA813121F505008752109757E
:1023740022018057E47F37FEFDFCAB12AA11A9109D
:10238400A80FC3121F505018E47F18FEFDFCAB16B3
:10239400AA15A914A813C3121F505004E4F54E2221
:1023A400E47F64FEFDFCAB12AA11A910A80FD3129E
:1023B4001F504017E47F18FEFDFCAB16AA15A914A4
:1023C400A813121F505004754E0122E522640160C7
:1023D40003022039F522E50E14603114604E1460B6
:1023E40063146073147003022473240560030224CD
:1023F40084E521C394034003022484E55375F00A61
:1024040084AFF0E52175F00AA42F801AE521C39466
:10241400044006E55394145067E55375F00A84C3E9
:10242400E55395F02521F553050E8054E521C39419
:1024340006504DE55475F00A84AFF0E52175F00AB5
:10244400A42F800DE55475F00A84C3E55495F02556
:1024540021F554050E8029E521C394065022E55543
:1024640075F00A84AFF0E52175F00AA42F800DE51C
:102474005575F00A84C3E55595F02521F555050EEB
:1024840078237C007D007B007A0079537E007F03F3
:10249400121E29122E6CE50E64066003022039F523
:0424A4000E022039CB
:0B000E00C2A1D2A3D2A2D2A1C2A322A1
:103F7800C2A1E4FEEFC4131313540124FF92A2EF6D
:0B3F880025E0FFC2A1D2A10EBE08E997
:013F9300220B
:103E3F00E4FFFEC2A1FDFCEF25E0FFEE33FED2A1B1
:103E4F00C2A1A2A0E43342070DBD00010CED640C2A
:033E5F004C70E4C0
:013E6200223D
:0235E800AB072F
:1035EA00C2A1C2A3E4FAAF03123F78752D06D52D06
:1035FA00FDD2A10000C2A10000123E3FEA25E0244C
:10360A002EF8A60608A6070ABA0ADBD2A3E4FAEA43
:10361A0004F52DE52DC3940A5059E52D25E0242EF5
:10362A00F8E6FE08E6FFEA25E0242EF8E6FC08E6BE
:10363A00C39FEC9E5039EA25E0242EF8E6FE08E600
:10364A00FFE48F458E44F543F542E52D25E0242E0F
:10365A00F8E6FE08E6FFEA25E0242EF8A60608A604
:10366A0007AF45E52D25E0242EF8A64408A6070550
:10367A002D80A00AEA64097096E4F545F544F543FD
:10368A00F5427A02EA25E0242EF8E6FE08E6FFE48F
:10369A00FCFDE5452FF545E5443EF544ED3543F59A
:1036AA0043EC3542F5420ABA08DAAF45AE44AD43B7
:1036BA00AC42E47B06FAF9F8123C728F458E448DCF
:0336CA00438C42EC
:0136CD0022DA
:1036CE0012000E7FD01235E88E238F247F90123594
:1036DE00E88E298F2A7FD01235E88E258F267F908F
:1036EE001235E8AD07AC06D3E5249526E5239525DE
:1036FE00400EE5249526F528E5239525F527800D22
:10370E00C3E5269524F528E5259523F527D3E52A47
:10371E009DE5299C400CE52A9DF52CE5299CF52B71
:10372E00800BC3ED952AF52CEC9529F52BD3E528C6
:10373E009432E5279400500AE52C9432E52B940040
:10374E0040037F0022E5242526FFE5233525C313FC
:10375E00F517EF13F518E52A2DFFE5293CC313F5F0
:10376E0019EF13F51A5318F0531AF0C3E5189464B1
:10377E00E5179400400BD3E51A94A0E519940F4079
:06378E00037F00227F0111
:013794002212
:101A9C00021D44E86480F8E933E83360110460F017
:101AAC00ED33EC337009E8FCE9FDEAFEEBFF2204B0
:101ABC0060DED3EB9FEA9EE99DE8C2E78CF0C2F7AB
:101ACC0095F0400CE8CCF8E9CDF9EACEFAEBCFFB77
:101ADC00121D0F85D0F05804700320D5B3E80470A4
:101AEC00075002B2D5021D4E92D5EC0460F7E4CC3F
:101AFC00C0E0C398F8603B94186008400DD0E0FB40
:101B0C00021D26E4FBFAC9FC8028E830E406E4C98F
:101B1C00FBE4CAFCE830E305E4C9CACBFCE8540793
:101B2C006010F8C3E913F9EA13FAEB13FBEC13FC9E
:101B3C00D8F130F52FC3E49CFCEF9BFFEE9AFEED41
:101B4C0099FDD0E0FBEF4E4D4C701222DB03021DD1
:101B5C004BEC2CFCEF33FFEE33FEED33FDED30E7B9
:101B6C00EB021D26EF2BFFEE3AFEED39FDD0E0FB2C
:101B7C0050130BBB0003021D4EED13FDEE13FEEFD5
:081B8C0013FFEC13FC021D26FF
:101B9400EC4D6011E8497017ED33EC3304600DE44B
:101BA400FCFFFEFD22E933E8330470F8021D441201
:101BB4001D0F58046009E4CC248150062850090202
:101BC4001D4E284003021D4BC0E0EB4A7044B9800F
:101BD40006D0E0FB021D3AEF4E701CBD8008EBFFFF
:101BE400EAFEE9FD80EBE98DF0A4FEE5F0021C7D40
:101BF400E9CDF9EAFEEBFFEF89F0A4FCE5F0CE892C
:101C0400F0A42EFFE435F0CD89F0A42DFEE435F0E8
:101C14008067EF4E7005BD80D780C3EF8BF0A4AC16
:101C2400F0EE8BF0A42CFCE435F0F8EF8AF0A42C51
:101C3400E5F038FCE433CB8DF0A42CFCE5F03BF864
:101C4400EE8AF0A42CFCE5F038F8E433CF89F0A454
:101C54002CFCE5F038CF3400CE89F0A42FFFE5F05A
:101C64003EFEE433C98DF0A42EFEE5F039CD8AF0B2
:101C7400A42FFFE5F03EFEE43DFD33D0E0FB50072A
:101C84000BBB000F021D4EEC2CFCEF33FFEE33FEBA
:061C9400ED33FD021D26E8
:101C9A0075F020800E75F010800575F0087D007EC5
:101CAA00007F003392D530D503121F42EC33401027
:101CBA00EF33FFEE33FEED33FDEC33FCD5F0ED22CE
:0E1CCA00E5F0247EA2D513CC92E7CDCEFF220A
:101CD800EDD2E7CD33EC3392D524814006E4FFFE04
:101CE800FDFC22FCE4CFCECDCC24E0501174FF8063
:101CF800EDC3CC13CCCD13CDCE13CECF13CF047000
:071D0800F030D5DE021F429E
:101D0F00E9D2E7C933E833F892D5EDD2E7CD33EC1A
:071D1F0033FC5002B2D52293
:101D2600EC30E7100FBF000C0EBE00080DBD00041E
:101D36000BEB6014A2D5EB13FCED92E7FD2274FFCA
:101D4600FCFDFEFF22E480F8A2D574FF13FC7D8023
:031D5600E480EF37
:103A55000233C9E493A3F8E493A34003F68001F28B
:103A650008DFF48029E493A3F85407240CC8C33372
:103A7500C4540F4420C8834004F456800146F6DF41
:103A8500E4800B0102040810204080903EE6E47EAD
:103A9500019360BCA3FF543F30E509541FFEE49336
:103AA500A360010ECF54C025E060A840B8E493A3FD
:103AB500FAE493A3F8E493A3C8C582C8CAC583CA28
:103AC500F0A3C8C582C8CAC583CADFE9DEE780BEE0
:013F030000BD
:101D5900E709F608DFFA8046E709F208DFFA803E6C
:101D690088828C83E709F0A3DFFA8032E309F60859
:101D7900DFFA8078E309F208DFFA807088828C83C1
:101D8900E309F0A3DFFA806489828A83E0A3F60875
:101D9900DFFA805889828A83E0A3F208DFFA804C4F
:101DA90080D280FA80C680D4806980F28033801026
:101DB90080A680EA809A80A880DA80E280CA80338F
:101DC90089828A83ECFAE493A3C8C582C8CCC58307
:101DD900CCF0A3C8C582C8CCC583CCDFE9DEE780D7
:101DE9000D89828A83E493A3F608DFF9ECFAA9F056
:101DF900EDFB2289828A83ECFAE0A3C8C582C8CCAC
:101E0900C583CCF0A3C8C582C8CCC583CCDFEADEC4
:101E1900E880DB89828A83E493A3F208DFF980CC26
:101E290088F0EF60010E4E60C388F0ED2402B4041F
:101E39000050B9F582EB2402B4040050AF232345C6
:061E49008223901DA97325
:101E4F00BB010689828A83E0225002E722BBFE0291
:091E5F00E32289828A83E49322C4
:101E6800BC000BBE0029EF8DF084FFADF022E4CC5E
:101E7800F875F008EF2FFFEE33FEEC33FCEE9DEC27
:101E8800984005FCEE9DFE0FD5F0E9E4CEFD22ED6D
:101E9800F8F5F0EE8420D21CFEADF075F008EF2FB7
:101EA800FFED33FD4007985006D5F0F222C398FDA8
:051EB8000FD5F0EA2245
:101EBD00C2D5EC30E709B2D5E4C39DFDE49CFCEE40
:101ECD0030E715B2D5E4C39FFFE49EFE121E68C332
:101EDD00E49DFDE49CFC8003121E6830D507C3E42D
:061EED009FFFE49EFE22AF
:101EF300E88FF0A4CC8BF0A42CFCE98EF0A42CFC8E
:101F03008AF0EDA42CFCEA8EF0A4CDA8F08BF0A40B
:101F13002DCC3825F0FDE98FF0A42CCD35F0FCEB6A
:101F23008EF0A4FEA9F0EB8FF0A4CFC5F02ECD392F
:0F1F3300FEE43CFCEAA42DCE35F0FDE43CFC229C
:103C7200C2D5E830E70FB2D5E4C39BFBE49AFAE47D
:103C820099F9E498F8EC30E717B2D5123CA8121F64
:103C9200A2E4C39BFBE49AFAE499F9E498F880035E
:103CA200121FA230D50DE4C39FFFE49EFEE49DFDEA
:043CB200E49CFC2270
:0E1F4200C3E49FFFE49EFEE49DFDE49CFC22B0
:101F5000EB9FF5F0EA9E42F0E99D42F0EC6480C808
:061F600064809845F022A8
:101F660075F008758200EF2FFFEE33FECD33CDCC32
:101F760033CCC58233C5829BED9AEC99E5829840B5
:101F86000CF582EE9BFEED9AFDEC99FC0FD5F0D692
:101F9600E4CEFBE4CDFAE4CCF9A88222B800C1B9BC
:101FA6000059BA002DEC8BF084CFCECDFCE5F0CBFA
:101FB600F97818EF2FFFEE33FEED33FDEC33FCEB33
:101FC60033FB10D703994004EB99FB0FD8E5E4F9EE
:101FD600FA227818EF2FFFEE33FEED33FDEC33FCDB
:101FE600C933C910D7059BE99A4007EC9BFCE99ACF
:101FF600F90FD8E0E4C9FAE4CCFB2275F010EF2F14
:10200600FFEE33FEED33FDCC33CCC833C810D70713
:102016009BEC9AE899400AED9BFDEC9AFCE899F84E
:0E2026000FD5F0DAE4CDFBE4CCFAE4C8F922E1
:00000001FF
