:030000000240E1DA
:0C40E100787FE4F6D8FD75816602412866
:104610004241434B005345540054494D4500434CDF
:104620004F434B002E0053544F5000000000000039
:014630000089
:0445EE00021E0000A9
:1044E300D202122A92D20178217C007D007B007ACD
:1044F30000795C7E007F03121E29122061785C7CA8
:0A450300007D007E007F03021E29E8
:10450D00C202122A92C20178217C007D007B007AC2
:10451D000079607E007F03121E2912206178607C75
:0A452D00007D007E007F03021E29BE
:10300800E4FFFE12447B7BFF7A467910753E00751B
:103018003F1FE4F540F541FDFCFFFE123EED7BFF4E
:103028007A467915753EFF753FE0E4F540F5417D38
:1030380018FC7F32FE123EED7BFF7A467919753E09
:1030480007753FFFE4F540F5417D5EFC7F32FE12D7
:103058003EED7BFF7A46791E753E7F753FFFE4F5AE
:1030680040F5417D86FC7F32FE123EED75360075D7
:1030780037327538F87539007B9B7D327C007F14B8
:103088007E001236E07536007537827538F8753966
:10309800007B9B7D827C007F147E001236E07536B3
:1030A800007537AA7538F87539007B9B7DAA7C00B6
:1030B8007F147E001236E0123D66BF01FAE48518DF
:1030C80012851711F510F50FE51224D0FFE511341C
:1030D800FEFEE51034FFFDE50F34FFFCE47BAFFA9C
:1030E800F9F8121F20E47B5E7A0DF9F81243F88F85
:1030F800128E118D108C0FE4851A16851915F5148A
:10310800F5132516FFE51534FFFEE51434FFFDE53C
:103118001334FFFCE47BDBFAF9F8121F20E47B7020
:103128007A0DF9F81243F88F168E158D148C13E466
:103138007FAEFEFDFCAB12AA11A910A80FD3121F77
:103148007D400AE47512AEF511F510F50FE47FDA4B
:10315800FEFDFCAB16AA15A914A813D3121F7D40B7
:103168000AE47516DAF515F514F513E47F87FEFD04
:10317800FCAB16AA15A914A813C3121F7D5018E496
:103188007F5FFEFDFCA813121F7D400BE4FFFE12BB
:10319800447B1244E3805AE47F87FEFDFCAB16AA09
:1031A80015A914A813D3121F7D4018E47FA5FEFDAE
:1031B800FCA813121F7D500BE4FFFE12447B12453E
:1031C8000D802EE47F37FEFDFCAB12AA11A910A8D2
:1031D8000FC3121F7D40030230BFE47F18FEFDFCC1
:1031E800AB16AA15A914A813C3121F7D40030230F9
:0831F800BFE4FFFE12447B223C
:043950008E218F2213
:1039540078237C007D007BFF7A46792B7E007F06EE
:10396400121E29AE21AF227C007D64121EEAEF24D0
:1039740030F523AE21AF227C007D64121EEA7E0066
:103984007F0ACFCDCFCECCCE121EEAEF2430F52560
:10399400AE21AF227C007D0A121EEAED2430F52709
:1039A400AE21AF227C007D64121EEAAA06AB07AEEC
:1039B4001EAF1F7C007D64121EEAEFB50307EEB54F
:1039C400020330011A7B007A007923753E7F753F2C
:1039D400FFE4F540F5417DAAFC7F3CFE123EEDAECE
:1039E40021AF227C007D0A121EEA7C007D0A121E91
:1039F400EAAA04AB05AE1EAF1F7C007D0A121EEAC4
:103A04007C007D0A121EEAEDB50307ECB502033013
:103A140001347B007A007925753E7F753FFFE4F51C
:103A240040F5417DAAFC7F46FE123EED7BFF7A46BF
:103A34007924753E7F753FFFE4F540F5417DAAFC8E
:103A44007F50FE123EEDE51FB52208E51EB52103A9
:103A540030011A7B007A007927753E7F753FFFE4B9
:103A6400F540F5417DAAFC7F5AFE123EED85211EEC
:033A740085221F89
:013A7700222C
:10357500758911758BCC758DCCD2ABD28EE4F56681
:10358500755F46FFFE12447B7BFF7A467926753EC2
:10359500FF753FE0E4F540F5417D64FC7F41FE1297
:1035A5003EED78217C007D007B007A00795C7E0011
:1035B5007F03121E291233F1B2B6123D66EF640184
:1035C50060030236C7851812851711F510F50FE54A
:1035D5001224D0FFE51134FEFEE51034FFFDE50FA2
:1035E50034FFFCE47BAFFAF9F8121F20E47B5E7A26
:1035F5000DF9F81243F88F128E118D108C0FE4859A
:103605001A16851915F514F5132516FFE51534FF5A
:10361500FEE51434FFFDE51334FFFCE47BDBFAF92A
:10362500F8121F20E47B707A0DF9F81243F88F1613
:103635008E158D148C13E47FAEFEFDFCAB12AA1122
:10364500A910A80FD3121F7D400AE47512AEF5111B
:10365500F510F50FE47FDAFEFDFCAB16AA15A914EB
:10366500A813D3121F7D400AE47516DAF515F51473
:10367500F513E47F41FEFDFCAB12AA11A910A80FBA
:10368500D3121F7D50030235A7E47F82FEFDFCA8FF
:103695000F121F7D40030235A7E47F61FEFDFCABE1
:1036A50016AA15A914A813121F7D50030235A7E405
:1036B5007F7DFEFDFCA813121F7D40030235A7E4A4
:1036C500800B123827EF640160030235A7F55BC252
:0B36D5008EC2ABC2B5FFFE12447B2288
:10471A00D3EF9400EE9400400DE4FD0DBD6EFCEF66
:06472A001F70ED1E80EA85
:014730002266
:10463100C2B77F677E00EF1F70011EEF4E70F7D289
:0E464100B77E007F04EF1F70011EEF4E70F772
:01464F002248
:10458300C2B70FBF0000D2B70FBF00000FBF0000BC
:10459300A2B792017E007F08EF1F70011EEF4E70DD
:0345A300F7A2017B
:0145A60022F2
:1046AB00E4FDFC124583E433FFC43333335480FE03
:0B46BB00EDC3134EFD0CBC08EAAF0578
:0146C60022D1
:0C430D001246317F017E0012471A7FCC5F
:10431900E4FEEF139201EFC313FF30011BC2B70B89
:10432900BB00000BBB0000D2B77A007B08EB1B7007
:10433900011AEB4A70F7801BC2B77A007B08EB1BA6
:1043490070011AEB4A70F7D2B70BBB00010A0BBB1D
:0743590000010A0EBE08BBC3
:01436000223A
:1043610012430D7FBE1243191246ABAB071246AB87
:10437100EFFEEBFFFDAC06E4121C9FE4FBFA798033
:10438100783D121B948F248E238D228C21E4FFFE15
:104391007D207C41AB24AA23A922A821121B94E4ED
:0B43A100FBFAF9783F121AA3121CD897
:0143AC0022EE
:0800030012430D7F4402431972
:0645F200016500015B0001
:10476C00758901758C4C758ACED2A9D28CD2AF22A8
:03000B000242B0FE
:1042B000C0E0C0D0758C4C758AD2E565C3941440BB
:1042C00045756500E55E943B5004055E801F755E94
:1042D00000E55DC3943B5004055D8011755D00E50C
:1042E0005CC394175004055C8003755C00E55BB407
:1042F0000116E55CB56011E55DB5610CE55EB56282
:0D43000007755B0280020565D0D0D0E03269
:03001B0002404D53
:10404D00C0E0C0F0C083C082C0D075D000C000C039
:10405D0001C002C003C004C005C006C007758DCCE9
:10406D00758BCC05660564E56470020563AE63FF70
:10407D00E4FCFD7B607AEAF9F8C3121F7D500675EA
:10408D006300756400AE63AF647C037DE8121E951A
:10409D00ED4C7006740A255FF55FE566B464037533
:1040AD006600E55FD394644003755F46E566C3958E
:1040BD005F5004D2B58002C2B5D007D006D005D06E
:1040CD0004D003D002D001D000D0D0D082D083D084
:0440DD00F0D0E0320D
:10001E00C4EA0000000000C0000001F0000001E092
:10002E00000003C000C003C001E007FFFFF007039C
:10003E00C0000E03C0001E03C0003C03C3007303C8
:10004E00C78063FFFFC00383C0000383C000038328
:10005E00C0000383C0000383C0600383C0F07FFF32
:10006E00FFF80003C0000003C0000003C00000033F
:10007E00C0000003C0000003C0000003C000000366
:10008E00C00000000000D4C200000000000000000C
:10009E0000E0070000FFFF8000F0078000F007007F
:1000AE0000F0070000F0070000F0070000FFFF005F
:1000BE0000FFFF0000F0070000F0070000F007004F
:1000CE0000F0070000E0070000FFFF0000E007005F
:1000DE0000E0070000E0070001E0070001C0070094
:1000EE0001C00700038007000780F7000F007F00A4
:1000FE001E001F0038001C0000000000C8D50000C4
:10010E000000000000000300030003FFFF8003FF58
:10011E00FF80038007000380070003800700038031
:10012E000700038007000380070003800700038099
:10013E00070003FFFF000380070003800700038012
:10014E000700038007000380070003800700038079
:10015E000700038007000380070003FFFF000380F2
:10016E000700038007000380070003000000000063
:10017E000000D0C700000000000000000380070050
:10018E0003FFFF8003800700038007000380070042
:10019E0003FFFF00038007000380070003FFFF003B
:1001AE0003FFFF00038707000387C00003C781001A
:1001BE0003C7838007FFFFC0070780000F0780007B
:1001CE001E0786001C078F003BFFFF807007800014
:1001DE0000078000000780E0000781F07FFFFFF836
:1001EE000000000000000000C6DA0000000006005B
:1001FE000000079E0000079E7FF0079E7FF0079F7E
:10020E00F8F03FFFF8F01F9E78F0079E78F0079EFB
:10021E0078F007FE7FF0079E78F0079E78F0079E35
:10022E0070F007FE70F0079E70F0079E7FF0079F3C
:10023E00FFF03FFFF0F0119070F003DCF0F003DE02
:10024E00E0F0078FE0F00F0FE0F00E07C0F01C0398
:10025E008FF0380F03E0201C01C0000000000000EA
:10026E000000000000000000000000000000000080
:10027E000000000000000000000000000000000070
:10028E000000000000000000000000000000000060
:10029E00000000000000070007000700070007002D
:1002AE000200020002000200020002000000000034
:1002BE00000007000700070000000000000000001B
:1002CE000000066006600CC01980110022000000BC
:1002DE000000000000000000000000000000000010
:1002EE000000000000000000000000000000000000
:1002FE0000000000000000001040104010401040B0
:10030E007FE07FE010401040208020807FE07FE083
:10031E00208020802080208000000000000000004F
:10032E0000000000020002000F801AC032C032C06E
:10033E0032001A000E0007000380038002C032C094
:10034E0032C032C012800F00020002000000000016
:10035E00000000000000000070C0508088808900FE
:10036E0089008B008A005FC0754006200A200A2093
:10037E001A201220114021C00000000000000000D1
:10038E0000000000000000001C00260026002600D1
:10039E00260025C03880308058804900CD00C70027
:1003AE00C600C300652038C0000000000000000039
:1003BE000000300038000800080010006000000047
:1003CE00000000000000000000000000000000001F
:1003DE00000000000000000000000000000000000F
:1003EE000000002000400080018001000300030097
:1003FE0006000600060006000600060006000300C2
:10040E000300010001800080004000200000000079
:10041E000000400020001000180008000C000C0026
:10042E0006000600060006000600060006000C0088
:10043E000C00080018001000200040000000000012
:10044E000000000000000000000002000200020098
:10045E0072703AE00F800F803AE072700200020074
:10046E00020000000000000000000000000000007C
:10047E00000000000000000000000000020002006A
:10048E000200020002007FF00200020002000200E1
:10049E00020000000000000000000000000000004C
:1004AE00000000000000000000000000000000003E
:1004BE00000000000000000000000000000000002E
:1004CE000000300038000800080010006000000036
:1004DE00000000000000000000000000000000000E
:1004EE000000000000007FE000000000000000009F
:1004FE0000000000000000000000000000000000EE
:10050E0000000000000000000000000000000000DD
:10051E0000000000000000000000000000000000CD
:10052E000000380038003800000000000000000015
:10053E00000000200060004000C00080008001002C
:10054E00010002000200060004000400080008007A
:10055E00100010003000200060004000000000007D
:10056E0000000000000000000F00198030C030C0F5
:10057E00606060606060606060606060606060606D
:10058E0030C030C019800F000000000000000000D5
:10059E000000000000000000020006003E00060001
:1005AE00060006000600060006000600060006000D
:1005BE000600060006003FC000000000000000001C
:1005CE0000000000000000001F00218040C060C03D
:1005DE0060C000C0018001800300040008001040CC
:1005EE00204040407FC07FC000000000000000009F
:1005FE0000000000000000001E00230061806180EA
:10060E006180018003000E000180008000C060C088
:10061E0060C060C021801F000000000000000000CC
:10062E000000000000000080018003800380058030
:10063E000980098011802180218041807FE0018026
:10064E0001800180018007E0000000000000000032
:10065E0000000000000000003FC03FC0200020004E
:10066E00200020002F00318020C000C000C060C0DC
:10067E0060C0418021801F000000000000000000CB
:10068E000000000000000000078018C030C03000DD
:10069E0020006000678068C07060606060606060AD
:1006AE002060304018C00F00000000000000000065
:1006BE0000000000000000001FE03FE030402080FE
:1006CE0020800080010001000200020002000600EE
:1006DE0006000600060006000000000000000000F4
:1006EE0000000000000000001F8030C060606060ED
:1006FE00606070403CC00F00338020C0606060605E
:10070E006060606030C00F800000000000000000DC
:10071E0000000000000000000F00308030C060407C
:10072E0060606060606060E031601E60006000C00C
:10073E0000C0308031801E0000000000000000006C
:10074E00000000000000000000000000000000009B
:10075E000700070007000000000000000000000076
:10076E000000070007000700000000000000000066
:10077E00000000000000000000000000000000006B
:10078E00000006000600000000000000000000004F
:10079E000000000006000600020004000000000039
:1007AE000000000000000020004000800100020058
:1007BE0004000800100020001000080004000200D1
:1007CE00010000800040002000000000000000003A
:1007DE00000000000000000000000000000000000B
:1007EE0000007FE000000000000000007FE000003D
:1007FE0000000000000000000000000000000000EB
:10080E00000000000000200010000800040002009C
:10081E000100008000400020004000800100020026
:10082E00040008001000200000000000000000007E
:10083E000000000000000F8030C04060406060602B
:10084E00606000C001800600040004000400000087
:10085E0000000E000E000E00000000000000000060
:10086E00000000000000000007801C6010203350C4
:10087E0026D06490649068906890699069A066C074
:10088E0030103020184007800000000000000000EB
:10089E000000000000000000060006000E000B0025
:1008AE000B0013001180118011801F8020C020C00A
:1008BE0020C020606060F0F000000000000000002A
:1008CE000000000000000000FF00618060C060C0FA
:1008DE0060C060C061807F0060C06040606060602A
:1008EE006060606060C0FF800000000000000000DB
:1008FE00000000000000000007E0186030203020EB
:10090E0020006000600060006000600060006020F9
:10091E003020304018800F00000000000000000062
:10092E000000000000000000FE00618060C060C09A
:10093E0060606060606060606060606060606060A9
:10094E0060C060C06380FE00000000000000000078
:10095E000000000000000000FFC06040602060004A
:10096E006000610061007F00610061006000600056
:10097E00602060206040FFC000000000000000000A
:10098E000000000000000000FFC060C0602060207A
:10099E006000610061007F00610061006000600026
:1009AE00600060006000F000000000000000000029
:1009BE0000000000000000000F4018C03040304022
:1009CE002000600060006000600063F060C060C0E6
:1009DE0030C030C018C00F00000000000000000042
:1009EE000000000000000000F0F0606060606060D9
:1009FE006060606060607FE060606060606060604A
:100A0E00606060606060F0F00000000000000000B8
:100A1E0000000000000000003FC0060006000600B7
:100A2E000600060006000600060006000600060088
:100A3E000600060006003FC0000000000000000097
:100A4E0000000000000000000FF001800180018016
:100A5E000180018001800180018001800180018080
:100A6E000180018001800180618063003E000000F2
:100A7E000000000000000000F3E0608061006200F2
:100A8E00620064006C007C00760067006300638087
:100A9E00618060C060E0F1F0000000000000000026
:100AAE000000000000000000F00060006000600028
:100ABE006000600060006000600060006000600028
:100ACE00602060206040FFC00000000000000000B9
:100ADE000000000000000000F0F070E070E070E038
:100AEE0059605960596059605A604E604E604E6050
:100AFE004E6044604460E4F000000000000000001E
:100B0E000000000000000000E070702070205820EF
:100B1E0058204C20462046204320432041A040E050
:100B2E0040E040604060E020000000000000000057
:100B3E0000000000000000000F00198030C030409F
:100B4E006060606060606060606060606060606097
:100B5E00304030C019800F0000000000000000007F
:100B6E000000000000000000FF8060C06060606058
:100B7E0060606060606060C07F80600060006000E8
:100B8E00600060006000F000000000000000000047
:100B9E0000000000000000000F00198030C030403F
:100BAE0060606060606060606060606060606E6029
:100BBE00324031C011800F8001E000C00000000003
:100BCE000000000000000000FF8060C060606060F8
:100BDE006060606060C07F006600630063006180DB
:100BEE00618060C060C0F070000000000000000076
:100BFE0000000000000000001F2030E06020602098
:100C0E00600070003C000F0003C000C00060406038
:100C1E004060606070C04F80000000000000000067
:100C2E0000000000000000007FE0462086108610C5
:100C3E000600060006000600060006000600060076
:100C4E000600060006000F00000000000000000075
:100C5E000000000000000000F070602060206020A6
:100C6E006020602060206020602060206020602076
:100C7E006020602030401F80000000000000000057
:100C8E000000000000000000F8F0706030403040BE
:100C9E003040308018801880188018800D000D00AC
:100CAE000D000F000600060000000000000000000E
:100CBE000000000000000000F7706620662066400D
:100CCE0066406740374037403B803B803B803B80EF
:100CDE00398011001100110000000000000000001A
:100CEE00000000000000000079E030C0188018807D
:100CFE0019000D000E000600060007000B000B8009
:100D0E001980118030C079E0000000000000000062
:100D1E000000000000000000F8F0706030403080ED
:100D2E00188018800D000D000E000600060006004B
:100D3E000600060006001F800000000000000000F4
:100D4E0000000000000000003FE020C041C0018014
:100D5E00038003000300060006000C000C001800C0
:100D6E001820382030407FC0000000000000000036
:100D7E00000007E004000400040004000400040066
:100D8E000400040004000400040004000400040035
:100D9E000400040004000400040007E0000000004A
:100DAE0000000000000020001000100010000800DD
:100DBE00080004000400040002000200010001000B
:100DCE000100008000800040004000400020000034
:100DDE0000003F00010001000100010001000100C0
:100DEE0001000100010001000100010001000100ED
:100DFE00010001000100010001003F0000000000A1
:100E0E00000007000D8010400000000000000000F0
:100E1E0000000000000000000000000000000000C4
:100E2E0000000000000000000000000000000000B4
:100E3E0000000000000000000000000000000000A4
:100E4E000000000000000000000000000000000094
:100E5E00000000000000000000000000FFF0000095
:100E6E00000030003800080008001000600000008C
:100E7E000000000000000000000000000000000064
:100E8E000000000000000000000000000000000054
:100E9E000000000000000000000000000000000044
:100EAE0000000F8030C030C007C01CC030C060C012
:100EBE0060C060C071D03EF0000000000000000075
:100ECE000000000000001000700030003000300004
:100EDE00300033803CC0386030603060306030604D
:100EEE003060304038C02F8000000000000000004D
:100EFE0000000000000000000000000000000000E4
:100F0E0000000F0031803180618060006000600061
:100F1E006040304030800F000000000000000000F4
:100F2E00000000000000004001C000C000C000C072
:100F3E0000C01EC031C030C060C060C060C060C0A4
:100F4E0060C020C031E01E800000000000000000E4
:100F5E000000000000000000000000000000000083
:100F6E000000078018C0106030603FE03000300095
:100F7E00300018201C400780000000000000000018
:100F8E00000000000000000003C006600C600C00B2
:100F9E000C007FC00C000C000C000C000C000C00B0
:100FAE000C000C000C003F80000000000000000050
:100FBE000000000000000000000000000000000023
:100FCE0000000F70199030C030C030C019801F0063
:100FDE0030003E001FC06060606070E01F80000047
:100FEE0000000000000010007000300030003000E3
:100FFE003000378038C030C030C030C030C030C054
:10100E0030C030C030C079E00000000000000000A9
:10101E0000000000000000000600060000000000B6
:10102E0000003E0006000600060006000600060050
:10103E000600060006003FC0000000000000000091
:10104E000000000000000000018001800000000090
:10105E0000000F80018001800180018001800180ED
:10106E000180018001800180018033003E0000007C
:10107E000000000000001000700030003000300052
:10108E00300033C031003300320036003E003B00EA
:10109E0033003180318079E0000000000000000054
:1010AE0000000000000002003E00060006000600E0
:1010BE0006000600060006000600060006000600F2
:1010CE000600060006003FC0000000000000000001
:1010DE000000000000000000000000000000000002
:1010EE000000EEE07760666066606660666066606F
:1010FE00666066606660F770000000000000000029
:10110E0000000000000000000000000000000000D1
:10111E00000073803CC030C030C030C030C030C022
:10112E0030C030C030C079E0000000000000000088
:10113E0000000000000000000000000000000000A1
:10114E0000000F00198030C06060606060606060F9
:10115E00606030C030C00F000000000000000000D2
:10116E000000000000000000000000000000000071
:10117E000000778038C030603060306030603060A2
:10118E00306030C038C03780300030007C00000046
:10119E000000000000000000000000000000000041
:1011AE0000001E4031C030C060C060C060C060C072
:1011BE0060C020C031C01EC000C000C003E00000EF
:1011CE000000000000000000000000000000000011
:1011DE000000F9E01A601C00180018001800180032
:1011EE00180018001800FF000000000000000000AA
:1011FE0000000000000000000000000000000000E1
:10120E0000000FE01860302030001C000F8001C07D
:10121E002060206030C03F80000000000000000011
:10122E0000000000000000000000040004000C009C
:10123E000C007F800C000C000C000C000C000C004D
:10124E000C000C400C400780000000000000000065
:10125E000000000000000000000000000000000080
:10126E00104071C030C030C030C030C030C030C04F
:10127E0030C030C039E01E800000000000000000C9
:10128E000000000000000000000000000000000050
:10129E0000007CF03860184018400C800C800C80E8
:1012AE000700070007000200000000000000000019
:1012BE000000000000000000000000000000000020
:1012CE000000F7B0632063206720372035C039C097
:1012DE0039C039C0108010800000000000000000EE
:1012EE0000000000000000000000000000000000F0
:1012FE0000007DE0188019800D000E00060007002A
:10130E000B00198011C07BE00000000000000000FF
:10131E0000000000000000000000000000000000BF
:10132E0000007DE03880188018800D000D000D0043
:10133E000600060002000400040028003800000029
:10134E00000000000000000000000000000000008F
:10135E0000003FC0218023800300070006000E001E
:10136E000C201C2018603FC0000000000000000090
:10137E00000000000000000000000000000000005F
:10138E00000000000000000000000000000000004F
:10139E00000000000000000000000000000000003F
:1013AE00000000000000000000000000000000002F
:1013BE00000000000000000000000000000000001F
:1013CE00000000000000000000000000000000000F
:1013DE0000000000000000000000000000000000FF
:1013EE0000000000000000000000000000000000EF
:1013FE0000000000000000000000000000000000DF
:10140E0000000000000000000000000000000000CE
:10141E0000000000000000000000000000000000BE
:10142E0000000000000000000000000000000000AE
:10143E00000000000000000000000000000000009E
:10144E00000000000000000000000000000000008E
:10145E00000000000000000000000000000000007E
:10146E00000000000000000000000000000000006E
:10147E0000000000000000F8000386000703000EC5
:10148E0001800C01C01C00C01800C03800E03800FC
:10149E00E038006070007070007070007070007046
:1014AE00700070700070700070700070700070705E
:1014BE0000707000707000703800603800E0380006
:1014CE00E01800C01C00C00C01800E018006030055
:1014DE0003860000F800000000000000000000007D
:1014EE0000000000000000000000000000000000EE
:1014FE0000000000000000000000000000000000DE
:10150E00000000000000000800001800003800076E
:10151E00F8000038000038000038000038000038AD
:10152E000000380000380000380000380000380095
:10153E000038000038000038000038000038000085
:10154E00380000380000380000380000380000383D
:10155E000000380000380000380000380000380065
:10156E00007C0007FFC0000000000000000000002B
:10157E00000000000000000000000000000000005D
:10158E00000000000000000000000000000000004D
:10159E0000000000000000FC000307000C03801890
:1015AE0001C01801C03800E03800E03800E03C000F
:1015BE00E03C00E01C00E00001C00001C000038020
:1015CE00000380000700000E00001C000038000021
:1015DE00700000E00001C000038000030000060060
:1015EE00200C00201800603000602000C07FFFC07B
:1015FE007FFFC07FFFC00000000000000000000061
:10160E0000000000000000000000000000000000CC
:10161E0000000000000000000000000000000000BC
:10162E0000000000000000FC000307000603800C11
:10163E0001C01C01C01C00E01E00E01E00E00E00F8
:10164E00E00000E00000C00001C0000180000300C7
:10165E00000E0000F800000F000001800000C00026
:10166E0000E00000600000700000701800703C0088
:10167E00703C00703C00603800E01800C00C018027
:10168E0006070001FC000000000000000000000042
:10169E00000000000000000000000000000000003C
:1016AE00000000000000000000000000000000002C
:1016BE00000000000000000300000700000700000B
:1016CE000F00001F00001700003700002700006702
:1016DE000000C70000870001870003070002070013
:1016EE00060700040700080700180700100700305F
:1016FE0007006007007FFFF87FFFF8000700000774
:10170E0000000700000700000700000700000700A8
:10171E0000078000FFF8000000000000000000003D
:10172E0000000000000000000000000000000000AB
:10173E00000000000000000000000000000000009B
:10174E000000000000000FFFE00FFFE00FFFE008B9
:10175E00000008000008000008000008000010004B
:10176E000010000010000010FE0013FF0017038091
:10177E001C01C01C00E01800E00000F0000070002A
:10178E0000700000700000701800703C00703C008B
:10179E00703C00603800E01800E01801C00C0180B9
:1017AE0007070001FC000000000000000000000020
:1017BE00000000000000000000000000000000001B
:1017CE00000000000000000000000000000000000B
:1017DE00000000000000007E0001838003038006ED
:1017EE0003C00C03C01803C0180000180000380016
:1017FE0000300000300000700000707E0071FF802D
:10180E007783C07601C07C00E07800E070007070D5
:10181E0000707000707000707000703000703800D2
:10182E00703800701800601C00E00C00C0060180CB
:10183E0003830000FC000000000000000000000018
:10184E00000000000000000000000000000000008A
:10185E00000000000000000000000000000000007A
:10186E000000000000001FFFF01FFFF01FFFE01C34
:10187E0000601000C03000802001802001000003B5
:10188E0000000200000600000400000C000008002A
:10189E00001800001800003000003000007000003A
:1018AE00600000600000E00000E00000E00000E0EA
:1018BE000001E00001E00001E00001E00001E000B5
:1018CE0001E00000E0000000000000000000000049
:1018DE0000000000000000000000000000000000FA
:1018EE0000000000000000000000000000000000EA
:1018FE0000000000000001FE000703800E01C01C66
:10190E0000E01800E03800703800703800703800C1
:10191E00703C00701E00E01F00E00F81C007E380E6
:10192E0003FE0003FE00063F000C0F801C07C038AC
:10193E0001E03801E07000F070007070007070000F
:10194E00707000707000703800E01800C00C01C09C
:10195E0007030001FC000000000000000000000072
:10196E000000000000000000000000000000000069
:10197E000000000000000000000000000000000059
:10198E0000000000000001F8000706000C01001C1A
:10199E0001803800C03800C03000607000607000F8
:1019AE00607000707000707000707000707000F0E9
:1019BE003800F03801F03C03701F0E700FFC7003FE
:1019CE00F0700000600000E00000E00000E00000A9
:1019DE00C00001C00C01801E03801E03001E060005
:1019EE000E1C0003F00000000000000000000000CC
:1019FE0000000000000000000000000000000000D9
:101A0E0000000000000000000000000000000000C8
:101A1E0000000000000000000000000000000000B8
:101A2E0000000000000000000000000000000000A8
:101A3E000000000000780000FC0000FC0000FC002C
:101A4E0000FC000078000000000000000000000014
:101A5E000000000000000000000000000000000078
:101A6E000000000000780000FC0000FC0000FC00FC
:101A7E0000FC0000780000000000000000000000E4
:0E1A8E0000000000000000000000000000004A
:0C43AD008E4E8F4F8A508B518D828C8376
:1043B900E54F24FFFFE54E34FFFEE58224FFFDE5CE
:1043C9008334FFFCE54F2402FBE4354EFAE58224F1
:1043D90002F55AE43583F55912443CE4F552AF51DC
:0E43E900AE501246FF0552E552C3941040F04C
:0143F70022A3
:1036E000E4F53CF53DF53EF53FC3EB9FF541E49E27
:1036F000F540C3E5379DF543E5369CF5428E4C8F8A
:103700004D8C4A8D4BD3E5419400E5406480948014
:103710004008754600754701801DE541454070062B
:10372000F546F547801174FFF546F547C3E495412A
:10373000F541E49540F540D3E5439400E5426480CB
:1037400094804008754800754901801DE543454255
:103750007006F548F549801174FFF548F549C3E452
:103760009543F543E49542F542D3E5419543E5425F
:103770006480F8E540648098400885404485414570
:103780008006854244854345E4F53AF53BE545240A
:1037900001FFE43544FED3E53B9FE53A9E4003023A
:1037A0003826AB39AA38AD4BAC4AAF4DAE4C1243BC
:1037B000ADE541253DF53DE540353CF53CE543258E
:1037C0003FF53FE542353EF53ED3E53D9545E544C1
:1037D0006480F8E53C6480984018E53D9545F53DEA
:1037E000E53C9544F53CE547254DF54DE546354C22
:1037F000F54CD3E53F9545E5446480F8E53E6480AB
:10380000984018E53F9545F53FE53E9544F53EE582
:1038100049254BF54BE548354AF54A053BE53B70F4
:0638200002053A02378D9B
:01382600227F
:0E3EED008E378F388C398D3A8B3B8A3C893D5D
:103EFB00AB3BAA3CA93D121E4F7003023F9C24E032
:103F0B00F544E538240FFBE43537FAE53A2417F589
:103F1B005AE43539F559AD3AAC39AF38AE371244AE
:103F2B003CE4F54375F030E544A4246CF582E5F0F0
:103F3B003402F583E5822543F582E43583F583E48A
:103F4B0093754500F546E4F542E54630E706AF3F8D
:103F5B00AE3E8004AF41AE401246FFE54625E0F58C
:103F6B0046E54533F5450542E542C3940840DA057D
:103F7B0043E543C3943040AC7401253DF53DE43536
:103F8B003CF53C74102538F538E43537F537023EEF
:013F9B00FB2A
:013F9C002202
:10416D00EB24E0F539EF240FFBE43EFAED2417F5CF
:10417D005AE43CF55912443CE4F53875F030E53914
:10418D00A4246CF582E5F03402F583E5822538F53B
:10419D0082E43583F583E493753A00F53BE4F53716
:1041AD00E53B30E706AF34AE338004AF36AE3512A3
:1041BD0046FFE53B25E0F53BE53A33F53A0537E5B6
:0F41CD0037C3940840DA0538E538C3943040AC66
:0141DC0022C0
:06424D008B3B8A3C893D19
:10425300EF240FFBE43EFAED2417F55AE43CF5593D
:1042630012443CE4F543AB3BAA3CA93D854382752C
:104273008300121E68754400F545E4F542E54530B8
:10428300E706AF3FAE3E8004AF41AE401246FFE5C6
:104293004525E0F545E54433F5440542E542C3943D
:0C42A3000840DA0543E543C3943040BAFC
:0142AF0022EC
:0E3F9D008E378F388C398D3A8B3B8A3C893DAC
:103FAB00AB3BAA3CA93D121E4F700302404C24D0E0
:103FBB00F544E5382417FBE43537FAE53A242FF5B9
:103FCB005AE43539F559AD3AAC39AF38AE371244FE
:103FDB003CE4F54375F090E544A4246CF582E5F0E0
:103FEB003414F583E5822543F582E43583F583E4C8
:103FFB0093754500F546E4F542E54630E706AF3FDD
:10400B00AE3E8004AF41AE401246FFE54625E0F5DB
:10401B0046E54533F5450542E542C3940840DA05CC
:10402B0043E543C3949040AC7401253DF53DE43525
:10403B003CF53C74182538F538E43537F537023F35
:01404B00ABC9
:01404C002251
:1041DD00EB24D0F533EF2417FBE43EFAED242FF555
:1041ED005AE43CF55912443CE4F53275F090E53350
:1041FD00A4246CF582E5F03414F583E5822532F5BF
:10420D0082E43583F583E493753400F535E4F531B7
:10421D00E53530E706AF2EAE2D8004AF30AE2F1250
:10422D0046FFE53525E0F535E53433F5340531E563
:0F423D0031C3940840DA0532E532C3949040ACA7
:01424C00224F
:1045370012479FE4FD7F6B1247317D077F191247B2
:10454700317D067F1A1247317D187F1B1247317D57
:06455700017F1C02473148
:0644B2008E218F227F3DE8
:0244B8008F3B38
:1044BA001246C78F3CE53B04FF1246C7AD07AF3C27
:1044CA00EF3395E0EFFEED3395E0FCE42DFFEE3C93
:0844DA00FE7C007D40121EEA89
:0144E20022B7
:10382700E4F53A7F3D1244B8EF4E70277F3F1244CC
:10383700B8EF4E701E7F431244B8EF4E70157F45A8
:103847001244B8EF4E700C7F471244B8EF4E700326
:103857001245377F3B1244B81244B28E238F247F20
:103867003F1244B88E258F267F431244B88E2D8F82
:103877002E7F451244B88E2F8F307F471244B88E63
:10388700318F32E4F539852127852228852329853B
:10389700242A85252B85262C852D33852E34852FA7
:1038A700358530368531378532387F3B1244B8123B
:1038B70044B28E238F247F3F1244B88E258F267FF4
:1038C700431244B88E2D8F2E7F451244B88E2F8F0A
:1038D700307F471244B88E318F32E4FFEF25E02462
:1038E70027F8E6FC08E6FDEF25E02421F8E6FA08CC
:1038F700E6C39DFDEA9CFCD3ED94C8EC64809480FC
:103907005026EF25E02421F8E6FC08E6FDEF25E048
:103917002427F8E6FA08E6C39DFDEA9CFCD3ED945C
:10392700C8EC648094804004053A80040FBF03AC60
:103937000539E539C39403500302388DE53AC3943A
:083947000350037F00227F0101
:01394F002255
:05466F00124674D2B1F7
:104674000000000000000000000000000000000036
:094684000000000000000000220B
:0A478B00D2B012466FC2B0024674AD
:0A479500C2B012466FD2B0024674A3
:0B45CB0012468D1245D6AF0512468D3A
:1045D600E4FFD2B112467430B009EFC394FA500327
:0845E6000F80F4C2B10246741B
:0A479F00D2B0124674D2B102467483
:10468D00E4FEEF25E0FFC2B112467492B012466F00
:0E469D000EBE08EEC2B1124674D2B0024674D0
:10455D00E4FFC2B1124674D2B0124674FED2B1124B
:10456D004674EF25E0FFA2B0E4334FFFC2B112460F
:05457D00740EBE08E809
:014582002216
:10473100AC0712478B7FD012468D1245D6AF0412BB
:0547410045CB02479585
:0246C700AD073D
:1046C90012478B7FD01245CB12478B7FD112468D73
:0946D9001245D612455D12479509
:0146E20022B5
:10465000E4FDFCC3ED9FEC9E5014E4FBFA0BBB00A1
:0E466000010AEBF44A70F60DBD00010C80E576
:01466E002229
:0F477C00C2A7D2B2C2A68F80C2A5D2A5D2A72251
:0447460012477CFF9B
:0F474A00C2A7D2B2D2A68F80C2A5D2A5D2A72273
:103E2D00D2B37FC87E00124650C2B37F207E0312EC
:103E3D004650D2B3124650C2A77F367E0012477C41
:103E4D007FC812474A7F3A12477C7F0512474A7F47
:103E5D00FE12477C7FEF12477C7FE212477C7F800A
:103E6D0012474A7FA312477C7F0712474A7FA4124D
:103E7D00477C7F0912474A7FFF12477C7F1212470A
:103E8D004A7FFD12477C7F0412474A7FF512477C1B
:103E9D00E4FF12474A7FFB1247467FF112477C7FB2
:103EAD005512474A7FF812477C7F2212474A7FF30B
:103EBD0012477C7F5212474A7FFA12477C7F2512A8
:103ECD00474A7FF41247467FFC1247467F1112473F
:103EDD007C7F781246507F2912477C7F32024650F4
:10443C008F828E837F2A7E0012477CE583FF124792
:10444C004AAF8212474AEAFF12474AAF0312474A61
:10445C007F2B12477CECFF12474AAF0512474AE507
:0F446C0059FF12474AAF5A12474A7F2C02477C2A
:1046FF00AD07AC06C2A7D2B2D2A6ECFF8F80C2A57F
:0B470F00D2A58D80C2A5D2A5D2A722A2
:04447B008E318F32BD
:10447F00755900755ADB7BAF7A00E4FDFCFFFE1225
:10448F00443CE4FB900000AF32AE311246FFA3E58F
:10449F008264B0458370F00BBB00010AEB64DC4A09
:0244AF0070E2B9
:0144B10022E8
:1045F8000608000000000000010E00040F00000083
:074608000004130000000094
:103A7800D200E4F5B0124537123E2DE4FFFE1244A1
:103A88007B12476C120003E55BB40205123575D250
:103A980000A2009201122D73120003124361A200CA
:103AA8009201123950C200123D66BF01DAE485184E
:103AB80012851711F510F50FE51224D0FFE5113422
:103AC800FEFEE51034FFFDE50F34FFFCE47BAFFAA2
:103AD800F9F8121F20E47B5E7A0DF9F81243F88F8B
:103AE800128E118D108C0FE4851A16851915F51490
:103AF800F5132516FFE51534FFFEE51434FFFDE543
:103B08001334FFFCE47BDBFAF9F8121F20E47B7026
:103B18007A0DF9F81243F88F168E158D148C13E46C
:103B28007FAEFEFDFCAB12AA11A910A80FD3121F7D
:103B38007D400AE47512AEF511F510F50FE47FDA51
:103B4800FEFDFCAB16AA15A914A813D3121F7D40BD
:103B58000AE47516DAF515F514F513E47F73FEFD1E
:103B6800FCAB12AA11A910A80FD3121F7D50030293
:103B78003A8FE47F18FEFDFCAB16AA15A914A8130A
:103B8800121F7D4003023A8F123008E4FFFE1244F0
:063B98007BD200023A8F0F
:103C840054494D4500434C4F434B00594553004262
:103C940041434B003A003100320033003400350018
:103CA4003600370038003900300053455400000016
:103CB4000000000000000000008001C001C003E01B
:103CC40007F00FF81FFC3FFE3FFE7FFE7FFE7FFEE6
:103CD400FFFFFFFF000000000000000000000000E4
:103CE4000000000000000000FFFFFFFF7FFE7FFEDA
:103CF4007FFE3FFE3FFE1FFC0FF807F003E001C00C
:103D040001C000800000000000000000000000006E
:103D14000000000000000000000038006C00C60035
:103D24008200C6006C0038FE01FE07000E000E0083
:103D34000E000C000C000C000C000E000E0006001F
:103D440003FE00FE00000000000000000000000070
:103D5400000000000000000000000000000000005F
:023D640000005D
:102A920078287C007D007BFF7A3D79127E007F0CD6
:102AA200121E2978347C007D007B003002237A00DC
:102AB200795C7E007F03121E297BFF7A3C79847544
:102AC2003EFF753FE0E4F540F5417D18FC7F2F8025
:102AD2003A7A0079607E007F03121E297BFF7A3CDE
:102AE2007989753EFF753FE0E4F540F5417D18FCBC
:102AF2007F2FFE123EED7BFF7A3C798F753E00758B
:102B02003F1FE4F540F541FDFC7F7FFE123EEDE5FF
:102B12003475F00A842430F528E53475F00A84E52A
:102B2200F02430F52AE53575F00A842430F52CE5D9
:102B32003575F00A84E5F02430F52EE53675F00A95
:102B4200842430F530E53675F00A84E5F02430F55A
:102B5200327BFF7A3C79B2753E7F753FFFE4F540E8
:102B6200F5417D3CFC7F09FE12424D7BFF7A3C79A8
:102B7200B2753E7F753FFFE4F540F5417D3CFC7F39
:102B82001DFE12424D7BFF7A3C79B2753E7F753F46
:102B9200FFE4F540F5417D3CFC7F45FE12424D7B52
:102BA200FF7A3C79B2753E7F753FFFE4F540F5410F
:102BB2007D3CFC7F59FE12424D7BFF7A3C79B27517
:102BC2003E7F753FFFE4F540F5417D3CFC7F81FE91
:102BD20012424D7BFF7A3C79B2753E7F753FFFE42E
:102BE200F540F5417D3CFC7F95FE12424D7BFF7A1C
:102BF2003C79E2753E7F753FFFE4F540F5417DA0EB
:102C0200FC7F09FE12424D7BFF7A3C79E2753E7FE2
:102C1200753FFFE4F540F5417DA0FC7F1DFE1242A9
:102C22004D7BFF7A3C79E2753E7F753FFFE4F540CC
:102C3200F5417DA0FC7F45FE12424D7BFF7A3C7937
:102C4200E2753E7F753FFFE4F540F5417DA0FC7FD4
:102C520059FE12424D7BFF7A3C79E2753E7F753F09
:102C6200FFE4F540F5417DA0FC7F81FE12424D7BE1
:102C7200FF7A3C79E2753E7F753FFFE4F540F5410E
:102C82007DA0FC7F95FE12424D7BFF7A3C799375C5
:102C92003E00753F1FE4F540F541FDFCFFFE123E8C
:102CA200ED7BFF7A3C7998753E7F753FFFE4F540F6
:102CB200F5417D5EFC7F32FE123F9D7BFF7A3C79BF
:102CC20098753E7F753FFFE4F540F5417D5EFC7FE0
:102CD2006AFE123F9D7B007A007928753EF8753FA7
:102CE20000E4F540F5417D64FC7F0AFE123F9D7BC6
:102CF200007A00792A753EF8753F00E4F540F54107
:102D02007D64FC7F1EFE123F9D7B007A00792C754C
:102D12003E07753FE0E4F540F5417D64FC7F46FEE9
:102D2200123F9D7B007A00792E753E07753FE0E4E5
:102D3200F540F5417D64FC7F5AFE123F9D7B007A8F
:102D4200007930753EFF753FE0E4F540F5417D6462
:102D5200FC7F82FE123F9D7B007A007932753EFF36
:102D6200753FE0E4F540F5417D64FC7F96FE023F4D
:012D72009DC3
:103200008B2E8A2F8930E4FFFE12447BAB2EAA2F2F
:10321000A930753EFF753FE0E4F540F5417D18FCAF
:103220007F2FFE123EED7536007537327538F87512
:1032300039007B9B7D327C007F147E001236E07566
:10324000360075375A7538F87539007B9B7D5A7C86
:10325000007F147E001236E07536007537827538AF
:10326000F87539007B9B7D827C007F147E001236CE
:10327000E07536007537AA7538F87539007B9B7D87
:10328000AA7C007F147E001236E07536007537D2B6
:103290007538F87539007B9B7DD27C007F147E00E9
:1032A0001236E07536007537D27538F87539007BFF
:1032B000417D5A7C007F417E001236E075360075F4
:1032C00037D27538F87539007B6E7D327C007F6EA1
:1032D0007E001236E07BFF7A3C799A753EF8753FA6
:1032E00000E4F540F5417D5EFC7F1FFE123EED7B64
:1032F000FF7A3C799C753EF8753F00E4F540F54156
:103300007D5EFC7F51FE123EED7BFF7A3C799E751F
:103310003EF8753F00E4F540F5417D5EFC7F7FFEA1
:10332000123EED7BFF7A3C79A0753EF8753F00E4D4
:10333000F540F5417D86FC7F1FFE123EED7BFF7A56
:103340003C79A2753EF8753F00E4F540F5417D8675
:10335000FC7F51FE123EED7BFF7A3C79A4753EF86E
:10336000753F00E4F540F5417D86FC7F7FFE123E0F
:10337000ED7BFF7A3C79A6753EF8753F00E4F54099
:10338000F5417DAEFC7F1FFE123EED7BFF7A3C795E
:10339000A8753EF8753F00E4F540F5417DAEFC7F31
:1033A00051FE123EED7BFF7A3C79AA753EF8753FDF
:1033B00000E4F540F5417DAEFC7F7FFE123EED7BE3
:1033C000FF7A3C79AC753EF8753F00E4F540F54175
:1033D0007D3AFC7F7FFE123EED7BFF7A3C79937550
:1033E0003E00753F1FE4F540F541FDFCFFFE023E47
:0133F000EDEF
:102D730078247C007D007BFF7A3D794E7E007F02C4
:102D8300121E2978267C007D007BFF7A3D79507ED8
:102D9300007F02121E2978287C007D007BFF7A3D8C
:102DA30079527E007F02121E29782A7C007D007BE7
:102DB300FF7A3D79547E007F02121E29782C7C0015
:102DC3007D007BFF7A3D79567E007F02121E2978B3
:102DD3002E7C007D007BFF7A3D79587E007F0212B6
:102DE3001E29200103022E847BFF7A3C79AE753EB7
:102DF30000753F1FE4F540F541FDFC7F7FFE123E69
:102E0300ED7BFF7A3C7998753E7F753FFFE4F54093
:102E1300F5417D5EFC7F32FE123F9D7BFF7A3C795C
:102E230098753E7F753FFFE4F540F5417D5EFC7F7D
:102E33006AFE123F9D755900755AC17B787A007DF1
:102E4300AA7C007F697E0012443CE4F522E52290CF
:102E53003D1E93F521E4F523E52130E7067FFF7E50
:102E63007F8003E4FFFE1246FFE52125E0F52105FF
:102E730023E523C3940840E00522E522C3943040B0
:102E8300CCE55C75F00A842430F524E55C75F00A22
:102E930084E5F02430F526E55D75F00A842430F5E9
:102EA30028E55D75F00A84E5F02430F52AE55E75C2
:102EB300F00A842430F52CE55E75F00A84E5F024ED
:102EC30030F52EE51BB55C0330015DE55C75F00A5A
:102ED30084FFE51B75F00A84B5070330011A7B00F4
:102EE3007A007924753EF8753F00E4F540F5417D9D
:102EF30064FC7F0AFE123F9DE55C75F00A84AFF027
:102F0300E51B75F00A84E5F0B5070330011A7B0071
:102F13007A007926753EF8753F00E4F540F5417D6A
:102F230064FC7F1EFE123F9DE51CB55D0330015D11
:102F3300E55D75F00A84FFE51C75F00A84B50703A7
:102F430030011A7B007A007928753E07753FE0E46B
:102F5300F540F5417D64FC7F46FE123F9DE55D75BE
:102F6300F00A84AFF0E51C75F00A84E5F0B50703B9
:102F730030011A7B007A00792A753E07753FE0E439
:102F8300F540F5417D64FC7F5AFE123F9DE51DB57A
:102F93005E0330015DE55E75F00A84FFE51D75F0A3
:102FA3000A84B5070330011A7B007A00792C753E39
:102FB300FF753FE0E4F540F5417D64FC7F82FE123E
:102FC3003F9DE55E75F00A84AFF0E51D75F00A8458
:102FD300E5F0B5070330011A7B007A00792E753EC0
:102FE300FF753FE0E4F540F5417D64FC7F96FE12FA
:102FF3003F9D781B7C007D007B007A00795C7E001E
:053003007F03021E29FD
:1033F10078247C007D007BFF7A3D795A7E007F0234
:10340100121E2978267C007D007BFF7A3D795C7E47
:10341100007F02121E2978287C007D007BFF7A3D07
:10342100795E7E007F02121E29782A7C007D007B56
:10343100FF7A3D79607E007F02121E29782C7C0084
:103441007D007BFF7A3D79627E007F02121E297822
:103451002E7C007D007BFF7A3D79647E007F021225
:103461001E29E52175F00A842430F524E52175F043
:103471000A84E5F02430F526E52275F00A8424302B
:10348100F528E52275F00A84E5F02430F52AE523D4
:1034910075F00A842430F52CE52375F00A84E5F0F3
:1034A1002430F52E7BFF7A3C7998753EF8753F0004
:1034B100E4F540F5417D38FC7F27FE123EED7BFFB0
:1034C1007A3C7998753EF8753F00E4F540F5417D09
:1034D10038FC7F47FE123EED7B007A007924753E71
:1034E100F8753F00E4F540F5417D3AFC7F11FE128D
:1034F1003EED7B007A007926753EF8753F00E4F5D4
:1035010040F5417D3AFC7F1DFE123EED7B007A00C5
:103511007928753EF8753F00E4F540F5417D3AFCA8
:103521007F31FE123EED7B007A00792A753EF875F7
:103531003F00E4F540F5417D3AFC7F3DFE123EED52
:103541007B007A00792C753EF8753F00E4F540F573
:10355100417D3AFC7F51FE123EED7B007A00792ECF
:10356100753EF8753F00E4F540F5417D3AFC7F5D1D
:04357100FE023EED2B
:10475900484F5552004D494E555445005345434F16
:034769004E4400BB
:082608008F288D298A2A8B2BF3
:10261000E4F52CC202FFFE12447BE52870097BFF23
:102620007A477959123200E528B401097BFF7A47CD
:10263000795E123200E528B402097BFF7A4779659A
:10264000123200E52975F00A842430FB852A33858F
:102650002B34E4F535F5367D3AFC7F31FE12416DC1
:10266000E52975F00A84E5F02430FB852A33852BB3
:1026700034E4F535F5367D3AFC7F3DFE12416D12AE
:102680003D66BF01FAE4851812851711F510F50FA4
:10269000E51224D0FFE51134FEFEE51034FFFDE520
:1026A0000F34FFFCE47BAFFAF9F8121F20E47B5EE5
:1026B0007A0DF9F81243F88F128E118D108C0FE4F9
:1026C000851A16851915F514F5132516FFE5153429
:1026D000FFFEE51434FFFDE51334FFFCE47BDBFA79
:1026E000F9F8121F20E47B707A0DF9F81243F88F85
:1026F000168E158D148C13E47FAEFEFDFCAB12AA72
:1027000011A910A80FD3121F7D400AE47512AEF56F
:1027100011F510F50FE47FDAFEFDFCAB16AA15A942
:1027200014A813D3121F7D400AE47516DAF515F5C7
:1027300014F513E47F73FEFDFCAB12AA11A910A8D7
:102740000FD3121F7D4029E47F2DFEFDFCAB16AA9E
:1027500015A914A813D3121F7D4015E47F55FEFD63
:10276000FCA813121F7D5008E4F52DD2020229FBAC
:10277000E47F3CFEFDFCAB12AA11A910A80FC31206
:102780001F7D5028E47F5FFEFDFCAB16AA15A9143F
:10279000A813121F7D4015E47F87FEFDFCA81312CD
:1027A0001F7D5008752D01D2020229FBE47F46FEF1
:1027B000FDFCAB12AA11A910A80FD3121F7D403542
:1027C000E47F69FEFDFCA80F121F7D5028E47F5FA7
:1027D000FEFDFCAB16AA15A914A813121F7D401507
:1027E000E47F87FEFDFCA813121F7D5008752D02A3
:1027F000D2020229FBE47F73FEFDFCAB12AA11A9F1
:1028000010A80FD3121F7D4029E47F5FFEFDFCABB3
:1028100016AA15A914A813D3121F7D4015E47F87AB
:10282000FEFDFCA813121F7D5008752D03D2020275
:1028300029FBE47F3CFEFDFCAB12AA11A910A80FF6
:10284000C3121F7D5028E47F91FEFDFCAB16AA1534
:10285000A914A813121F7D4015E47FA5FEFDFCA856
:1028600013121F7D5008752D04D2020229FBE47F4C
:1028700046FEFDFCAB12AA11A910A80FD3121F7DB2
:102880004035E47F69FEFDFCA80F121F7D5028E44F
:102890007F91FEFDFCAB16AA15A914A813121F7D8B
:1028A0004015E47FA5FEFDFCA813121F7D5008759E
:1028B0002D05D2020229FBE47F73FEFDFCAB12AAB8
:1028C00011A910A80FD3121F7D4029E47F91FEFDAE
:1028D000FCAB16AA15A914A813D3121F7D4015E44A
:1028E0007FA5FEFDFCA813121F7D5008752D06D292
:1028F000020229FBE47F3CFEFDFCAB12AA11A910E9
:10290000A80FC3121F7D5044E47FAFFEFDFCAB1641
:10291000AA15A914A813121F7D40067F01C00780C5
:10292000047F00C007E47FCDFEFDFCAB16AA15A90D
:1029300014A813C3121F7D50047E0180027E00D0B4
:10294000E05E6008752D07D2020229FBE47F46FE97
:10295000FDFCAB12AA11A910A80FD3121F7D4034A1
:10296000E47F69FEFDFCA80F121F7D5027E47FAFB6
:10297000FEFDFCAB16AA15A914A813121F7D401466
:10298000E47FCDFEFDFCA813121F7D5007752D08B6
:10299000D2028067E47F73FEFDFCAB12AA11A9107E
:1029A000A80FD3121F7D4028E47FAFFEFDFCAB16BD
:1029B000AA15A914A813D3121F7D4014E47FCDFEDD
:1029C000FDFCA813121F7D5007752D09D202802B24
:1029D000E47F37FEFDFCAB12AA11A910A80FC312A9
:1029E0001F7D5017E47F18FEFDFCAB16AA15A91435
:1029F000A813C3121F7D5003022A89200203022656
:102A00007FC202052CE52CB40103852D29E52CB4E9
:102A1000020AE52975F00AA4252DF529E52CB40351
:102A200006752C01852D29E528700CE529D394170E
:102A30004005752917800AE529D3943B4003752981
:102A40003BE52975F00A842430FB852A33852B3435
:102A5000E4F535F5367D3AFC7F31FE12416DE5290E
:102A600075F00A84E5F02430FB852A33852B34E4A5
:102A7000F535F5367D3AFC7F3DFE12416DC2027F91
:102A8000287E0012465002267FE4FFFE12447BAFF0
:012A9000291C
:012A91002222
:1020610078257C007D007B007A0079217E007F034A
:10207100121E29123D66BF01FAE485181285171157
:10208100F510F50FE51224D0FFE51134FEFEE51041
:1020910034FFFDE50F34FFFCE47BAFFAF9F8121FC2
:1020A10020E47B5E7A0DF9F81243F88F128E118DC0
:1020B100108C0FE4851A16851915F514F5132516DC
:1020C100FFE51534FFFEE51434FFFDE51334FFFC95
:1020D100E47BDBFAF9F8121F20E47B707A0DF9F842
:1020E1001243F88F168E158D148C13E47FAEFEFD0E
:1020F100FCAB12AA11A910A80FD3121F7D400AE44C
:102101007512AEF511F510F50FE47FDAFEFDFCABAB
:1021110016AA15A914A813D3121F7D400AE4751637
:10212100DAF515F514F513E47F64FEFDFCAB16AA90
:1021310015A914A813D3121F7D500302221EE47F98
:102141008CFEFDFCA813121F7D400302221EE47FBA
:102151003CFEFDFCAB12AA11A910A80FC3121F7DF2
:1021610050357B007AF8AD25E4FF1226088F24E56F
:1021710024C394185003852425300106785C7C0023
:10218100800478607C007D007B007A0079257E00E8
:102191007F03121E29807CE47F73FEFDFCAB12AA33
:1021A10011A910A80FC3121F7D50357BE07A07AD2E
:1021B100267F011226088F24E524C3943C50038511
:1021C1002426300106785C7C00800478607C007DE8
:1021D100007B007A0079257E007F03121E2980335F
:1021E1007BE07AFFAD277F021226088F24E524C306
:1021F100943C5003852427300106785C7C008004E0
:1022010078607C007D007B007A0079257E007F0369
:10221100121E29A2019202122A920225F1E47F5A8A
:10222100FEFDFCAB16AA15A914A813C3121F7D400D
:10223100030223AEE47F37FEFDFCA813121F7D507D
:10224100030223AEE47F1EFEFDFCAB12AA11A9100E
:10225100A80F121F7D502AE525940D4008E525940D
:102261001450028007E525D39413400CE52575F041
:102271000A8485F025022404740A2525F525022403
:1022810004E47F3CFEFDFCAB12AA11A910A80FC308
:10229100121F7D5010E525B4170675251402245A26
:1022A100052502245AE47F55FEFDFCAB12AA11A9B3
:1022B10010A80FC3121F7D5033E5269431400BE562
:1022C1002675F00A8485F0268006740A2526F526EF
:1022D100E52675F00A842430FB752D07752EE0E4A0
:1022E100F52FF5307D64FC7F45022592E47F73FE76
:1022F100FDFCAB12AA11A910A80FC3121F7D503308
:10230100E52675F00A84AFF0BF0908C3E5269FF5FD
:102311002680020526E52675F00A84E5F02430FBC7
:10232100752D07752EE0E4F52FF5307D64FC7F5A9D
:10233100022592E47F93FEFDFCAB12AA11A910A81D
:102341000FC3121F7D5033E5279431400BE52775EC
:10235100F00A8485F0278006740A2527F527E527EA
:1023610075F00A842430FB752DFF752EE0E4F52FFE
:10237100F5307D64FC7F81022592E52775F00A84A2
:10238100AFF0BF0908C3E5279FF52780020527E5C0
:102391002775F00A84E5F02430FB752DFF752EE0DA
:1023A100E4F52FF5307D64FC7F96022592E47FB938
:1023B100FEFDFCAB16AA15A914A813C3121F7D407C
:1023C10003022598E47F9BFEFDFCA813121F7D509C
:1023D10003022598E47F1EFEFDFCAB12AA11A91091
:1023E100A80F121F7D5038E525C3940450047414BE
:1023F100800DE525C3940A5004740A800274F62501
:1024010025F525E52575F00A842430FB752DF87531
:102411002E00E4F52FF5307D64FC7F09022592E45E
:102421007F3CFEFDFCAB12AA11A910A80FC3121F1D
:102431007D5044E525B41405752517801CE52575E7
:10244100F00A84E5F07010E52575F00A8475F00A4C
:10245100A42409F52580021525E52575F00A84E5F2
:10246100F02430FB752DF8752E00E4F52FF5307D45
:1024710064FC7F1E022592E47F55FEFDFCAB12AA8F
:1024810011A910A80FC3121F7D5037E526C3940A66
:10249100500EE52675F00A84E5F02432F526800613
:1024A10074F62526F526E52675F00A842430FB7599
:1024B1002D07752EE0E4F52FF5307D64FC7F460293
:1024C1002592E47F78FEFDFCAB12AA11A910A80F9A
:1024D100C3121F7D503AE52675F00A84E5F07010AD
:1024E100E52675F00A8475F00AA42409F526800210
:1024F1001526E52675F00A84E5F02430FB752D07D5
:10250100752EE0E4F52FF5307D64FC7F5A022592AB
:10251100E47F9CFEFDFCAB12AA11A910A80FC31207
:102521001F7D5036E527C3940A500EE52775F00A42
:1025310084E5F02432F527800674F62527F527E592
:102541002775F00A842430FB752DFF752EE0E4F524
:102551002FF5307D64FC7F828037E52775F00A8492
:10256100E5F07010E52775F00A8475F00AA42409D6
:10257100F52780021527E52775F00A84E5F0243058
:10258100FB752DFF752EE0E4F52FF5307D64FC7FA2
:1025910096FE1241DD8059E47F37FEFDFCAB12AAA5
:1025A10011A910A80FC3121F7D5016E47F18FEFD5C
:1025B100FCAB16AA15A914A813C3121F7D500280E3
:1025C10039E47F73FEFDFCAB12AA11A910A80FD349
:1025D100121F7D401BE47F18FEFDFCAB16AA15A956
:1025E10014A813121F7D5008200105755B01800A94
:1025F1007F147E00124650022074E4FFFE12447BD9
:062601007B007A00792540
:0126070022B0
:0B000E00C2A1D2A3D2A2D2A1C2A322A1
:1046E300C2A1E4FEEFC4131313540124FF92A2EFFB
:0B46F30025E0FFC2A1D2A10EBE08E925
:0146FE002299
:1045A700E4FFFEC2A1FDFCEF25E0FFEE33FED2A142
:1045B700C2A1A2A0E43342070DBD00010CED640CBB
:0345C7004C70E451
:0145CA0022CE
:023B9E00AB0773
:103BA000C2A1C2A3E4FAAF031246E3753806D538C2
:103BB000FDD2A10000C2A100001245A7EA25E02421
:103BC00039F8A60608A6070ABA0ADBD2A3E4FAEA7D
:103BD00004F538E538C3940A5059E53825E024390E
:103BE000F8E6FE08E6FFEA25E02439F8E6FC08E6F8
:103BF000C39FEC9E5039EA25E02439F8E6FE08E63A
:103C0000FFE48F508E4FF54EF54DE53825E0243911
:103C1000F8E6FE08E6FFEA25E02439F8A60608A63D
:103C200007AF50E53825E02439F8A64F08A6070568
:103C30003880A00AEA64097096E4F550F54FF54E15
:103C4000F54D7A02EA25E02439F8E6FE08E6FFE4BD
:103C5000FCFDE5502FF550E54F3EF54FED354EF5A7
:103C60004EEC354DF54D0ABA08DAAF50AE4FAD4EB9
:103C7000AC4DE47B06FAF9F81243F88F508E4F8D65
:033C80004E8C4D1A
:013C8300221E
:103D660012000E7FD0123B9E8E2E8F2F7F90123B1D
:103D76009E8E348F357FD0123B9E8E308F317F9052
:103D8600123B9EAD07AC06D3E52F9531E52E953057
:103D9600400EE52F9531F533E52E9530F532800D41
:103DA600C3E531952FF533E530952EF532D3E5355C
:103DB6009DE5349C400CE5359DF537E5349CF5369C
:103DC600800BC3ED9535F537EC9534F536D3E533F1
:103DD6009432E5329400500AE5379432E536940081
:103DE60040037F0022E52F2531FFE52E3530C31332
:103DF600F517EF13F518E5352DFFE5343CC313F53C
:103E060019EF13F51A5318F0531AF0C3E518946412
:103E1600E5179400400BD3E51A94A0E519940F40DA
:063E2600037F00227F0172
:013E2C002273
:101A9C00021D44E86480F8E933E83360110460F017
:101AAC00ED33EC337009E8FCE9FDEAFEEBFF2204B0
:101ABC0060DED3EB9FEA9EE99DE8C2E78CF0C2F7AB
:101ACC0095F0400CE8CCF8E9CDF9EACEFAEBCFFB77
:101ADC00121D0F85D0F05804700320D5B3E80470A4
:101AEC00075002B2D5021D4E92D5EC0460F7E4CC3F
:101AFC00C0E0C398F8603B94186008400DD0E0FB40
:101B0C00021D26E4FBFAC9FC8028E830E406E4C98F
:101B1C00FBE4CAFCE830E305E4C9CACBFCE8540793
:101B2C006010F8C3E913F9EA13FAEB13FBEC13FC9E
:101B3C00D8F130F52FC3E49CFCEF9BFFEE9AFEED41
:101B4C0099FDD0E0FBEF4E4D4C701222DB03021DD1
:101B5C004BEC2CFCEF33FFEE33FEED33FDED30E7B9
:101B6C00EB021D26EF2BFFEE3AFEED39FDD0E0FB2C
:101B7C0050130BBB0003021D4EED13FDEE13FEEFD5
:081B8C0013FFEC13FC021D26FF
:101B9400EC4D6011E8497017ED33EC3304600DE44B
:101BA400FCFFFEFD22E933E8330470F8021D441201
:101BB4001D0F58046009E4CC248150062850090202
:101BC4001D4E284003021D4BC0E0EB4A7044B9800F
:101BD40006D0E0FB021D3AEF4E701CBD8008EBFFFF
:101BE400EAFEE9FD80EBE98DF0A4FEE5F0021C7D40
:101BF400E9CDF9EAFEEBFFEF89F0A4FCE5F0CE892C
:101C0400F0A42EFFE435F0CD89F0A42DFEE435F0E8
:101C14008067EF4E7005BD80D780C3EF8BF0A4AC16
:101C2400F0EE8BF0A42CFCE435F0F8EF8AF0A42C51
:101C3400E5F038FCE433CB8DF0A42CFCE5F03BF864
:101C4400EE8AF0A42CFCE5F038F8E433CF89F0A454
:101C54002CFCE5F038CF3400CE89F0A42FFFE5F05A
:101C64003EFEE433C98DF0A42EFEE5F039CD8AF0B2
:101C7400A42FFFE5F03EFEE43DFD33D0E0FB50072A
:101C84000BBB000F021D4EEC2CFCEF33FFEE33FEBA
:061C9400ED33FD021D26E8
:101C9A0075F020800E75F010800575F0087D007EC5
:101CAA00007F003392D530D503121F6FEC334010FA
:101CBA00EF33FFEE33FEED33FDEC33FCD5F0ED22CE
:0E1CCA00E5F0247EA2D513CC92E7CDCEFF220A
:101CD800EDD2E7CD33EC3392D524814006E4FFFE04
:101CE800FDFC22FCE4CFCECDCC24E0501174FF8063
:101CF800EDC3CC13CCCD13CDCE13CECF13CF047000
:071D0800F030D5DE021F6F71
:101D0F00E9D2E7C933E833F892D5EDD2E7CD33EC1A
:071D1F0033FC5002B2D52293
:101D2600EC30E7100FBF000C0EBE00080DBD00041E
:101D36000BEB6014A2D5EB13FCED92E7FD2274FFCA
:101D4600FCFDFEFF22E480F8A2D574FF13FC7D8023
:031D5600E480EF37
:1040ED00023A78E493A3F8E493A34003F68001F237
:1040FD0008DFF48029E493A3F85407240CC8C333D4
:10410D00C4540F4420C8834004F456800146F6DFA2
:10411D00E4800B01020408102040809045EEE47EFF
:10412D00019360BCA3FF543F30E509541FFEE49397
:10413D00A360010ECF54C025E060A840B8E493A35E
:10414D00FAE493A3F8E493A3C8C582C8CAC583CA89
:10415D00F0A3C8C582C8CAC583CADFE9DEE780BE41
:01460F0000AA
:101D5900E709F608DFFA8046E709F208DFFA803E6C
:101D690088828C83E709F0A3DFFA8032E309F60859
:101D7900DFFA8078E309F208DFFA807088828C83C1
:101D8900E309F0A3DFFA806489828A83E0A3F60875
:101D9900DFFA805889828A83E0A3F208DFFA804C4F
:101DA90080D280FA80C680D4806980F28033801026
:101DB90080A680EA809A80A880DA80E280CA80338F
:101DC90089828A83ECFAE493A3C8C582C8CCC58307
:101DD900CCF0A3C8C582C8CCC583CCDFE9DEE780D7
:101DE9000D89828A83E493A3F608DFF9ECFAA9F056
:101DF900EDFB2289828A83ECFAE0A3C8C582C8CCAC
:101E0900C583CCF0A3C8C582C8CCC583CCDFEADEC4
:101E1900E880DB89828A83E493A3F208DFF980CC26
:101E290088F0EF60010E4E60C388F0ED2402B4041F
:101E39000050B9F582EB2402B4040050AF232345C6
:061E49008223901DA97325
:101E4F00BB010689828A83E0225002E722BBFE0291
:091E5F00E32289828A83E49322C4
:101E6800BB010CE58229F582E5833AF583E022502F
:101E780006E92582F8E622BBFE06E92582F8E22279
:0D1E8800E58229F582E5833AF583E4932293
:101E9500BC000BBE0029EF8DF084FFADF022E4CC31
:101EA500F875F008EF2FFFEE33FEEC33FCEE9DECFA
:101EB500984005FCEE9DFE0FD5F0E9E4CEFD22ED40
:101EC500F8F5F0EE8420D21CFEADF075F008EF2F8A
:101ED500FFED33FD4007985006D5F0F222C398FD7B
:051EE5000FD5F0EA2218
:101EEA00C2D5EC30E709B2D5E4C39DFDE49CFCEE13
:101EFA0030E715B2D5E4C39FFFE49EFE121E95C3D8
:101F0A00E49DFDE49CFC8003121E9530D507C3E4D2
:061F1A009FFFE49EFE2281
:101F2000E88FF0A4CC8BF0A42CFCE98EF0A42CFC60
:101F30008AF0EDA42CFCEA8EF0A4CDA8F08BF0A4DE
:101F40002DCC3825F0FDE98FF0A42CCD35F0FCEB3D
:101F50008EF0A4FEA9F0EB8FF0A4CFC5F02ECD3902
:0F1F6000FEE43CFCEAA42DCE35F0FDE43CFC226F
:1043F800C2D5E830E70FB2D5E4C39BFBE49AFAE4F0
:1044080099F9E498F8EC30E717B2D512442E121F48
:10441800CFE4C39BFBE49AFAE499F9E498F88003A3
:10442800121FCF30D50DE4C39FFFE49EFEE49DFD2F
:04443800E49CFC22E2
:0E1F6F00C3E49FFFE49EFEE49DFDE49CFC2283
:101F7D00EB9FF5F0EA9E42F0E99D42F0EC6480C8DB
:061F8D0064809845F0227B
:101F930075F008758200EF2FFFEE33FECD33CDCC05
:101FA30033CCC58233C5829BED9AEC99E582984088
:101FB3000CF582EE9BFEED9AFDEC99FC0FD5F0D665
:101FC300E4CEFBE4CDFAE4CCF9A88222B800C1B98F
:101FD3000059BA002DEC8BF084CFCECDFCE5F0CBCD
:101FE300F97818EF2FFFEE33FEED33FDEC33FCEB06
:101FF30033FB10D703994004EB99FB0FD8E5E4F9C1
:10200300FA227818EF2FFFEE33FEED33FDEC33FCAD
:10201300C933C910D7059BE99A4007EC9BFCE99AA1
:10202300F90FD8E0E4C9FAE4CCFB2275F010EF2FE6
:10203300FFEE33FEED33FDCC33CCC833C810D707E6
:102043009BEC9AE899400AED9BFDEC9AFCE899F821
:0E2053000FD5F0DAE4CDFBE4CCFAE4C8F922B4
:00000001FF
